{
	"ERC20Standard.sol": {
		"Ownable": {
			"abi": [
				{
					"inputs": [],
					"stateMutability": "nonpayable",
					"type": "constructor"
				},
				{
					"anonymous": false,
					"inputs": [
						{
							"indexed": true,
							"internalType": "address",
							"name": "previousOwner",
							"type": "address"
						},
						{
							"indexed": true,
							"internalType": "address",
							"name": "newOwner",
							"type": "address"
						}
					],
					"name": "OwnershipTransferred",
					"type": "event"
				},
				{
					"inputs": [],
					"name": "owner",
					"outputs": [
						{
							"internalType": "address",
							"name": "",
							"type": "address"
						}
					],
					"stateMutability": "view",
					"type": "function"
				},
				{
					"inputs": [],
					"name": "renounceOwnership",
					"outputs": [],
					"stateMutability": "nonpayable",
					"type": "function"
				}
			],
			"devdoc": {
				"kind": "dev",
				"methods": {},
				"version": 1
			},
			"evm": {
				"assembly": "    /* \"ERC20Standard.sol\":1929:2626  contract Ownable is Context {... */\n  mstore(0x40, 0x80)\n    /* \"ERC20Standard.sol\":2117:2267  constructor () {... */\n  callvalue\n  dup1\n  iszero\n  tag_1\n  jumpi\n  0x00\n  dup1\n  revert\ntag_1:\n  pop\n    /* \"ERC20Standard.sol\":2142:2159  address msgSender */\n  0x00\n    /* \"ERC20Standard.sol\":2162:2174  _msgSender() */\n  tag_4\n    /* \"ERC20Standard.sol\":2162:2172  _msgSender */\n  shl(0x20, tag_5)\n    /* \"ERC20Standard.sol\":2162:2174  _msgSender() */\n  0x20\n  shr\n  jump\t// in\ntag_4:\n    /* \"ERC20Standard.sol\":2142:2174  address msgSender = _msgSender() */\n  swap1\n  pop\n    /* \"ERC20Standard.sol\":2193:2202  msgSender */\n  dup1\n    /* \"ERC20Standard.sol\":2184:2190  _owner */\n  0x00\n  dup1\n    /* \"ERC20Standard.sol\":2184:2202  _owner = msgSender */\n  0x0100\n  exp\n  dup2\n  sload\n  dup2\n  0xffffffffffffffffffffffffffffffffffffffff\n  mul\n  not\n  and\n  swap1\n  dup4\n  0xffffffffffffffffffffffffffffffffffffffff\n  and\n  mul\n  or\n  swap1\n  sstore\n  pop\n    /* \"ERC20Standard.sol\":2250:2259  msgSender */\n  dup1\n    /* \"ERC20Standard.sol\":2217:2260  OwnershipTransferred(address(0), msgSender) */\n  0xffffffffffffffffffffffffffffffffffffffff\n  and\n    /* \"ERC20Standard.sol\":2246:2247  0 */\n  0x00\n    /* \"ERC20Standard.sol\":2217:2260  OwnershipTransferred(address(0), msgSender) */\n  0xffffffffffffffffffffffffffffffffffffffff\n  and\n  0x8be0079c531659141344cd1fd0a4f28419497f9722a3daafe3b4186f6b6457e0\n  mload(0x40)\n  mload(0x40)\n  dup1\n  swap2\n  sub\n  swap1\n  log3\n    /* \"ERC20Standard.sol\":2132:2267  {... */\n  pop\n    /* \"ERC20Standard.sol\":1929:2626  contract Ownable is Context {... */\n  jump(tag_6)\n    /* \"ERC20Standard.sol\":56:152  function _msgSender() internal view virtual returns (address) {... */\ntag_5:\n    /* \"ERC20Standard.sol\":109:116  address */\n  0x00\n    /* \"ERC20Standard.sol\":135:145  msg.sender */\n  caller\n    /* \"ERC20Standard.sol\":128:145  return msg.sender */\n  swap1\n  pop\n    /* \"ERC20Standard.sol\":56:152  function _msgSender() internal view virtual returns (address) {... */\n  swap1\n  jump\t// out\n    /* \"ERC20Standard.sol\":1929:2626  contract Ownable is Context {... */\ntag_6:\n  dataSize(sub_0)\n  dup1\n  dataOffset(sub_0)\n  0x00\n  codecopy\n  0x00\n  return\nstop\n\nsub_0: assembly {\n        /* \"ERC20Standard.sol\":1929:2626  contract Ownable is Context {... */\n      mstore(0x40, 0x80)\n      callvalue\n      dup1\n      iszero\n      tag_1\n      jumpi\n      0x00\n      dup1\n      revert\n    tag_1:\n      pop\n      jumpi(tag_2, lt(calldatasize, 0x04))\n      shr(0xe0, calldataload(0x00))\n      dup1\n      0x715018a6\n      eq\n      tag_3\n      jumpi\n      dup1\n      0x8da5cb5b\n      eq\n      tag_4\n      jumpi\n    tag_2:\n      0x00\n      dup1\n      revert\n        /* \"ERC20Standard.sol\":2478:2623  function renounceOwnership() public virtual onlyOwner {... */\n    tag_3:\n      tag_5\n      tag_6\n      jump\t// in\n    tag_5:\n      stop\n        /* \"ERC20Standard.sol\":2273:2350  function owner() public view returns (address) {... */\n    tag_4:\n      tag_7\n      tag_8\n      jump\t// in\n    tag_7:\n      mload(0x40)\n      tag_9\n      swap2\n      swap1\n      tag_10\n      jump\t// in\n    tag_9:\n      mload(0x40)\n      dup1\n      swap2\n      sub\n      swap1\n      return\n        /* \"ERC20Standard.sol\":2478:2623  function renounceOwnership() public virtual onlyOwner {... */\n    tag_6:\n        /* \"ERC20Standard.sol\":2405:2417  _msgSender() */\n      tag_12\n        /* \"ERC20Standard.sol\":2405:2415  _msgSender */\n      tag_13\n        /* \"ERC20Standard.sol\":2405:2417  _msgSender() */\n      jump\t// in\n    tag_12:\n        /* \"ERC20Standard.sol\":2395:2417  _owner == _msgSender() */\n      0xffffffffffffffffffffffffffffffffffffffff\n      and\n        /* \"ERC20Standard.sol\":2395:2401  _owner */\n      0x00\n      dup1\n      sload\n      swap1\n      0x0100\n      exp\n      swap1\n      div\n      0xffffffffffffffffffffffffffffffffffffffff\n      and\n        /* \"ERC20Standard.sol\":2395:2417  _owner == _msgSender() */\n      0xffffffffffffffffffffffffffffffffffffffff\n      and\n      eq\n        /* \"ERC20Standard.sol\":2387:2454  require(_owner == _msgSender(), \"Ownable: caller is not the owner\") */\n      tag_14\n      jumpi\n      mload(0x40)\n      0x08c379a000000000000000000000000000000000000000000000000000000000\n      dup2\n      mstore\n      0x04\n      add\n      tag_15\n      swap1\n      tag_16\n      jump\t// in\n    tag_15:\n      mload(0x40)\n      dup1\n      swap2\n      sub\n      swap1\n      revert\n    tag_14:\n        /* \"ERC20Standard.sol\":2584:2585  0 */\n      0x00\n        /* \"ERC20Standard.sol\":2547:2587  OwnershipTransferred(_owner, address(0)) */\n      0xffffffffffffffffffffffffffffffffffffffff\n      and\n        /* \"ERC20Standard.sol\":2568:2574  _owner */\n      0x00\n      dup1\n      sload\n      swap1\n      0x0100\n      exp\n      swap1\n      div\n      0xffffffffffffffffffffffffffffffffffffffff\n      and\n        /* \"ERC20Standard.sol\":2547:2587  OwnershipTransferred(_owner, address(0)) */\n      0xffffffffffffffffffffffffffffffffffffffff\n      and\n      0x8be0079c531659141344cd1fd0a4f28419497f9722a3daafe3b4186f6b6457e0\n      mload(0x40)\n      mload(0x40)\n      dup1\n      swap2\n      sub\n      swap1\n      log3\n        /* \"ERC20Standard.sol\":2614:2615  0 */\n      0x00\n        /* \"ERC20Standard.sol\":2597:2603  _owner */\n      dup1\n      0x00\n        /* \"ERC20Standard.sol\":2597:2616  _owner = address(0) */\n      0x0100\n      exp\n      dup2\n      sload\n      dup2\n      0xffffffffffffffffffffffffffffffffffffffff\n      mul\n      not\n      and\n      swap1\n      dup4\n      0xffffffffffffffffffffffffffffffffffffffff\n      and\n      mul\n      or\n      swap1\n      sstore\n      pop\n        /* \"ERC20Standard.sol\":2478:2623  function renounceOwnership() public virtual onlyOwner {... */\n      jump\t// out\n        /* \"ERC20Standard.sol\":2273:2350  function owner() public view returns (address) {... */\n    tag_8:\n        /* \"ERC20Standard.sol\":2311:2318  address */\n      0x00\n        /* \"ERC20Standard.sol\":2337:2343  _owner */\n      dup1\n      0x00\n      swap1\n      sload\n      swap1\n      0x0100\n      exp\n      swap1\n      div\n      0xffffffffffffffffffffffffffffffffffffffff\n      and\n        /* \"ERC20Standard.sol\":2330:2343  return _owner */\n      swap1\n      pop\n        /* \"ERC20Standard.sol\":2273:2350  function owner() public view returns (address) {... */\n      swap1\n      jump\t// out\n        /* \"ERC20Standard.sol\":56:152  function _msgSender() internal view virtual returns (address) {... */\n    tag_13:\n        /* \"ERC20Standard.sol\":109:116  address */\n      0x00\n        /* \"ERC20Standard.sol\":135:145  msg.sender */\n      caller\n        /* \"ERC20Standard.sol\":128:145  return msg.sender */\n      swap1\n      pop\n        /* \"ERC20Standard.sol\":56:152  function _msgSender() internal view virtual returns (address) {... */\n      swap1\n      jump\t// out\n        /* \"#utility.yul\":7:125   */\n    tag_21:\n        /* \"#utility.yul\":94:118   */\n      tag_23\n        /* \"#utility.yul\":112:117   */\n      dup2\n        /* \"#utility.yul\":94:118   */\n      tag_24\n      jump\t// in\n    tag_23:\n        /* \"#utility.yul\":89:92   */\n      dup3\n        /* \"#utility.yul\":82:119   */\n      mstore\n        /* \"#utility.yul\":7:125   */\n      pop\n      pop\n      jump\t// out\n        /* \"#utility.yul\":131:497   */\n    tag_25:\n        /* \"#utility.yul\":273:276   */\n      0x00\n        /* \"#utility.yul\":294:361   */\n      tag_27\n        /* \"#utility.yul\":358:360   */\n      0x20\n        /* \"#utility.yul\":353:356   */\n      dup4\n        /* \"#utility.yul\":294:361   */\n      tag_28\n      jump\t// in\n    tag_27:\n        /* \"#utility.yul\":287:361   */\n      swap2\n      pop\n        /* \"#utility.yul\":370:463   */\n      tag_29\n        /* \"#utility.yul\":459:462   */\n      dup3\n        /* \"#utility.yul\":370:463   */\n      tag_30\n      jump\t// in\n    tag_29:\n        /* \"#utility.yul\":488:490   */\n      0x20\n        /* \"#utility.yul\":483:486   */\n      dup3\n        /* \"#utility.yul\":479:491   */\n      add\n        /* \"#utility.yul\":472:491   */\n      swap1\n      pop\n        /* \"#utility.yul\":131:497   */\n      swap2\n      swap1\n      pop\n      jump\t// out\n        /* \"#utility.yul\":503:725   */\n    tag_10:\n        /* \"#utility.yul\":596:600   */\n      0x00\n        /* \"#utility.yul\":634:636   */\n      0x20\n        /* \"#utility.yul\":623:632   */\n      dup3\n        /* \"#utility.yul\":619:637   */\n      add\n        /* \"#utility.yul\":611:637   */\n      swap1\n      pop\n        /* \"#utility.yul\":647:718   */\n      tag_32\n        /* \"#utility.yul\":715:716   */\n      0x00\n        /* \"#utility.yul\":704:713   */\n      dup4\n        /* \"#utility.yul\":700:717   */\n      add\n        /* \"#utility.yul\":691:697   */\n      dup5\n        /* \"#utility.yul\":647:718   */\n      tag_21\n      jump\t// in\n    tag_32:\n        /* \"#utility.yul\":503:725   */\n      swap3\n      swap2\n      pop\n      pop\n      jump\t// out\n        /* \"#utility.yul\":731:1150   */\n    tag_16:\n        /* \"#utility.yul\":897:901   */\n      0x00\n        /* \"#utility.yul\":935:937   */\n      0x20\n        /* \"#utility.yul\":924:933   */\n      dup3\n        /* \"#utility.yul\":920:938   */\n      add\n        /* \"#utility.yul\":912:938   */\n      swap1\n      pop\n        /* \"#utility.yul\":984:993   */\n      dup2\n        /* \"#utility.yul\":978:982   */\n      dup2\n        /* \"#utility.yul\":974:994   */\n      sub\n        /* \"#utility.yul\":970:971   */\n      0x00\n        /* \"#utility.yul\":959:968   */\n      dup4\n        /* \"#utility.yul\":955:972   */\n      add\n        /* \"#utility.yul\":948:995   */\n      mstore\n        /* \"#utility.yul\":1012:1143   */\n      tag_34\n        /* \"#utility.yul\":1138:1142   */\n      dup2\n        /* \"#utility.yul\":1012:1143   */\n      tag_25\n      jump\t// in\n    tag_34:\n        /* \"#utility.yul\":1004:1143   */\n      swap1\n      pop\n        /* \"#utility.yul\":731:1150   */\n      swap2\n      swap1\n      pop\n      jump\t// out\n        /* \"#utility.yul\":1156:1325   */\n    tag_28:\n        /* \"#utility.yul\":1240:1251   */\n      0x00\n        /* \"#utility.yul\":1274:1280   */\n      dup3\n        /* \"#utility.yul\":1269:1272   */\n      dup3\n        /* \"#utility.yul\":1262:1281   */\n      mstore\n        /* \"#utility.yul\":1314:1318   */\n      0x20\n        /* \"#utility.yul\":1309:1312   */\n      dup3\n        /* \"#utility.yul\":1305:1319   */\n      add\n        /* \"#utility.yul\":1290:1319   */\n      swap1\n      pop\n        /* \"#utility.yul\":1156:1325   */\n      swap3\n      swap2\n      pop\n      pop\n      jump\t// out\n        /* \"#utility.yul\":1331:1427   */\n    tag_24:\n        /* \"#utility.yul\":1368:1375   */\n      0x00\n        /* \"#utility.yul\":1397:1421   */\n      tag_37\n        /* \"#utility.yul\":1415:1420   */\n      dup3\n        /* \"#utility.yul\":1397:1421   */\n      tag_38\n      jump\t// in\n    tag_37:\n        /* \"#utility.yul\":1386:1421   */\n      swap1\n      pop\n        /* \"#utility.yul\":1331:1427   */\n      swap2\n      swap1\n      pop\n      jump\t// out\n        /* \"#utility.yul\":1433:1559   */\n    tag_38:\n        /* \"#utility.yul\":1470:1477   */\n      0x00\n        /* \"#utility.yul\":1510:1552   */\n      0xffffffffffffffffffffffffffffffffffffffff\n        /* \"#utility.yul\":1503:1508   */\n      dup3\n        /* \"#utility.yul\":1499:1553   */\n      and\n        /* \"#utility.yul\":1488:1553   */\n      swap1\n      pop\n        /* \"#utility.yul\":1433:1559   */\n      swap2\n      swap1\n      pop\n      jump\t// out\n        /* \"#utility.yul\":1565:1747   */\n    tag_30:\n        /* \"#utility.yul\":1705:1739   */\n      0x4f776e61626c653a2063616c6c6572206973206e6f7420746865206f776e6572\n        /* \"#utility.yul\":1701:1702   */\n      0x00\n        /* \"#utility.yul\":1693:1699   */\n      dup3\n        /* \"#utility.yul\":1689:1703   */\n      add\n        /* \"#utility.yul\":1682:1740   */\n      mstore\n        /* \"#utility.yul\":1565:1747   */\n      pop\n      jump\t// out\n\n    auxdata: 0xa26469706673582212206d39af9334b57b6dfb54f3ec7c22ea24e30ea2dc2ce56deecf7c334a3c94838b64736f6c63430008070033\n}\n",
				"bytecode": {
					"linkReferences": {},
					"object": "608060405234801561001057600080fd5b5060006100216100c460201b60201c565b9050806000806101000a81548173ffffffffffffffffffffffffffffffffffffffff021916908373ffffffffffffffffffffffffffffffffffffffff1602179055508073ffffffffffffffffffffffffffffffffffffffff16600073ffffffffffffffffffffffffffffffffffffffff167f8be0079c531659141344cd1fd0a4f28419497f9722a3daafe3b4186f6b6457e060405160405180910390a3506100cc565b600033905090565b6102f6806100db6000396000f3fe608060405234801561001057600080fd5b50600436106100365760003560e01c8063715018a61461003b5780638da5cb5b14610045575b600080fd5b610043610063565b005b61004d6101b6565b60405161005a9190610219565b60405180910390f35b61006b6101df565b73ffffffffffffffffffffffffffffffffffffffff1660008054906101000a900473ffffffffffffffffffffffffffffffffffffffff1673ffffffffffffffffffffffffffffffffffffffff16146100f8576040517f08c379a00000000000000000000000000000000000000000000000000000000081526004016100ef90610234565b60405180910390fd5b600073ffffffffffffffffffffffffffffffffffffffff1660008054906101000a900473ffffffffffffffffffffffffffffffffffffffff1673ffffffffffffffffffffffffffffffffffffffff167f8be0079c531659141344cd1fd0a4f28419497f9722a3daafe3b4186f6b6457e060405160405180910390a360008060006101000a81548173ffffffffffffffffffffffffffffffffffffffff021916908373ffffffffffffffffffffffffffffffffffffffff160217905550565b60008060009054906101000a900473ffffffffffffffffffffffffffffffffffffffff16905090565b600033905090565b6101f081610265565b82525050565b6000610203602083610254565b915061020e82610297565b602082019050919050565b600060208201905061022e60008301846101e7565b92915050565b6000602082019050818103600083015261024d816101f6565b9050919050565b600082825260208201905092915050565b600061027082610277565b9050919050565b600073ffffffffffffffffffffffffffffffffffffffff82169050919050565b7f4f776e61626c653a2063616c6c6572206973206e6f7420746865206f776e657260008201525056fea26469706673582212206d39af9334b57b6dfb54f3ec7c22ea24e30ea2dc2ce56deecf7c334a3c94838b64736f6c63430008070033",
					"opcodes": "PUSH1 0x80 PUSH1 0x40 MSTORE CALLVALUE DUP1 ISZERO PUSH2 0x10 JUMPI PUSH1 0x0 DUP1 REVERT JUMPDEST POP PUSH1 0x0 PUSH2 0x21 PUSH2 0xC4 PUSH1 0x20 SHL PUSH1 0x20 SHR JUMP JUMPDEST SWAP1 POP DUP1 PUSH1 0x0 DUP1 PUSH2 0x100 EXP DUP2 SLOAD DUP2 PUSH20 0xFFFFFFFFFFFFFFFFFFFFFFFFFFFFFFFFFFFFFFFF MUL NOT AND SWAP1 DUP4 PUSH20 0xFFFFFFFFFFFFFFFFFFFFFFFFFFFFFFFFFFFFFFFF AND MUL OR SWAP1 SSTORE POP DUP1 PUSH20 0xFFFFFFFFFFFFFFFFFFFFFFFFFFFFFFFFFFFFFFFF AND PUSH1 0x0 PUSH20 0xFFFFFFFFFFFFFFFFFFFFFFFFFFFFFFFFFFFFFFFF AND PUSH32 0x8BE0079C531659141344CD1FD0A4F28419497F9722A3DAAFE3B4186F6B6457E0 PUSH1 0x40 MLOAD PUSH1 0x40 MLOAD DUP1 SWAP2 SUB SWAP1 LOG3 POP PUSH2 0xCC JUMP JUMPDEST PUSH1 0x0 CALLER SWAP1 POP SWAP1 JUMP JUMPDEST PUSH2 0x2F6 DUP1 PUSH2 0xDB PUSH1 0x0 CODECOPY PUSH1 0x0 RETURN INVALID PUSH1 0x80 PUSH1 0x40 MSTORE CALLVALUE DUP1 ISZERO PUSH2 0x10 JUMPI PUSH1 0x0 DUP1 REVERT JUMPDEST POP PUSH1 0x4 CALLDATASIZE LT PUSH2 0x36 JUMPI PUSH1 0x0 CALLDATALOAD PUSH1 0xE0 SHR DUP1 PUSH4 0x715018A6 EQ PUSH2 0x3B JUMPI DUP1 PUSH4 0x8DA5CB5B EQ PUSH2 0x45 JUMPI JUMPDEST PUSH1 0x0 DUP1 REVERT JUMPDEST PUSH2 0x43 PUSH2 0x63 JUMP JUMPDEST STOP JUMPDEST PUSH2 0x4D PUSH2 0x1B6 JUMP JUMPDEST PUSH1 0x40 MLOAD PUSH2 0x5A SWAP2 SWAP1 PUSH2 0x219 JUMP JUMPDEST PUSH1 0x40 MLOAD DUP1 SWAP2 SUB SWAP1 RETURN JUMPDEST PUSH2 0x6B PUSH2 0x1DF JUMP JUMPDEST PUSH20 0xFFFFFFFFFFFFFFFFFFFFFFFFFFFFFFFFFFFFFFFF AND PUSH1 0x0 DUP1 SLOAD SWAP1 PUSH2 0x100 EXP SWAP1 DIV PUSH20 0xFFFFFFFFFFFFFFFFFFFFFFFFFFFFFFFFFFFFFFFF AND PUSH20 0xFFFFFFFFFFFFFFFFFFFFFFFFFFFFFFFFFFFFFFFF AND EQ PUSH2 0xF8 JUMPI PUSH1 0x40 MLOAD PUSH32 0x8C379A000000000000000000000000000000000000000000000000000000000 DUP2 MSTORE PUSH1 0x4 ADD PUSH2 0xEF SWAP1 PUSH2 0x234 JUMP JUMPDEST PUSH1 0x40 MLOAD DUP1 SWAP2 SUB SWAP1 REVERT JUMPDEST PUSH1 0x0 PUSH20 0xFFFFFFFFFFFFFFFFFFFFFFFFFFFFFFFFFFFFFFFF AND PUSH1 0x0 DUP1 SLOAD SWAP1 PUSH2 0x100 EXP SWAP1 DIV PUSH20 0xFFFFFFFFFFFFFFFFFFFFFFFFFFFFFFFFFFFFFFFF AND PUSH20 0xFFFFFFFFFFFFFFFFFFFFFFFFFFFFFFFFFFFFFFFF AND PUSH32 0x8BE0079C531659141344CD1FD0A4F28419497F9722A3DAAFE3B4186F6B6457E0 PUSH1 0x40 MLOAD PUSH1 0x40 MLOAD DUP1 SWAP2 SUB SWAP1 LOG3 PUSH1 0x0 DUP1 PUSH1 0x0 PUSH2 0x100 EXP DUP2 SLOAD DUP2 PUSH20 0xFFFFFFFFFFFFFFFFFFFFFFFFFFFFFFFFFFFFFFFF MUL NOT AND SWAP1 DUP4 PUSH20 0xFFFFFFFFFFFFFFFFFFFFFFFFFFFFFFFFFFFFFFFF AND MUL OR SWAP1 SSTORE POP JUMP JUMPDEST PUSH1 0x0 DUP1 PUSH1 0x0 SWAP1 SLOAD SWAP1 PUSH2 0x100 EXP SWAP1 DIV PUSH20 0xFFFFFFFFFFFFFFFFFFFFFFFFFFFFFFFFFFFFFFFF AND SWAP1 POP SWAP1 JUMP JUMPDEST PUSH1 0x0 CALLER SWAP1 POP SWAP1 JUMP JUMPDEST PUSH2 0x1F0 DUP2 PUSH2 0x265 JUMP JUMPDEST DUP3 MSTORE POP POP JUMP JUMPDEST PUSH1 0x0 PUSH2 0x203 PUSH1 0x20 DUP4 PUSH2 0x254 JUMP JUMPDEST SWAP2 POP PUSH2 0x20E DUP3 PUSH2 0x297 JUMP JUMPDEST PUSH1 0x20 DUP3 ADD SWAP1 POP SWAP2 SWAP1 POP JUMP JUMPDEST PUSH1 0x0 PUSH1 0x20 DUP3 ADD SWAP1 POP PUSH2 0x22E PUSH1 0x0 DUP4 ADD DUP5 PUSH2 0x1E7 JUMP JUMPDEST SWAP3 SWAP2 POP POP JUMP JUMPDEST PUSH1 0x0 PUSH1 0x20 DUP3 ADD SWAP1 POP DUP2 DUP2 SUB PUSH1 0x0 DUP4 ADD MSTORE PUSH2 0x24D DUP2 PUSH2 0x1F6 JUMP JUMPDEST SWAP1 POP SWAP2 SWAP1 POP JUMP JUMPDEST PUSH1 0x0 DUP3 DUP3 MSTORE PUSH1 0x20 DUP3 ADD SWAP1 POP SWAP3 SWAP2 POP POP JUMP JUMPDEST PUSH1 0x0 PUSH2 0x270 DUP3 PUSH2 0x277 JUMP JUMPDEST SWAP1 POP SWAP2 SWAP1 POP JUMP JUMPDEST PUSH1 0x0 PUSH20 0xFFFFFFFFFFFFFFFFFFFFFFFFFFFFFFFFFFFFFFFF DUP3 AND SWAP1 POP SWAP2 SWAP1 POP JUMP JUMPDEST PUSH32 0x4F776E61626C653A2063616C6C6572206973206E6F7420746865206F776E6572 PUSH1 0x0 DUP3 ADD MSTORE POP JUMP INVALID LOG2 PUSH5 0x6970667358 0x22 SLT KECCAK256 PUSH14 0x39AF9334B57B6DFB54F3EC7C22EA 0x24 0xE3 0xE LOG2 0xDC 0x2C 0xE5 PUSH14 0xEECF7C334A3C94838B64736F6C63 NUMBER STOP ADDMOD SMOD STOP CALLER "
				},
				"gasEstimates": {
					"creation": {
						"codeDepositCost": "151600",
						"executionCost": "infinite",
						"totalCost": "infinite"
					},
					"external": {
						"owner()": "2522",
						"renounceOwnership()": "30269"
					}
				},
				"methodIdentifiers": {
					"owner()": "8da5cb5b",
					"renounceOwnership()": "715018a6"
				}
			},
			"storageLayout": {
				"storage": [
					{
						"astId": 228,
						"contract": "ERC20Standard.sol:Ownable",
						"label": "_owner",
						"offset": 0,
						"slot": "0",
						"type": "t_address"
					},
					{
						"astId": 230,
						"contract": "ERC20Standard.sol:Ownable",
						"label": "_previousOwner",
						"offset": 0,
						"slot": "1",
						"type": "t_address"
					}
				],
				"types": {
					"t_address": {
						"encoding": "inplace",
						"label": "address",
						"numberOfBytes": "20"
					}
				}
			},
			"userdoc": {
				"kind": "user",
				"methods": {},
				"version": 1
			}
		}
	}
}