{
	"ERC20Standard.sol": {
		"Labrador": {
			"abi": [
				{
					"inputs": [],
					"stateMutability": "nonpayable",
					"type": "constructor"
				},
				{
					"anonymous": false,
					"inputs": [
						{
							"indexed": true,
							"internalType": "address",
							"name": "owner",
							"type": "address"
						},
						{
							"indexed": true,
							"internalType": "address",
							"name": "spender",
							"type": "address"
						},
						{
							"indexed": false,
							"internalType": "uint256",
							"name": "value",
							"type": "uint256"
						}
					],
					"name": "Approval",
					"type": "event"
				},
				{
					"anonymous": false,
					"inputs": [
						{
							"indexed": false,
							"internalType": "uint256",
							"name": "_maxTxAmount",
							"type": "uint256"
						}
					],
					"name": "MaxTxAmountUpdated",
					"type": "event"
				},
				{
					"anonymous": false,
					"inputs": [
						{
							"indexed": true,
							"internalType": "address",
							"name": "previousOwner",
							"type": "address"
						},
						{
							"indexed": true,
							"internalType": "address",
							"name": "newOwner",
							"type": "address"
						}
					],
					"name": "OwnershipTransferred",
					"type": "event"
				},
				{
					"anonymous": false,
					"inputs": [
						{
							"indexed": true,
							"internalType": "address",
							"name": "from",
							"type": "address"
						},
						{
							"indexed": true,
							"internalType": "address",
							"name": "to",
							"type": "address"
						},
						{
							"indexed": false,
							"internalType": "uint256",
							"name": "value",
							"type": "uint256"
						}
					],
					"name": "Transfer",
					"type": "event"
				},
				{
					"inputs": [
						{
							"internalType": "address[]",
							"name": "bots_",
							"type": "address[]"
						}
					],
					"name": "addbot",
					"outputs": [],
					"stateMutability": "nonpayable",
					"type": "function"
				},
				{
					"inputs": [
						{
							"internalType": "address",
							"name": "owner",
							"type": "address"
						},
						{
							"internalType": "address",
							"name": "spender",
							"type": "address"
						}
					],
					"name": "allowance",
					"outputs": [
						{
							"internalType": "uint256",
							"name": "",
							"type": "uint256"
						}
					],
					"stateMutability": "view",
					"type": "function"
				},
				{
					"inputs": [
						{
							"internalType": "address",
							"name": "spender",
							"type": "address"
						},
						{
							"internalType": "uint256",
							"name": "amount",
							"type": "uint256"
						}
					],
					"name": "approve",
					"outputs": [
						{
							"internalType": "bool",
							"name": "",
							"type": "bool"
						}
					],
					"stateMutability": "nonpayable",
					"type": "function"
				},
				{
					"inputs": [
						{
							"internalType": "address",
							"name": "account",
							"type": "address"
						}
					],
					"name": "balanceOf",
					"outputs": [
						{
							"internalType": "uint256",
							"name": "",
							"type": "uint256"
						}
					],
					"stateMutability": "view",
					"type": "function"
				},
				{
					"inputs": [
						{
							"internalType": "uint256",
							"name": "percentage",
							"type": "uint256"
						}
					],
					"name": "changeMaxTxAmount",
					"outputs": [],
					"stateMutability": "nonpayable",
					"type": "function"
				},
				{
					"inputs": [
						{
							"internalType": "uint256",
							"name": "percentage",
							"type": "uint256"
						}
					],
					"name": "changeMaxWalletSize",
					"outputs": [],
					"stateMutability": "nonpayable",
					"type": "function"
				},
				{
					"inputs": [],
					"name": "decimals",
					"outputs": [
						{
							"internalType": "uint8",
							"name": "",
							"type": "uint8"
						}
					],
					"stateMutability": "pure",
					"type": "function"
				},
				{
					"inputs": [
						{
							"internalType": "address",
							"name": "notbot",
							"type": "address"
						}
					],
					"name": "delBot",
					"outputs": [],
					"stateMutability": "nonpayable",
					"type": "function"
				},
				{
					"inputs": [],
					"name": "manualsend",
					"outputs": [],
					"stateMutability": "nonpayable",
					"type": "function"
				},
				{
					"inputs": [],
					"name": "manualswap",
					"outputs": [],
					"stateMutability": "nonpayable",
					"type": "function"
				},
				{
					"inputs": [],
					"name": "name",
					"outputs": [
						{
							"internalType": "string",
							"name": "",
							"type": "string"
						}
					],
					"stateMutability": "pure",
					"type": "function"
				},
				{
					"inputs": [],
					"name": "openTrading",
					"outputs": [],
					"stateMutability": "nonpayable",
					"type": "function"
				},
				{
					"inputs": [],
					"name": "owner",
					"outputs": [
						{
							"internalType": "address",
							"name": "",
							"type": "address"
						}
					],
					"stateMutability": "view",
					"type": "function"
				},
				{
					"inputs": [],
					"name": "removeLimits",
					"outputs": [],
					"stateMutability": "nonpayable",
					"type": "function"
				},
				{
					"inputs": [],
					"name": "renounceOwnership",
					"outputs": [],
					"stateMutability": "nonpayable",
					"type": "function"
				},
				{
					"inputs": [
						{
							"internalType": "bool",
							"name": "onoff",
							"type": "bool"
						}
					],
					"name": "setCooldownEnabled",
					"outputs": [],
					"stateMutability": "nonpayable",
					"type": "function"
				},
				{
					"inputs": [],
					"name": "symbol",
					"outputs": [
						{
							"internalType": "string",
							"name": "",
							"type": "string"
						}
					],
					"stateMutability": "pure",
					"type": "function"
				},
				{
					"inputs": [],
					"name": "totalSupply",
					"outputs": [
						{
							"internalType": "uint256",
							"name": "",
							"type": "uint256"
						}
					],
					"stateMutability": "pure",
					"type": "function"
				},
				{
					"inputs": [
						{
							"internalType": "address",
							"name": "recipient",
							"type": "address"
						},
						{
							"internalType": "uint256",
							"name": "amount",
							"type": "uint256"
						}
					],
					"name": "transfer",
					"outputs": [
						{
							"internalType": "bool",
							"name": "",
							"type": "bool"
						}
					],
					"stateMutability": "nonpayable",
					"type": "function"
				},
				{
					"inputs": [
						{
							"internalType": "address",
							"name": "sender",
							"type": "address"
						},
						{
							"internalType": "address",
							"name": "recipient",
							"type": "address"
						},
						{
							"internalType": "uint256",
							"name": "amount",
							"type": "uint256"
						}
					],
					"name": "transferFrom",
					"outputs": [
						{
							"internalType": "bool",
							"name": "",
							"type": "bool"
						}
					],
					"stateMutability": "nonpayable",
					"type": "function"
				},
				{
					"stateMutability": "payable",
					"type": "receive"
				}
			],
			"devdoc": {
				"kind": "dev",
				"methods": {},
				"version": 1
			},
			"evm": {
				"assembly": "    /* \"ERC20Standard.sol\":3407:13940  contract Labrador is Context, IERC20, Ownable {... */\n  mstore(0x40, 0x80)\n    /* \"ERC20Standard.sol\":3899:3914  1000000 * 10**9 */\n  0x038d7ea4c68000\n    /* \"ERC20Standard.sol\":3856:3857  0 */\n  0x00\n    /* \"ERC20Standard.sol\":3847:3858  ~uint256(0) */\n  not\n    /* \"ERC20Standard.sol\":3954:3967  MAX % _tTotal */\n  tag_1\n  swap2\n  swap1\n  tag_2\n  jump\t// in\ntag_1:\n    /* \"ERC20Standard.sol\":3856:3857  0 */\n  0x00\n    /* \"ERC20Standard.sol\":3847:3858  ~uint256(0) */\n  not\n    /* \"ERC20Standard.sol\":3947:3968  MAX - (MAX % _tTotal) */\n  tag_3\n  swap2\n  swap1\n  tag_4\n  jump\t// in\ntag_3:\n    /* \"ERC20Standard.sol\":3920:3969  uint256 private _rTotal = (MAX - (MAX % _tTotal)) */\n  0x08\n  sstore\n    /* \"ERC20Standard.sol\":4429:4434  false */\n  0x00\n    /* \"ERC20Standard.sol\":4407:4434  bool private inSwap = false */\n  0x0f\n  exp(0x0100, 0x15)\n  dup2\n  sload\n  dup2\n  0xff\n  mul\n  not\n  and\n  swap1\n  dup4\n  iszero\n  iszero\n  mul\n  or\n  swap1\n  sstore\n  pop\n    /* \"ERC20Standard.sol\":4467:4472  false */\n  0x00\n    /* \"ERC20Standard.sol\":4440:4472  bool private swapEnabled = false */\n  0x0f\n  exp(0x0100, 0x16)\n  dup2\n  sload\n  dup2\n  0xff\n  mul\n  not\n  and\n  swap1\n  dup4\n  iszero\n  iszero\n  mul\n  or\n  swap1\n  sstore\n  pop\n    /* \"ERC20Standard.sol\":4509:4514  false */\n  0x00\n    /* \"ERC20Standard.sol\":4478:4514  bool private cooldownEnabled = false */\n  0x0f\n  exp(0x0100, 0x17)\n  dup2\n  sload\n  dup2\n  0xff\n  mul\n  not\n  and\n  swap1\n  dup4\n  iszero\n  iszero\n  mul\n  or\n  swap1\n  sstore\n  pop\n    /* \"ERC20Standard.sol\":3899:3914  1000000 * 10**9 */\n  0x038d7ea4c68000\n    /* \"ERC20Standard.sol\":4520:4558  uint256 private _maxTxAmount = _tTotal */\n  0x10\n  sstore\n    /* \"ERC20Standard.sol\":3899:3914  1000000 * 10**9 */\n  0x038d7ea4c68000\n    /* \"ERC20Standard.sol\":4564:4604  uint256 private _maxWalletSize = _tTotal */\n  0x11\n  sstore\n    /* \"ERC20Standard.sol\":4751:5095  constructor () {... */\n  callvalue\n  dup1\n  iszero\n  tag_5\n  jumpi\n  0x00\n  dup1\n  revert\ntag_5:\n  pop\n    /* \"ERC20Standard.sol\":2181:2198  address msgSender */\n  0x00\n    /* \"ERC20Standard.sol\":2201:2213  _msgSender() */\n  tag_9\n    /* \"ERC20Standard.sol\":2201:2211  _msgSender */\n  shl(0x20, tag_10)\n    /* \"ERC20Standard.sol\":2201:2213  _msgSender() */\n  0x20\n  shr\n  jump\t// in\ntag_9:\n    /* \"ERC20Standard.sol\":2181:2213  address msgSender = _msgSender() */\n  swap1\n  pop\n    /* \"ERC20Standard.sol\":2232:2241  msgSender */\n  dup1\n    /* \"ERC20Standard.sol\":2223:2229  _owner */\n  0x00\n  dup1\n    /* \"ERC20Standard.sol\":2223:2241  _owner = msgSender */\n  0x0100\n  exp\n  dup2\n  sload\n  dup2\n  0xffffffffffffffffffffffffffffffffffffffff\n  mul\n  not\n  and\n  swap1\n  dup4\n  0xffffffffffffffffffffffffffffffffffffffff\n  and\n  mul\n  or\n  swap1\n  sstore\n  pop\n    /* \"ERC20Standard.sol\":2289:2298  msgSender */\n  dup1\n    /* \"ERC20Standard.sol\":2256:2299  OwnershipTransferred(address(0), msgSender) */\n  0xffffffffffffffffffffffffffffffffffffffff\n  and\n    /* \"ERC20Standard.sol\":2285:2286  0 */\n  0x00\n    /* \"ERC20Standard.sol\":2256:2299  OwnershipTransferred(address(0), msgSender) */\n  0xffffffffffffffffffffffffffffffffffffffff\n  and\n  0x8be0079c531659141344cd1fd0a4f28419497f9722a3daafe3b4186f6b6457e0\n  mload(0x40)\n  mload(0x40)\n  dup1\n  swap2\n  sub\n  swap1\n  log3\n    /* \"ERC20Standard.sol\":2171:2306  {... */\n  pop\n    /* \"ERC20Standard.sol\":4801:4843  0x5FfE12017a731986815fE00D3dd12065565a5e14 */\n  0x5ffe12017a731986815fe00d3dd12065565a5e14\n    /* \"ERC20Standard.sol\":4776:4790  _feeAddrWallet */\n  0x0d\n  0x00\n    /* \"ERC20Standard.sol\":4776:4844  _feeAddrWallet = payable(0x5FfE12017a731986815fE00D3dd12065565a5e14) */\n  0x0100\n  exp\n  dup2\n  sload\n  dup2\n  0xffffffffffffffffffffffffffffffffffffffff\n  mul\n  not\n  and\n  swap1\n  dup4\n  0xffffffffffffffffffffffffffffffffffffffff\n  and\n  mul\n  or\n  swap1\n  sstore\n  pop\n    /* \"ERC20Standard.sol\":4878:4885  _rTotal */\n  sload(0x08)\n    /* \"ERC20Standard.sol\":4854:4861  _rOwned */\n  0x02\n    /* \"ERC20Standard.sol\":4854:4875  _rOwned[_msgSender()] */\n  0x00\n    /* \"ERC20Standard.sol\":4862:4874  _msgSender() */\n  tag_12\n    /* \"ERC20Standard.sol\":4862:4872  _msgSender */\n  shl(0x20, tag_10)\n    /* \"ERC20Standard.sol\":4862:4874  _msgSender() */\n  0x20\n  shr\n  jump\t// in\ntag_12:\n    /* \"ERC20Standard.sol\":4854:4875  _rOwned[_msgSender()] */\n  0xffffffffffffffffffffffffffffffffffffffff\n  and\n  0xffffffffffffffffffffffffffffffffffffffff\n  and\n  dup2\n  mstore\n  0x20\n  add\n  swap1\n  dup2\n  mstore\n  0x20\n  add\n  0x00\n  keccak256\n    /* \"ERC20Standard.sol\":4854:4885  _rOwned[_msgSender()] = _rTotal */\n  dup2\n  swap1\n  sstore\n  pop\n    /* \"ERC20Standard.sol\":4925:4929  true */\n  0x01\n    /* \"ERC20Standard.sol\":4895:4913  _isExcludedFromFee */\n  0x05\n    /* \"ERC20Standard.sol\":4895:4922  _isExcludedFromFee[owner()] */\n  0x00\n    /* \"ERC20Standard.sol\":4914:4921  owner() */\n  tag_13\n    /* \"ERC20Standard.sol\":4914:4919  owner */\n  shl(0x20, tag_14)\n    /* \"ERC20Standard.sol\":4914:4921  owner() */\n  0x20\n  shr\n  jump\t// in\ntag_13:\n    /* \"ERC20Standard.sol\":4895:4922  _isExcludedFromFee[owner()] */\n  0xffffffffffffffffffffffffffffffffffffffff\n  and\n  0xffffffffffffffffffffffffffffffffffffffff\n  and\n  dup2\n  mstore\n  0x20\n  add\n  swap1\n  dup2\n  mstore\n  0x20\n  add\n  0x00\n  keccak256\n  0x00\n    /* \"ERC20Standard.sol\":4895:4929  _isExcludedFromFee[owner()] = true */\n  0x0100\n  exp\n  dup2\n  sload\n  dup2\n  0xff\n  mul\n  not\n  and\n  swap1\n  dup4\n  iszero\n  iszero\n  mul\n  or\n  swap1\n  sstore\n  pop\n    /* \"ERC20Standard.sol\":4975:4979  true */\n  0x01\n    /* \"ERC20Standard.sol\":4939:4957  _isExcludedFromFee */\n  0x05\n    /* \"ERC20Standard.sol\":4939:4972  _isExcludedFromFee[address(this)] */\n  0x00\n    /* \"ERC20Standard.sol\":4966:4970  this */\n  address\n    /* \"ERC20Standard.sol\":4939:4972  _isExcludedFromFee[address(this)] */\n  0xffffffffffffffffffffffffffffffffffffffff\n  and\n  0xffffffffffffffffffffffffffffffffffffffff\n  and\n  dup2\n  mstore\n  0x20\n  add\n  swap1\n  dup2\n  mstore\n  0x20\n  add\n  0x00\n  keccak256\n  0x00\n    /* \"ERC20Standard.sol\":4939:4979  _isExcludedFromFee[address(this)] = true */\n  0x0100\n  exp\n  dup2\n  sload\n  dup2\n  0xff\n  mul\n  not\n  and\n  swap1\n  dup4\n  iszero\n  iszero\n  mul\n  or\n  swap1\n  sstore\n  pop\n    /* \"ERC20Standard.sol\":5026:5030  true */\n  0x01\n    /* \"ERC20Standard.sol\":4989:5007  _isExcludedFromFee */\n  0x05\n    /* \"ERC20Standard.sol\":4989:5023  _isExcludedFromFee[_feeAddrWallet] */\n  0x00\n    /* \"ERC20Standard.sol\":5008:5022  _feeAddrWallet */\n  0x0d\n  0x00\n  swap1\n  sload\n  swap1\n  0x0100\n  exp\n  swap1\n  div\n  0xffffffffffffffffffffffffffffffffffffffff\n  and\n    /* \"ERC20Standard.sol\":4989:5023  _isExcludedFromFee[_feeAddrWallet] */\n  0xffffffffffffffffffffffffffffffffffffffff\n  and\n  0xffffffffffffffffffffffffffffffffffffffff\n  and\n  dup2\n  mstore\n  0x20\n  add\n  swap1\n  dup2\n  mstore\n  0x20\n  add\n  0x00\n  keccak256\n  0x00\n    /* \"ERC20Standard.sol\":4989:5030  _isExcludedFromFee[_feeAddrWallet] = true */\n  0x0100\n  exp\n  dup2\n  sload\n  dup2\n  0xff\n  mul\n  not\n  and\n  swap1\n  dup4\n  iszero\n  iszero\n  mul\n  or\n  swap1\n  sstore\n  pop\n    /* \"ERC20Standard.sol\":5066:5078  _msgSender() */\n  tag_15\n    /* \"ERC20Standard.sol\":5066:5076  _msgSender */\n  shl(0x20, tag_10)\n    /* \"ERC20Standard.sol\":5066:5078  _msgSender() */\n  0x20\n  shr\n  jump\t// in\ntag_15:\n    /* \"ERC20Standard.sol\":5045:5088  Transfer(address(0), _msgSender(), _tTotal) */\n  0xffffffffffffffffffffffffffffffffffffffff\n  and\n    /* \"ERC20Standard.sol\":5062:5063  0 */\n  0x00\n    /* \"ERC20Standard.sol\":5045:5088  Transfer(address(0), _msgSender(), _tTotal) */\n  0xffffffffffffffffffffffffffffffffffffffff\n  and\n  0xddf252ad1be2c89b69c2b068fc378daa952ba7f163c4a11628f55a4df523b3ef\n    /* \"ERC20Standard.sol\":3899:3914  1000000 * 10**9 */\n  0x038d7ea4c68000\n    /* \"ERC20Standard.sol\":5045:5088  Transfer(address(0), _msgSender(), _tTotal) */\n  mload(0x40)\n  tag_16\n  swap2\n  swap1\n  tag_17\n  jump\t// in\ntag_16:\n  mload(0x40)\n  dup1\n  swap2\n  sub\n  swap1\n  log3\n    /* \"ERC20Standard.sol\":3407:13940  contract Labrador is Context, IERC20, Ownable {... */\n  jump(tag_18)\n    /* \"ERC20Standard.sol\":95:191  function _msgSender() internal view virtual returns (address) {... */\ntag_10:\n    /* \"ERC20Standard.sol\":148:155  address */\n  0x00\n    /* \"ERC20Standard.sol\":174:184  msg.sender */\n  caller\n    /* \"ERC20Standard.sol\":167:184  return msg.sender */\n  swap1\n  pop\n    /* \"ERC20Standard.sol\":95:191  function _msgSender() internal view virtual returns (address) {... */\n  swap1\n  jump\t// out\n    /* \"ERC20Standard.sol\":2312:2389  function owner() public view returns (address) {... */\ntag_14:\n    /* \"ERC20Standard.sol\":2350:2357  address */\n  0x00\n    /* \"ERC20Standard.sol\":2376:2382  _owner */\n  dup1\n  0x00\n  swap1\n  sload\n  swap1\n  0x0100\n  exp\n  swap1\n  div\n  0xffffffffffffffffffffffffffffffffffffffff\n  and\n    /* \"ERC20Standard.sol\":2369:2382  return _owner */\n  swap1\n  pop\n    /* \"ERC20Standard.sol\":2312:2389  function owner() public view returns (address) {... */\n  swap1\n  jump\t// out\n    /* \"#utility.yul\":7:84   */\ntag_21:\n    /* \"#utility.yul\":44:51   */\n  0x00\n    /* \"#utility.yul\":73:78   */\n  dup2\n    /* \"#utility.yul\":62:78   */\n  swap1\n  pop\n    /* \"#utility.yul\":7:84   */\n  swap2\n  swap1\n  pop\n  jump\t// out\n    /* \"#utility.yul\":90:270   */\ntag_22:\n    /* \"#utility.yul\":138:215   */\n  0x4e487b7100000000000000000000000000000000000000000000000000000000\n    /* \"#utility.yul\":135:136   */\n  0x00\n    /* \"#utility.yul\":128:216   */\n  mstore\n    /* \"#utility.yul\":235:239   */\n  0x12\n    /* \"#utility.yul\":232:233   */\n  0x04\n    /* \"#utility.yul\":225:240   */\n  mstore\n    /* \"#utility.yul\":259:263   */\n  0x24\n    /* \"#utility.yul\":256:257   */\n  0x00\n    /* \"#utility.yul\":249:264   */\n  revert\n    /* \"#utility.yul\":276:452   */\ntag_2:\n    /* \"#utility.yul\":308:309   */\n  0x00\n    /* \"#utility.yul\":325:345   */\n  tag_29\n    /* \"#utility.yul\":343:344   */\n  dup3\n    /* \"#utility.yul\":325:345   */\n  tag_21\n  jump\t// in\ntag_29:\n    /* \"#utility.yul\":320:345   */\n  swap2\n  pop\n    /* \"#utility.yul\":359:379   */\n  tag_30\n    /* \"#utility.yul\":377:378   */\n  dup4\n    /* \"#utility.yul\":359:379   */\n  tag_21\n  jump\t// in\ntag_30:\n    /* \"#utility.yul\":354:379   */\n  swap3\n  pop\n    /* \"#utility.yul\":398:399   */\n  dup3\n    /* \"#utility.yul\":388:423   */\n  tag_31\n  jumpi\n    /* \"#utility.yul\":403:421   */\n  tag_32\n  tag_22\n  jump\t// in\ntag_32:\n    /* \"#utility.yul\":388:423   */\ntag_31:\n    /* \"#utility.yul\":444:445   */\n  dup3\n    /* \"#utility.yul\":441:442   */\n  dup3\n    /* \"#utility.yul\":437:446   */\n  mod\n    /* \"#utility.yul\":432:446   */\n  swap1\n  pop\n    /* \"#utility.yul\":276:452   */\n  swap3\n  swap2\n  pop\n  pop\n  jump\t// out\n    /* \"#utility.yul\":458:638   */\ntag_23:\n    /* \"#utility.yul\":506:583   */\n  0x4e487b7100000000000000000000000000000000000000000000000000000000\n    /* \"#utility.yul\":503:504   */\n  0x00\n    /* \"#utility.yul\":496:584   */\n  mstore\n    /* \"#utility.yul\":603:607   */\n  0x11\n    /* \"#utility.yul\":600:601   */\n  0x04\n    /* \"#utility.yul\":593:608   */\n  mstore\n    /* \"#utility.yul\":627:631   */\n  0x24\n    /* \"#utility.yul\":624:625   */\n  0x00\n    /* \"#utility.yul\":617:632   */\n  revert\n    /* \"#utility.yul\":644:835   */\ntag_4:\n    /* \"#utility.yul\":684:688   */\n  0x00\n    /* \"#utility.yul\":704:724   */\n  tag_35\n    /* \"#utility.yul\":722:723   */\n  dup3\n    /* \"#utility.yul\":704:724   */\n  tag_21\n  jump\t// in\ntag_35:\n    /* \"#utility.yul\":699:724   */\n  swap2\n  pop\n    /* \"#utility.yul\":738:758   */\n  tag_36\n    /* \"#utility.yul\":756:757   */\n  dup4\n    /* \"#utility.yul\":738:758   */\n  tag_21\n  jump\t// in\ntag_36:\n    /* \"#utility.yul\":733:758   */\n  swap3\n  pop\n    /* \"#utility.yul\":777:778   */\n  dup3\n    /* \"#utility.yul\":774:775   */\n  dup3\n    /* \"#utility.yul\":771:779   */\n  lt\n    /* \"#utility.yul\":768:802   */\n  iszero\n  tag_37\n  jumpi\n    /* \"#utility.yul\":782:800   */\n  tag_38\n  tag_23\n  jump\t// in\ntag_38:\n    /* \"#utility.yul\":768:802   */\ntag_37:\n    /* \"#utility.yul\":827:828   */\n  dup3\n    /* \"#utility.yul\":824:825   */\n  dup3\n    /* \"#utility.yul\":820:829   */\n  sub\n    /* \"#utility.yul\":812:829   */\n  swap1\n  pop\n    /* \"#utility.yul\":644:835   */\n  swap3\n  swap2\n  pop\n  pop\n  jump\t// out\n    /* \"#utility.yul\":841:959   */\ntag_24:\n    /* \"#utility.yul\":928:952   */\n  tag_40\n    /* \"#utility.yul\":946:951   */\n  dup2\n    /* \"#utility.yul\":928:952   */\n  tag_21\n  jump\t// in\ntag_40:\n    /* \"#utility.yul\":923:926   */\n  dup3\n    /* \"#utility.yul\":916:953   */\n  mstore\n    /* \"#utility.yul\":841:959   */\n  pop\n  pop\n  jump\t// out\n    /* \"#utility.yul\":965:1187   */\ntag_17:\n    /* \"#utility.yul\":1058:1062   */\n  0x00\n    /* \"#utility.yul\":1096:1098   */\n  0x20\n    /* \"#utility.yul\":1085:1094   */\n  dup3\n    /* \"#utility.yul\":1081:1099   */\n  add\n    /* \"#utility.yul\":1073:1099   */\n  swap1\n  pop\n    /* \"#utility.yul\":1109:1180   */\n  tag_42\n    /* \"#utility.yul\":1177:1178   */\n  0x00\n    /* \"#utility.yul\":1166:1175   */\n  dup4\n    /* \"#utility.yul\":1162:1179   */\n  add\n    /* \"#utility.yul\":1153:1159   */\n  dup5\n    /* \"#utility.yul\":1109:1180   */\n  tag_24\n  jump\t// in\ntag_42:\n    /* \"#utility.yul\":965:1187   */\n  swap3\n  swap2\n  pop\n  pop\n  jump\t// out\n    /* \"ERC20Standard.sol\":3407:13940  contract Labrador is Context, IERC20, Ownable {... */\ntag_18:\n  dataSize(sub_0)\n  dup1\n  dataOffset(sub_0)\n  0x00\n  codecopy\n  0x00\n  return\nstop\n\nsub_0: assembly {\n        /* \"ERC20Standard.sol\":3407:13940  contract Labrador is Context, IERC20, Ownable {... */\n      mstore(0x40, 0x80)\n      jumpi(tag_1, lt(calldatasize, 0x04))\n      shr(0xe0, calldataload(0x00))\n      dup1\n      0x715018a6\n      gt\n      tag_23\n      jumpi\n      dup1\n      0xb87f137a\n      gt\n      tag_24\n      jumpi\n      dup1\n      0xb87f137a\n      eq\n      tag_18\n      jumpi\n      dup1\n      0xc3c8cd80\n      eq\n      tag_19\n      jumpi\n      dup1\n      0xc9567bf9\n      eq\n      tag_20\n      jumpi\n      dup1\n      0xccfee5d6\n      eq\n      tag_21\n      jumpi\n      dup1\n      0xdd62ed3e\n      eq\n      tag_22\n      jumpi\n      jump(tag_2)\n    tag_24:\n      dup1\n      0x715018a6\n      eq\n      tag_13\n      jumpi\n      dup1\n      0x751039fc\n      eq\n      tag_14\n      jumpi\n      dup1\n      0x8da5cb5b\n      eq\n      tag_15\n      jumpi\n      dup1\n      0x95d89b41\n      eq\n      tag_16\n      jumpi\n      dup1\n      0xa9059cbb\n      eq\n      tag_17\n      jumpi\n      jump(tag_2)\n    tag_23:\n      dup1\n      0x313ce567\n      gt\n      tag_25\n      jumpi\n      dup1\n      0x313ce567\n      eq\n      tag_8\n      jumpi\n      dup1\n      0x5932ead1\n      eq\n      tag_9\n      jumpi\n      dup1\n      0x677daa57\n      eq\n      tag_10\n      jumpi\n      dup1\n      0x6fc3eaec\n      eq\n      tag_11\n      jumpi\n      dup1\n      0x70a08231\n      eq\n      tag_12\n      jumpi\n      jump(tag_2)\n    tag_25:\n      dup1\n      0x06fdde03\n      eq\n      tag_3\n      jumpi\n      dup1\n      0x095ea7b3\n      eq\n      tag_4\n      jumpi\n      dup1\n      0x18160ddd\n      eq\n      tag_5\n      jumpi\n      dup1\n      0x23b872dd\n      eq\n      tag_6\n      jumpi\n      dup1\n      0x273123b7\n      eq\n      tag_7\n      jumpi\n      jump(tag_2)\n    tag_1:\n      jumpi(tag_2, calldatasize)\n      stop\n    tag_2:\n      0x00\n      dup1\n      revert\n        /* \"ERC20Standard.sol\":5101:5182  function name() public pure returns (string memory) {... */\n    tag_3:\n      callvalue\n      dup1\n      iszero\n      tag_28\n      jumpi\n      0x00\n      dup1\n      revert\n    tag_28:\n      pop\n      tag_29\n      tag_30\n      jump\t// in\n    tag_29:\n      mload(0x40)\n      tag_31\n      swap2\n      swap1\n      tag_32\n      jump\t// in\n    tag_31:\n      mload(0x40)\n      dup1\n      swap2\n      sub\n      swap1\n      return\n        /* \"ERC20Standard.sol\":5924:6082  function approve(address spender, uint256 amount) public override returns (bool) {... */\n    tag_4:\n      callvalue\n      dup1\n      iszero\n      tag_33\n      jumpi\n      0x00\n      dup1\n      revert\n    tag_33:\n      pop\n      tag_34\n      0x04\n      dup1\n      calldatasize\n      sub\n      dup2\n      add\n      swap1\n      tag_35\n      swap2\n      swap1\n      tag_36\n      jump\t// in\n    tag_35:\n      tag_37\n      jump\t// in\n    tag_34:\n      mload(0x40)\n      tag_38\n      swap2\n      swap1\n      tag_39\n      jump\t// in\n    tag_38:\n      mload(0x40)\n      dup1\n      swap2\n      sub\n      swap1\n      return\n        /* \"ERC20Standard.sol\":5366:5459  function totalSupply() public pure override returns (uint256) {... */\n    tag_5:\n      callvalue\n      dup1\n      iszero\n      tag_40\n      jumpi\n      0x00\n      dup1\n      revert\n    tag_40:\n      pop\n      tag_41\n      tag_42\n      jump\t// in\n    tag_41:\n      mload(0x40)\n      tag_43\n      swap2\n      swap1\n      tag_44\n      jump\t// in\n    tag_43:\n      mload(0x40)\n      dup1\n      swap2\n      sub\n      swap1\n      return\n        /* \"ERC20Standard.sol\":6088:6397  function transferFrom(address sender, address recipient, uint256 amount) public override returns (bool) {... */\n    tag_6:\n      callvalue\n      dup1\n      iszero\n      tag_45\n      jumpi\n      0x00\n      dup1\n      revert\n    tag_45:\n      pop\n      tag_46\n      0x04\n      dup1\n      calldatasize\n      sub\n      dup2\n      add\n      swap1\n      tag_47\n      swap2\n      swap1\n      tag_48\n      jump\t// in\n    tag_47:\n      tag_49\n      jump\t// in\n    tag_46:\n      mload(0x40)\n      tag_50\n      swap2\n      swap1\n      tag_39\n      jump\t// in\n    tag_50:\n      mload(0x40)\n      dup1\n      swap2\n      sub\n      swap1\n      return\n        /* \"ERC20Standard.sol\":10745:10831  function delBot(address notbot) public onlyOwner {... */\n    tag_7:\n      callvalue\n      dup1\n      iszero\n      tag_51\n      jumpi\n      0x00\n      dup1\n      revert\n    tag_51:\n      pop\n      tag_52\n      0x04\n      dup1\n      calldatasize\n      sub\n      dup2\n      add\n      swap1\n      tag_53\n      swap2\n      swap1\n      tag_54\n      jump\t// in\n    tag_53:\n      tag_55\n      jump\t// in\n    tag_52:\n      stop\n        /* \"ERC20Standard.sol\":5279:5360  function decimals() public pure returns (uint8) {... */\n    tag_8:\n      callvalue\n      dup1\n      iszero\n      tag_56\n      jumpi\n      0x00\n      dup1\n      revert\n    tag_56:\n      pop\n      tag_57\n      tag_58\n      jump\t// in\n    tag_57:\n      mload(0x40)\n      tag_59\n      swap2\n      swap1\n      tag_60\n      jump\t// in\n    tag_59:\n      mload(0x40)\n      dup1\n      swap2\n      sub\n      swap1\n      return\n        /* \"ERC20Standard.sol\":6403:6504  function setCooldownEnabled(bool onoff) external onlyOwner() {... */\n    tag_9:\n      callvalue\n      dup1\n      iszero\n      tag_61\n      jumpi\n      0x00\n      dup1\n      revert\n    tag_61:\n      pop\n      tag_62\n      0x04\n      dup1\n      calldatasize\n      sub\n      dup2\n      add\n      swap1\n      tag_63\n      swap2\n      swap1\n      tag_64\n      jump\t// in\n    tag_63:\n      tag_65\n      jump\t// in\n    tag_62:\n      stop\n        /* \"ERC20Standard.sol\":9262:9422  function changeMaxTxAmount(uint256 percentage) external onlyOwner{... */\n    tag_10:\n      callvalue\n      dup1\n      iszero\n      tag_66\n      jumpi\n      0x00\n      dup1\n      revert\n    tag_66:\n      pop\n      tag_67\n      0x04\n      dup1\n      calldatasize\n      sub\n      dup2\n      add\n      swap1\n      tag_68\n      swap2\n      swap1\n      tag_69\n      jump\t// in\n    tag_68:\n      tag_70\n      jump\t// in\n    tag_67:\n      stop\n        /* \"ERC20Standard.sol\":12085:12274  function manualsend() external {... */\n    tag_11:\n      callvalue\n      dup1\n      iszero\n      tag_71\n      jumpi\n      0x00\n      dup1\n      revert\n    tag_71:\n      pop\n      tag_72\n      tag_73\n      jump\t// in\n    tag_72:\n      stop\n        /* \"ERC20Standard.sol\":5465:5601  function balanceOf(address account) public view override returns (uint256) {... */\n    tag_12:\n      callvalue\n      dup1\n      iszero\n      tag_74\n      jumpi\n      0x00\n      dup1\n      revert\n    tag_74:\n      pop\n      tag_75\n      0x04\n      dup1\n      calldatasize\n      sub\n      dup2\n      add\n      swap1\n      tag_76\n      swap2\n      swap1\n      tag_54\n      jump\t// in\n    tag_76:\n      tag_77\n      jump\t// in\n    tag_75:\n      mload(0x40)\n      tag_78\n      swap2\n      swap1\n      tag_44\n      jump\t// in\n    tag_78:\n      mload(0x40)\n      dup1\n      swap2\n      sub\n      swap1\n      return\n        /* \"ERC20Standard.sol\":2517:2662  function renounceOwnership() public virtual onlyOwner {... */\n    tag_13:\n      callvalue\n      dup1\n      iszero\n      tag_79\n      jumpi\n      0x00\n      dup1\n      revert\n    tag_79:\n      pop\n      tag_80\n      tag_81\n      jump\t// in\n    tag_80:\n      stop\n        /* \"ERC20Standard.sol\":9141:9256  function removeLimits() external onlyOwner{... */\n    tag_14:\n      callvalue\n      dup1\n      iszero\n      tag_82\n      jumpi\n      0x00\n      dup1\n      revert\n    tag_82:\n      pop\n      tag_83\n      tag_84\n      jump\t// in\n    tag_83:\n      stop\n        /* \"ERC20Standard.sol\":2312:2389  function owner() public view returns (address) {... */\n    tag_15:\n      callvalue\n      dup1\n      iszero\n      tag_85\n      jumpi\n      0x00\n      dup1\n      revert\n    tag_85:\n      pop\n      tag_86\n      tag_87\n      jump\t// in\n    tag_86:\n      mload(0x40)\n      tag_88\n      swap2\n      swap1\n      tag_89\n      jump\t// in\n    tag_88:\n      mload(0x40)\n      dup1\n      swap2\n      sub\n      swap1\n      return\n        /* \"ERC20Standard.sol\":5188:5273  function symbol() public pure returns (string memory) {... */\n    tag_16:\n      callvalue\n      dup1\n      iszero\n      tag_90\n      jumpi\n      0x00\n      dup1\n      revert\n    tag_90:\n      pop\n      tag_91\n      tag_92\n      jump\t// in\n    tag_91:\n      mload(0x40)\n      tag_93\n      swap2\n      swap1\n      tag_32\n      jump\t// in\n    tag_93:\n      mload(0x40)\n      dup1\n      swap2\n      sub\n      swap1\n      return\n        /* \"ERC20Standard.sol\":5607:5771  function transfer(address recipient, uint256 amount) public override returns (bool) {... */\n    tag_17:\n      callvalue\n      dup1\n      iszero\n      tag_94\n      jumpi\n      0x00\n      dup1\n      revert\n    tag_94:\n      pop\n      tag_95\n      0x04\n      dup1\n      calldatasize\n      sub\n      dup2\n      add\n      swap1\n      tag_96\n      swap2\n      swap1\n      tag_36\n      jump\t// in\n    tag_96:\n      tag_97\n      jump\t// in\n    tag_95:\n      mload(0x40)\n      tag_98\n      swap2\n      swap1\n      tag_39\n      jump\t// in\n    tag_98:\n      mload(0x40)\n      dup1\n      swap2\n      sub\n      swap1\n      return\n        /* \"ERC20Standard.sol\":9428:9592  function changeMaxWalletSize(uint256 percentage) external onlyOwner{... */\n    tag_18:\n      callvalue\n      dup1\n      iszero\n      tag_99\n      jumpi\n      0x00\n      dup1\n      revert\n    tag_99:\n      pop\n      tag_100\n      0x04\n      dup1\n      calldatasize\n      sub\n      dup2\n      add\n      swap1\n      tag_101\n      swap2\n      swap1\n      tag_69\n      jump\t// in\n    tag_101:\n      tag_102\n      jump\t// in\n    tag_100:\n      stop\n        /* \"ERC20Standard.sol\":11885:12075  function manualswap() external {... */\n    tag_19:\n      callvalue\n      dup1\n      iszero\n      tag_103\n      jumpi\n      0x00\n      dup1\n      revert\n    tag_103:\n      pop\n      tag_104\n      tag_105\n      jump\t// in\n    tag_104:\n      stop\n        /* \"ERC20Standard.sol\":9708:10566  function openTrading() external onlyOwner() {... */\n    tag_20:\n      callvalue\n      dup1\n      iszero\n      tag_106\n      jumpi\n      0x00\n      dup1\n      revert\n    tag_106:\n      pop\n      tag_107\n      tag_108\n      jump\t// in\n    tag_107:\n      stop\n        /* \"ERC20Standard.sol\":10576:10735  function addbot(address[] memory bots_) public onlyOwner {... */\n    tag_21:\n      callvalue\n      dup1\n      iszero\n      tag_109\n      jumpi\n      0x00\n      dup1\n      revert\n    tag_109:\n      pop\n      tag_110\n      0x04\n      dup1\n      calldatasize\n      sub\n      dup2\n      add\n      swap1\n      tag_111\n      swap2\n      swap1\n      tag_112\n      jump\t// in\n    tag_111:\n      tag_113\n      jump\t// in\n    tag_110:\n      stop\n        /* \"ERC20Standard.sol\":5777:5918  function allowance(address owner, address spender) public view override returns (uint256) {... */\n    tag_22:\n      callvalue\n      dup1\n      iszero\n      tag_114\n      jumpi\n      0x00\n      dup1\n      revert\n    tag_114:\n      pop\n      tag_115\n      0x04\n      dup1\n      calldatasize\n      sub\n      dup2\n      add\n      swap1\n      tag_116\n      swap2\n      swap1\n      tag_117\n      jump\t// in\n    tag_116:\n      tag_118\n      jump\t// in\n    tag_115:\n      mload(0x40)\n      tag_119\n      swap2\n      swap1\n      tag_44\n      jump\t// in\n    tag_119:\n      mload(0x40)\n      dup1\n      swap2\n      sub\n      swap1\n      return\n        /* \"ERC20Standard.sol\":5101:5182  function name() public pure returns (string memory) {... */\n    tag_30:\n        /* \"ERC20Standard.sol\":5138:5151  string memory */\n      0x60\n        /* \"ERC20Standard.sol\":5170:5175  _name */\n      mload(0x40)\n      dup1\n      0x40\n      add\n      0x40\n      mstore\n      dup1\n      0x08\n      dup2\n      mstore\n      0x20\n      add\n      0x4c61627261646f72000000000000000000000000000000000000000000000000\n      dup2\n      mstore\n      pop\n        /* \"ERC20Standard.sol\":5163:5175  return _name */\n      swap1\n      pop\n        /* \"ERC20Standard.sol\":5101:5182  function name() public pure returns (string memory) {... */\n      swap1\n      jump\t// out\n        /* \"ERC20Standard.sol\":5924:6082  function approve(address spender, uint256 amount) public override returns (bool) {... */\n    tag_37:\n        /* \"ERC20Standard.sol\":5999:6003  bool */\n      0x00\n        /* \"ERC20Standard.sol\":6015:6054  _approve(_msgSender(), spender, amount) */\n      tag_122\n        /* \"ERC20Standard.sol\":6024:6036  _msgSender() */\n      tag_123\n        /* \"ERC20Standard.sol\":6024:6034  _msgSender */\n      tag_124\n        /* \"ERC20Standard.sol\":6024:6036  _msgSender() */\n      jump\t// in\n    tag_123:\n        /* \"ERC20Standard.sol\":6038:6045  spender */\n      dup5\n        /* \"ERC20Standard.sol\":6047:6053  amount */\n      dup5\n        /* \"ERC20Standard.sol\":6015:6023  _approve */\n      tag_125\n        /* \"ERC20Standard.sol\":6015:6054  _approve(_msgSender(), spender, amount) */\n      jump\t// in\n    tag_122:\n        /* \"ERC20Standard.sol\":6071:6075  true */\n      0x01\n        /* \"ERC20Standard.sol\":6064:6075  return true */\n      swap1\n      pop\n        /* \"ERC20Standard.sol\":5924:6082  function approve(address spender, uint256 amount) public override returns (bool) {... */\n      swap3\n      swap2\n      pop\n      pop\n      jump\t// out\n        /* \"ERC20Standard.sol\":5366:5459  function totalSupply() public pure override returns (uint256) {... */\n    tag_42:\n        /* \"ERC20Standard.sol\":5419:5426  uint256 */\n      0x00\n        /* \"ERC20Standard.sol\":3899:3914  1000000 * 10**9 */\n      0x038d7ea4c68000\n        /* \"ERC20Standard.sol\":5438:5452  return _tTotal */\n      swap1\n      pop\n        /* \"ERC20Standard.sol\":5366:5459  function totalSupply() public pure override returns (uint256) {... */\n      swap1\n      jump\t// out\n        /* \"ERC20Standard.sol\":6088:6397  function transferFrom(address sender, address recipient, uint256 amount) public override returns (bool) {... */\n    tag_49:\n        /* \"ERC20Standard.sol\":6186:6190  bool */\n      0x00\n        /* \"ERC20Standard.sol\":6202:6238  _transfer(sender, recipient, amount) */\n      tag_128\n        /* \"ERC20Standard.sol\":6212:6218  sender */\n      dup5\n        /* \"ERC20Standard.sol\":6220:6229  recipient */\n      dup5\n        /* \"ERC20Standard.sol\":6231:6237  amount */\n      dup5\n        /* \"ERC20Standard.sol\":6202:6211  _transfer */\n      tag_129\n        /* \"ERC20Standard.sol\":6202:6238  _transfer(sender, recipient, amount) */\n      jump\t// in\n    tag_128:\n        /* \"ERC20Standard.sol\":6248:6369  _approve(sender, _msgSender(), _allowances[sender][_msgSender()].sub(amount, \"ERC20: transfer amount exceeds allowance\")) */\n      tag_130\n        /* \"ERC20Standard.sol\":6257:6263  sender */\n      dup5\n        /* \"ERC20Standard.sol\":6265:6277  _msgSender() */\n      tag_131\n        /* \"ERC20Standard.sol\":6265:6275  _msgSender */\n      tag_124\n        /* \"ERC20Standard.sol\":6265:6277  _msgSender() */\n      jump\t// in\n    tag_131:\n        /* \"ERC20Standard.sol\":6279:6368  _allowances[sender][_msgSender()].sub(amount, \"ERC20: transfer amount exceeds allowance\") */\n      tag_132\n        /* \"ERC20Standard.sol\":6317:6323  amount */\n      dup6\n        /* \"ERC20Standard.sol\":6279:6368  _allowances[sender][_msgSender()].sub(amount, \"ERC20: transfer amount exceeds allowance\") */\n      mload(0x40)\n      dup1\n      0x60\n      add\n      0x40\n      mstore\n      dup1\n      0x28\n      dup2\n      mstore\n      0x20\n      add\n      data_974d1b4421da69cc60b481194f0dad36a5bb4e23da810da7a7fb30cdba178330\n      0x28\n      swap2\n      codecopy\n        /* \"ERC20Standard.sol\":6279:6290  _allowances */\n      0x04\n        /* \"ERC20Standard.sol\":6279:6298  _allowances[sender] */\n      0x00\n        /* \"ERC20Standard.sol\":6291:6297  sender */\n      dup12\n        /* \"ERC20Standard.sol\":6279:6298  _allowances[sender] */\n      0xffffffffffffffffffffffffffffffffffffffff\n      and\n      0xffffffffffffffffffffffffffffffffffffffff\n      and\n      dup2\n      mstore\n      0x20\n      add\n      swap1\n      dup2\n      mstore\n      0x20\n      add\n      0x00\n      keccak256\n        /* \"ERC20Standard.sol\":6279:6312  _allowances[sender][_msgSender()] */\n      0x00\n        /* \"ERC20Standard.sol\":6299:6311  _msgSender() */\n      tag_133\n        /* \"ERC20Standard.sol\":6299:6309  _msgSender */\n      tag_124\n        /* \"ERC20Standard.sol\":6299:6311  _msgSender() */\n      jump\t// in\n    tag_133:\n        /* \"ERC20Standard.sol\":6279:6312  _allowances[sender][_msgSender()] */\n      0xffffffffffffffffffffffffffffffffffffffff\n      and\n      0xffffffffffffffffffffffffffffffffffffffff\n      and\n      dup2\n      mstore\n      0x20\n      add\n      swap1\n      dup2\n      mstore\n      0x20\n      add\n      0x00\n      keccak256\n      sload\n        /* \"ERC20Standard.sol\":6279:6316  _allowances[sender][_msgSender()].sub */\n      tag_134\n      swap1\n        /* \"ERC20Standard.sol\":6279:6368  _allowances[sender][_msgSender()].sub(amount, \"ERC20: transfer amount exceeds allowance\") */\n      swap3\n      swap2\n      swap1\n      0xffffffff\n      and\n      jump\t// in\n    tag_132:\n        /* \"ERC20Standard.sol\":6248:6256  _approve */\n      tag_125\n        /* \"ERC20Standard.sol\":6248:6369  _approve(sender, _msgSender(), _allowances[sender][_msgSender()].sub(amount, \"ERC20: transfer amount exceeds allowance\")) */\n      jump\t// in\n    tag_130:\n        /* \"ERC20Standard.sol\":6386:6390  true */\n      0x01\n        /* \"ERC20Standard.sol\":6379:6390  return true */\n      swap1\n      pop\n        /* \"ERC20Standard.sol\":6088:6397  function transferFrom(address sender, address recipient, uint256 amount) public override returns (bool) {... */\n      swap4\n      swap3\n      pop\n      pop\n      pop\n      jump\t// out\n        /* \"ERC20Standard.sol\":10745:10831  function delBot(address notbot) public onlyOwner {... */\n    tag_55:\n        /* \"ERC20Standard.sol\":2444:2456  _msgSender() */\n      tag_136\n        /* \"ERC20Standard.sol\":2444:2454  _msgSender */\n      tag_124\n        /* \"ERC20Standard.sol\":2444:2456  _msgSender() */\n      jump\t// in\n    tag_136:\n        /* \"ERC20Standard.sol\":2434:2456  _owner == _msgSender() */\n      0xffffffffffffffffffffffffffffffffffffffff\n      and\n        /* \"ERC20Standard.sol\":2434:2440  _owner */\n      0x00\n      dup1\n      sload\n      swap1\n      0x0100\n      exp\n      swap1\n      div\n      0xffffffffffffffffffffffffffffffffffffffff\n      and\n        /* \"ERC20Standard.sol\":2434:2456  _owner == _msgSender() */\n      0xffffffffffffffffffffffffffffffffffffffff\n      and\n      eq\n        /* \"ERC20Standard.sol\":2426:2493  require(_owner == _msgSender(), \"Ownable: caller is not the owner\") */\n      tag_137\n      jumpi\n      mload(0x40)\n      0x08c379a000000000000000000000000000000000000000000000000000000000\n      dup2\n      mstore\n      0x04\n      add\n      tag_138\n      swap1\n      tag_139\n      jump\t// in\n    tag_138:\n      mload(0x40)\n      dup1\n      swap2\n      sub\n      swap1\n      revert\n    tag_137:\n        /* \"ERC20Standard.sol\":10819:10824  false */\n      0x00\n        /* \"ERC20Standard.sol\":10804:10808  bots */\n      0x06\n        /* \"ERC20Standard.sol\":10804:10816  bots[notbot] */\n      0x00\n        /* \"ERC20Standard.sol\":10809:10815  notbot */\n      dup4\n        /* \"ERC20Standard.sol\":10804:10816  bots[notbot] */\n      0xffffffffffffffffffffffffffffffffffffffff\n      and\n      0xffffffffffffffffffffffffffffffffffffffff\n      and\n      dup2\n      mstore\n      0x20\n      add\n      swap1\n      dup2\n      mstore\n      0x20\n      add\n      0x00\n      keccak256\n      0x00\n        /* \"ERC20Standard.sol\":10804:10824  bots[notbot] = false */\n      0x0100\n      exp\n      dup2\n      sload\n      dup2\n      0xff\n      mul\n      not\n      and\n      swap1\n      dup4\n      iszero\n      iszero\n      mul\n      or\n      swap1\n      sstore\n      pop\n        /* \"ERC20Standard.sol\":10745:10831  function delBot(address notbot) public onlyOwner {... */\n      pop\n      jump\t// out\n        /* \"ERC20Standard.sol\":5279:5360  function decimals() public pure returns (uint8) {... */\n    tag_58:\n        /* \"ERC20Standard.sol\":5320:5325  uint8 */\n      0x00\n        /* \"ERC20Standard.sol\":4282:4283  8 */\n      0x08\n        /* \"ERC20Standard.sol\":5337:5353  return _decimals */\n      swap1\n      pop\n        /* \"ERC20Standard.sol\":5279:5360  function decimals() public pure returns (uint8) {... */\n      swap1\n      jump\t// out\n        /* \"ERC20Standard.sol\":6403:6504  function setCooldownEnabled(bool onoff) external onlyOwner() {... */\n    tag_65:\n        /* \"ERC20Standard.sol\":2444:2456  _msgSender() */\n      tag_143\n        /* \"ERC20Standard.sol\":2444:2454  _msgSender */\n      tag_124\n        /* \"ERC20Standard.sol\":2444:2456  _msgSender() */\n      jump\t// in\n    tag_143:\n        /* \"ERC20Standard.sol\":2434:2456  _owner == _msgSender() */\n      0xffffffffffffffffffffffffffffffffffffffff\n      and\n        /* \"ERC20Standard.sol\":2434:2440  _owner */\n      0x00\n      dup1\n      sload\n      swap1\n      0x0100\n      exp\n      swap1\n      div\n      0xffffffffffffffffffffffffffffffffffffffff\n      and\n        /* \"ERC20Standard.sol\":2434:2456  _owner == _msgSender() */\n      0xffffffffffffffffffffffffffffffffffffffff\n      and\n      eq\n        /* \"ERC20Standard.sol\":2426:2493  require(_owner == _msgSender(), \"Ownable: caller is not the owner\") */\n      tag_144\n      jumpi\n      mload(0x40)\n      0x08c379a000000000000000000000000000000000000000000000000000000000\n      dup2\n      mstore\n      0x04\n      add\n      tag_145\n      swap1\n      tag_139\n      jump\t// in\n    tag_145:\n      mload(0x40)\n      dup1\n      swap2\n      sub\n      swap1\n      revert\n    tag_144:\n        /* \"ERC20Standard.sol\":6492:6497  onoff */\n      dup1\n        /* \"ERC20Standard.sol\":6474:6489  cooldownEnabled */\n      0x0f\n      0x17\n        /* \"ERC20Standard.sol\":6474:6497  cooldownEnabled = onoff */\n      0x0100\n      exp\n      dup2\n      sload\n      dup2\n      0xff\n      mul\n      not\n      and\n      swap1\n      dup4\n      iszero\n      iszero\n      mul\n      or\n      swap1\n      sstore\n      pop\n        /* \"ERC20Standard.sol\":6403:6504  function setCooldownEnabled(bool onoff) external onlyOwner() {... */\n      pop\n      jump\t// out\n        /* \"ERC20Standard.sol\":9262:9422  function changeMaxTxAmount(uint256 percentage) external onlyOwner{... */\n    tag_70:\n        /* \"ERC20Standard.sol\":2444:2456  _msgSender() */\n      tag_148\n        /* \"ERC20Standard.sol\":2444:2454  _msgSender */\n      tag_124\n        /* \"ERC20Standard.sol\":2444:2456  _msgSender() */\n      jump\t// in\n    tag_148:\n        /* \"ERC20Standard.sol\":2434:2456  _owner == _msgSender() */\n      0xffffffffffffffffffffffffffffffffffffffff\n      and\n        /* \"ERC20Standard.sol\":2434:2440  _owner */\n      0x00\n      dup1\n      sload\n      swap1\n      0x0100\n      exp\n      swap1\n      div\n      0xffffffffffffffffffffffffffffffffffffffff\n      and\n        /* \"ERC20Standard.sol\":2434:2456  _owner == _msgSender() */\n      0xffffffffffffffffffffffffffffffffffffffff\n      and\n      eq\n        /* \"ERC20Standard.sol\":2426:2493  require(_owner == _msgSender(), \"Ownable: caller is not the owner\") */\n      tag_149\n      jumpi\n      mload(0x40)\n      0x08c379a000000000000000000000000000000000000000000000000000000000\n      dup2\n      mstore\n      0x04\n      add\n      tag_150\n      swap1\n      tag_139\n      jump\t// in\n    tag_150:\n      mload(0x40)\n      dup1\n      swap2\n      sub\n      swap1\n      revert\n    tag_149:\n        /* \"ERC20Standard.sol\":9356:9357  0 */\n      0x00\n        /* \"ERC20Standard.sol\":9345:9355  percentage */\n      dup2\n        /* \"ERC20Standard.sol\":9345:9357  percentage>0 */\n      gt\n        /* \"ERC20Standard.sol\":9337:9358  require(percentage>0) */\n      tag_152\n      jumpi\n      0x00\n      dup1\n      revert\n    tag_152:\n        /* \"ERC20Standard.sol\":9383:9415  _tTotal.mul(percentage).div(100) */\n      tag_153\n        /* \"ERC20Standard.sol\":9411:9414  100 */\n      0x64\n        /* \"ERC20Standard.sol\":9383:9406  _tTotal.mul(percentage) */\n      tag_154\n        /* \"ERC20Standard.sol\":9395:9405  percentage */\n      dup4\n        /* \"ERC20Standard.sol\":3899:3914  1000000 * 10**9 */\n      0x038d7ea4c68000\n        /* \"ERC20Standard.sol\":9383:9394  _tTotal.mul */\n      tag_155\n      swap1\n        /* \"ERC20Standard.sol\":9383:9406  _tTotal.mul(percentage) */\n      swap2\n      swap1\n      0xffffffff\n      and\n      jump\t// in\n    tag_154:\n        /* \"ERC20Standard.sol\":9383:9410  _tTotal.mul(percentage).div */\n      tag_156\n      swap1\n        /* \"ERC20Standard.sol\":9383:9415  _tTotal.mul(percentage).div(100) */\n      swap2\n      swap1\n      0xffffffff\n      and\n      jump\t// in\n    tag_153:\n        /* \"ERC20Standard.sol\":9368:9380  _maxTxAmount */\n      0x10\n        /* \"ERC20Standard.sol\":9368:9415  _maxTxAmount = _tTotal.mul(percentage).div(100) */\n      dup2\n      swap1\n      sstore\n      pop\n        /* \"ERC20Standard.sol\":9262:9422  function changeMaxTxAmount(uint256 percentage) external onlyOwner{... */\n      pop\n      jump\t// out\n        /* \"ERC20Standard.sol\":12085:12274  function manualsend() external {... */\n    tag_73:\n        /* \"ERC20Standard.sol\":12150:12164  _feeAddrWallet */\n      0x0d\n      0x00\n      swap1\n      sload\n      swap1\n      0x0100\n      exp\n      swap1\n      div\n      0xffffffffffffffffffffffffffffffffffffffff\n      and\n        /* \"ERC20Standard.sol\":12134:12164  _msgSender() == _feeAddrWallet */\n      0xffffffffffffffffffffffffffffffffffffffff\n      and\n        /* \"ERC20Standard.sol\":12134:12146  _msgSender() */\n      tag_158\n        /* \"ERC20Standard.sol\":12134:12144  _msgSender */\n      tag_124\n        /* \"ERC20Standard.sol\":12134:12146  _msgSender() */\n      jump\t// in\n    tag_158:\n        /* \"ERC20Standard.sol\":12134:12164  _msgSender() == _feeAddrWallet */\n      0xffffffffffffffffffffffffffffffffffffffff\n      and\n      eq\n        /* \"ERC20Standard.sol\":12126:12165  require(_msgSender() == _feeAddrWallet) */\n      tag_159\n      jumpi\n      0x00\n      dup1\n      revert\n    tag_159:\n        /* \"ERC20Standard.sol\":12175:12201  uint256 contractETHBalance */\n      0x00\n        /* \"ERC20Standard.sol\":12204:12225  address(this).balance */\n      selfbalance\n        /* \"ERC20Standard.sol\":12175:12225  uint256 contractETHBalance = address(this).balance */\n      swap1\n      pop\n        /* \"ERC20Standard.sol\":12235:12267  sendETHToFee(contractETHBalance) */\n      tag_160\n        /* \"ERC20Standard.sol\":12248:12266  contractETHBalance */\n      dup2\n        /* \"ERC20Standard.sol\":12235:12247  sendETHToFee */\n      tag_161\n        /* \"ERC20Standard.sol\":12235:12267  sendETHToFee(contractETHBalance) */\n      jump\t// in\n    tag_160:\n        /* \"ERC20Standard.sol\":12116:12274  {... */\n      pop\n        /* \"ERC20Standard.sol\":12085:12274  function manualsend() external {... */\n      jump\t// out\n        /* \"ERC20Standard.sol\":5465:5601  function balanceOf(address account) public view override returns (uint256) {... */\n    tag_77:\n        /* \"ERC20Standard.sol\":5531:5538  uint256 */\n      0x00\n        /* \"ERC20Standard.sol\":5557:5594  tokenFromReflection(_rOwned[account]) */\n      tag_163\n        /* \"ERC20Standard.sol\":5577:5584  _rOwned */\n      0x02\n        /* \"ERC20Standard.sol\":5577:5593  _rOwned[account] */\n      0x00\n        /* \"ERC20Standard.sol\":5585:5592  account */\n      dup5\n        /* \"ERC20Standard.sol\":5577:5593  _rOwned[account] */\n      0xffffffffffffffffffffffffffffffffffffffff\n      and\n      0xffffffffffffffffffffffffffffffffffffffff\n      and\n      dup2\n      mstore\n      0x20\n      add\n      swap1\n      dup2\n      mstore\n      0x20\n      add\n      0x00\n      keccak256\n      sload\n        /* \"ERC20Standard.sol\":5557:5576  tokenFromReflection */\n      tag_164\n        /* \"ERC20Standard.sol\":5557:5594  tokenFromReflection(_rOwned[account]) */\n      jump\t// in\n    tag_163:\n        /* \"ERC20Standard.sol\":5550:5594  return tokenFromReflection(_rOwned[account]) */\n      swap1\n      pop\n        /* \"ERC20Standard.sol\":5465:5601  function balanceOf(address account) public view override returns (uint256) {... */\n      swap2\n      swap1\n      pop\n      jump\t// out\n        /* \"ERC20Standard.sol\":2517:2662  function renounceOwnership() public virtual onlyOwner {... */\n    tag_81:\n        /* \"ERC20Standard.sol\":2444:2456  _msgSender() */\n      tag_166\n        /* \"ERC20Standard.sol\":2444:2454  _msgSender */\n      tag_124\n        /* \"ERC20Standard.sol\":2444:2456  _msgSender() */\n      jump\t// in\n    tag_166:\n        /* \"ERC20Standard.sol\":2434:2456  _owner == _msgSender() */\n      0xffffffffffffffffffffffffffffffffffffffff\n      and\n        /* \"ERC20Standard.sol\":2434:2440  _owner */\n      0x00\n      dup1\n      sload\n      swap1\n      0x0100\n      exp\n      swap1\n      div\n      0xffffffffffffffffffffffffffffffffffffffff\n      and\n        /* \"ERC20Standard.sol\":2434:2456  _owner == _msgSender() */\n      0xffffffffffffffffffffffffffffffffffffffff\n      and\n      eq\n        /* \"ERC20Standard.sol\":2426:2493  require(_owner == _msgSender(), \"Ownable: caller is not the owner\") */\n      tag_167\n      jumpi\n      mload(0x40)\n      0x08c379a000000000000000000000000000000000000000000000000000000000\n      dup2\n      mstore\n      0x04\n      add\n      tag_168\n      swap1\n      tag_139\n      jump\t// in\n    tag_168:\n      mload(0x40)\n      dup1\n      swap2\n      sub\n      swap1\n      revert\n    tag_167:\n        /* \"ERC20Standard.sol\":2623:2624  0 */\n      0x00\n        /* \"ERC20Standard.sol\":2586:2626  OwnershipTransferred(_owner, address(0)) */\n      0xffffffffffffffffffffffffffffffffffffffff\n      and\n        /* \"ERC20Standard.sol\":2607:2613  _owner */\n      0x00\n      dup1\n      sload\n      swap1\n      0x0100\n      exp\n      swap1\n      div\n      0xffffffffffffffffffffffffffffffffffffffff\n      and\n        /* \"ERC20Standard.sol\":2586:2626  OwnershipTransferred(_owner, address(0)) */\n      0xffffffffffffffffffffffffffffffffffffffff\n      and\n      0x8be0079c531659141344cd1fd0a4f28419497f9722a3daafe3b4186f6b6457e0\n      mload(0x40)\n      mload(0x40)\n      dup1\n      swap2\n      sub\n      swap1\n      log3\n        /* \"ERC20Standard.sol\":2653:2654  0 */\n      0x00\n        /* \"ERC20Standard.sol\":2636:2642  _owner */\n      dup1\n      0x00\n        /* \"ERC20Standard.sol\":2636:2655  _owner = address(0) */\n      0x0100\n      exp\n      dup2\n      sload\n      dup2\n      0xffffffffffffffffffffffffffffffffffffffff\n      mul\n      not\n      and\n      swap1\n      dup4\n      0xffffffffffffffffffffffffffffffffffffffff\n      and\n      mul\n      or\n      swap1\n      sstore\n      pop\n        /* \"ERC20Standard.sol\":2517:2662  function renounceOwnership() public virtual onlyOwner {... */\n      jump\t// out\n        /* \"ERC20Standard.sol\":9141:9256  function removeLimits() external onlyOwner{... */\n    tag_84:\n        /* \"ERC20Standard.sol\":2444:2456  _msgSender() */\n      tag_171\n        /* \"ERC20Standard.sol\":2444:2454  _msgSender */\n      tag_124\n        /* \"ERC20Standard.sol\":2444:2456  _msgSender() */\n      jump\t// in\n    tag_171:\n        /* \"ERC20Standard.sol\":2434:2456  _owner == _msgSender() */\n      0xffffffffffffffffffffffffffffffffffffffff\n      and\n        /* \"ERC20Standard.sol\":2434:2440  _owner */\n      0x00\n      dup1\n      sload\n      swap1\n      0x0100\n      exp\n      swap1\n      div\n      0xffffffffffffffffffffffffffffffffffffffff\n      and\n        /* \"ERC20Standard.sol\":2434:2456  _owner == _msgSender() */\n      0xffffffffffffffffffffffffffffffffffffffff\n      and\n      eq\n        /* \"ERC20Standard.sol\":2426:2493  require(_owner == _msgSender(), \"Ownable: caller is not the owner\") */\n      tag_172\n      jumpi\n      mload(0x40)\n      0x08c379a000000000000000000000000000000000000000000000000000000000\n      dup2\n      mstore\n      0x04\n      add\n      tag_173\n      swap1\n      tag_139\n      jump\t// in\n    tag_173:\n      mload(0x40)\n      dup1\n      swap2\n      sub\n      swap1\n      revert\n    tag_172:\n        /* \"ERC20Standard.sol\":3899:3914  1000000 * 10**9 */\n      0x038d7ea4c68000\n        /* \"ERC20Standard.sol\":9193:9205  _maxTxAmount */\n      0x10\n        /* \"ERC20Standard.sol\":9193:9215  _maxTxAmount = _tTotal */\n      dup2\n      swap1\n      sstore\n      pop\n        /* \"ERC20Standard.sol\":3899:3914  1000000 * 10**9 */\n      0x038d7ea4c68000\n        /* \"ERC20Standard.sol\":9225:9239  _maxWalletSize */\n      0x11\n        /* \"ERC20Standard.sol\":9225:9249  _maxWalletSize = _tTotal */\n      dup2\n      swap1\n      sstore\n      pop\n        /* \"ERC20Standard.sol\":9141:9256  function removeLimits() external onlyOwner{... */\n      jump\t// out\n        /* \"ERC20Standard.sol\":2312:2389  function owner() public view returns (address) {... */\n    tag_87:\n        /* \"ERC20Standard.sol\":2350:2357  address */\n      0x00\n        /* \"ERC20Standard.sol\":2376:2382  _owner */\n      dup1\n      0x00\n      swap1\n      sload\n      swap1\n      0x0100\n      exp\n      swap1\n      div\n      0xffffffffffffffffffffffffffffffffffffffff\n      and\n        /* \"ERC20Standard.sol\":2369:2382  return _owner */\n      swap1\n      pop\n        /* \"ERC20Standard.sol\":2312:2389  function owner() public view returns (address) {... */\n      swap1\n      jump\t// out\n        /* \"ERC20Standard.sol\":5188:5273  function symbol() public pure returns (string memory) {... */\n    tag_92:\n        /* \"ERC20Standard.sol\":5227:5240  string memory */\n      0x60\n        /* \"ERC20Standard.sol\":5259:5266  _symbol */\n      mload(0x40)\n      dup1\n      0x40\n      add\n      0x40\n      mstore\n      dup1\n      0x04\n      dup2\n      mstore\n      0x20\n      add\n      0x4c41425200000000000000000000000000000000000000000000000000000000\n      dup2\n      mstore\n      pop\n        /* \"ERC20Standard.sol\":5252:5266  return _symbol */\n      swap1\n      pop\n        /* \"ERC20Standard.sol\":5188:5273  function symbol() public pure returns (string memory) {... */\n      swap1\n      jump\t// out\n        /* \"ERC20Standard.sol\":5607:5771  function transfer(address recipient, uint256 amount) public override returns (bool) {... */\n    tag_97:\n        /* \"ERC20Standard.sol\":5685:5689  bool */\n      0x00\n        /* \"ERC20Standard.sol\":5701:5743  _transfer(_msgSender(), recipient, amount) */\n      tag_178\n        /* \"ERC20Standard.sol\":5711:5723  _msgSender() */\n      tag_179\n        /* \"ERC20Standard.sol\":5711:5721  _msgSender */\n      tag_124\n        /* \"ERC20Standard.sol\":5711:5723  _msgSender() */\n      jump\t// in\n    tag_179:\n        /* \"ERC20Standard.sol\":5725:5734  recipient */\n      dup5\n        /* \"ERC20Standard.sol\":5736:5742  amount */\n      dup5\n        /* \"ERC20Standard.sol\":5701:5710  _transfer */\n      tag_129\n        /* \"ERC20Standard.sol\":5701:5743  _transfer(_msgSender(), recipient, amount) */\n      jump\t// in\n    tag_178:\n        /* \"ERC20Standard.sol\":5760:5764  true */\n      0x01\n        /* \"ERC20Standard.sol\":5753:5764  return true */\n      swap1\n      pop\n        /* \"ERC20Standard.sol\":5607:5771  function transfer(address recipient, uint256 amount) public override returns (bool) {... */\n      swap3\n      swap2\n      pop\n      pop\n      jump\t// out\n        /* \"ERC20Standard.sol\":9428:9592  function changeMaxWalletSize(uint256 percentage) external onlyOwner{... */\n    tag_102:\n        /* \"ERC20Standard.sol\":2444:2456  _msgSender() */\n      tag_181\n        /* \"ERC20Standard.sol\":2444:2454  _msgSender */\n      tag_124\n        /* \"ERC20Standard.sol\":2444:2456  _msgSender() */\n      jump\t// in\n    tag_181:\n        /* \"ERC20Standard.sol\":2434:2456  _owner == _msgSender() */\n      0xffffffffffffffffffffffffffffffffffffffff\n      and\n        /* \"ERC20Standard.sol\":2434:2440  _owner */\n      0x00\n      dup1\n      sload\n      swap1\n      0x0100\n      exp\n      swap1\n      div\n      0xffffffffffffffffffffffffffffffffffffffff\n      and\n        /* \"ERC20Standard.sol\":2434:2456  _owner == _msgSender() */\n      0xffffffffffffffffffffffffffffffffffffffff\n      and\n      eq\n        /* \"ERC20Standard.sol\":2426:2493  require(_owner == _msgSender(), \"Ownable: caller is not the owner\") */\n      tag_182\n      jumpi\n      mload(0x40)\n      0x08c379a000000000000000000000000000000000000000000000000000000000\n      dup2\n      mstore\n      0x04\n      add\n      tag_183\n      swap1\n      tag_139\n      jump\t// in\n    tag_183:\n      mload(0x40)\n      dup1\n      swap2\n      sub\n      swap1\n      revert\n    tag_182:\n        /* \"ERC20Standard.sol\":9524:9525  0 */\n      0x00\n        /* \"ERC20Standard.sol\":9513:9523  percentage */\n      dup2\n        /* \"ERC20Standard.sol\":9513:9525  percentage>0 */\n      gt\n        /* \"ERC20Standard.sol\":9505:9526  require(percentage>0) */\n      tag_185\n      jumpi\n      0x00\n      dup1\n      revert\n    tag_185:\n        /* \"ERC20Standard.sol\":9553:9585  _tTotal.mul(percentage).div(100) */\n      tag_186\n        /* \"ERC20Standard.sol\":9581:9584  100 */\n      0x64\n        /* \"ERC20Standard.sol\":9553:9576  _tTotal.mul(percentage) */\n      tag_187\n        /* \"ERC20Standard.sol\":9565:9575  percentage */\n      dup4\n        /* \"ERC20Standard.sol\":3899:3914  1000000 * 10**9 */\n      0x038d7ea4c68000\n        /* \"ERC20Standard.sol\":9553:9564  _tTotal.mul */\n      tag_155\n      swap1\n        /* \"ERC20Standard.sol\":9553:9576  _tTotal.mul(percentage) */\n      swap2\n      swap1\n      0xffffffff\n      and\n      jump\t// in\n    tag_187:\n        /* \"ERC20Standard.sol\":9553:9580  _tTotal.mul(percentage).div */\n      tag_156\n      swap1\n        /* \"ERC20Standard.sol\":9553:9585  _tTotal.mul(percentage).div(100) */\n      swap2\n      swap1\n      0xffffffff\n      and\n      jump\t// in\n    tag_186:\n        /* \"ERC20Standard.sol\":9536:9550  _maxWalletSize */\n      0x11\n        /* \"ERC20Standard.sol\":9536:9585  _maxWalletSize = _tTotal.mul(percentage).div(100) */\n      dup2\n      swap1\n      sstore\n      pop\n        /* \"ERC20Standard.sol\":9428:9592  function changeMaxWalletSize(uint256 percentage) external onlyOwner{... */\n      pop\n      jump\t// out\n        /* \"ERC20Standard.sol\":11885:12075  function manualswap() external {... */\n    tag_105:\n        /* \"ERC20Standard.sol\":11950:11964  _feeAddrWallet */\n      0x0d\n      0x00\n      swap1\n      sload\n      swap1\n      0x0100\n      exp\n      swap1\n      div\n      0xffffffffffffffffffffffffffffffffffffffff\n      and\n        /* \"ERC20Standard.sol\":11934:11964  _msgSender() == _feeAddrWallet */\n      0xffffffffffffffffffffffffffffffffffffffff\n      and\n        /* \"ERC20Standard.sol\":11934:11946  _msgSender() */\n      tag_189\n        /* \"ERC20Standard.sol\":11934:11944  _msgSender */\n      tag_124\n        /* \"ERC20Standard.sol\":11934:11946  _msgSender() */\n      jump\t// in\n    tag_189:\n        /* \"ERC20Standard.sol\":11934:11964  _msgSender() == _feeAddrWallet */\n      0xffffffffffffffffffffffffffffffffffffffff\n      and\n      eq\n        /* \"ERC20Standard.sol\":11926:11965  require(_msgSender() == _feeAddrWallet) */\n      tag_190\n      jumpi\n      0x00\n      dup1\n      revert\n    tag_190:\n        /* \"ERC20Standard.sol\":11975:11998  uint256 contractBalance */\n      0x00\n        /* \"ERC20Standard.sol\":12001:12025  balanceOf(address(this)) */\n      tag_191\n        /* \"ERC20Standard.sol\":12019:12023  this */\n      address\n        /* \"ERC20Standard.sol\":12001:12010  balanceOf */\n      tag_77\n        /* \"ERC20Standard.sol\":12001:12025  balanceOf(address(this)) */\n      jump\t// in\n    tag_191:\n        /* \"ERC20Standard.sol\":11975:12025  uint256 contractBalance = balanceOf(address(this)) */\n      swap1\n      pop\n        /* \"ERC20Standard.sol\":12035:12068  swapTokensForEth(contractBalance) */\n      tag_192\n        /* \"ERC20Standard.sol\":12052:12067  contractBalance */\n      dup2\n        /* \"ERC20Standard.sol\":12035:12051  swapTokensForEth */\n      tag_193\n        /* \"ERC20Standard.sol\":12035:12068  swapTokensForEth(contractBalance) */\n      jump\t// in\n    tag_192:\n        /* \"ERC20Standard.sol\":11916:12075  {... */\n      pop\n        /* \"ERC20Standard.sol\":11885:12075  function manualswap() external {... */\n      jump\t// out\n        /* \"ERC20Standard.sol\":9708:10566  function openTrading() external onlyOwner() {... */\n    tag_108:\n        /* \"ERC20Standard.sol\":2444:2456  _msgSender() */\n      tag_195\n        /* \"ERC20Standard.sol\":2444:2454  _msgSender */\n      tag_124\n        /* \"ERC20Standard.sol\":2444:2456  _msgSender() */\n      jump\t// in\n    tag_195:\n        /* \"ERC20Standard.sol\":2434:2456  _owner == _msgSender() */\n      0xffffffffffffffffffffffffffffffffffffffff\n      and\n        /* \"ERC20Standard.sol\":2434:2440  _owner */\n      0x00\n      dup1\n      sload\n      swap1\n      0x0100\n      exp\n      swap1\n      div\n      0xffffffffffffffffffffffffffffffffffffffff\n      and\n        /* \"ERC20Standard.sol\":2434:2456  _owner == _msgSender() */\n      0xffffffffffffffffffffffffffffffffffffffff\n      and\n      eq\n        /* \"ERC20Standard.sol\":2426:2493  require(_owner == _msgSender(), \"Ownable: caller is not the owner\") */\n      tag_196\n      jumpi\n      mload(0x40)\n      0x08c379a000000000000000000000000000000000000000000000000000000000\n      dup2\n      mstore\n      0x04\n      add\n      tag_197\n      swap1\n      tag_139\n      jump\t// in\n    tag_197:\n      mload(0x40)\n      dup1\n      swap2\n      sub\n      swap1\n      revert\n    tag_196:\n        /* \"ERC20Standard.sol\":9771:9782  tradingOpen */\n      0x0f\n      0x14\n      swap1\n      sload\n      swap1\n      0x0100\n      exp\n      swap1\n      div\n      0xff\n      and\n        /* \"ERC20Standard.sol\":9770:9782  !tradingOpen */\n      iszero\n        /* \"ERC20Standard.sol\":9762:9809  require(!tradingOpen,\"trading is already open\") */\n      tag_199\n      jumpi\n      mload(0x40)\n      0x08c379a000000000000000000000000000000000000000000000000000000000\n      dup2\n      mstore\n      0x04\n      add\n      tag_200\n      swap1\n      tag_201\n      jump\t// in\n    tag_200:\n      mload(0x40)\n      dup1\n      swap2\n      sub\n      swap1\n      revert\n    tag_199:\n        /* \"ERC20Standard.sol\":9819:9854  IUniswapV2Router02 _uniswapV2Router */\n      0x00\n        /* \"ERC20Standard.sol\":9876:9918  0x7a250d5630B4cF539739dF2C5dAcb4c659F2488D */\n      0x7a250d5630b4cf539739df2c5dacb4c659f2488d\n        /* \"ERC20Standard.sol\":9819:9919  IUniswapV2Router02 _uniswapV2Router = IUniswapV2Router02(0x7a250d5630B4cF539739dF2C5dAcb4c659F2488D) */\n      swap1\n      pop\n        /* \"ERC20Standard.sol\":9947:9963  _uniswapV2Router */\n      dup1\n        /* \"ERC20Standard.sol\":9929:9944  uniswapV2Router */\n      0x0e\n      0x00\n        /* \"ERC20Standard.sol\":9929:9963  uniswapV2Router = _uniswapV2Router */\n      0x0100\n      exp\n      dup2\n      sload\n      dup2\n      0xffffffffffffffffffffffffffffffffffffffff\n      mul\n      not\n      and\n      swap1\n      dup4\n      0xffffffffffffffffffffffffffffffffffffffff\n      and\n      mul\n      or\n      swap1\n      sstore\n      pop\n        /* \"ERC20Standard.sol\":9973:10031  _approve(address(this), address(uniswapV2Router), _tTotal) */\n      tag_202\n        /* \"ERC20Standard.sol\":9990:9994  this */\n      address\n        /* \"ERC20Standard.sol\":10005:10020  uniswapV2Router */\n      0x0e\n      0x00\n      swap1\n      sload\n      swap1\n      0x0100\n      exp\n      swap1\n      div\n      0xffffffffffffffffffffffffffffffffffffffff\n      and\n        /* \"ERC20Standard.sol\":3899:3914  1000000 * 10**9 */\n      0x038d7ea4c68000\n        /* \"ERC20Standard.sol\":9973:9981  _approve */\n      tag_125\n        /* \"ERC20Standard.sol\":9973:10031  _approve(address(this), address(uniswapV2Router), _tTotal) */\n      jump\t// in\n    tag_202:\n        /* \"ERC20Standard.sol\":10075:10091  _uniswapV2Router */\n      dup1\n        /* \"ERC20Standard.sol\":10075:10099  _uniswapV2Router.factory */\n      0xffffffffffffffffffffffffffffffffffffffff\n      and\n      0xc45a0155\n        /* \"ERC20Standard.sol\":10075:10101  _uniswapV2Router.factory() */\n      mload(0x40)\n      dup2\n      0xffffffff\n      and\n      0xe0\n      shl\n      dup2\n      mstore\n      0x04\n      add\n      0x20\n      mload(0x40)\n      dup1\n      dup4\n      sub\n      dup2\n      dup7\n      gas\n      staticcall\n      iszero\n      dup1\n      iszero\n      tag_204\n      jumpi\n      returndatasize\n      0x00\n      dup1\n      returndatacopy\n      revert(0x00, returndatasize)\n    tag_204:\n      pop\n      pop\n      pop\n      pop\n      mload(0x40)\n      returndatasize\n      not(0x1f)\n      0x1f\n      dup3\n      add\n      and\n      dup3\n      add\n      dup1\n      0x40\n      mstore\n      pop\n      dup2\n      add\n      swap1\n      tag_205\n      swap2\n      swap1\n      tag_206\n      jump\t// in\n    tag_205:\n        /* \"ERC20Standard.sol\":10057:10113  IUniswapV2Factory(_uniswapV2Router.factory()).createPair */\n      0xffffffffffffffffffffffffffffffffffffffff\n      and\n      0xc9c65396\n        /* \"ERC20Standard.sol\":10122:10126  this */\n      address\n        /* \"ERC20Standard.sol\":10129:10145  _uniswapV2Router */\n      dup4\n        /* \"ERC20Standard.sol\":10129:10150  _uniswapV2Router.WETH */\n      0xffffffffffffffffffffffffffffffffffffffff\n      and\n      0xad5c4648\n        /* \"ERC20Standard.sol\":10129:10152  _uniswapV2Router.WETH() */\n      mload(0x40)\n      dup2\n      0xffffffff\n      and\n      0xe0\n      shl\n      dup2\n      mstore\n      0x04\n      add\n      0x20\n      mload(0x40)\n      dup1\n      dup4\n      sub\n      dup2\n      dup7\n      gas\n      staticcall\n      iszero\n      dup1\n      iszero\n      tag_208\n      jumpi\n      returndatasize\n      0x00\n      dup1\n      returndatacopy\n      revert(0x00, returndatasize)\n    tag_208:\n      pop\n      pop\n      pop\n      pop\n      mload(0x40)\n      returndatasize\n      not(0x1f)\n      0x1f\n      dup3\n      add\n      and\n      dup3\n      add\n      dup1\n      0x40\n      mstore\n      pop\n      dup2\n      add\n      swap1\n      tag_209\n      swap2\n      swap1\n      tag_206\n      jump\t// in\n    tag_209:\n        /* \"ERC20Standard.sol\":10057:10153  IUniswapV2Factory(_uniswapV2Router.factory()).createPair(address(this), _uniswapV2Router.WETH()) */\n      mload(0x40)\n      dup4\n      0xffffffff\n      and\n      0xe0\n      shl\n      dup2\n      mstore\n      0x04\n      add\n      tag_210\n      swap3\n      swap2\n      swap1\n      tag_211\n      jump\t// in\n    tag_210:\n      0x20\n      mload(0x40)\n      dup1\n      dup4\n      sub\n      dup2\n      0x00\n      dup8\n      gas\n      call\n      iszero\n      dup1\n      iszero\n      tag_213\n      jumpi\n      returndatasize\n      0x00\n      dup1\n      returndatacopy\n      revert(0x00, returndatasize)\n    tag_213:\n      pop\n      pop\n      pop\n      pop\n      mload(0x40)\n      returndatasize\n      not(0x1f)\n      0x1f\n      dup3\n      add\n      and\n      dup3\n      add\n      dup1\n      0x40\n      mstore\n      pop\n      dup2\n      add\n      swap1\n      tag_214\n      swap2\n      swap1\n      tag_206\n      jump\t// in\n    tag_214:\n        /* \"ERC20Standard.sol\":10041:10054  uniswapV2Pair */\n      0x0f\n      0x00\n        /* \"ERC20Standard.sol\":10041:10153  uniswapV2Pair = IUniswapV2Factory(_uniswapV2Router.factory()).createPair(address(this), _uniswapV2Router.WETH()) */\n      0x0100\n      exp\n      dup2\n      sload\n      dup2\n      0xffffffffffffffffffffffffffffffffffffffff\n      mul\n      not\n      and\n      swap1\n      dup4\n      0xffffffffffffffffffffffffffffffffffffffff\n      and\n      mul\n      or\n      swap1\n      sstore\n      pop\n        /* \"ERC20Standard.sol\":10163:10178  uniswapV2Router */\n      0x0e\n      0x00\n      swap1\n      sload\n      swap1\n      0x0100\n      exp\n      swap1\n      div\n      0xffffffffffffffffffffffffffffffffffffffff\n      and\n        /* \"ERC20Standard.sol\":10163:10194  uniswapV2Router.addLiquidityETH */\n      0xffffffffffffffffffffffffffffffffffffffff\n      and\n      0xf305d719\n        /* \"ERC20Standard.sol\":10202:10223  address(this).balance */\n      selfbalance\n        /* \"ERC20Standard.sol\":10233:10237  this */\n      address\n        /* \"ERC20Standard.sol\":10239:10263  balanceOf(address(this)) */\n      tag_215\n        /* \"ERC20Standard.sol\":10257:10261  this */\n      address\n        /* \"ERC20Standard.sol\":10239:10248  balanceOf */\n      tag_77\n        /* \"ERC20Standard.sol\":10239:10263  balanceOf(address(this)) */\n      jump\t// in\n    tag_215:\n        /* \"ERC20Standard.sol\":10264:10265  0 */\n      0x00\n        /* \"ERC20Standard.sol\":10266:10267  0 */\n      dup1\n        /* \"ERC20Standard.sol\":10268:10275  owner() */\n      tag_216\n        /* \"ERC20Standard.sol\":10268:10273  owner */\n      tag_87\n        /* \"ERC20Standard.sol\":10268:10275  owner() */\n      jump\t// in\n    tag_216:\n        /* \"ERC20Standard.sol\":10276:10291  block.timestamp */\n      timestamp\n        /* \"ERC20Standard.sol\":10163:10292  uniswapV2Router.addLiquidityETH{value: address(this).balance}(address(this),balanceOf(address(this)),0,0,owner(),block.timestamp) */\n      mload(0x40)\n      dup9\n      0xffffffff\n      and\n      0xe0\n      shl\n      dup2\n      mstore\n      0x04\n      add\n      tag_217\n      swap7\n      swap6\n      swap5\n      swap4\n      swap3\n      swap2\n      swap1\n      tag_218\n      jump\t// in\n    tag_217:\n      0x60\n      mload(0x40)\n      dup1\n      dup4\n      sub\n      dup2\n      dup6\n      dup9\n      gas\n      call\n      iszero\n      dup1\n      iszero\n      tag_220\n      jumpi\n      returndatasize\n      0x00\n      dup1\n      returndatacopy\n      revert(0x00, returndatasize)\n    tag_220:\n      pop\n      pop\n      pop\n      pop\n      pop\n      mload(0x40)\n      returndatasize\n      not(0x1f)\n      0x1f\n      dup3\n      add\n      and\n      dup3\n      add\n      dup1\n      0x40\n      mstore\n      pop\n      dup2\n      add\n      swap1\n      tag_221\n      swap2\n      swap1\n      tag_222\n      jump\t// in\n    tag_221:\n      pop\n      pop\n      pop\n        /* \"ERC20Standard.sol\":10316:10320  true */\n      0x01\n        /* \"ERC20Standard.sol\":10302:10313  swapEnabled */\n      0x0f\n      0x16\n        /* \"ERC20Standard.sol\":10302:10320  swapEnabled = true */\n      0x0100\n      exp\n      dup2\n      sload\n      dup2\n      0xff\n      mul\n      not\n      and\n      swap1\n      dup4\n      iszero\n      iszero\n      mul\n      or\n      swap1\n      sstore\n      pop\n        /* \"ERC20Standard.sol\":10348:10352  true */\n      0x01\n        /* \"ERC20Standard.sol\":10330:10345  cooldownEnabled */\n      0x0f\n      0x17\n        /* \"ERC20Standard.sol\":10330:10352  cooldownEnabled = true */\n      0x0100\n      exp\n      dup2\n      sload\n      dup2\n      0xff\n      mul\n      not\n      and\n      swap1\n      dup4\n      iszero\n      iszero\n      mul\n      or\n      swap1\n      sstore\n      pop\n        /* \"ERC20Standard.sol\":10377:10400  _tTotal.mul(2).div(100) */\n      tag_223\n        /* \"ERC20Standard.sol\":10396:10399  100 */\n      0x64\n        /* \"ERC20Standard.sol\":10377:10391  _tTotal.mul(2) */\n      tag_224\n        /* \"ERC20Standard.sol\":10389:10390  2 */\n      0x02\n        /* \"ERC20Standard.sol\":3899:3914  1000000 * 10**9 */\n      0x038d7ea4c68000\n        /* \"ERC20Standard.sol\":10377:10388  _tTotal.mul */\n      tag_155\n      swap1\n        /* \"ERC20Standard.sol\":10377:10391  _tTotal.mul(2) */\n      swap2\n      swap1\n      0xffffffff\n      and\n      jump\t// in\n    tag_224:\n        /* \"ERC20Standard.sol\":10377:10395  _tTotal.mul(2).div */\n      tag_156\n      swap1\n        /* \"ERC20Standard.sol\":10377:10400  _tTotal.mul(2).div(100) */\n      swap2\n      swap1\n      0xffffffff\n      and\n      jump\t// in\n    tag_223:\n        /* \"ERC20Standard.sol\":10362:10374  _maxTxAmount */\n      0x10\n        /* \"ERC20Standard.sol\":10362:10400  _maxTxAmount = _tTotal.mul(2).div(100) */\n      dup2\n      swap1\n      sstore\n      pop\n        /* \"ERC20Standard.sol\":10427:10450  _tTotal.mul(3).div(100) */\n      tag_225\n        /* \"ERC20Standard.sol\":10446:10449  100 */\n      0x64\n        /* \"ERC20Standard.sol\":10427:10441  _tTotal.mul(3) */\n      tag_226\n        /* \"ERC20Standard.sol\":10439:10440  3 */\n      0x03\n        /* \"ERC20Standard.sol\":3899:3914  1000000 * 10**9 */\n      0x038d7ea4c68000\n        /* \"ERC20Standard.sol\":10427:10438  _tTotal.mul */\n      tag_155\n      swap1\n        /* \"ERC20Standard.sol\":10427:10441  _tTotal.mul(3) */\n      swap2\n      swap1\n      0xffffffff\n      and\n      jump\t// in\n    tag_226:\n        /* \"ERC20Standard.sol\":10427:10445  _tTotal.mul(3).div */\n      tag_156\n      swap1\n        /* \"ERC20Standard.sol\":10427:10450  _tTotal.mul(3).div(100) */\n      swap2\n      swap1\n      0xffffffff\n      and\n      jump\t// in\n    tag_225:\n        /* \"ERC20Standard.sol\":10410:10424  _maxWalletSize */\n      0x11\n        /* \"ERC20Standard.sol\":10410:10450  _maxWalletSize = _tTotal.mul(3).div(100) */\n      dup2\n      swap1\n      sstore\n      pop\n        /* \"ERC20Standard.sol\":10474:10478  true */\n      0x01\n        /* \"ERC20Standard.sol\":10460:10471  tradingOpen */\n      0x0f\n      0x14\n        /* \"ERC20Standard.sol\":10460:10478  tradingOpen = true */\n      0x0100\n      exp\n      dup2\n      sload\n      dup2\n      0xff\n      mul\n      not\n      and\n      swap1\n      dup4\n      iszero\n      iszero\n      mul\n      or\n      swap1\n      sstore\n      pop\n        /* \"ERC20Standard.sol\":10495:10508  uniswapV2Pair */\n      0x0f\n      0x00\n      swap1\n      sload\n      swap1\n      0x0100\n      exp\n      swap1\n      div\n      0xffffffffffffffffffffffffffffffffffffffff\n      and\n        /* \"ERC20Standard.sol\":10488:10517  IERC20(uniswapV2Pair).approve */\n      0xffffffffffffffffffffffffffffffffffffffff\n      and\n      0x095ea7b3\n        /* \"ERC20Standard.sol\":10526:10541  uniswapV2Router */\n      0x0e\n      0x00\n      swap1\n      sload\n      swap1\n      0x0100\n      exp\n      swap1\n      div\n      0xffffffffffffffffffffffffffffffffffffffff\n      and\n        /* \"ERC20Standard.sol\":10544:10558  type(uint).max */\n      0xffffffffffffffffffffffffffffffffffffffffffffffffffffffffffffffff\n        /* \"ERC20Standard.sol\":10488:10559  IERC20(uniswapV2Pair).approve(address(uniswapV2Router), type(uint).max) */\n      mload(0x40)\n      dup4\n      0xffffffff\n      and\n      0xe0\n      shl\n      dup2\n      mstore\n      0x04\n      add\n      tag_227\n      swap3\n      swap2\n      swap1\n      tag_228\n      jump\t// in\n    tag_227:\n      0x20\n      mload(0x40)\n      dup1\n      dup4\n      sub\n      dup2\n      0x00\n      dup8\n      gas\n      call\n      iszero\n      dup1\n      iszero\n      tag_230\n      jumpi\n      returndatasize\n      0x00\n      dup1\n      returndatacopy\n      revert(0x00, returndatasize)\n    tag_230:\n      pop\n      pop\n      pop\n      pop\n      mload(0x40)\n      returndatasize\n      not(0x1f)\n      0x1f\n      dup3\n      add\n      and\n      dup3\n      add\n      dup1\n      0x40\n      mstore\n      pop\n      dup2\n      add\n      swap1\n      tag_231\n      swap2\n      swap1\n      tag_232\n      jump\t// in\n    tag_231:\n      pop\n        /* \"ERC20Standard.sol\":9752:10566  {... */\n      pop\n        /* \"ERC20Standard.sol\":9708:10566  function openTrading() external onlyOwner() {... */\n      jump\t// out\n        /* \"ERC20Standard.sol\":10576:10735  function addbot(address[] memory bots_) public onlyOwner {... */\n    tag_113:\n        /* \"ERC20Standard.sol\":2444:2456  _msgSender() */\n      tag_234\n        /* \"ERC20Standard.sol\":2444:2454  _msgSender */\n      tag_124\n        /* \"ERC20Standard.sol\":2444:2456  _msgSender() */\n      jump\t// in\n    tag_234:\n        /* \"ERC20Standard.sol\":2434:2456  _owner == _msgSender() */\n      0xffffffffffffffffffffffffffffffffffffffff\n      and\n        /* \"ERC20Standard.sol\":2434:2440  _owner */\n      0x00\n      dup1\n      sload\n      swap1\n      0x0100\n      exp\n      swap1\n      div\n      0xffffffffffffffffffffffffffffffffffffffff\n      and\n        /* \"ERC20Standard.sol\":2434:2456  _owner == _msgSender() */\n      0xffffffffffffffffffffffffffffffffffffffff\n      and\n      eq\n        /* \"ERC20Standard.sol\":2426:2493  require(_owner == _msgSender(), \"Ownable: caller is not the owner\") */\n      tag_235\n      jumpi\n      mload(0x40)\n      0x08c379a000000000000000000000000000000000000000000000000000000000\n      dup2\n      mstore\n      0x04\n      add\n      tag_236\n      swap1\n      tag_139\n      jump\t// in\n    tag_236:\n      mload(0x40)\n      dup1\n      swap2\n      sub\n      swap1\n      revert\n    tag_235:\n        /* \"ERC20Standard.sol\":10648:10654  uint i */\n      0x00\n        /* \"ERC20Standard.sol\":10643:10729  for (uint i = 0; i < bots_.length; i++) {... */\n    tag_238:\n        /* \"ERC20Standard.sol\":10664:10669  bots_ */\n      dup2\n        /* \"ERC20Standard.sol\":10664:10676  bots_.length */\n      mload\n        /* \"ERC20Standard.sol\":10660:10661  i */\n      dup2\n        /* \"ERC20Standard.sol\":10660:10676  i < bots_.length */\n      lt\n        /* \"ERC20Standard.sol\":10643:10729  for (uint i = 0; i < bots_.length; i++) {... */\n      iszero\n      tag_239\n      jumpi\n        /* \"ERC20Standard.sol\":10714:10718  true */\n      0x01\n        /* \"ERC20Standard.sol\":10697:10701  bots */\n      0x06\n        /* \"ERC20Standard.sol\":10697:10711  bots[bots_[i]] */\n      0x00\n        /* \"ERC20Standard.sol\":10702:10707  bots_ */\n      dup5\n        /* \"ERC20Standard.sol\":10708:10709  i */\n      dup5\n        /* \"ERC20Standard.sol\":10702:10710  bots_[i] */\n      dup2\n      mload\n      dup2\n      lt\n      tag_241\n      jumpi\n      tag_242\n      tag_243\n      jump\t// in\n    tag_242:\n    tag_241:\n      0x20\n      mul\n      0x20\n      add\n      add\n      mload\n        /* \"ERC20Standard.sol\":10697:10711  bots[bots_[i]] */\n      0xffffffffffffffffffffffffffffffffffffffff\n      and\n      0xffffffffffffffffffffffffffffffffffffffff\n      and\n      dup2\n      mstore\n      0x20\n      add\n      swap1\n      dup2\n      mstore\n      0x20\n      add\n      0x00\n      keccak256\n      0x00\n        /* \"ERC20Standard.sol\":10697:10718  bots[bots_[i]] = true */\n      0x0100\n      exp\n      dup2\n      sload\n      dup2\n      0xff\n      mul\n      not\n      and\n      swap1\n      dup4\n      iszero\n      iszero\n      mul\n      or\n      swap1\n      sstore\n      pop\n        /* \"ERC20Standard.sol\":10678:10681  i++ */\n      dup1\n      dup1\n      tag_244\n      swap1\n      tag_245\n      jump\t// in\n    tag_244:\n      swap2\n      pop\n      pop\n        /* \"ERC20Standard.sol\":10643:10729  for (uint i = 0; i < bots_.length; i++) {... */\n      jump(tag_238)\n    tag_239:\n      pop\n        /* \"ERC20Standard.sol\":10576:10735  function addbot(address[] memory bots_) public onlyOwner {... */\n      pop\n      jump\t// out\n        /* \"ERC20Standard.sol\":5777:5918  function allowance(address owner, address spender) public view override returns (uint256) {... */\n    tag_118:\n        /* \"ERC20Standard.sol\":5858:5865  uint256 */\n      0x00\n        /* \"ERC20Standard.sol\":5884:5895  _allowances */\n      0x04\n        /* \"ERC20Standard.sol\":5884:5902  _allowances[owner] */\n      0x00\n        /* \"ERC20Standard.sol\":5896:5901  owner */\n      dup5\n        /* \"ERC20Standard.sol\":5884:5902  _allowances[owner] */\n      0xffffffffffffffffffffffffffffffffffffffff\n      and\n      0xffffffffffffffffffffffffffffffffffffffff\n      and\n      dup2\n      mstore\n      0x20\n      add\n      swap1\n      dup2\n      mstore\n      0x20\n      add\n      0x00\n      keccak256\n        /* \"ERC20Standard.sol\":5884:5911  _allowances[owner][spender] */\n      0x00\n        /* \"ERC20Standard.sol\":5903:5910  spender */\n      dup4\n        /* \"ERC20Standard.sol\":5884:5911  _allowances[owner][spender] */\n      0xffffffffffffffffffffffffffffffffffffffff\n      and\n      0xffffffffffffffffffffffffffffffffffffffff\n      and\n      dup2\n      mstore\n      0x20\n      add\n      swap1\n      dup2\n      mstore\n      0x20\n      add\n      0x00\n      keccak256\n      sload\n        /* \"ERC20Standard.sol\":5877:5911  return _allowances[owner][spender] */\n      swap1\n      pop\n        /* \"ERC20Standard.sol\":5777:5918  function allowance(address owner, address spender) public view override returns (uint256) {... */\n      swap3\n      swap2\n      pop\n      pop\n      jump\t// out\n        /* \"ERC20Standard.sol\":95:191  function _msgSender() internal view virtual returns (address) {... */\n    tag_124:\n        /* \"ERC20Standard.sol\":148:155  address */\n      0x00\n        /* \"ERC20Standard.sol\":174:184  msg.sender */\n      caller\n        /* \"ERC20Standard.sol\":167:184  return msg.sender */\n      swap1\n      pop\n        /* \"ERC20Standard.sol\":95:191  function _msgSender() internal view virtual returns (address) {... */\n      swap1\n      jump\t// out\n        /* \"ERC20Standard.sol\":6766:7096  function _approve(address owner, address spender, uint256 amount) private {... */\n    tag_125:\n        /* \"ERC20Standard.sol\":6875:6876  0 */\n      0x00\n        /* \"ERC20Standard.sol\":6858:6877  owner != address(0) */\n      0xffffffffffffffffffffffffffffffffffffffff\n      and\n        /* \"ERC20Standard.sol\":6858:6863  owner */\n      dup4\n        /* \"ERC20Standard.sol\":6858:6877  owner != address(0) */\n      0xffffffffffffffffffffffffffffffffffffffff\n      and\n      sub\n        /* \"ERC20Standard.sol\":6850:6918  require(owner != address(0), \"ERC20: approve from the zero address\") */\n      tag_249\n      jumpi\n      mload(0x40)\n      0x08c379a000000000000000000000000000000000000000000000000000000000\n      dup2\n      mstore\n      0x04\n      add\n      tag_250\n      swap1\n      tag_251\n      jump\t// in\n    tag_250:\n      mload(0x40)\n      dup1\n      swap2\n      sub\n      swap1\n      revert\n    tag_249:\n        /* \"ERC20Standard.sol\":6955:6956  0 */\n      0x00\n        /* \"ERC20Standard.sol\":6936:6957  spender != address(0) */\n      0xffffffffffffffffffffffffffffffffffffffff\n      and\n        /* \"ERC20Standard.sol\":6936:6943  spender */\n      dup3\n        /* \"ERC20Standard.sol\":6936:6957  spender != address(0) */\n      0xffffffffffffffffffffffffffffffffffffffff\n      and\n      sub\n        /* \"ERC20Standard.sol\":6928:6996  require(spender != address(0), \"ERC20: approve to the zero address\") */\n      tag_252\n      jumpi\n      mload(0x40)\n      0x08c379a000000000000000000000000000000000000000000000000000000000\n      dup2\n      mstore\n      0x04\n      add\n      tag_253\n      swap1\n      tag_254\n      jump\t// in\n    tag_253:\n      mload(0x40)\n      dup1\n      swap2\n      sub\n      swap1\n      revert\n    tag_252:\n        /* \"ERC20Standard.sol\":7036:7042  amount */\n      dup1\n        /* \"ERC20Standard.sol\":7006:7017  _allowances */\n      0x04\n        /* \"ERC20Standard.sol\":7006:7024  _allowances[owner] */\n      0x00\n        /* \"ERC20Standard.sol\":7018:7023  owner */\n      dup6\n        /* \"ERC20Standard.sol\":7006:7024  _allowances[owner] */\n      0xffffffffffffffffffffffffffffffffffffffff\n      and\n      0xffffffffffffffffffffffffffffffffffffffff\n      and\n      dup2\n      mstore\n      0x20\n      add\n      swap1\n      dup2\n      mstore\n      0x20\n      add\n      0x00\n      keccak256\n        /* \"ERC20Standard.sol\":7006:7033  _allowances[owner][spender] */\n      0x00\n        /* \"ERC20Standard.sol\":7025:7032  spender */\n      dup5\n        /* \"ERC20Standard.sol\":7006:7033  _allowances[owner][spender] */\n      0xffffffffffffffffffffffffffffffffffffffff\n      and\n      0xffffffffffffffffffffffffffffffffffffffff\n      and\n      dup2\n      mstore\n      0x20\n      add\n      swap1\n      dup2\n      mstore\n      0x20\n      add\n      0x00\n      keccak256\n        /* \"ERC20Standard.sol\":7006:7042  _allowances[owner][spender] = amount */\n      dup2\n      swap1\n      sstore\n      pop\n        /* \"ERC20Standard.sol\":7073:7080  spender */\n      dup2\n        /* \"ERC20Standard.sol\":7057:7089  Approval(owner, spender, amount) */\n      0xffffffffffffffffffffffffffffffffffffffff\n      and\n        /* \"ERC20Standard.sol\":7066:7071  owner */\n      dup4\n        /* \"ERC20Standard.sol\":7057:7089  Approval(owner, spender, amount) */\n      0xffffffffffffffffffffffffffffffffffffffff\n      and\n      0x8c5be1e5ebec7d5bd14f71427d1e84f3dd0314c0f7b2291e5b200ac8c7c3b925\n        /* \"ERC20Standard.sol\":7082:7088  amount */\n      dup4\n        /* \"ERC20Standard.sol\":7057:7089  Approval(owner, spender, amount) */\n      mload(0x40)\n      tag_255\n      swap2\n      swap1\n      tag_44\n      jump\t// in\n    tag_255:\n      mload(0x40)\n      dup1\n      swap2\n      sub\n      swap1\n      log3\n        /* \"ERC20Standard.sol\":6766:7096  function _approve(address owner, address spender, uint256 amount) private {... */\n      pop\n      pop\n      pop\n      jump\t// out\n        /* \"ERC20Standard.sol\":7102:8658  function _transfer(address from, address to, uint256 amount) private {... */\n    tag_129:\n        /* \"ERC20Standard.sol\":7205:7206  0 */\n      0x00\n        /* \"ERC20Standard.sol\":7189:7207  from != address(0) */\n      0xffffffffffffffffffffffffffffffffffffffff\n      and\n        /* \"ERC20Standard.sol\":7189:7193  from */\n      dup4\n        /* \"ERC20Standard.sol\":7189:7207  from != address(0) */\n      0xffffffffffffffffffffffffffffffffffffffff\n      and\n      sub\n        /* \"ERC20Standard.sol\":7181:7249  require(from != address(0), \"ERC20: transfer from the zero address\") */\n      tag_257\n      jumpi\n      mload(0x40)\n      0x08c379a000000000000000000000000000000000000000000000000000000000\n      dup2\n      mstore\n      0x04\n      add\n      tag_258\n      swap1\n      tag_259\n      jump\t// in\n    tag_258:\n      mload(0x40)\n      dup1\n      swap2\n      sub\n      swap1\n      revert\n    tag_257:\n        /* \"ERC20Standard.sol\":7281:7282  0 */\n      0x00\n        /* \"ERC20Standard.sol\":7267:7283  to != address(0) */\n      0xffffffffffffffffffffffffffffffffffffffff\n      and\n        /* \"ERC20Standard.sol\":7267:7269  to */\n      dup3\n        /* \"ERC20Standard.sol\":7267:7283  to != address(0) */\n      0xffffffffffffffffffffffffffffffffffffffff\n      and\n      sub\n        /* \"ERC20Standard.sol\":7259:7323  require(to != address(0), \"ERC20: transfer to the zero address\") */\n      tag_260\n      jumpi\n      mload(0x40)\n      0x08c379a000000000000000000000000000000000000000000000000000000000\n      dup2\n      mstore\n      0x04\n      add\n      tag_261\n      swap1\n      tag_262\n      jump\t// in\n    tag_261:\n      mload(0x40)\n      dup1\n      swap2\n      sub\n      swap1\n      revert\n    tag_260:\n        /* \"ERC20Standard.sol\":7350:7351  0 */\n      0x00\n        /* \"ERC20Standard.sol\":7341:7347  amount */\n      dup2\n        /* \"ERC20Standard.sol\":7341:7351  amount > 0 */\n      gt\n        /* \"ERC20Standard.sol\":7333:7397  require(amount > 0, \"Transfer amount must be greater than zero\") */\n      tag_263\n      jumpi\n      mload(0x40)\n      0x08c379a000000000000000000000000000000000000000000000000000000000\n      dup2\n      mstore\n      0x04\n      add\n      tag_264\n      swap1\n      tag_265\n      jump\t// in\n    tag_264:\n      mload(0x40)\n      dup1\n      swap2\n      sub\n      swap1\n      revert\n    tag_263:\n        /* \"ERC20Standard.sol\":7419:7420  0 */\n      0x00\n        /* \"ERC20Standard.sol\":7407:7416  _feeAddr1 */\n      0x0b\n        /* \"ERC20Standard.sol\":7407:7420  _feeAddr1 = 0 */\n      dup2\n      swap1\n      sstore\n      pop\n        /* \"ERC20Standard.sol\":7442:7443  5 */\n      0x05\n        /* \"ERC20Standard.sol\":7430:7439  _feeAddr2 */\n      0x0c\n        /* \"ERC20Standard.sol\":7430:7443  _feeAddr2 = 5 */\n      dup2\n      swap1\n      sstore\n      pop\n        /* \"ERC20Standard.sol\":7465:7472  owner() */\n      tag_266\n        /* \"ERC20Standard.sol\":7465:7470  owner */\n      tag_87\n        /* \"ERC20Standard.sol\":7465:7472  owner() */\n      jump\t// in\n    tag_266:\n        /* \"ERC20Standard.sol\":7457:7472  from != owner() */\n      0xffffffffffffffffffffffffffffffffffffffff\n      and\n        /* \"ERC20Standard.sol\":7457:7461  from */\n      dup4\n        /* \"ERC20Standard.sol\":7457:7472  from != owner() */\n      0xffffffffffffffffffffffffffffffffffffffff\n      and\n      eq\n      iszero\n        /* \"ERC20Standard.sol\":7457:7489  from != owner() && to != owner() */\n      dup1\n      iszero\n      tag_267\n      jumpi\n      pop\n        /* \"ERC20Standard.sol\":7482:7489  owner() */\n      tag_268\n        /* \"ERC20Standard.sol\":7482:7487  owner */\n      tag_87\n        /* \"ERC20Standard.sol\":7482:7489  owner() */\n      jump\t// in\n    tag_268:\n        /* \"ERC20Standard.sol\":7476:7489  to != owner() */\n      0xffffffffffffffffffffffffffffffffffffffff\n      and\n        /* \"ERC20Standard.sol\":7476:7478  to */\n      dup3\n        /* \"ERC20Standard.sol\":7476:7489  to != owner() */\n      0xffffffffffffffffffffffffffffffffffffffff\n      and\n      eq\n      iszero\n        /* \"ERC20Standard.sol\":7457:7489  from != owner() && to != owner() */\n    tag_267:\n        /* \"ERC20Standard.sol\":7453:8609  if (from != owner() && to != owner()) {... */\n      iszero\n      tag_269\n      jumpi\n        /* \"ERC20Standard.sol\":7514:7518  bots */\n      0x06\n        /* \"ERC20Standard.sol\":7514:7524  bots[from] */\n      0x00\n        /* \"ERC20Standard.sol\":7519:7523  from */\n      dup5\n        /* \"ERC20Standard.sol\":7514:7524  bots[from] */\n      0xffffffffffffffffffffffffffffffffffffffff\n      and\n      0xffffffffffffffffffffffffffffffffffffffff\n      and\n      dup2\n      mstore\n      0x20\n      add\n      swap1\n      dup2\n      mstore\n      0x20\n      add\n      0x00\n      keccak256\n      0x00\n      swap1\n      sload\n      swap1\n      0x0100\n      exp\n      swap1\n      div\n      0xff\n      and\n        /* \"ERC20Standard.sol\":7513:7524  !bots[from] */\n      iszero\n        /* \"ERC20Standard.sol\":7513:7537  !bots[from] && !bots[to] */\n      dup1\n      iszero\n      tag_270\n      jumpi\n      pop\n        /* \"ERC20Standard.sol\":7529:7533  bots */\n      0x06\n        /* \"ERC20Standard.sol\":7529:7537  bots[to] */\n      0x00\n        /* \"ERC20Standard.sol\":7534:7536  to */\n      dup4\n        /* \"ERC20Standard.sol\":7529:7537  bots[to] */\n      0xffffffffffffffffffffffffffffffffffffffff\n      and\n      0xffffffffffffffffffffffffffffffffffffffff\n      and\n      dup2\n      mstore\n      0x20\n      add\n      swap1\n      dup2\n      mstore\n      0x20\n      add\n      0x00\n      keccak256\n      0x00\n      swap1\n      sload\n      swap1\n      0x0100\n      exp\n      swap1\n      div\n      0xff\n      and\n        /* \"ERC20Standard.sol\":7528:7537  !bots[to] */\n      iszero\n        /* \"ERC20Standard.sol\":7513:7537  !bots[from] && !bots[to] */\n    tag_270:\n        /* \"ERC20Standard.sol\":7505:7538  require(!bots[from] && !bots[to]) */\n      tag_271\n      jumpi\n      0x00\n      dup1\n      revert\n    tag_271:\n        /* \"ERC20Standard.sol\":7564:7577  uniswapV2Pair */\n      0x0f\n      0x00\n      swap1\n      sload\n      swap1\n      0x0100\n      exp\n      swap1\n      div\n      0xffffffffffffffffffffffffffffffffffffffff\n      and\n        /* \"ERC20Standard.sol\":7556:7577  from == uniswapV2Pair */\n      0xffffffffffffffffffffffffffffffffffffffff\n      and\n        /* \"ERC20Standard.sol\":7556:7560  from */\n      dup4\n        /* \"ERC20Standard.sol\":7556:7577  from == uniswapV2Pair */\n      0xffffffffffffffffffffffffffffffffffffffff\n      and\n      eq\n        /* \"ERC20Standard.sol\":7556:7611  from == uniswapV2Pair && to != address(uniswapV2Router) */\n      dup1\n      iszero\n      tag_272\n      jumpi\n      pop\n        /* \"ERC20Standard.sol\":7595:7610  uniswapV2Router */\n      0x0e\n      0x00\n      swap1\n      sload\n      swap1\n      0x0100\n      exp\n      swap1\n      div\n      0xffffffffffffffffffffffffffffffffffffffff\n      and\n        /* \"ERC20Standard.sol\":7581:7611  to != address(uniswapV2Router) */\n      0xffffffffffffffffffffffffffffffffffffffff\n      and\n        /* \"ERC20Standard.sol\":7581:7583  to */\n      dup3\n        /* \"ERC20Standard.sol\":7581:7611  to != address(uniswapV2Router) */\n      0xffffffffffffffffffffffffffffffffffffffff\n      and\n      eq\n      iszero\n        /* \"ERC20Standard.sol\":7556:7611  from == uniswapV2Pair && to != address(uniswapV2Router) */\n    tag_272:\n        /* \"ERC20Standard.sol\":7556:7639  from == uniswapV2Pair && to != address(uniswapV2Router) && ! _isExcludedFromFee[to] */\n      dup1\n      iszero\n      tag_273\n      jumpi\n      pop\n        /* \"ERC20Standard.sol\":7617:7635  _isExcludedFromFee */\n      0x05\n        /* \"ERC20Standard.sol\":7617:7639  _isExcludedFromFee[to] */\n      0x00\n        /* \"ERC20Standard.sol\":7636:7638  to */\n      dup4\n        /* \"ERC20Standard.sol\":7617:7639  _isExcludedFromFee[to] */\n      0xffffffffffffffffffffffffffffffffffffffff\n      and\n      0xffffffffffffffffffffffffffffffffffffffff\n      and\n      dup2\n      mstore\n      0x20\n      add\n      swap1\n      dup2\n      mstore\n      0x20\n      add\n      0x00\n      keccak256\n      0x00\n      swap1\n      sload\n      swap1\n      0x0100\n      exp\n      swap1\n      div\n      0xff\n      and\n        /* \"ERC20Standard.sol\":7615:7639  ! _isExcludedFromFee[to] */\n      iszero\n        /* \"ERC20Standard.sol\":7556:7639  from == uniswapV2Pair && to != address(uniswapV2Router) && ! _isExcludedFromFee[to] */\n    tag_273:\n        /* \"ERC20Standard.sol\":7556:7658  from == uniswapV2Pair && to != address(uniswapV2Router) && ! _isExcludedFromFee[to] && cooldownEnabled */\n      dup1\n      iszero\n      tag_274\n      jumpi\n      pop\n        /* \"ERC20Standard.sol\":7643:7658  cooldownEnabled */\n      0x0f\n      0x17\n      swap1\n      sload\n      swap1\n      0x0100\n      exp\n      swap1\n      div\n      0xff\n      and\n        /* \"ERC20Standard.sol\":7556:7658  from == uniswapV2Pair && to != address(uniswapV2Router) && ! _isExcludedFromFee[to] && cooldownEnabled */\n    tag_274:\n        /* \"ERC20Standard.sol\":7552:7998  if (from == uniswapV2Pair && to != address(uniswapV2Router) && ! _isExcludedFromFee[to] && cooldownEnabled) {... */\n      iszero\n      tag_275\n      jumpi\n        /* \"ERC20Standard.sol\":7724:7736  _maxTxAmount */\n      sload(0x10)\n        /* \"ERC20Standard.sol\":7714:7720  amount */\n      dup2\n        /* \"ERC20Standard.sol\":7714:7736  amount <= _maxTxAmount */\n      gt\n      iszero\n        /* \"ERC20Standard.sol\":7706:7766  require(amount <= _maxTxAmount, \"Exceeds the _maxTxAmount.\") */\n      tag_276\n      jumpi\n      mload(0x40)\n      0x08c379a000000000000000000000000000000000000000000000000000000000\n      dup2\n      mstore\n      0x04\n      add\n      tag_277\n      swap1\n      tag_278\n      jump\t// in\n    tag_277:\n      mload(0x40)\n      dup1\n      swap2\n      sub\n      swap1\n      revert\n    tag_276:\n        /* \"ERC20Standard.sol\":7818:7832  _maxWalletSize */\n      sload(0x11)\n        /* \"ERC20Standard.sol\":7808:7814  amount */\n      dup2\n        /* \"ERC20Standard.sol\":7792:7805  balanceOf(to) */\n      tag_279\n        /* \"ERC20Standard.sol\":7802:7804  to */\n      dup5\n        /* \"ERC20Standard.sol\":7792:7801  balanceOf */\n      tag_77\n        /* \"ERC20Standard.sol\":7792:7805  balanceOf(to) */\n      jump\t// in\n    tag_279:\n        /* \"ERC20Standard.sol\":7792:7814  balanceOf(to) + amount */\n      tag_280\n      swap2\n      swap1\n      tag_281\n      jump\t// in\n    tag_280:\n        /* \"ERC20Standard.sol\":7792:7832  balanceOf(to) + amount <= _maxWalletSize */\n      gt\n      iszero\n        /* \"ERC20Standard.sol\":7784:7863  require(balanceOf(to) + amount <= _maxWalletSize, \"Exceeds the maxWalletSize.\") */\n      tag_282\n      jumpi\n      mload(0x40)\n      0x08c379a000000000000000000000000000000000000000000000000000000000\n      dup2\n      mstore\n      0x04\n      add\n      tag_283\n      swap1\n      tag_284\n      jump\t// in\n    tag_283:\n      mload(0x40)\n      dup1\n      swap2\n      sub\n      swap1\n      revert\n    tag_282:\n        /* \"ERC20Standard.sol\":7904:7919  block.timestamp */\n      timestamp\n        /* \"ERC20Standard.sol\":7889:7897  cooldown */\n      0x07\n        /* \"ERC20Standard.sol\":7889:7901  cooldown[to] */\n      0x00\n        /* \"ERC20Standard.sol\":7898:7900  to */\n      dup5\n        /* \"ERC20Standard.sol\":7889:7901  cooldown[to] */\n      0xffffffffffffffffffffffffffffffffffffffff\n      and\n      0xffffffffffffffffffffffffffffffffffffffff\n      and\n      dup2\n      mstore\n      0x20\n      add\n      swap1\n      dup2\n      mstore\n      0x20\n      add\n      0x00\n      keccak256\n      sload\n        /* \"ERC20Standard.sol\":7889:7919  cooldown[to] < block.timestamp */\n      lt\n        /* \"ERC20Standard.sol\":7881:7920  require(cooldown[to] < block.timestamp) */\n      tag_285\n      jumpi\n      0x00\n      dup1\n      revert\n    tag_285:\n        /* \"ERC20Standard.sol\":7972:7982  30 seconds */\n      0x1e\n        /* \"ERC20Standard.sol\":7953:7968  block.timestamp */\n      timestamp\n        /* \"ERC20Standard.sol\":7953:7983  block.timestamp + (30 seconds) */\n      tag_286\n      swap2\n      swap1\n      tag_281\n      jump\t// in\n    tag_286:\n        /* \"ERC20Standard.sol\":7938:7946  cooldown */\n      0x07\n        /* \"ERC20Standard.sol\":7938:7950  cooldown[to] */\n      0x00\n        /* \"ERC20Standard.sol\":7947:7949  to */\n      dup5\n        /* \"ERC20Standard.sol\":7938:7950  cooldown[to] */\n      0xffffffffffffffffffffffffffffffffffffffff\n      and\n      0xffffffffffffffffffffffffffffffffffffffff\n      and\n      dup2\n      mstore\n      0x20\n      add\n      swap1\n      dup2\n      mstore\n      0x20\n      add\n      0x00\n      keccak256\n        /* \"ERC20Standard.sol\":7938:7983  cooldown[to] = block.timestamp + (30 seconds) */\n      dup2\n      swap1\n      sstore\n      pop\n        /* \"ERC20Standard.sol\":7552:7998  if (from == uniswapV2Pair && to != address(uniswapV2Router) && ! _isExcludedFromFee[to] && cooldownEnabled) {... */\n    tag_275:\n        /* \"ERC20Standard.sol\":8047:8060  uniswapV2Pair */\n      0x0f\n      0x00\n      swap1\n      sload\n      swap1\n      0x0100\n      exp\n      swap1\n      div\n      0xffffffffffffffffffffffffffffffffffffffff\n      and\n        /* \"ERC20Standard.sol\":8041:8060  to == uniswapV2Pair */\n      0xffffffffffffffffffffffffffffffffffffffff\n      and\n        /* \"ERC20Standard.sol\":8041:8043  to */\n      dup3\n        /* \"ERC20Standard.sol\":8041:8060  to == uniswapV2Pair */\n      0xffffffffffffffffffffffffffffffffffffffff\n      and\n      eq\n        /* \"ERC20Standard.sol\":8041:8096  to == uniswapV2Pair && from != address(uniswapV2Router) */\n      dup1\n      iszero\n      tag_287\n      jumpi\n      pop\n        /* \"ERC20Standard.sol\":8080:8095  uniswapV2Router */\n      0x0e\n      0x00\n      swap1\n      sload\n      swap1\n      0x0100\n      exp\n      swap1\n      div\n      0xffffffffffffffffffffffffffffffffffffffff\n      and\n        /* \"ERC20Standard.sol\":8064:8096  from != address(uniswapV2Router) */\n      0xffffffffffffffffffffffffffffffffffffffff\n      and\n        /* \"ERC20Standard.sol\":8064:8068  from */\n      dup4\n        /* \"ERC20Standard.sol\":8064:8096  from != address(uniswapV2Router) */\n      0xffffffffffffffffffffffffffffffffffffffff\n      and\n      eq\n      iszero\n        /* \"ERC20Standard.sol\":8041:8096  to == uniswapV2Pair && from != address(uniswapV2Router) */\n    tag_287:\n        /* \"ERC20Standard.sol\":8041:8126  to == uniswapV2Pair && from != address(uniswapV2Router) && ! _isExcludedFromFee[from] */\n      dup1\n      iszero\n      tag_288\n      jumpi\n      pop\n        /* \"ERC20Standard.sol\":8102:8120  _isExcludedFromFee */\n      0x05\n        /* \"ERC20Standard.sol\":8102:8126  _isExcludedFromFee[from] */\n      0x00\n        /* \"ERC20Standard.sol\":8121:8125  from */\n      dup5\n        /* \"ERC20Standard.sol\":8102:8126  _isExcludedFromFee[from] */\n      0xffffffffffffffffffffffffffffffffffffffff\n      and\n      0xffffffffffffffffffffffffffffffffffffffff\n      and\n      dup2\n      mstore\n      0x20\n      add\n      swap1\n      dup2\n      mstore\n      0x20\n      add\n      0x00\n      keccak256\n      0x00\n      swap1\n      sload\n      swap1\n      0x0100\n      exp\n      swap1\n      div\n      0xff\n      and\n        /* \"ERC20Standard.sol\":8100:8126  ! _isExcludedFromFee[from] */\n      iszero\n        /* \"ERC20Standard.sol\":8041:8126  to == uniswapV2Pair && from != address(uniswapV2Router) && ! _isExcludedFromFee[from] */\n    tag_288:\n        /* \"ERC20Standard.sol\":8037:8205  if (to == uniswapV2Pair && from != address(uniswapV2Router) && ! _isExcludedFromFee[from]) {... */\n      iszero\n      tag_289\n      jumpi\n        /* \"ERC20Standard.sol\":8158:8159  0 */\n      0x00\n        /* \"ERC20Standard.sol\":8146:8155  _feeAddr1 */\n      0x0b\n        /* \"ERC20Standard.sol\":8146:8159  _feeAddr1 = 0 */\n      dup2\n      swap1\n      sstore\n      pop\n        /* \"ERC20Standard.sol\":8189:8190  5 */\n      0x05\n        /* \"ERC20Standard.sol\":8177:8186  _feeAddr2 */\n      0x0c\n        /* \"ERC20Standard.sol\":8177:8190  _feeAddr2 = 5 */\n      dup2\n      swap1\n      sstore\n      pop\n        /* \"ERC20Standard.sol\":8037:8205  if (to == uniswapV2Pair && from != address(uniswapV2Router) && ! _isExcludedFromFee[from]) {... */\n    tag_289:\n        /* \"ERC20Standard.sol\":8218:8246  uint256 contractTokenBalance */\n      0x00\n        /* \"ERC20Standard.sol\":8249:8273  balanceOf(address(this)) */\n      tag_290\n        /* \"ERC20Standard.sol\":8267:8271  this */\n      address\n        /* \"ERC20Standard.sol\":8249:8258  balanceOf */\n      tag_77\n        /* \"ERC20Standard.sol\":8249:8273  balanceOf(address(this)) */\n      jump\t// in\n    tag_290:\n        /* \"ERC20Standard.sol\":8218:8273  uint256 contractTokenBalance = balanceOf(address(this)) */\n      swap1\n      pop\n        /* \"ERC20Standard.sol\":8292:8298  inSwap */\n      0x0f\n      0x15\n      swap1\n      sload\n      swap1\n      0x0100\n      exp\n      swap1\n      div\n      0xff\n      and\n        /* \"ERC20Standard.sol\":8291:8298  !inSwap */\n      iszero\n        /* \"ERC20Standard.sol\":8291:8323  !inSwap && from != uniswapV2Pair */\n      dup1\n      iszero\n      tag_291\n      jumpi\n      pop\n        /* \"ERC20Standard.sol\":8310:8323  uniswapV2Pair */\n      0x0f\n      0x00\n      swap1\n      sload\n      swap1\n      0x0100\n      exp\n      swap1\n      div\n      0xffffffffffffffffffffffffffffffffffffffff\n      and\n        /* \"ERC20Standard.sol\":8302:8323  from != uniswapV2Pair */\n      0xffffffffffffffffffffffffffffffffffffffff\n      and\n        /* \"ERC20Standard.sol\":8302:8306  from */\n      dup5\n        /* \"ERC20Standard.sol\":8302:8323  from != uniswapV2Pair */\n      0xffffffffffffffffffffffffffffffffffffffff\n      and\n      eq\n      iszero\n        /* \"ERC20Standard.sol\":8291:8323  !inSwap && from != uniswapV2Pair */\n    tag_291:\n        /* \"ERC20Standard.sol\":8291:8338  !inSwap && from != uniswapV2Pair && swapEnabled */\n      dup1\n      iszero\n      tag_292\n      jumpi\n      pop\n        /* \"ERC20Standard.sol\":8327:8338  swapEnabled */\n      0x0f\n      0x16\n      swap1\n      sload\n      swap1\n      0x0100\n      exp\n      swap1\n      div\n      0xff\n      and\n        /* \"ERC20Standard.sol\":8291:8338  !inSwap && from != uniswapV2Pair && swapEnabled */\n    tag_292:\n        /* \"ERC20Standard.sol\":8287:8599  if (!inSwap && from != uniswapV2Pair && swapEnabled) {... */\n      iszero\n      tag_293\n      jumpi\n        /* \"ERC20Standard.sol\":8358:8396  swapTokensForEth(contractTokenBalance) */\n      tag_294\n        /* \"ERC20Standard.sol\":8375:8395  contractTokenBalance */\n      dup2\n        /* \"ERC20Standard.sol\":8358:8374  swapTokensForEth */\n      tag_193\n        /* \"ERC20Standard.sol\":8358:8396  swapTokensForEth(contractTokenBalance) */\n      jump\t// in\n    tag_294:\n        /* \"ERC20Standard.sol\":8414:8440  uint256 contractETHBalance */\n      0x00\n        /* \"ERC20Standard.sol\":8443:8464  address(this).balance */\n      selfbalance\n        /* \"ERC20Standard.sol\":8414:8464  uint256 contractETHBalance = address(this).balance */\n      swap1\n      pop\n        /* \"ERC20Standard.sol\":8506:8507  0 */\n      0x00\n        /* \"ERC20Standard.sol\":8485:8503  contractETHBalance */\n      dup2\n        /* \"ERC20Standard.sol\":8485:8507  contractETHBalance > 0 */\n      gt\n        /* \"ERC20Standard.sol\":8482:8585  if(contractETHBalance > 0) {... */\n      iszero\n      tag_295\n      jumpi\n        /* \"ERC20Standard.sol\":8531:8566  sendETHToFee(address(this).balance) */\n      tag_296\n        /* \"ERC20Standard.sol\":8544:8565  address(this).balance */\n      selfbalance\n        /* \"ERC20Standard.sol\":8531:8543  sendETHToFee */\n      tag_161\n        /* \"ERC20Standard.sol\":8531:8566  sendETHToFee(address(this).balance) */\n      jump\t// in\n    tag_296:\n        /* \"ERC20Standard.sol\":8482:8585  if(contractETHBalance > 0) {... */\n    tag_295:\n        /* \"ERC20Standard.sol\":8340:8599  {... */\n      pop\n        /* \"ERC20Standard.sol\":8287:8599  if (!inSwap && from != uniswapV2Pair && swapEnabled) {... */\n    tag_293:\n        /* \"ERC20Standard.sol\":7491:8609  {... */\n      pop\n        /* \"ERC20Standard.sol\":7453:8609  if (from != owner() && to != owner()) {... */\n    tag_269:\n        /* \"ERC20Standard.sol\":8621:8651  _tokenTransfer(from,to,amount) */\n      tag_297\n        /* \"ERC20Standard.sol\":8636:8640  from */\n      dup4\n        /* \"ERC20Standard.sol\":8641:8643  to */\n      dup4\n        /* \"ERC20Standard.sol\":8644:8650  amount */\n      dup4\n        /* \"ERC20Standard.sol\":8621:8635  _tokenTransfer */\n      tag_298\n        /* \"ERC20Standard.sol\":8621:8651  _tokenTransfer(from,to,amount) */\n      jump\t// in\n    tag_297:\n        /* \"ERC20Standard.sol\":7102:8658  function _transfer(address from, address to, uint256 amount) private {... */\n      pop\n      pop\n      pop\n      jump\t// out\n        /* \"ERC20Standard.sol\":1205:1391  function sub(uint256 a, uint256 b, string memory errorMessage) internal pure returns (uint256) {... */\n    tag_134:\n        /* \"ERC20Standard.sol\":1291:1298  uint256 */\n      0x00\n        /* \"ERC20Standard.sol\":1323:1324  a */\n      dup4\n        /* \"ERC20Standard.sol\":1318:1319  b */\n      dup4\n        /* \"ERC20Standard.sol\":1318:1324  b <= a */\n      gt\n      iszero\n        /* \"ERC20Standard.sol\":1326:1338  errorMessage */\n      dup3\n        /* \"ERC20Standard.sol\":1310:1339  require(b <= a, errorMessage) */\n      swap1\n      tag_300\n      jumpi\n      mload(0x40)\n      0x08c379a000000000000000000000000000000000000000000000000000000000\n      dup2\n      mstore\n      0x04\n      add\n      tag_301\n      swap2\n      swap1\n      tag_32\n      jump\t// in\n    tag_301:\n      mload(0x40)\n      dup1\n      swap2\n      sub\n      swap1\n      revert\n    tag_300:\n      pop\n        /* \"ERC20Standard.sol\":1349:1358  uint256 c */\n      0x00\n        /* \"ERC20Standard.sol\":1365:1366  b */\n      dup4\n        /* \"ERC20Standard.sol\":1361:1362  a */\n      dup6\n        /* \"ERC20Standard.sol\":1361:1366  a - b */\n      tag_302\n      swap2\n      swap1\n      tag_303\n      jump\t// in\n    tag_302:\n        /* \"ERC20Standard.sol\":1349:1366  uint256 c = a - b */\n      swap1\n      pop\n        /* \"ERC20Standard.sol\":1383:1384  c */\n      dup1\n        /* \"ERC20Standard.sol\":1376:1384  return c */\n      swap2\n      pop\n      pop\n        /* \"ERC20Standard.sol\":1205:1391  function sub(uint256 a, uint256 b, string memory errorMessage) internal pure returns (uint256) {... */\n      swap4\n      swap3\n      pop\n      pop\n      pop\n      jump\t// out\n        /* \"ERC20Standard.sol\":1397:1636  function mul(uint256 a, uint256 b) internal pure returns (uint256) {... */\n    tag_155:\n        /* \"ERC20Standard.sol\":1455:1462  uint256 */\n      0x00\n        /* \"ERC20Standard.sol\":1483:1484  0 */\n      dup1\n        /* \"ERC20Standard.sol\":1478:1479  a */\n      dup4\n        /* \"ERC20Standard.sol\":1478:1484  a == 0 */\n      sub\n        /* \"ERC20Standard.sol\":1474:1519  if (a == 0) {... */\n      tag_305\n      jumpi\n        /* \"ERC20Standard.sol\":1507:1508  0 */\n      0x00\n        /* \"ERC20Standard.sol\":1500:1508  return 0 */\n      swap1\n      pop\n      jump(tag_304)\n        /* \"ERC20Standard.sol\":1474:1519  if (a == 0) {... */\n    tag_305:\n        /* \"ERC20Standard.sol\":1528:1537  uint256 c */\n      0x00\n        /* \"ERC20Standard.sol\":1544:1545  b */\n      dup3\n        /* \"ERC20Standard.sol\":1540:1541  a */\n      dup5\n        /* \"ERC20Standard.sol\":1540:1545  a * b */\n      tag_306\n      swap2\n      swap1\n      tag_307\n      jump\t// in\n    tag_306:\n        /* \"ERC20Standard.sol\":1528:1545  uint256 c = a * b */\n      swap1\n      pop\n        /* \"ERC20Standard.sol\":1572:1573  b */\n      dup3\n        /* \"ERC20Standard.sol\":1567:1568  a */\n      dup5\n        /* \"ERC20Standard.sol\":1563:1564  c */\n      dup3\n        /* \"ERC20Standard.sol\":1563:1568  c / a */\n      tag_308\n      swap2\n      swap1\n      tag_309\n      jump\t// in\n    tag_308:\n        /* \"ERC20Standard.sol\":1563:1573  c / a == b */\n      eq\n        /* \"ERC20Standard.sol\":1555:1611  require(c / a == b, \"SafeMath: multiplication overflow\") */\n      tag_310\n      jumpi\n      mload(0x40)\n      0x08c379a000000000000000000000000000000000000000000000000000000000\n      dup2\n      mstore\n      0x04\n      add\n      tag_311\n      swap1\n      tag_312\n      jump\t// in\n    tag_311:\n      mload(0x40)\n      dup1\n      swap2\n      sub\n      swap1\n      revert\n    tag_310:\n        /* \"ERC20Standard.sol\":1628:1629  c */\n      dup1\n        /* \"ERC20Standard.sol\":1621:1629  return c */\n      swap2\n      pop\n      pop\n        /* \"ERC20Standard.sol\":1397:1636  function mul(uint256 a, uint256 b) internal pure returns (uint256) {... */\n    tag_304:\n      swap3\n      swap2\n      pop\n      pop\n      jump\t// out\n        /* \"ERC20Standard.sol\":1642:1772  function div(uint256 a, uint256 b) internal pure returns (uint256) {... */\n    tag_156:\n        /* \"ERC20Standard.sol\":1700:1707  uint256 */\n      0x00\n        /* \"ERC20Standard.sol\":1726:1765  div(a, b, \"SafeMath: division by zero\") */\n      tag_314\n        /* \"ERC20Standard.sol\":1730:1731  a */\n      dup4\n        /* \"ERC20Standard.sol\":1733:1734  b */\n      dup4\n        /* \"ERC20Standard.sol\":1726:1765  div(a, b, \"SafeMath: division by zero\") */\n      mload(0x40)\n      dup1\n      0x40\n      add\n      0x40\n      mstore\n      dup1\n      0x1a\n      dup2\n      mstore\n      0x20\n      add\n      0x536166654d6174683a206469766973696f6e206279207a65726f000000000000\n      dup2\n      mstore\n      pop\n        /* \"ERC20Standard.sol\":1726:1729  div */\n      tag_315\n        /* \"ERC20Standard.sol\":1726:1765  div(a, b, \"SafeMath: division by zero\") */\n      jump\t// in\n    tag_314:\n        /* \"ERC20Standard.sol\":1719:1765  return div(a, b, \"SafeMath: division by zero\") */\n      swap1\n      pop\n        /* \"ERC20Standard.sol\":1642:1772  function div(uint256 a, uint256 b) internal pure returns (uint256) {... */\n      swap3\n      swap2\n      pop\n      pop\n      jump\t// out\n        /* \"ERC20Standard.sol\":9606:9700  function sendETHToFee(uint256 amount) private {... */\n    tag_161:\n        /* \"ERC20Standard.sol\":9662:9676  _feeAddrWallet */\n      0x0d\n      0x00\n      swap1\n      sload\n      swap1\n      0x0100\n      exp\n      swap1\n      div\n      0xffffffffffffffffffffffffffffffffffffffff\n      and\n        /* \"ERC20Standard.sol\":9662:9685  _feeAddrWallet.transfer */\n      0xffffffffffffffffffffffffffffffffffffffff\n      and\n        /* \"ERC20Standard.sol\":9662:9693  _feeAddrWallet.transfer(amount) */\n      0x08fc\n        /* \"ERC20Standard.sol\":9686:9692  amount */\n      dup3\n        /* \"ERC20Standard.sol\":9662:9693  _feeAddrWallet.transfer(amount) */\n      swap1\n      dup2\n      iszero\n      mul\n      swap1\n      mload(0x40)\n      0x00\n      mload(0x40)\n      dup1\n      dup4\n      sub\n      dup2\n      dup6\n      dup9\n      dup9\n      call\n      swap4\n      pop\n      pop\n      pop\n      pop\n      iszero\n      dup1\n      iszero\n      tag_318\n      jumpi\n      returndatasize\n      0x00\n      dup1\n      returndatacopy\n      revert(0x00, returndatasize)\n    tag_318:\n      pop\n        /* \"ERC20Standard.sol\":9606:9700  function sendETHToFee(uint256 amount) private {... */\n      pop\n      jump\t// out\n        /* \"ERC20Standard.sol\":6510:6760  function tokenFromReflection(uint256 rAmount) private view returns(uint256) {... */\n    tag_164:\n        /* \"ERC20Standard.sol\":6577:6584  uint256 */\n      0x00\n        /* \"ERC20Standard.sol\":6615:6622  _rTotal */\n      sload(0x08)\n        /* \"ERC20Standard.sol\":6604:6611  rAmount */\n      dup3\n        /* \"ERC20Standard.sol\":6604:6622  rAmount <= _rTotal */\n      gt\n      iszero\n        /* \"ERC20Standard.sol\":6596:6669  require(rAmount <= _rTotal, \"Amount must be less than total reflections\") */\n      tag_320\n      jumpi\n      mload(0x40)\n      0x08c379a000000000000000000000000000000000000000000000000000000000\n      dup2\n      mstore\n      0x04\n      add\n      tag_321\n      swap1\n      tag_322\n      jump\t// in\n    tag_321:\n      mload(0x40)\n      dup1\n      swap2\n      sub\n      swap1\n      revert\n    tag_320:\n        /* \"ERC20Standard.sol\":6679:6698  uint256 currentRate */\n      0x00\n        /* \"ERC20Standard.sol\":6702:6712  _getRate() */\n      tag_323\n        /* \"ERC20Standard.sol\":6702:6710  _getRate */\n      tag_324\n        /* \"ERC20Standard.sol\":6702:6712  _getRate() */\n      jump\t// in\n    tag_323:\n        /* \"ERC20Standard.sol\":6679:6712  uint256 currentRate =  _getRate() */\n      swap1\n      pop\n        /* \"ERC20Standard.sol\":6729:6753  rAmount.div(currentRate) */\n      tag_325\n        /* \"ERC20Standard.sol\":6741:6752  currentRate */\n      dup2\n        /* \"ERC20Standard.sol\":6729:6736  rAmount */\n      dup5\n        /* \"ERC20Standard.sol\":6729:6740  rAmount.div */\n      tag_156\n      swap1\n        /* \"ERC20Standard.sol\":6729:6753  rAmount.div(currentRate) */\n      swap2\n      swap1\n      0xffffffff\n      and\n      jump\t// in\n    tag_325:\n        /* \"ERC20Standard.sol\":6722:6753  return rAmount.div(currentRate) */\n      swap2\n      pop\n      pop\n        /* \"ERC20Standard.sol\":6510:6760  function tokenFromReflection(uint256 rAmount) private view returns(uint256) {... */\n      swap2\n      swap1\n      pop\n      jump\t// out\n        /* \"ERC20Standard.sol\":8664:9135  function swapTokensForEth(uint256 tokenAmount) private lockTheSwap {... */\n    tag_193:\n        /* \"ERC20Standard.sol\":4699:4703  true */\n      0x01\n        /* \"ERC20Standard.sol\":4690:4696  inSwap */\n      0x0f\n      0x15\n        /* \"ERC20Standard.sol\":4690:4703  inSwap = true */\n      0x0100\n      exp\n      dup2\n      sload\n      dup2\n      0xff\n      mul\n      not\n      and\n      swap1\n      dup4\n      iszero\n      iszero\n      mul\n      or\n      swap1\n      sstore\n      pop\n        /* \"ERC20Standard.sol\":8741:8762  address[] memory path */\n      0x00\n        /* \"ERC20Standard.sol\":8779:8780  2 */\n      0x02\n        /* \"ERC20Standard.sol\":8765:8781  new address[](2) */\n      0xffffffffffffffff\n      dup2\n      gt\n      iszero\n      tag_328\n      jumpi\n      tag_329\n      tag_330\n      jump\t// in\n    tag_329:\n    tag_328:\n      mload(0x40)\n      swap1\n      dup1\n      dup3\n      mstore\n      dup1\n      0x20\n      mul\n      0x20\n      add\n      dup3\n      add\n      0x40\n      mstore\n      dup1\n      iszero\n      tag_331\n      jumpi\n      dup2\n      0x20\n      add\n      0x20\n      dup3\n      mul\n      dup1\n      calldatasize\n      dup4\n      calldatacopy\n      dup1\n      dup3\n      add\n      swap2\n      pop\n      pop\n      swap1\n      pop\n    tag_331:\n      pop\n        /* \"ERC20Standard.sol\":8741:8781  address[] memory path = new address[](2) */\n      swap1\n      pop\n        /* \"ERC20Standard.sol\":8809:8813  this */\n      address\n        /* \"ERC20Standard.sol\":8791:8795  path */\n      dup2\n        /* \"ERC20Standard.sol\":8796:8797  0 */\n      0x00\n        /* \"ERC20Standard.sol\":8791:8798  path[0] */\n      dup2\n      mload\n      dup2\n      lt\n      tag_332\n      jumpi\n      tag_333\n      tag_243\n      jump\t// in\n    tag_333:\n    tag_332:\n      0x20\n      mul\n      0x20\n      add\n      add\n        /* \"ERC20Standard.sol\":8791:8814  path[0] = address(this) */\n      swap1\n      0xffffffffffffffffffffffffffffffffffffffff\n      and\n      swap1\n      dup2\n      0xffffffffffffffffffffffffffffffffffffffff\n      and\n      dup2\n      mstore\n      pop\n      pop\n        /* \"ERC20Standard.sol\":8834:8849  uniswapV2Router */\n      0x0e\n      0x00\n      swap1\n      sload\n      swap1\n      0x0100\n      exp\n      swap1\n      div\n      0xffffffffffffffffffffffffffffffffffffffff\n      and\n        /* \"ERC20Standard.sol\":8834:8854  uniswapV2Router.WETH */\n      0xffffffffffffffffffffffffffffffffffffffff\n      and\n      0xad5c4648\n        /* \"ERC20Standard.sol\":8834:8856  uniswapV2Router.WETH() */\n      mload(0x40)\n      dup2\n      0xffffffff\n      and\n      0xe0\n      shl\n      dup2\n      mstore\n      0x04\n      add\n      0x20\n      mload(0x40)\n      dup1\n      dup4\n      sub\n      dup2\n      dup7\n      gas\n      staticcall\n      iszero\n      dup1\n      iszero\n      tag_335\n      jumpi\n      returndatasize\n      0x00\n      dup1\n      returndatacopy\n      revert(0x00, returndatasize)\n    tag_335:\n      pop\n      pop\n      pop\n      pop\n      mload(0x40)\n      returndatasize\n      not(0x1f)\n      0x1f\n      dup3\n      add\n      and\n      dup3\n      add\n      dup1\n      0x40\n      mstore\n      pop\n      dup2\n      add\n      swap1\n      tag_336\n      swap2\n      swap1\n      tag_206\n      jump\t// in\n    tag_336:\n        /* \"ERC20Standard.sol\":8824:8828  path */\n      dup2\n        /* \"ERC20Standard.sol\":8829:8830  1 */\n      0x01\n        /* \"ERC20Standard.sol\":8824:8831  path[1] */\n      dup2\n      mload\n      dup2\n      lt\n      tag_337\n      jumpi\n      tag_338\n      tag_243\n      jump\t// in\n    tag_338:\n    tag_337:\n      0x20\n      mul\n      0x20\n      add\n      add\n        /* \"ERC20Standard.sol\":8824:8856  path[1] = uniswapV2Router.WETH() */\n      swap1\n      0xffffffffffffffffffffffffffffffffffffffff\n      and\n      swap1\n      dup2\n      0xffffffffffffffffffffffffffffffffffffffff\n      and\n      dup2\n      mstore\n      pop\n      pop\n        /* \"ERC20Standard.sol\":8866:8928  _approve(address(this), address(uniswapV2Router), tokenAmount) */\n      tag_339\n        /* \"ERC20Standard.sol\":8883:8887  this */\n      address\n        /* \"ERC20Standard.sol\":8898:8913  uniswapV2Router */\n      0x0e\n      0x00\n      swap1\n      sload\n      swap1\n      0x0100\n      exp\n      swap1\n      div\n      0xffffffffffffffffffffffffffffffffffffffff\n      and\n        /* \"ERC20Standard.sol\":8916:8927  tokenAmount */\n      dup5\n        /* \"ERC20Standard.sol\":8866:8874  _approve */\n      tag_125\n        /* \"ERC20Standard.sol\":8866:8928  _approve(address(this), address(uniswapV2Router), tokenAmount) */\n      jump\t// in\n    tag_339:\n        /* \"ERC20Standard.sol\":8938:8953  uniswapV2Router */\n      0x0e\n      0x00\n      swap1\n      sload\n      swap1\n      0x0100\n      exp\n      swap1\n      div\n      0xffffffffffffffffffffffffffffffffffffffff\n      and\n        /* \"ERC20Standard.sol\":8938:9004  uniswapV2Router.swapExactTokensForETHSupportingFeeOnTransferTokens */\n      0xffffffffffffffffffffffffffffffffffffffff\n      and\n      0x791ac947\n        /* \"ERC20Standard.sol\":9018:9029  tokenAmount */\n      dup4\n        /* \"ERC20Standard.sol\":9043:9044  0 */\n      0x00\n        /* \"ERC20Standard.sol\":9058:9062  path */\n      dup5\n        /* \"ERC20Standard.sol\":9084:9088  this */\n      address\n        /* \"ERC20Standard.sol\":9103:9118  block.timestamp */\n      timestamp\n        /* \"ERC20Standard.sol\":8938:9128  uniswapV2Router.swapExactTokensForETHSupportingFeeOnTransferTokens(... */\n      mload(0x40)\n      dup7\n      0xffffffff\n      and\n      0xe0\n      shl\n      dup2\n      mstore\n      0x04\n      add\n      tag_340\n      swap6\n      swap5\n      swap4\n      swap3\n      swap2\n      swap1\n      tag_341\n      jump\t// in\n    tag_340:\n      0x00\n      mload(0x40)\n      dup1\n      dup4\n      sub\n      dup2\n      0x00\n      dup8\n      dup1\n      extcodesize\n      iszero\n      dup1\n      iszero\n      tag_342\n      jumpi\n      0x00\n      dup1\n      revert\n    tag_342:\n      pop\n      gas\n      call\n      iszero\n      dup1\n      iszero\n      tag_344\n      jumpi\n      returndatasize\n      0x00\n      dup1\n      returndatacopy\n      revert(0x00, returndatasize)\n    tag_344:\n      pop\n      pop\n      pop\n      pop\n        /* \"ERC20Standard.sol\":8731:9135  {... */\n      pop\n        /* \"ERC20Standard.sol\":4733:4738  false */\n      0x00\n        /* \"ERC20Standard.sol\":4724:4730  inSwap */\n      0x0f\n      0x15\n        /* \"ERC20Standard.sol\":4724:4738  inSwap = false */\n      0x0100\n      exp\n      dup2\n      sload\n      dup2\n      0xff\n      mul\n      not\n      and\n      swap1\n      dup4\n      iszero\n      iszero\n      mul\n      or\n      swap1\n      sstore\n      pop\n        /* \"ERC20Standard.sol\":8664:9135  function swapTokensForEth(uint256 tokenAmount) private lockTheSwap {... */\n      pop\n      jump\t// out\n        /* \"ERC20Standard.sol\":10845:10989  function _tokenTransfer(address sender, address recipient, uint256 amount) private {... */\n    tag_298:\n        /* \"ERC20Standard.sol\":10938:10982  _transferStandard(sender, recipient, amount) */\n      tag_346\n        /* \"ERC20Standard.sol\":10956:10962  sender */\n      dup4\n        /* \"ERC20Standard.sol\":10964:10973  recipient */\n      dup4\n        /* \"ERC20Standard.sol\":10975:10981  amount */\n      dup4\n        /* \"ERC20Standard.sol\":10938:10955  _transferStandard */\n      tag_347\n        /* \"ERC20Standard.sol\":10938:10982  _transferStandard(sender, recipient, amount) */\n      jump\t// in\n    tag_346:\n        /* \"ERC20Standard.sol\":10845:10989  function _tokenTransfer(address sender, address recipient, uint256 amount) private {... */\n      pop\n      pop\n      pop\n      jump\t// out\n        /* \"ERC20Standard.sol\":1778:1963  function div(uint256 a, uint256 b, string memory errorMessage) internal pure returns (uint256) {... */\n    tag_315:\n        /* \"ERC20Standard.sol\":1864:1871  uint256 */\n      0x00\n        /* \"ERC20Standard.sol\":1895:1896  0 */\n      dup1\n        /* \"ERC20Standard.sol\":1891:1892  b */\n      dup4\n        /* \"ERC20Standard.sol\":1891:1896  b > 0 */\n      gt\n        /* \"ERC20Standard.sol\":1898:1910  errorMessage */\n      dup3\n        /* \"ERC20Standard.sol\":1883:1911  require(b > 0, errorMessage) */\n      swap1\n      tag_349\n      jumpi\n      mload(0x40)\n      0x08c379a000000000000000000000000000000000000000000000000000000000\n      dup2\n      mstore\n      0x04\n      add\n      tag_350\n      swap2\n      swap1\n      tag_32\n      jump\t// in\n    tag_350:\n      mload(0x40)\n      dup1\n      swap2\n      sub\n      swap1\n      revert\n    tag_349:\n      pop\n        /* \"ERC20Standard.sol\":1921:1930  uint256 c */\n      0x00\n        /* \"ERC20Standard.sol\":1937:1938  b */\n      dup4\n        /* \"ERC20Standard.sol\":1933:1934  a */\n      dup6\n        /* \"ERC20Standard.sol\":1933:1938  a / b */\n      tag_351\n      swap2\n      swap1\n      tag_309\n      jump\t// in\n    tag_351:\n        /* \"ERC20Standard.sol\":1921:1938  uint256 c = a / b */\n      swap1\n      pop\n        /* \"ERC20Standard.sol\":1955:1956  c */\n      dup1\n        /* \"ERC20Standard.sol\":1948:1956  return c */\n      swap2\n      pop\n      pop\n        /* \"ERC20Standard.sol\":1778:1963  function div(uint256 a, uint256 b, string memory errorMessage) internal pure returns (uint256) {... */\n      swap4\n      swap3\n      pop\n      pop\n      pop\n      jump\t// out\n        /* \"ERC20Standard.sol\":13515:13675  function _getRate() private view returns(uint256) {... */\n    tag_324:\n        /* \"ERC20Standard.sol\":13556:13563  uint256 */\n      0x00\n        /* \"ERC20Standard.sol\":13576:13591  uint256 rSupply */\n      dup1\n        /* \"ERC20Standard.sol\":13593:13608  uint256 tSupply */\n      0x00\n        /* \"ERC20Standard.sol\":13612:13631  _getCurrentSupply() */\n      tag_353\n        /* \"ERC20Standard.sol\":13612:13629  _getCurrentSupply */\n      tag_354\n        /* \"ERC20Standard.sol\":13612:13631  _getCurrentSupply() */\n      jump\t// in\n    tag_353:\n        /* \"ERC20Standard.sol\":13575:13631  (uint256 rSupply, uint256 tSupply) = _getCurrentSupply() */\n      swap2\n      pop\n      swap2\n      pop\n        /* \"ERC20Standard.sol\":13648:13668  rSupply.div(tSupply) */\n      tag_355\n        /* \"ERC20Standard.sol\":13660:13667  tSupply */\n      dup2\n        /* \"ERC20Standard.sol\":13648:13655  rSupply */\n      dup4\n        /* \"ERC20Standard.sol\":13648:13659  rSupply.div */\n      tag_156\n      swap1\n        /* \"ERC20Standard.sol\":13648:13668  rSupply.div(tSupply) */\n      swap2\n      swap1\n      0xffffffff\n      and\n      jump\t// in\n    tag_355:\n        /* \"ERC20Standard.sol\":13641:13668  return rSupply.div(tSupply) */\n      swap3\n      pop\n      pop\n      pop\n        /* \"ERC20Standard.sol\":13515:13675  function _getRate() private view returns(uint256) {... */\n      swap1\n      jump\t// out\n        /* \"ERC20Standard.sol\":10995:11476  function _transferStandard(address sender, address recipient, uint256 tAmount) private {... */\n    tag_347:\n        /* \"ERC20Standard.sol\":11093:11108  uint256 rAmount */\n      0x00\n        /* \"ERC20Standard.sol\":11110:11133  uint256 rTransferAmount */\n      dup1\n        /* \"ERC20Standard.sol\":11135:11147  uint256 rFee */\n      0x00\n        /* \"ERC20Standard.sol\":11149:11172  uint256 tTransferAmount */\n      dup1\n        /* \"ERC20Standard.sol\":11174:11186  uint256 tFee */\n      0x00\n        /* \"ERC20Standard.sol\":11188:11201  uint256 tTeam */\n      dup1\n        /* \"ERC20Standard.sol\":11205:11224  _getValues(tAmount) */\n      tag_357\n        /* \"ERC20Standard.sol\":11216:11223  tAmount */\n      dup8\n        /* \"ERC20Standard.sol\":11205:11215  _getValues */\n      tag_358\n        /* \"ERC20Standard.sol\":11205:11224  _getValues(tAmount) */\n      jump\t// in\n    tag_357:\n        /* \"ERC20Standard.sol\":11092:11224  (uint256 rAmount, uint256 rTransferAmount, uint256 rFee, uint256 tTransferAmount, uint256 tFee, uint256 tTeam) = _getValues(tAmount) */\n      swap6\n      pop\n      swap6\n      pop\n      swap6\n      pop\n      swap6\n      pop\n      swap6\n      pop\n      swap6\n      pop\n        /* \"ERC20Standard.sol\":11252:11280  _rOwned[sender].sub(rAmount) */\n      tag_359\n        /* \"ERC20Standard.sol\":11272:11279  rAmount */\n      dup7\n        /* \"ERC20Standard.sol\":11252:11259  _rOwned */\n      0x02\n        /* \"ERC20Standard.sol\":11252:11267  _rOwned[sender] */\n      0x00\n        /* \"ERC20Standard.sol\":11260:11266  sender */\n      dup13\n        /* \"ERC20Standard.sol\":11252:11267  _rOwned[sender] */\n      0xffffffffffffffffffffffffffffffffffffffff\n      and\n      0xffffffffffffffffffffffffffffffffffffffff\n      and\n      dup2\n      mstore\n      0x20\n      add\n      swap1\n      dup2\n      mstore\n      0x20\n      add\n      0x00\n      keccak256\n      sload\n        /* \"ERC20Standard.sol\":11252:11271  _rOwned[sender].sub */\n      tag_360\n      swap1\n        /* \"ERC20Standard.sol\":11252:11280  _rOwned[sender].sub(rAmount) */\n      swap2\n      swap1\n      0xffffffff\n      and\n      jump\t// in\n    tag_359:\n        /* \"ERC20Standard.sol\":11234:11241  _rOwned */\n      0x02\n        /* \"ERC20Standard.sol\":11234:11249  _rOwned[sender] */\n      0x00\n        /* \"ERC20Standard.sol\":11242:11248  sender */\n      dup12\n        /* \"ERC20Standard.sol\":11234:11249  _rOwned[sender] */\n      0xffffffffffffffffffffffffffffffffffffffff\n      and\n      0xffffffffffffffffffffffffffffffffffffffff\n      and\n      dup2\n      mstore\n      0x20\n      add\n      swap1\n      dup2\n      mstore\n      0x20\n      add\n      0x00\n      keccak256\n        /* \"ERC20Standard.sol\":11234:11280  _rOwned[sender] = _rOwned[sender].sub(rAmount) */\n      dup2\n      swap1\n      sstore\n      pop\n        /* \"ERC20Standard.sol\":11311:11350  _rOwned[recipient].add(rTransferAmount) */\n      tag_361\n        /* \"ERC20Standard.sol\":11334:11349  rTransferAmount */\n      dup6\n        /* \"ERC20Standard.sol\":11311:11318  _rOwned */\n      0x02\n        /* \"ERC20Standard.sol\":11311:11329  _rOwned[recipient] */\n      0x00\n        /* \"ERC20Standard.sol\":11319:11328  recipient */\n      dup12\n        /* \"ERC20Standard.sol\":11311:11329  _rOwned[recipient] */\n      0xffffffffffffffffffffffffffffffffffffffff\n      and\n      0xffffffffffffffffffffffffffffffffffffffff\n      and\n      dup2\n      mstore\n      0x20\n      add\n      swap1\n      dup2\n      mstore\n      0x20\n      add\n      0x00\n      keccak256\n      sload\n        /* \"ERC20Standard.sol\":11311:11333  _rOwned[recipient].add */\n      tag_362\n      swap1\n        /* \"ERC20Standard.sol\":11311:11350  _rOwned[recipient].add(rTransferAmount) */\n      swap2\n      swap1\n      0xffffffff\n      and\n      jump\t// in\n    tag_361:\n        /* \"ERC20Standard.sol\":11290:11297  _rOwned */\n      0x02\n        /* \"ERC20Standard.sol\":11290:11308  _rOwned[recipient] */\n      0x00\n        /* \"ERC20Standard.sol\":11298:11307  recipient */\n      dup11\n        /* \"ERC20Standard.sol\":11290:11308  _rOwned[recipient] */\n      0xffffffffffffffffffffffffffffffffffffffff\n      and\n      0xffffffffffffffffffffffffffffffffffffffff\n      and\n      dup2\n      mstore\n      0x20\n      add\n      swap1\n      dup2\n      mstore\n      0x20\n      add\n      0x00\n      keccak256\n        /* \"ERC20Standard.sol\":11290:11350  _rOwned[recipient] = _rOwned[recipient].add(rTransferAmount) */\n      dup2\n      swap1\n      sstore\n      pop\n        /* \"ERC20Standard.sol\":11361:11377  _takeTeam(tTeam) */\n      tag_363\n        /* \"ERC20Standard.sol\":11371:11376  tTeam */\n      dup2\n        /* \"ERC20Standard.sol\":11361:11370  _takeTeam */\n      tag_364\n        /* \"ERC20Standard.sol\":11361:11377  _takeTeam(tTeam) */\n      jump\t// in\n    tag_363:\n        /* \"ERC20Standard.sol\":11387:11410  _reflectFee(rFee, tFee) */\n      tag_365\n        /* \"ERC20Standard.sol\":11399:11403  rFee */\n      dup5\n        /* \"ERC20Standard.sol\":11405:11409  tFee */\n      dup4\n        /* \"ERC20Standard.sol\":11387:11398  _reflectFee */\n      tag_366\n        /* \"ERC20Standard.sol\":11387:11410  _reflectFee(rFee, tFee) */\n      jump\t// in\n    tag_365:\n        /* \"ERC20Standard.sol\":11442:11451  recipient */\n      dup8\n        /* \"ERC20Standard.sol\":11425:11469  Transfer(sender, recipient, tTransferAmount) */\n      0xffffffffffffffffffffffffffffffffffffffff\n      and\n        /* \"ERC20Standard.sol\":11434:11440  sender */\n      dup10\n        /* \"ERC20Standard.sol\":11425:11469  Transfer(sender, recipient, tTransferAmount) */\n      0xffffffffffffffffffffffffffffffffffffffff\n      and\n      0xddf252ad1be2c89b69c2b068fc378daa952ba7f163c4a11628f55a4df523b3ef\n        /* \"ERC20Standard.sol\":11453:11468  tTransferAmount */\n      dup6\n        /* \"ERC20Standard.sol\":11425:11469  Transfer(sender, recipient, tTransferAmount) */\n      mload(0x40)\n      tag_367\n      swap2\n      swap1\n      tag_44\n      jump\t// in\n    tag_367:\n      mload(0x40)\n      dup1\n      swap2\n      sub\n      swap1\n      log3\n        /* \"ERC20Standard.sol\":11082:11476  {... */\n      pop\n      pop\n      pop\n      pop\n      pop\n      pop\n        /* \"ERC20Standard.sol\":10995:11476  function _transferStandard(address sender, address recipient, uint256 tAmount) private {... */\n      pop\n      pop\n      pop\n      jump\t// out\n        /* \"ERC20Standard.sol\":13681:13938  function _getCurrentSupply() private view returns(uint256, uint256) {... */\n    tag_354:\n        /* \"ERC20Standard.sol\":13731:13738  uint256 */\n      0x00\n        /* \"ERC20Standard.sol\":13740:13747  uint256 */\n      dup1\n        /* \"ERC20Standard.sol\":13759:13774  uint256 rSupply */\n      0x00\n        /* \"ERC20Standard.sol\":13777:13784  _rTotal */\n      sload(0x08)\n        /* \"ERC20Standard.sol\":13759:13784  uint256 rSupply = _rTotal */\n      swap1\n      pop\n        /* \"ERC20Standard.sol\":13794:13809  uint256 tSupply */\n      0x00\n        /* \"ERC20Standard.sol\":3899:3914  1000000 * 10**9 */\n      0x038d7ea4c68000\n        /* \"ERC20Standard.sol\":13794:13819  uint256 tSupply = _tTotal */\n      swap1\n      pop\n        /* \"ERC20Standard.sol\":13849:13869  _rTotal.div(_tTotal) */\n      tag_369\n        /* \"ERC20Standard.sol\":3899:3914  1000000 * 10**9 */\n      0x038d7ea4c68000\n        /* \"ERC20Standard.sol\":13849:13856  _rTotal */\n      sload(0x08)\n        /* \"ERC20Standard.sol\":13849:13860  _rTotal.div */\n      tag_156\n      swap1\n        /* \"ERC20Standard.sol\":13849:13869  _rTotal.div(_tTotal) */\n      swap2\n      swap1\n      0xffffffff\n      and\n      jump\t// in\n    tag_369:\n        /* \"ERC20Standard.sol\":13839:13846  rSupply */\n      dup3\n        /* \"ERC20Standard.sol\":13839:13869  rSupply < _rTotal.div(_tTotal) */\n      lt\n        /* \"ERC20Standard.sol\":13835:13896  if (rSupply < _rTotal.div(_tTotal)) return (_rTotal, _tTotal) */\n      iszero\n      tag_370\n      jumpi\n        /* \"ERC20Standard.sol\":13879:13886  _rTotal */\n      sload(0x08)\n        /* \"ERC20Standard.sol\":3899:3914  1000000 * 10**9 */\n      0x038d7ea4c68000\n        /* \"ERC20Standard.sol\":13871:13896  return (_rTotal, _tTotal) */\n      swap4\n      pop\n      swap4\n      pop\n      pop\n      pop\n      jump(tag_368)\n        /* \"ERC20Standard.sol\":13835:13896  if (rSupply < _rTotal.div(_tTotal)) return (_rTotal, _tTotal) */\n    tag_370:\n        /* \"ERC20Standard.sol\":13914:13921  rSupply */\n      dup2\n        /* \"ERC20Standard.sol\":13923:13930  tSupply */\n      dup2\n        /* \"ERC20Standard.sol\":13906:13931  return (rSupply, tSupply) */\n      swap4\n      pop\n      swap4\n      pop\n      pop\n      pop\n        /* \"ERC20Standard.sol\":13681:13938  function _getCurrentSupply() private view returns(uint256, uint256) {... */\n    tag_368:\n      swap1\n      swap2\n      jump\t// out\n        /* \"ERC20Standard.sol\":12285:12751  function _getValues(uint256 tAmount) private view returns (uint256, uint256, uint256, uint256, uint256, uint256) {... */\n    tag_358:\n        /* \"ERC20Standard.sol\":12344:12351  uint256 */\n      0x00\n        /* \"ERC20Standard.sol\":12353:12360  uint256 */\n      dup1\n        /* \"ERC20Standard.sol\":12362:12369  uint256 */\n      0x00\n        /* \"ERC20Standard.sol\":12371:12378  uint256 */\n      dup1\n        /* \"ERC20Standard.sol\":12380:12387  uint256 */\n      0x00\n        /* \"ERC20Standard.sol\":12389:12396  uint256 */\n      dup1\n        /* \"ERC20Standard.sol\":12409:12432  uint256 tTransferAmount */\n      0x00\n        /* \"ERC20Standard.sol\":12434:12446  uint256 tFee */\n      dup1\n        /* \"ERC20Standard.sol\":12448:12461  uint256 tTeam */\n      0x00\n        /* \"ERC20Standard.sol\":12465:12507  _getTValues(tAmount, _feeAddr1, _feeAddr2) */\n      tag_372\n        /* \"ERC20Standard.sol\":12477:12484  tAmount */\n      dup11\n        /* \"ERC20Standard.sol\":12486:12495  _feeAddr1 */\n      sload(0x0b)\n        /* \"ERC20Standard.sol\":12497:12506  _feeAddr2 */\n      sload(0x0c)\n        /* \"ERC20Standard.sol\":12465:12476  _getTValues */\n      tag_373\n        /* \"ERC20Standard.sol\":12465:12507  _getTValues(tAmount, _feeAddr1, _feeAddr2) */\n      jump\t// in\n    tag_372:\n        /* \"ERC20Standard.sol\":12408:12507  (uint256 tTransferAmount, uint256 tFee, uint256 tTeam) = _getTValues(tAmount, _feeAddr1, _feeAddr2) */\n      swap3\n      pop\n      swap3\n      pop\n      swap3\n      pop\n        /* \"ERC20Standard.sol\":12517:12536  uint256 currentRate */\n      0x00\n        /* \"ERC20Standard.sol\":12540:12550  _getRate() */\n      tag_374\n        /* \"ERC20Standard.sol\":12540:12548  _getRate */\n      tag_324\n        /* \"ERC20Standard.sol\":12540:12550  _getRate() */\n      jump\t// in\n    tag_374:\n        /* \"ERC20Standard.sol\":12517:12550  uint256 currentRate =  _getRate() */\n      swap1\n      pop\n        /* \"ERC20Standard.sol\":12561:12576  uint256 rAmount */\n      0x00\n        /* \"ERC20Standard.sol\":12578:12601  uint256 rTransferAmount */\n      dup1\n        /* \"ERC20Standard.sol\":12603:12615  uint256 rFee */\n      0x00\n        /* \"ERC20Standard.sol\":12619:12665  _getRValues(tAmount, tFee, tTeam, currentRate) */\n      tag_375\n        /* \"ERC20Standard.sol\":12631:12638  tAmount */\n      dup15\n        /* \"ERC20Standard.sol\":12640:12644  tFee */\n      dup8\n        /* \"ERC20Standard.sol\":12646:12651  tTeam */\n      dup8\n        /* \"ERC20Standard.sol\":12653:12664  currentRate */\n      dup8\n        /* \"ERC20Standard.sol\":12619:12630  _getRValues */\n      tag_376\n        /* \"ERC20Standard.sol\":12619:12665  _getRValues(tAmount, tFee, tTeam, currentRate) */\n      jump\t// in\n    tag_375:\n        /* \"ERC20Standard.sol\":12560:12665  (uint256 rAmount, uint256 rTransferAmount, uint256 rFee) = _getRValues(tAmount, tFee, tTeam, currentRate) */\n      swap3\n      pop\n      swap3\n      pop\n      swap3\n      pop\n        /* \"ERC20Standard.sol\":12683:12690  rAmount */\n      dup3\n        /* \"ERC20Standard.sol\":12692:12707  rTransferAmount */\n      dup3\n        /* \"ERC20Standard.sol\":12709:12713  rFee */\n      dup3\n        /* \"ERC20Standard.sol\":12715:12730  tTransferAmount */\n      dup10\n        /* \"ERC20Standard.sol\":12732:12736  tFee */\n      dup10\n        /* \"ERC20Standard.sol\":12738:12743  tTeam */\n      dup10\n        /* \"ERC20Standard.sol\":12675:12744  return (rAmount, rTransferAmount, rFee, tTransferAmount, tFee, tTeam) */\n      swap13\n      pop\n      swap13\n      pop\n      swap13\n      pop\n      swap13\n      pop\n      swap13\n      pop\n      swap13\n      pop\n      pop\n      pop\n      pop\n      pop\n      pop\n      pop\n      pop\n        /* \"ERC20Standard.sol\":12285:12751  function _getValues(uint256 tAmount) private view returns (uint256, uint256, uint256, uint256, uint256, uint256) {... */\n      swap2\n      swap4\n      swap6\n      pop\n      swap2\n      swap4\n      swap6\n      jump\t// out\n        /* \"ERC20Standard.sol\":1065:1199  function sub(uint256 a, uint256 b) internal pure returns (uint256) {... */\n    tag_360:\n        /* \"ERC20Standard.sol\":1123:1130  uint256 */\n      0x00\n        /* \"ERC20Standard.sol\":1149:1192  sub(a, b, \"SafeMath: subtraction overflow\") */\n      tag_378\n        /* \"ERC20Standard.sol\":1153:1154  a */\n      dup4\n        /* \"ERC20Standard.sol\":1156:1157  b */\n      dup4\n        /* \"ERC20Standard.sol\":1149:1192  sub(a, b, \"SafeMath: subtraction overflow\") */\n      mload(0x40)\n      dup1\n      0x40\n      add\n      0x40\n      mstore\n      dup1\n      0x1e\n      dup2\n      mstore\n      0x20\n      add\n      0x536166654d6174683a207375627472616374696f6e206f766572666c6f770000\n      dup2\n      mstore\n      pop\n        /* \"ERC20Standard.sol\":1149:1152  sub */\n      tag_134\n        /* \"ERC20Standard.sol\":1149:1192  sub(a, b, \"SafeMath: subtraction overflow\") */\n      jump\t// in\n    tag_378:\n        /* \"ERC20Standard.sol\":1142:1192  return sub(a, b, \"SafeMath: subtraction overflow\") */\n      swap1\n      pop\n        /* \"ERC20Standard.sol\":1065:1199  function sub(uint256 a, uint256 b) internal pure returns (uint256) {... */\n      swap3\n      swap2\n      pop\n      pop\n      jump\t// out\n        /* \"ERC20Standard.sol\":884:1059  function add(uint256 a, uint256 b) internal pure returns (uint256) {... */\n    tag_362:\n        /* \"ERC20Standard.sol\":942:949  uint256 */\n      0x00\n        /* \"ERC20Standard.sol\":961:970  uint256 c */\n      dup1\n        /* \"ERC20Standard.sol\":977:978  b */\n      dup3\n        /* \"ERC20Standard.sol\":973:974  a */\n      dup5\n        /* \"ERC20Standard.sol\":973:978  a + b */\n      tag_380\n      swap2\n      swap1\n      tag_281\n      jump\t// in\n    tag_380:\n        /* \"ERC20Standard.sol\":961:978  uint256 c = a + b */\n      swap1\n      pop\n        /* \"ERC20Standard.sol\":1001:1002  a */\n      dup4\n        /* \"ERC20Standard.sol\":996:997  c */\n      dup2\n        /* \"ERC20Standard.sol\":996:1002  c >= a */\n      lt\n      iszero\n        /* \"ERC20Standard.sol\":988:1034  require(c >= a, \"SafeMath: addition overflow\") */\n      tag_381\n      jumpi\n      mload(0x40)\n      0x08c379a000000000000000000000000000000000000000000000000000000000\n      dup2\n      mstore\n      0x04\n      add\n      tag_382\n      swap1\n      tag_383\n      jump\t// in\n    tag_382:\n      mload(0x40)\n      dup1\n      swap2\n      sub\n      swap1\n      revert\n    tag_381:\n        /* \"ERC20Standard.sol\":1051:1052  c */\n      dup1\n        /* \"ERC20Standard.sol\":1044:1052  return c */\n      swap2\n      pop\n      pop\n        /* \"ERC20Standard.sol\":884:1059  function add(uint256 a, uint256 b) internal pure returns (uint256) {... */\n      swap3\n      swap2\n      pop\n      pop\n      jump\t// out\n        /* \"ERC20Standard.sol\":11482:11690  function _takeTeam(uint256 tTeam) private {... */\n    tag_364:\n        /* \"ERC20Standard.sol\":11534:11553  uint256 currentRate */\n      0x00\n        /* \"ERC20Standard.sol\":11557:11567  _getRate() */\n      tag_385\n        /* \"ERC20Standard.sol\":11557:11565  _getRate */\n      tag_324\n        /* \"ERC20Standard.sol\":11557:11567  _getRate() */\n      jump\t// in\n    tag_385:\n        /* \"ERC20Standard.sol\":11534:11567  uint256 currentRate =  _getRate() */\n      swap1\n      pop\n        /* \"ERC20Standard.sol\":11577:11590  uint256 rTeam */\n      0x00\n        /* \"ERC20Standard.sol\":11593:11615  tTeam.mul(currentRate) */\n      tag_386\n        /* \"ERC20Standard.sol\":11603:11614  currentRate */\n      dup3\n        /* \"ERC20Standard.sol\":11593:11598  tTeam */\n      dup5\n        /* \"ERC20Standard.sol\":11593:11602  tTeam.mul */\n      tag_155\n      swap1\n        /* \"ERC20Standard.sol\":11593:11615  tTeam.mul(currentRate) */\n      swap2\n      swap1\n      0xffffffff\n      and\n      jump\t// in\n    tag_386:\n        /* \"ERC20Standard.sol\":11577:11615  uint256 rTeam = tTeam.mul(currentRate) */\n      swap1\n      pop\n        /* \"ERC20Standard.sol\":11650:11683  _rOwned[address(this)].add(rTeam) */\n      tag_387\n        /* \"ERC20Standard.sol\":11677:11682  rTeam */\n      dup2\n        /* \"ERC20Standard.sol\":11650:11657  _rOwned */\n      0x02\n        /* \"ERC20Standard.sol\":11650:11672  _rOwned[address(this)] */\n      0x00\n        /* \"ERC20Standard.sol\":11666:11670  this */\n      address\n        /* \"ERC20Standard.sol\":11650:11672  _rOwned[address(this)] */\n      0xffffffffffffffffffffffffffffffffffffffff\n      and\n      0xffffffffffffffffffffffffffffffffffffffff\n      and\n      dup2\n      mstore\n      0x20\n      add\n      swap1\n      dup2\n      mstore\n      0x20\n      add\n      0x00\n      keccak256\n      sload\n        /* \"ERC20Standard.sol\":11650:11676  _rOwned[address(this)].add */\n      tag_362\n      swap1\n        /* \"ERC20Standard.sol\":11650:11683  _rOwned[address(this)].add(rTeam) */\n      swap2\n      swap1\n      0xffffffff\n      and\n      jump\t// in\n    tag_387:\n        /* \"ERC20Standard.sol\":11625:11632  _rOwned */\n      0x02\n        /* \"ERC20Standard.sol\":11625:11647  _rOwned[address(this)] */\n      0x00\n        /* \"ERC20Standard.sol\":11641:11645  this */\n      address\n        /* \"ERC20Standard.sol\":11625:11647  _rOwned[address(this)] */\n      0xffffffffffffffffffffffffffffffffffffffff\n      and\n      0xffffffffffffffffffffffffffffffffffffffff\n      and\n      dup2\n      mstore\n      0x20\n      add\n      swap1\n      dup2\n      mstore\n      0x20\n      add\n      0x00\n      keccak256\n        /* \"ERC20Standard.sol\":11625:11683  _rOwned[address(this)] = _rOwned[address(this)].add(rTeam) */\n      dup2\n      swap1\n      sstore\n      pop\n        /* \"ERC20Standard.sol\":11524:11690  {... */\n      pop\n      pop\n        /* \"ERC20Standard.sol\":11482:11690  function _takeTeam(uint256 tTeam) private {... */\n      pop\n      jump\t// out\n        /* \"ERC20Standard.sol\":11696:11840  function _reflectFee(uint256 rFee, uint256 tFee) private {... */\n    tag_366:\n        /* \"ERC20Standard.sol\":11773:11790  _rTotal.sub(rFee) */\n      tag_389\n        /* \"ERC20Standard.sol\":11785:11789  rFee */\n      dup3\n        /* \"ERC20Standard.sol\":11773:11780  _rTotal */\n      sload(0x08)\n        /* \"ERC20Standard.sol\":11773:11784  _rTotal.sub */\n      tag_360\n      swap1\n        /* \"ERC20Standard.sol\":11773:11790  _rTotal.sub(rFee) */\n      swap2\n      swap1\n      0xffffffff\n      and\n      jump\t// in\n    tag_389:\n        /* \"ERC20Standard.sol\":11763:11770  _rTotal */\n      0x08\n        /* \"ERC20Standard.sol\":11763:11790  _rTotal = _rTotal.sub(rFee) */\n      dup2\n      swap1\n      sstore\n      pop\n        /* \"ERC20Standard.sol\":11813:11833  _tFeeTotal.add(tFee) */\n      tag_390\n        /* \"ERC20Standard.sol\":11828:11832  tFee */\n      dup2\n        /* \"ERC20Standard.sol\":11813:11823  _tFeeTotal */\n      sload(0x09)\n        /* \"ERC20Standard.sol\":11813:11827  _tFeeTotal.add */\n      tag_362\n      swap1\n        /* \"ERC20Standard.sol\":11813:11833  _tFeeTotal.add(tFee) */\n      swap2\n      swap1\n      0xffffffff\n      and\n      jump\t// in\n    tag_390:\n        /* \"ERC20Standard.sol\":11800:11810  _tFeeTotal */\n      0x09\n        /* \"ERC20Standard.sol\":11800:11833  _tFeeTotal = _tFeeTotal.add(tFee) */\n      dup2\n      swap1\n      sstore\n      pop\n        /* \"ERC20Standard.sol\":11696:11840  function _reflectFee(uint256 rFee, uint256 tFee) private {... */\n      pop\n      pop\n      jump\t// out\n        /* \"ERC20Standard.sol\":12757:13103  function _getTValues(uint256 tAmount, uint256 taxFee, uint256 TeamFee) private pure returns (uint256, uint256, uint256) {... */\n    tag_373:\n        /* \"ERC20Standard.sol\":12850:12857  uint256 */\n      0x00\n        /* \"ERC20Standard.sol\":12859:12866  uint256 */\n      dup1\n        /* \"ERC20Standard.sol\":12868:12875  uint256 */\n      0x00\n        /* \"ERC20Standard.sol\":12887:12899  uint256 tFee */\n      dup1\n        /* \"ERC20Standard.sol\":12902:12930  tAmount.mul(taxFee).div(100) */\n      tag_392\n        /* \"ERC20Standard.sol\":12926:12929  100 */\n      0x64\n        /* \"ERC20Standard.sol\":12902:12921  tAmount.mul(taxFee) */\n      tag_393\n        /* \"ERC20Standard.sol\":12914:12920  taxFee */\n      dup9\n        /* \"ERC20Standard.sol\":12902:12909  tAmount */\n      dup11\n        /* \"ERC20Standard.sol\":12902:12913  tAmount.mul */\n      tag_155\n      swap1\n        /* \"ERC20Standard.sol\":12902:12921  tAmount.mul(taxFee) */\n      swap2\n      swap1\n      0xffffffff\n      and\n      jump\t// in\n    tag_393:\n        /* \"ERC20Standard.sol\":12902:12925  tAmount.mul(taxFee).div */\n      tag_156\n      swap1\n        /* \"ERC20Standard.sol\":12902:12930  tAmount.mul(taxFee).div(100) */\n      swap2\n      swap1\n      0xffffffff\n      and\n      jump\t// in\n    tag_392:\n        /* \"ERC20Standard.sol\":12887:12930  uint256 tFee = tAmount.mul(taxFee).div(100) */\n      swap1\n      pop\n        /* \"ERC20Standard.sol\":12940:12953  uint256 tTeam */\n      0x00\n        /* \"ERC20Standard.sol\":12956:12985  tAmount.mul(TeamFee).div(100) */\n      tag_394\n        /* \"ERC20Standard.sol\":12981:12984  100 */\n      0x64\n        /* \"ERC20Standard.sol\":12956:12976  tAmount.mul(TeamFee) */\n      tag_395\n        /* \"ERC20Standard.sol\":12968:12975  TeamFee */\n      dup9\n        /* \"ERC20Standard.sol\":12956:12963  tAmount */\n      dup12\n        /* \"ERC20Standard.sol\":12956:12967  tAmount.mul */\n      tag_155\n      swap1\n        /* \"ERC20Standard.sol\":12956:12976  tAmount.mul(TeamFee) */\n      swap2\n      swap1\n      0xffffffff\n      and\n      jump\t// in\n    tag_395:\n        /* \"ERC20Standard.sol\":12956:12980  tAmount.mul(TeamFee).div */\n      tag_156\n      swap1\n        /* \"ERC20Standard.sol\":12956:12985  tAmount.mul(TeamFee).div(100) */\n      swap2\n      swap1\n      0xffffffff\n      and\n      jump\t// in\n    tag_394:\n        /* \"ERC20Standard.sol\":12940:12985  uint256 tTeam = tAmount.mul(TeamFee).div(100) */\n      swap1\n      pop\n        /* \"ERC20Standard.sol\":12995:13018  uint256 tTransferAmount */\n      0x00\n        /* \"ERC20Standard.sol\":13021:13049  tAmount.sub(tFee).sub(tTeam) */\n      tag_396\n        /* \"ERC20Standard.sol\":13043:13048  tTeam */\n      dup3\n        /* \"ERC20Standard.sol\":13021:13038  tAmount.sub(tFee) */\n      tag_397\n        /* \"ERC20Standard.sol\":13033:13037  tFee */\n      dup6\n        /* \"ERC20Standard.sol\":13021:13028  tAmount */\n      dup13\n        /* \"ERC20Standard.sol\":13021:13032  tAmount.sub */\n      tag_360\n      swap1\n        /* \"ERC20Standard.sol\":13021:13038  tAmount.sub(tFee) */\n      swap2\n      swap1\n      0xffffffff\n      and\n      jump\t// in\n    tag_397:\n        /* \"ERC20Standard.sol\":13021:13042  tAmount.sub(tFee).sub */\n      tag_360\n      swap1\n        /* \"ERC20Standard.sol\":13021:13049  tAmount.sub(tFee).sub(tTeam) */\n      swap2\n      swap1\n      0xffffffff\n      and\n      jump\t// in\n    tag_396:\n        /* \"ERC20Standard.sol\":12995:13049  uint256 tTransferAmount = tAmount.sub(tFee).sub(tTeam) */\n      swap1\n      pop\n        /* \"ERC20Standard.sol\":13067:13082  tTransferAmount */\n      dup1\n        /* \"ERC20Standard.sol\":13084:13088  tFee */\n      dup4\n        /* \"ERC20Standard.sol\":13090:13095  tTeam */\n      dup4\n        /* \"ERC20Standard.sol\":13059:13096  return (tTransferAmount, tFee, tTeam) */\n      swap6\n      pop\n      swap6\n      pop\n      swap6\n      pop\n      pop\n      pop\n      pop\n        /* \"ERC20Standard.sol\":12757:13103  function _getTValues(uint256 tAmount, uint256 taxFee, uint256 TeamFee) private pure returns (uint256, uint256, uint256) {... */\n      swap4\n      pop\n      swap4\n      pop\n      swap4\n      swap1\n      pop\n      jump\t// out\n        /* \"ERC20Standard.sol\":13109:13512  function _getRValues(uint256 tAmount, uint256 tFee, uint256 tTeam, uint256 currentRate) private pure returns (uint256, uint256, uint256) {... */\n    tag_376:\n        /* \"ERC20Standard.sol\":13219:13226  uint256 */\n      0x00\n        /* \"ERC20Standard.sol\":13228:13235  uint256 */\n      dup1\n        /* \"ERC20Standard.sol\":13237:13244  uint256 */\n      0x00\n        /* \"ERC20Standard.sol\":13256:13271  uint256 rAmount */\n      dup1\n        /* \"ERC20Standard.sol\":13274:13298  tAmount.mul(currentRate) */\n      tag_399\n        /* \"ERC20Standard.sol\":13286:13297  currentRate */\n      dup6\n        /* \"ERC20Standard.sol\":13274:13281  tAmount */\n      dup10\n        /* \"ERC20Standard.sol\":13274:13285  tAmount.mul */\n      tag_155\n      swap1\n        /* \"ERC20Standard.sol\":13274:13298  tAmount.mul(currentRate) */\n      swap2\n      swap1\n      0xffffffff\n      and\n      jump\t// in\n    tag_399:\n        /* \"ERC20Standard.sol\":13256:13298  uint256 rAmount = tAmount.mul(currentRate) */\n      swap1\n      pop\n        /* \"ERC20Standard.sol\":13308:13320  uint256 rFee */\n      0x00\n        /* \"ERC20Standard.sol\":13323:13344  tFee.mul(currentRate) */\n      tag_400\n        /* \"ERC20Standard.sol\":13332:13343  currentRate */\n      dup7\n        /* \"ERC20Standard.sol\":13323:13327  tFee */\n      dup10\n        /* \"ERC20Standard.sol\":13323:13331  tFee.mul */\n      tag_155\n      swap1\n        /* \"ERC20Standard.sol\":13323:13344  tFee.mul(currentRate) */\n      swap2\n      swap1\n      0xffffffff\n      and\n      jump\t// in\n    tag_400:\n        /* \"ERC20Standard.sol\":13308:13344  uint256 rFee = tFee.mul(currentRate) */\n      swap1\n      pop\n        /* \"ERC20Standard.sol\":13354:13367  uint256 rTeam */\n      0x00\n        /* \"ERC20Standard.sol\":13370:13392  tTeam.mul(currentRate) */\n      tag_401\n        /* \"ERC20Standard.sol\":13380:13391  currentRate */\n      dup8\n        /* \"ERC20Standard.sol\":13370:13375  tTeam */\n      dup10\n        /* \"ERC20Standard.sol\":13370:13379  tTeam.mul */\n      tag_155\n      swap1\n        /* \"ERC20Standard.sol\":13370:13392  tTeam.mul(currentRate) */\n      swap2\n      swap1\n      0xffffffff\n      and\n      jump\t// in\n    tag_401:\n        /* \"ERC20Standard.sol\":13354:13392  uint256 rTeam = tTeam.mul(currentRate) */\n      swap1\n      pop\n        /* \"ERC20Standard.sol\":13402:13425  uint256 rTransferAmount */\n      0x00\n        /* \"ERC20Standard.sol\":13428:13456  rAmount.sub(rFee).sub(rTeam) */\n      tag_402\n        /* \"ERC20Standard.sol\":13450:13455  rTeam */\n      dup3\n        /* \"ERC20Standard.sol\":13428:13445  rAmount.sub(rFee) */\n      tag_403\n        /* \"ERC20Standard.sol\":13440:13444  rFee */\n      dup6\n        /* \"ERC20Standard.sol\":13428:13435  rAmount */\n      dup8\n        /* \"ERC20Standard.sol\":13428:13439  rAmount.sub */\n      tag_360\n      swap1\n        /* \"ERC20Standard.sol\":13428:13445  rAmount.sub(rFee) */\n      swap2\n      swap1\n      0xffffffff\n      and\n      jump\t// in\n    tag_403:\n        /* \"ERC20Standard.sol\":13428:13449  rAmount.sub(rFee).sub */\n      tag_360\n      swap1\n        /* \"ERC20Standard.sol\":13428:13456  rAmount.sub(rFee).sub(rTeam) */\n      swap2\n      swap1\n      0xffffffff\n      and\n      jump\t// in\n    tag_402:\n        /* \"ERC20Standard.sol\":13402:13456  uint256 rTransferAmount = rAmount.sub(rFee).sub(rTeam) */\n      swap1\n      pop\n        /* \"ERC20Standard.sol\":13474:13481  rAmount */\n      dup4\n        /* \"ERC20Standard.sol\":13483:13498  rTransferAmount */\n      dup2\n        /* \"ERC20Standard.sol\":13500:13504  rFee */\n      dup5\n        /* \"ERC20Standard.sol\":13466:13505  return (rAmount, rTransferAmount, rFee) */\n      swap7\n      pop\n      swap7\n      pop\n      swap7\n      pop\n      pop\n      pop\n      pop\n      pop\n        /* \"ERC20Standard.sol\":13109:13512  function _getRValues(uint256 tAmount, uint256 tFee, uint256 tTeam, uint256 currentRate) private pure returns (uint256, uint256, uint256) {... */\n      swap5\n      pop\n      swap5\n      pop\n      swap5\n      swap2\n      pop\n      pop\n      jump\t// out\n        /* \"#utility.yul\":7:106   */\n    tag_404:\n        /* \"#utility.yul\":59:65   */\n      0x00\n        /* \"#utility.yul\":93:98   */\n      dup2\n        /* \"#utility.yul\":87:99   */\n      mload\n        /* \"#utility.yul\":77:99   */\n      swap1\n      pop\n        /* \"#utility.yul\":7:106   */\n      swap2\n      swap1\n      pop\n      jump\t// out\n        /* \"#utility.yul\":112:281   */\n    tag_405:\n        /* \"#utility.yul\":196:207   */\n      0x00\n        /* \"#utility.yul\":230:236   */\n      dup3\n        /* \"#utility.yul\":225:228   */\n      dup3\n        /* \"#utility.yul\":218:237   */\n      mstore\n        /* \"#utility.yul\":270:274   */\n      0x20\n        /* \"#utility.yul\":265:268   */\n      dup3\n        /* \"#utility.yul\":261:275   */\n      add\n        /* \"#utility.yul\":246:275   */\n      swap1\n      pop\n        /* \"#utility.yul\":112:281   */\n      swap3\n      swap2\n      pop\n      pop\n      jump\t// out\n        /* \"#utility.yul\":287:594   */\n    tag_406:\n        /* \"#utility.yul\":355:356   */\n      0x00\n        /* \"#utility.yul\":365:478   */\n    tag_478:\n        /* \"#utility.yul\":379:385   */\n      dup4\n        /* \"#utility.yul\":376:377   */\n      dup2\n        /* \"#utility.yul\":373:386   */\n      lt\n        /* \"#utility.yul\":365:478   */\n      iszero\n      tag_480\n      jumpi\n        /* \"#utility.yul\":464:465   */\n      dup1\n        /* \"#utility.yul\":459:462   */\n      dup3\n        /* \"#utility.yul\":455:466   */\n      add\n        /* \"#utility.yul\":449:467   */\n      mload\n        /* \"#utility.yul\":445:446   */\n      dup2\n        /* \"#utility.yul\":440:443   */\n      dup5\n        /* \"#utility.yul\":436:447   */\n      add\n        /* \"#utility.yul\":429:468   */\n      mstore\n        /* \"#utility.yul\":401:403   */\n      0x20\n        /* \"#utility.yul\":398:399   */\n      dup2\n        /* \"#utility.yul\":394:404   */\n      add\n        /* \"#utility.yul\":389:404   */\n      swap1\n      pop\n        /* \"#utility.yul\":365:478   */\n      jump(tag_478)\n    tag_480:\n        /* \"#utility.yul\":496:502   */\n      dup4\n        /* \"#utility.yul\":493:494   */\n      dup2\n        /* \"#utility.yul\":490:503   */\n      gt\n        /* \"#utility.yul\":487:588   */\n      iszero\n      tag_481\n      jumpi\n        /* \"#utility.yul\":576:577   */\n      0x00\n        /* \"#utility.yul\":567:573   */\n      dup5\n        /* \"#utility.yul\":562:565   */\n      dup5\n        /* \"#utility.yul\":558:574   */\n      add\n        /* \"#utility.yul\":551:578   */\n      mstore\n        /* \"#utility.yul\":487:588   */\n    tag_481:\n        /* \"#utility.yul\":336:594   */\n      pop\n        /* \"#utility.yul\":287:594   */\n      pop\n      pop\n      pop\n      jump\t// out\n        /* \"#utility.yul\":600:702   */\n    tag_407:\n        /* \"#utility.yul\":641:647   */\n      0x00\n        /* \"#utility.yul\":692:694   */\n      0x1f\n        /* \"#utility.yul\":688:695   */\n      not\n        /* \"#utility.yul\":683:685   */\n      0x1f\n        /* \"#utility.yul\":676:681   */\n      dup4\n        /* \"#utility.yul\":672:686   */\n      add\n        /* \"#utility.yul\":668:696   */\n      and\n        /* \"#utility.yul\":658:696   */\n      swap1\n      pop\n        /* \"#utility.yul\":600:702   */\n      swap2\n      swap1\n      pop\n      jump\t// out\n        /* \"#utility.yul\":708:1072   */\n    tag_408:\n        /* \"#utility.yul\":796:799   */\n      0x00\n        /* \"#utility.yul\":824:863   */\n      tag_484\n        /* \"#utility.yul\":857:862   */\n      dup3\n        /* \"#utility.yul\":824:863   */\n      tag_404\n      jump\t// in\n    tag_484:\n        /* \"#utility.yul\":879:950   */\n      tag_485\n        /* \"#utility.yul\":943:949   */\n      dup2\n        /* \"#utility.yul\":938:941   */\n      dup6\n        /* \"#utility.yul\":879:950   */\n      tag_405\n      jump\t// in\n    tag_485:\n        /* \"#utility.yul\":872:950   */\n      swap4\n      pop\n        /* \"#utility.yul\":959:1011   */\n      tag_486\n        /* \"#utility.yul\":1004:1010   */\n      dup2\n        /* \"#utility.yul\":999:1002   */\n      dup6\n        /* \"#utility.yul\":992:996   */\n      0x20\n        /* \"#utility.yul\":985:990   */\n      dup7\n        /* \"#utility.yul\":981:997   */\n      add\n        /* \"#utility.yul\":959:1011   */\n      tag_406\n      jump\t// in\n    tag_486:\n        /* \"#utility.yul\":1036:1065   */\n      tag_487\n        /* \"#utility.yul\":1058:1064   */\n      dup2\n        /* \"#utility.yul\":1036:1065   */\n      tag_407\n      jump\t// in\n    tag_487:\n        /* \"#utility.yul\":1031:1034   */\n      dup5\n        /* \"#utility.yul\":1027:1066   */\n      add\n        /* \"#utility.yul\":1020:1066   */\n      swap2\n      pop\n        /* \"#utility.yul\":800:1072   */\n      pop\n        /* \"#utility.yul\":708:1072   */\n      swap3\n      swap2\n      pop\n      pop\n      jump\t// out\n        /* \"#utility.yul\":1078:1391   */\n    tag_32:\n        /* \"#utility.yul\":1191:1195   */\n      0x00\n        /* \"#utility.yul\":1229:1231   */\n      0x20\n        /* \"#utility.yul\":1218:1227   */\n      dup3\n        /* \"#utility.yul\":1214:1232   */\n      add\n        /* \"#utility.yul\":1206:1232   */\n      swap1\n      pop\n        /* \"#utility.yul\":1278:1287   */\n      dup2\n        /* \"#utility.yul\":1272:1276   */\n      dup2\n        /* \"#utility.yul\":1268:1288   */\n      sub\n        /* \"#utility.yul\":1264:1265   */\n      0x00\n        /* \"#utility.yul\":1253:1262   */\n      dup4\n        /* \"#utility.yul\":1249:1266   */\n      add\n        /* \"#utility.yul\":1242:1289   */\n      mstore\n        /* \"#utility.yul\":1306:1384   */\n      tag_489\n        /* \"#utility.yul\":1379:1383   */\n      dup2\n        /* \"#utility.yul\":1370:1376   */\n      dup5\n        /* \"#utility.yul\":1306:1384   */\n      tag_408\n      jump\t// in\n    tag_489:\n        /* \"#utility.yul\":1298:1384   */\n      swap1\n      pop\n        /* \"#utility.yul\":1078:1391   */\n      swap3\n      swap2\n      pop\n      pop\n      jump\t// out\n        /* \"#utility.yul\":1397:1472   */\n    tag_409:\n        /* \"#utility.yul\":1430:1436   */\n      0x00\n        /* \"#utility.yul\":1463:1465   */\n      0x40\n        /* \"#utility.yul\":1457:1466   */\n      mload\n        /* \"#utility.yul\":1447:1466   */\n      swap1\n      pop\n        /* \"#utility.yul\":1397:1472   */\n      swap1\n      jump\t// out\n        /* \"#utility.yul\":1478:1595   */\n    tag_410:\n        /* \"#utility.yul\":1587:1588   */\n      0x00\n        /* \"#utility.yul\":1584:1585   */\n      dup1\n        /* \"#utility.yul\":1577:1589   */\n      revert\n        /* \"#utility.yul\":1601:1718   */\n    tag_411:\n        /* \"#utility.yul\":1710:1711   */\n      0x00\n        /* \"#utility.yul\":1707:1708   */\n      dup1\n        /* \"#utility.yul\":1700:1712   */\n      revert\n        /* \"#utility.yul\":1724:1850   */\n    tag_412:\n        /* \"#utility.yul\":1761:1768   */\n      0x00\n        /* \"#utility.yul\":1801:1843   */\n      0xffffffffffffffffffffffffffffffffffffffff\n        /* \"#utility.yul\":1794:1799   */\n      dup3\n        /* \"#utility.yul\":1790:1844   */\n      and\n        /* \"#utility.yul\":1779:1844   */\n      swap1\n      pop\n        /* \"#utility.yul\":1724:1850   */\n      swap2\n      swap1\n      pop\n      jump\t// out\n        /* \"#utility.yul\":1856:1952   */\n    tag_413:\n        /* \"#utility.yul\":1893:1900   */\n      0x00\n        /* \"#utility.yul\":1922:1946   */\n      tag_495\n        /* \"#utility.yul\":1940:1945   */\n      dup3\n        /* \"#utility.yul\":1922:1946   */\n      tag_412\n      jump\t// in\n    tag_495:\n        /* \"#utility.yul\":1911:1946   */\n      swap1\n      pop\n        /* \"#utility.yul\":1856:1952   */\n      swap2\n      swap1\n      pop\n      jump\t// out\n        /* \"#utility.yul\":1958:2080   */\n    tag_414:\n        /* \"#utility.yul\":2031:2055   */\n      tag_497\n        /* \"#utility.yul\":2049:2054   */\n      dup2\n        /* \"#utility.yul\":2031:2055   */\n      tag_413\n      jump\t// in\n    tag_497:\n        /* \"#utility.yul\":2024:2029   */\n      dup2\n        /* \"#utility.yul\":2021:2056   */\n      eq\n        /* \"#utility.yul\":2011:2074   */\n      tag_498\n      jumpi\n        /* \"#utility.yul\":2070:2071   */\n      0x00\n        /* \"#utility.yul\":2067:2068   */\n      dup1\n        /* \"#utility.yul\":2060:2072   */\n      revert\n        /* \"#utility.yul\":2011:2074   */\n    tag_498:\n        /* \"#utility.yul\":1958:2080   */\n      pop\n      jump\t// out\n        /* \"#utility.yul\":2086:2225   */\n    tag_415:\n        /* \"#utility.yul\":2132:2137   */\n      0x00\n        /* \"#utility.yul\":2170:2176   */\n      dup2\n        /* \"#utility.yul\":2157:2177   */\n      calldataload\n        /* \"#utility.yul\":2148:2177   */\n      swap1\n      pop\n        /* \"#utility.yul\":2186:2219   */\n      tag_500\n        /* \"#utility.yul\":2213:2218   */\n      dup2\n        /* \"#utility.yul\":2186:2219   */\n      tag_414\n      jump\t// in\n    tag_500:\n        /* \"#utility.yul\":2086:2225   */\n      swap3\n      swap2\n      pop\n      pop\n      jump\t// out\n        /* \"#utility.yul\":2231:2308   */\n    tag_416:\n        /* \"#utility.yul\":2268:2275   */\n      0x00\n        /* \"#utility.yul\":2297:2302   */\n      dup2\n        /* \"#utility.yul\":2286:2302   */\n      swap1\n      pop\n        /* \"#utility.yul\":2231:2308   */\n      swap2\n      swap1\n      pop\n      jump\t// out\n        /* \"#utility.yul\":2314:2436   */\n    tag_417:\n        /* \"#utility.yul\":2387:2411   */\n      tag_503\n        /* \"#utility.yul\":2405:2410   */\n      dup2\n        /* \"#utility.yul\":2387:2411   */\n      tag_416\n      jump\t// in\n    tag_503:\n        /* \"#utility.yul\":2380:2385   */\n      dup2\n        /* \"#utility.yul\":2377:2412   */\n      eq\n        /* \"#utility.yul\":2367:2430   */\n      tag_504\n      jumpi\n        /* \"#utility.yul\":2426:2427   */\n      0x00\n        /* \"#utility.yul\":2423:2424   */\n      dup1\n        /* \"#utility.yul\":2416:2428   */\n      revert\n        /* \"#utility.yul\":2367:2430   */\n    tag_504:\n        /* \"#utility.yul\":2314:2436   */\n      pop\n      jump\t// out\n        /* \"#utility.yul\":2442:2581   */\n    tag_418:\n        /* \"#utility.yul\":2488:2493   */\n      0x00\n        /* \"#utility.yul\":2526:2532   */\n      dup2\n        /* \"#utility.yul\":2513:2533   */\n      calldataload\n        /* \"#utility.yul\":2504:2533   */\n      swap1\n      pop\n        /* \"#utility.yul\":2542:2575   */\n      tag_506\n        /* \"#utility.yul\":2569:2574   */\n      dup2\n        /* \"#utility.yul\":2542:2575   */\n      tag_417\n      jump\t// in\n    tag_506:\n        /* \"#utility.yul\":2442:2581   */\n      swap3\n      swap2\n      pop\n      pop\n      jump\t// out\n        /* \"#utility.yul\":2587:3061   */\n    tag_36:\n        /* \"#utility.yul\":2655:2661   */\n      0x00\n        /* \"#utility.yul\":2663:2669   */\n      dup1\n        /* \"#utility.yul\":2712:2714   */\n      0x40\n        /* \"#utility.yul\":2700:2709   */\n      dup4\n        /* \"#utility.yul\":2691:2698   */\n      dup6\n        /* \"#utility.yul\":2687:2710   */\n      sub\n        /* \"#utility.yul\":2683:2715   */\n      slt\n        /* \"#utility.yul\":2680:2799   */\n      iszero\n      tag_508\n      jumpi\n        /* \"#utility.yul\":2718:2797   */\n      tag_509\n      tag_410\n      jump\t// in\n    tag_509:\n        /* \"#utility.yul\":2680:2799   */\n    tag_508:\n        /* \"#utility.yul\":2838:2839   */\n      0x00\n        /* \"#utility.yul\":2863:2916   */\n      tag_510\n        /* \"#utility.yul\":2908:2915   */\n      dup6\n        /* \"#utility.yul\":2899:2905   */\n      dup3\n        /* \"#utility.yul\":2888:2897   */\n      dup7\n        /* \"#utility.yul\":2884:2906   */\n      add\n        /* \"#utility.yul\":2863:2916   */\n      tag_415\n      jump\t// in\n    tag_510:\n        /* \"#utility.yul\":2853:2916   */\n      swap3\n      pop\n        /* \"#utility.yul\":2809:2926   */\n      pop\n        /* \"#utility.yul\":2965:2967   */\n      0x20\n        /* \"#utility.yul\":2991:3044   */\n      tag_511\n        /* \"#utility.yul\":3036:3043   */\n      dup6\n        /* \"#utility.yul\":3027:3033   */\n      dup3\n        /* \"#utility.yul\":3016:3025   */\n      dup7\n        /* \"#utility.yul\":3012:3034   */\n      add\n        /* \"#utility.yul\":2991:3044   */\n      tag_418\n      jump\t// in\n    tag_511:\n        /* \"#utility.yul\":2981:3044   */\n      swap2\n      pop\n        /* \"#utility.yul\":2936:3054   */\n      pop\n        /* \"#utility.yul\":2587:3061   */\n      swap3\n      pop\n      swap3\n      swap1\n      pop\n      jump\t// out\n        /* \"#utility.yul\":3067:3157   */\n    tag_419:\n        /* \"#utility.yul\":3101:3108   */\n      0x00\n        /* \"#utility.yul\":3144:3149   */\n      dup2\n        /* \"#utility.yul\":3137:3150   */\n      iszero\n        /* \"#utility.yul\":3130:3151   */\n      iszero\n        /* \"#utility.yul\":3119:3151   */\n      swap1\n      pop\n        /* \"#utility.yul\":3067:3157   */\n      swap2\n      swap1\n      pop\n      jump\t// out\n        /* \"#utility.yul\":3163:3272   */\n    tag_420:\n        /* \"#utility.yul\":3244:3265   */\n      tag_514\n        /* \"#utility.yul\":3259:3264   */\n      dup2\n        /* \"#utility.yul\":3244:3265   */\n      tag_419\n      jump\t// in\n    tag_514:\n        /* \"#utility.yul\":3239:3242   */\n      dup3\n        /* \"#utility.yul\":3232:3266   */\n      mstore\n        /* \"#utility.yul\":3163:3272   */\n      pop\n      pop\n      jump\t// out\n        /* \"#utility.yul\":3278:3488   */\n    tag_39:\n        /* \"#utility.yul\":3365:3369   */\n      0x00\n        /* \"#utility.yul\":3403:3405   */\n      0x20\n        /* \"#utility.yul\":3392:3401   */\n      dup3\n        /* \"#utility.yul\":3388:3406   */\n      add\n        /* \"#utility.yul\":3380:3406   */\n      swap1\n      pop\n        /* \"#utility.yul\":3416:3481   */\n      tag_516\n        /* \"#utility.yul\":3478:3479   */\n      0x00\n        /* \"#utility.yul\":3467:3476   */\n      dup4\n        /* \"#utility.yul\":3463:3480   */\n      add\n        /* \"#utility.yul\":3454:3460   */\n      dup5\n        /* \"#utility.yul\":3416:3481   */\n      tag_420\n      jump\t// in\n    tag_516:\n        /* \"#utility.yul\":3278:3488   */\n      swap3\n      swap2\n      pop\n      pop\n      jump\t// out\n        /* \"#utility.yul\":3494:3612   */\n    tag_421:\n        /* \"#utility.yul\":3581:3605   */\n      tag_518\n        /* \"#utility.yul\":3599:3604   */\n      dup2\n        /* \"#utility.yul\":3581:3605   */\n      tag_416\n      jump\t// in\n    tag_518:\n        /* \"#utility.yul\":3576:3579   */\n      dup3\n        /* \"#utility.yul\":3569:3606   */\n      mstore\n        /* \"#utility.yul\":3494:3612   */\n      pop\n      pop\n      jump\t// out\n        /* \"#utility.yul\":3618:3840   */\n    tag_44:\n        /* \"#utility.yul\":3711:3715   */\n      0x00\n        /* \"#utility.yul\":3749:3751   */\n      0x20\n        /* \"#utility.yul\":3738:3747   */\n      dup3\n        /* \"#utility.yul\":3734:3752   */\n      add\n        /* \"#utility.yul\":3726:3752   */\n      swap1\n      pop\n        /* \"#utility.yul\":3762:3833   */\n      tag_520\n        /* \"#utility.yul\":3830:3831   */\n      0x00\n        /* \"#utility.yul\":3819:3828   */\n      dup4\n        /* \"#utility.yul\":3815:3832   */\n      add\n        /* \"#utility.yul\":3806:3812   */\n      dup5\n        /* \"#utility.yul\":3762:3833   */\n      tag_421\n      jump\t// in\n    tag_520:\n        /* \"#utility.yul\":3618:3840   */\n      swap3\n      swap2\n      pop\n      pop\n      jump\t// out\n        /* \"#utility.yul\":3846:4465   */\n    tag_48:\n        /* \"#utility.yul\":3923:3929   */\n      0x00\n        /* \"#utility.yul\":3931:3937   */\n      dup1\n        /* \"#utility.yul\":3939:3945   */\n      0x00\n        /* \"#utility.yul\":3988:3990   */\n      0x60\n        /* \"#utility.yul\":3976:3985   */\n      dup5\n        /* \"#utility.yul\":3967:3974   */\n      dup7\n        /* \"#utility.yul\":3963:3986   */\n      sub\n        /* \"#utility.yul\":3959:3991   */\n      slt\n        /* \"#utility.yul\":3956:4075   */\n      iszero\n      tag_522\n      jumpi\n        /* \"#utility.yul\":3994:4073   */\n      tag_523\n      tag_410\n      jump\t// in\n    tag_523:\n        /* \"#utility.yul\":3956:4075   */\n    tag_522:\n        /* \"#utility.yul\":4114:4115   */\n      0x00\n        /* \"#utility.yul\":4139:4192   */\n      tag_524\n        /* \"#utility.yul\":4184:4191   */\n      dup7\n        /* \"#utility.yul\":4175:4181   */\n      dup3\n        /* \"#utility.yul\":4164:4173   */\n      dup8\n        /* \"#utility.yul\":4160:4182   */\n      add\n        /* \"#utility.yul\":4139:4192   */\n      tag_415\n      jump\t// in\n    tag_524:\n        /* \"#utility.yul\":4129:4192   */\n      swap4\n      pop\n        /* \"#utility.yul\":4085:4202   */\n      pop\n        /* \"#utility.yul\":4241:4243   */\n      0x20\n        /* \"#utility.yul\":4267:4320   */\n      tag_525\n        /* \"#utility.yul\":4312:4319   */\n      dup7\n        /* \"#utility.yul\":4303:4309   */\n      dup3\n        /* \"#utility.yul\":4292:4301   */\n      dup8\n        /* \"#utility.yul\":4288:4310   */\n      add\n        /* \"#utility.yul\":4267:4320   */\n      tag_415\n      jump\t// in\n    tag_525:\n        /* \"#utility.yul\":4257:4320   */\n      swap3\n      pop\n        /* \"#utility.yul\":4212:4330   */\n      pop\n        /* \"#utility.yul\":4369:4371   */\n      0x40\n        /* \"#utility.yul\":4395:4448   */\n      tag_526\n        /* \"#utility.yul\":4440:4447   */\n      dup7\n        /* \"#utility.yul\":4431:4437   */\n      dup3\n        /* \"#utility.yul\":4420:4429   */\n      dup8\n        /* \"#utility.yul\":4416:4438   */\n      add\n        /* \"#utility.yul\":4395:4448   */\n      tag_418\n      jump\t// in\n    tag_526:\n        /* \"#utility.yul\":4385:4448   */\n      swap2\n      pop\n        /* \"#utility.yul\":4340:4458   */\n      pop\n        /* \"#utility.yul\":3846:4465   */\n      swap3\n      pop\n      swap3\n      pop\n      swap3\n      jump\t// out\n        /* \"#utility.yul\":4471:4800   */\n    tag_54:\n        /* \"#utility.yul\":4530:4536   */\n      0x00\n        /* \"#utility.yul\":4579:4581   */\n      0x20\n        /* \"#utility.yul\":4567:4576   */\n      dup3\n        /* \"#utility.yul\":4558:4565   */\n      dup5\n        /* \"#utility.yul\":4554:4577   */\n      sub\n        /* \"#utility.yul\":4550:4582   */\n      slt\n        /* \"#utility.yul\":4547:4666   */\n      iszero\n      tag_528\n      jumpi\n        /* \"#utility.yul\":4585:4664   */\n      tag_529\n      tag_410\n      jump\t// in\n    tag_529:\n        /* \"#utility.yul\":4547:4666   */\n    tag_528:\n        /* \"#utility.yul\":4705:4706   */\n      0x00\n        /* \"#utility.yul\":4730:4783   */\n      tag_530\n        /* \"#utility.yul\":4775:4782   */\n      dup5\n        /* \"#utility.yul\":4766:4772   */\n      dup3\n        /* \"#utility.yul\":4755:4764   */\n      dup6\n        /* \"#utility.yul\":4751:4773   */\n      add\n        /* \"#utility.yul\":4730:4783   */\n      tag_415\n      jump\t// in\n    tag_530:\n        /* \"#utility.yul\":4720:4783   */\n      swap2\n      pop\n        /* \"#utility.yul\":4676:4793   */\n      pop\n        /* \"#utility.yul\":4471:4800   */\n      swap3\n      swap2\n      pop\n      pop\n      jump\t// out\n        /* \"#utility.yul\":4806:4892   */\n    tag_422:\n        /* \"#utility.yul\":4841:4848   */\n      0x00\n        /* \"#utility.yul\":4881:4885   */\n      0xff\n        /* \"#utility.yul\":4874:4879   */\n      dup3\n        /* \"#utility.yul\":4870:4886   */\n      and\n        /* \"#utility.yul\":4859:4886   */\n      swap1\n      pop\n        /* \"#utility.yul\":4806:4892   */\n      swap2\n      swap1\n      pop\n      jump\t// out\n        /* \"#utility.yul\":4898:5010   */\n    tag_423:\n        /* \"#utility.yul\":4981:5003   */\n      tag_533\n        /* \"#utility.yul\":4997:5002   */\n      dup2\n        /* \"#utility.yul\":4981:5003   */\n      tag_422\n      jump\t// in\n    tag_533:\n        /* \"#utility.yul\":4976:4979   */\n      dup3\n        /* \"#utility.yul\":4969:5004   */\n      mstore\n        /* \"#utility.yul\":4898:5010   */\n      pop\n      pop\n      jump\t// out\n        /* \"#utility.yul\":5016:5230   */\n    tag_60:\n        /* \"#utility.yul\":5105:5109   */\n      0x00\n        /* \"#utility.yul\":5143:5145   */\n      0x20\n        /* \"#utility.yul\":5132:5141   */\n      dup3\n        /* \"#utility.yul\":5128:5146   */\n      add\n        /* \"#utility.yul\":5120:5146   */\n      swap1\n      pop\n        /* \"#utility.yul\":5156:5223   */\n      tag_535\n        /* \"#utility.yul\":5220:5221   */\n      0x00\n        /* \"#utility.yul\":5209:5218   */\n      dup4\n        /* \"#utility.yul\":5205:5222   */\n      add\n        /* \"#utility.yul\":5196:5202   */\n      dup5\n        /* \"#utility.yul\":5156:5223   */\n      tag_423\n      jump\t// in\n    tag_535:\n        /* \"#utility.yul\":5016:5230   */\n      swap3\n      swap2\n      pop\n      pop\n      jump\t// out\n        /* \"#utility.yul\":5236:5352   */\n    tag_424:\n        /* \"#utility.yul\":5306:5327   */\n      tag_537\n        /* \"#utility.yul\":5321:5326   */\n      dup2\n        /* \"#utility.yul\":5306:5327   */\n      tag_419\n      jump\t// in\n    tag_537:\n        /* \"#utility.yul\":5299:5304   */\n      dup2\n        /* \"#utility.yul\":5296:5328   */\n      eq\n        /* \"#utility.yul\":5286:5346   */\n      tag_538\n      jumpi\n        /* \"#utility.yul\":5342:5343   */\n      0x00\n        /* \"#utility.yul\":5339:5340   */\n      dup1\n        /* \"#utility.yul\":5332:5344   */\n      revert\n        /* \"#utility.yul\":5286:5346   */\n    tag_538:\n        /* \"#utility.yul\":5236:5352   */\n      pop\n      jump\t// out\n        /* \"#utility.yul\":5358:5491   */\n    tag_425:\n        /* \"#utility.yul\":5401:5406   */\n      0x00\n        /* \"#utility.yul\":5439:5445   */\n      dup2\n        /* \"#utility.yul\":5426:5446   */\n      calldataload\n        /* \"#utility.yul\":5417:5446   */\n      swap1\n      pop\n        /* \"#utility.yul\":5455:5485   */\n      tag_540\n        /* \"#utility.yul\":5479:5484   */\n      dup2\n        /* \"#utility.yul\":5455:5485   */\n      tag_424\n      jump\t// in\n    tag_540:\n        /* \"#utility.yul\":5358:5491   */\n      swap3\n      swap2\n      pop\n      pop\n      jump\t// out\n        /* \"#utility.yul\":5497:5820   */\n    tag_64:\n        /* \"#utility.yul\":5553:5559   */\n      0x00\n        /* \"#utility.yul\":5602:5604   */\n      0x20\n        /* \"#utility.yul\":5590:5599   */\n      dup3\n        /* \"#utility.yul\":5581:5588   */\n      dup5\n        /* \"#utility.yul\":5577:5600   */\n      sub\n        /* \"#utility.yul\":5573:5605   */\n      slt\n        /* \"#utility.yul\":5570:5689   */\n      iszero\n      tag_542\n      jumpi\n        /* \"#utility.yul\":5608:5687   */\n      tag_543\n      tag_410\n      jump\t// in\n    tag_543:\n        /* \"#utility.yul\":5570:5689   */\n    tag_542:\n        /* \"#utility.yul\":5728:5729   */\n      0x00\n        /* \"#utility.yul\":5753:5803   */\n      tag_544\n        /* \"#utility.yul\":5795:5802   */\n      dup5\n        /* \"#utility.yul\":5786:5792   */\n      dup3\n        /* \"#utility.yul\":5775:5784   */\n      dup6\n        /* \"#utility.yul\":5771:5793   */\n      add\n        /* \"#utility.yul\":5753:5803   */\n      tag_425\n      jump\t// in\n    tag_544:\n        /* \"#utility.yul\":5743:5803   */\n      swap2\n      pop\n        /* \"#utility.yul\":5699:5813   */\n      pop\n        /* \"#utility.yul\":5497:5820   */\n      swap3\n      swap2\n      pop\n      pop\n      jump\t// out\n        /* \"#utility.yul\":5826:6155   */\n    tag_69:\n        /* \"#utility.yul\":5885:5891   */\n      0x00\n        /* \"#utility.yul\":5934:5936   */\n      0x20\n        /* \"#utility.yul\":5922:5931   */\n      dup3\n        /* \"#utility.yul\":5913:5920   */\n      dup5\n        /* \"#utility.yul\":5909:5932   */\n      sub\n        /* \"#utility.yul\":5905:5937   */\n      slt\n        /* \"#utility.yul\":5902:6021   */\n      iszero\n      tag_546\n      jumpi\n        /* \"#utility.yul\":5940:6019   */\n      tag_547\n      tag_410\n      jump\t// in\n    tag_547:\n        /* \"#utility.yul\":5902:6021   */\n    tag_546:\n        /* \"#utility.yul\":6060:6061   */\n      0x00\n        /* \"#utility.yul\":6085:6138   */\n      tag_548\n        /* \"#utility.yul\":6130:6137   */\n      dup5\n        /* \"#utility.yul\":6121:6127   */\n      dup3\n        /* \"#utility.yul\":6110:6119   */\n      dup6\n        /* \"#utility.yul\":6106:6128   */\n      add\n        /* \"#utility.yul\":6085:6138   */\n      tag_418\n      jump\t// in\n    tag_548:\n        /* \"#utility.yul\":6075:6138   */\n      swap2\n      pop\n        /* \"#utility.yul\":6031:6148   */\n      pop\n        /* \"#utility.yul\":5826:6155   */\n      swap3\n      swap2\n      pop\n      pop\n      jump\t// out\n        /* \"#utility.yul\":6161:6279   */\n    tag_426:\n        /* \"#utility.yul\":6248:6272   */\n      tag_550\n        /* \"#utility.yul\":6266:6271   */\n      dup2\n        /* \"#utility.yul\":6248:6272   */\n      tag_413\n      jump\t// in\n    tag_550:\n        /* \"#utility.yul\":6243:6246   */\n      dup3\n        /* \"#utility.yul\":6236:6273   */\n      mstore\n        /* \"#utility.yul\":6161:6279   */\n      pop\n      pop\n      jump\t// out\n        /* \"#utility.yul\":6285:6507   */\n    tag_89:\n        /* \"#utility.yul\":6378:6382   */\n      0x00\n        /* \"#utility.yul\":6416:6418   */\n      0x20\n        /* \"#utility.yul\":6405:6414   */\n      dup3\n        /* \"#utility.yul\":6401:6419   */\n      add\n        /* \"#utility.yul\":6393:6419   */\n      swap1\n      pop\n        /* \"#utility.yul\":6429:6500   */\n      tag_552\n        /* \"#utility.yul\":6497:6498   */\n      0x00\n        /* \"#utility.yul\":6486:6495   */\n      dup4\n        /* \"#utility.yul\":6482:6499   */\n      add\n        /* \"#utility.yul\":6473:6479   */\n      dup5\n        /* \"#utility.yul\":6429:6500   */\n      tag_426\n      jump\t// in\n    tag_552:\n        /* \"#utility.yul\":6285:6507   */\n      swap3\n      swap2\n      pop\n      pop\n      jump\t// out\n        /* \"#utility.yul\":6513:6630   */\n    tag_427:\n        /* \"#utility.yul\":6622:6623   */\n      0x00\n        /* \"#utility.yul\":6619:6620   */\n      dup1\n        /* \"#utility.yul\":6612:6624   */\n      revert\n        /* \"#utility.yul\":6636:6816   */\n    tag_330:\n        /* \"#utility.yul\":6684:6761   */\n      0x4e487b7100000000000000000000000000000000000000000000000000000000\n        /* \"#utility.yul\":6681:6682   */\n      0x00\n        /* \"#utility.yul\":6674:6762   */\n      mstore\n        /* \"#utility.yul\":6781:6785   */\n      0x41\n        /* \"#utility.yul\":6778:6779   */\n      0x04\n        /* \"#utility.yul\":6771:6786   */\n      mstore\n        /* \"#utility.yul\":6805:6809   */\n      0x24\n        /* \"#utility.yul\":6802:6803   */\n      0x00\n        /* \"#utility.yul\":6795:6810   */\n      revert\n        /* \"#utility.yul\":6822:7103   */\n    tag_428:\n        /* \"#utility.yul\":6905:6932   */\n      tag_556\n        /* \"#utility.yul\":6927:6931   */\n      dup3\n        /* \"#utility.yul\":6905:6932   */\n      tag_407\n      jump\t// in\n    tag_556:\n        /* \"#utility.yul\":6897:6903   */\n      dup2\n        /* \"#utility.yul\":6893:6933   */\n      add\n        /* \"#utility.yul\":7035:7041   */\n      dup2\n        /* \"#utility.yul\":7023:7033   */\n      dup2\n        /* \"#utility.yul\":7020:7042   */\n      lt\n        /* \"#utility.yul\":6999:7017   */\n      0xffffffffffffffff\n        /* \"#utility.yul\":6987:6997   */\n      dup3\n        /* \"#utility.yul\":6984:7018   */\n      gt\n        /* \"#utility.yul\":6981:7043   */\n      or\n        /* \"#utility.yul\":6978:7066   */\n      iszero\n      tag_557\n      jumpi\n        /* \"#utility.yul\":7046:7064   */\n      tag_558\n      tag_330\n      jump\t// in\n    tag_558:\n        /* \"#utility.yul\":6978:7066   */\n    tag_557:\n        /* \"#utility.yul\":7086:7096   */\n      dup1\n        /* \"#utility.yul\":7082:7084   */\n      0x40\n        /* \"#utility.yul\":7075:7097   */\n      mstore\n        /* \"#utility.yul\":6865:7103   */\n      pop\n        /* \"#utility.yul\":6822:7103   */\n      pop\n      pop\n      jump\t// out\n        /* \"#utility.yul\":7109:7238   */\n    tag_429:\n        /* \"#utility.yul\":7143:7149   */\n      0x00\n        /* \"#utility.yul\":7170:7190   */\n      tag_560\n      tag_409\n      jump\t// in\n    tag_560:\n        /* \"#utility.yul\":7160:7190   */\n      swap1\n      pop\n        /* \"#utility.yul\":7199:7232   */\n      tag_561\n        /* \"#utility.yul\":7227:7231   */\n      dup3\n        /* \"#utility.yul\":7219:7225   */\n      dup3\n        /* \"#utility.yul\":7199:7232   */\n      tag_428\n      jump\t// in\n    tag_561:\n        /* \"#utility.yul\":7109:7238   */\n      swap2\n      swap1\n      pop\n      jump\t// out\n        /* \"#utility.yul\":7244:7555   */\n    tag_430:\n        /* \"#utility.yul\":7321:7325   */\n      0x00\n        /* \"#utility.yul\":7411:7429   */\n      0xffffffffffffffff\n        /* \"#utility.yul\":7403:7409   */\n      dup3\n        /* \"#utility.yul\":7400:7430   */\n      gt\n        /* \"#utility.yul\":7397:7453   */\n      iszero\n      tag_563\n      jumpi\n        /* \"#utility.yul\":7433:7451   */\n      tag_564\n      tag_330\n      jump\t// in\n    tag_564:\n        /* \"#utility.yul\":7397:7453   */\n    tag_563:\n        /* \"#utility.yul\":7483:7487   */\n      0x20\n        /* \"#utility.yul\":7475:7481   */\n      dup3\n        /* \"#utility.yul\":7471:7488   */\n      mul\n        /* \"#utility.yul\":7463:7488   */\n      swap1\n      pop\n        /* \"#utility.yul\":7543:7547   */\n      0x20\n        /* \"#utility.yul\":7537:7541   */\n      dup2\n        /* \"#utility.yul\":7533:7548   */\n      add\n        /* \"#utility.yul\":7525:7548   */\n      swap1\n      pop\n        /* \"#utility.yul\":7244:7555   */\n      swap2\n      swap1\n      pop\n      jump\t// out\n        /* \"#utility.yul\":7561:7678   */\n    tag_431:\n        /* \"#utility.yul\":7670:7671   */\n      0x00\n        /* \"#utility.yul\":7667:7668   */\n      dup1\n        /* \"#utility.yul\":7660:7672   */\n      revert\n        /* \"#utility.yul\":7701:8411   */\n    tag_432:\n        /* \"#utility.yul\":7797:7802   */\n      0x00\n        /* \"#utility.yul\":7822:7903   */\n      tag_567\n        /* \"#utility.yul\":7838:7902   */\n      tag_568\n        /* \"#utility.yul\":7895:7901   */\n      dup5\n        /* \"#utility.yul\":7838:7902   */\n      tag_430\n      jump\t// in\n    tag_568:\n        /* \"#utility.yul\":7822:7903   */\n      tag_429\n      jump\t// in\n    tag_567:\n        /* \"#utility.yul\":7813:7903   */\n      swap1\n      pop\n        /* \"#utility.yul\":7923:7928   */\n      dup1\n        /* \"#utility.yul\":7952:7958   */\n      dup4\n        /* \"#utility.yul\":7945:7950   */\n      dup3\n        /* \"#utility.yul\":7938:7959   */\n      mstore\n        /* \"#utility.yul\":7986:7990   */\n      0x20\n        /* \"#utility.yul\":7979:7984   */\n      dup3\n        /* \"#utility.yul\":7975:7991   */\n      add\n        /* \"#utility.yul\":7968:7991   */\n      swap1\n      pop\n        /* \"#utility.yul\":8039:8043   */\n      0x20\n        /* \"#utility.yul\":8031:8037   */\n      dup5\n        /* \"#utility.yul\":8027:8044   */\n      mul\n        /* \"#utility.yul\":8019:8025   */\n      dup4\n        /* \"#utility.yul\":8015:8045   */\n      add\n        /* \"#utility.yul\":8068:8071   */\n      dup6\n        /* \"#utility.yul\":8060:8066   */\n      dup2\n        /* \"#utility.yul\":8057:8072   */\n      gt\n        /* \"#utility.yul\":8054:8176   */\n      iszero\n      tag_569\n      jumpi\n        /* \"#utility.yul\":8087:8166   */\n      tag_570\n      tag_431\n      jump\t// in\n    tag_570:\n        /* \"#utility.yul\":8054:8176   */\n    tag_569:\n        /* \"#utility.yul\":8202:8208   */\n      dup4\n        /* \"#utility.yul\":8185:8405   */\n    tag_571:\n        /* \"#utility.yul\":8219:8225   */\n      dup2\n        /* \"#utility.yul\":8214:8217   */\n      dup2\n        /* \"#utility.yul\":8211:8226   */\n      lt\n        /* \"#utility.yul\":8185:8405   */\n      iszero\n      tag_573\n      jumpi\n        /* \"#utility.yul\":8294:8297   */\n      dup1\n        /* \"#utility.yul\":8323:8360   */\n      tag_574\n        /* \"#utility.yul\":8356:8359   */\n      dup9\n        /* \"#utility.yul\":8344:8354   */\n      dup3\n        /* \"#utility.yul\":8323:8360   */\n      tag_415\n      jump\t// in\n    tag_574:\n        /* \"#utility.yul\":8318:8321   */\n      dup5\n        /* \"#utility.yul\":8311:8361   */\n      mstore\n        /* \"#utility.yul\":8390:8394   */\n      0x20\n        /* \"#utility.yul\":8385:8388   */\n      dup5\n        /* \"#utility.yul\":8381:8395   */\n      add\n        /* \"#utility.yul\":8374:8395   */\n      swap4\n      pop\n        /* \"#utility.yul\":8261:8405   */\n      pop\n        /* \"#utility.yul\":8245:8249   */\n      0x20\n        /* \"#utility.yul\":8240:8243   */\n      dup2\n        /* \"#utility.yul\":8236:8250   */\n      add\n        /* \"#utility.yul\":8229:8250   */\n      swap1\n      pop\n        /* \"#utility.yul\":8185:8405   */\n      jump(tag_571)\n    tag_573:\n        /* \"#utility.yul\":8189:8210   */\n      pop\n        /* \"#utility.yul\":7803:8411   */\n      pop\n      pop\n        /* \"#utility.yul\":7701:8411   */\n      swap4\n      swap3\n      pop\n      pop\n      pop\n      jump\t// out\n        /* \"#utility.yul\":8434:8804   */\n    tag_433:\n        /* \"#utility.yul\":8505:8510   */\n      0x00\n        /* \"#utility.yul\":8554:8557   */\n      dup3\n        /* \"#utility.yul\":8547:8551   */\n      0x1f\n        /* \"#utility.yul\":8539:8545   */\n      dup4\n        /* \"#utility.yul\":8535:8552   */\n      add\n        /* \"#utility.yul\":8531:8558   */\n      slt\n        /* \"#utility.yul\":8521:8643   */\n      tag_576\n      jumpi\n        /* \"#utility.yul\":8562:8641   */\n      tag_577\n      tag_427\n      jump\t// in\n    tag_577:\n        /* \"#utility.yul\":8521:8643   */\n    tag_576:\n        /* \"#utility.yul\":8679:8685   */\n      dup2\n        /* \"#utility.yul\":8666:8686   */\n      calldataload\n        /* \"#utility.yul\":8704:8798   */\n      tag_578\n        /* \"#utility.yul\":8794:8797   */\n      dup5\n        /* \"#utility.yul\":8786:8792   */\n      dup3\n        /* \"#utility.yul\":8779:8783   */\n      0x20\n        /* \"#utility.yul\":8771:8777   */\n      dup7\n        /* \"#utility.yul\":8767:8784   */\n      add\n        /* \"#utility.yul\":8704:8798   */\n      tag_432\n      jump\t// in\n    tag_578:\n        /* \"#utility.yul\":8695:8798   */\n      swap2\n      pop\n        /* \"#utility.yul\":8511:8804   */\n      pop\n        /* \"#utility.yul\":8434:8804   */\n      swap3\n      swap2\n      pop\n      pop\n      jump\t// out\n        /* \"#utility.yul\":8810:9349   */\n    tag_112:\n        /* \"#utility.yul\":8894:8900   */\n      0x00\n        /* \"#utility.yul\":8943:8945   */\n      0x20\n        /* \"#utility.yul\":8931:8940   */\n      dup3\n        /* \"#utility.yul\":8922:8929   */\n      dup5\n        /* \"#utility.yul\":8918:8941   */\n      sub\n        /* \"#utility.yul\":8914:8946   */\n      slt\n        /* \"#utility.yul\":8911:9030   */\n      iszero\n      tag_580\n      jumpi\n        /* \"#utility.yul\":8949:9028   */\n      tag_581\n      tag_410\n      jump\t// in\n    tag_581:\n        /* \"#utility.yul\":8911:9030   */\n    tag_580:\n        /* \"#utility.yul\":9097:9098   */\n      0x00\n        /* \"#utility.yul\":9086:9095   */\n      dup3\n        /* \"#utility.yul\":9082:9099   */\n      add\n        /* \"#utility.yul\":9069:9100   */\n      calldataload\n        /* \"#utility.yul\":9127:9145   */\n      0xffffffffffffffff\n        /* \"#utility.yul\":9119:9125   */\n      dup2\n        /* \"#utility.yul\":9116:9146   */\n      gt\n        /* \"#utility.yul\":9113:9230   */\n      iszero\n      tag_582\n      jumpi\n        /* \"#utility.yul\":9149:9228   */\n      tag_583\n      tag_411\n      jump\t// in\n    tag_583:\n        /* \"#utility.yul\":9113:9230   */\n    tag_582:\n        /* \"#utility.yul\":9254:9332   */\n      tag_584\n        /* \"#utility.yul\":9324:9331   */\n      dup5\n        /* \"#utility.yul\":9315:9321   */\n      dup3\n        /* \"#utility.yul\":9304:9313   */\n      dup6\n        /* \"#utility.yul\":9300:9322   */\n      add\n        /* \"#utility.yul\":9254:9332   */\n      tag_433\n      jump\t// in\n    tag_584:\n        /* \"#utility.yul\":9244:9332   */\n      swap2\n      pop\n        /* \"#utility.yul\":9040:9342   */\n      pop\n        /* \"#utility.yul\":8810:9349   */\n      swap3\n      swap2\n      pop\n      pop\n      jump\t// out\n        /* \"#utility.yul\":9355:9829   */\n    tag_117:\n        /* \"#utility.yul\":9423:9429   */\n      0x00\n        /* \"#utility.yul\":9431:9437   */\n      dup1\n        /* \"#utility.yul\":9480:9482   */\n      0x40\n        /* \"#utility.yul\":9468:9477   */\n      dup4\n        /* \"#utility.yul\":9459:9466   */\n      dup6\n        /* \"#utility.yul\":9455:9478   */\n      sub\n        /* \"#utility.yul\":9451:9483   */\n      slt\n        /* \"#utility.yul\":9448:9567   */\n      iszero\n      tag_586\n      jumpi\n        /* \"#utility.yul\":9486:9565   */\n      tag_587\n      tag_410\n      jump\t// in\n    tag_587:\n        /* \"#utility.yul\":9448:9567   */\n    tag_586:\n        /* \"#utility.yul\":9606:9607   */\n      0x00\n        /* \"#utility.yul\":9631:9684   */\n      tag_588\n        /* \"#utility.yul\":9676:9683   */\n      dup6\n        /* \"#utility.yul\":9667:9673   */\n      dup3\n        /* \"#utility.yul\":9656:9665   */\n      dup7\n        /* \"#utility.yul\":9652:9674   */\n      add\n        /* \"#utility.yul\":9631:9684   */\n      tag_415\n      jump\t// in\n    tag_588:\n        /* \"#utility.yul\":9621:9684   */\n      swap3\n      pop\n        /* \"#utility.yul\":9577:9694   */\n      pop\n        /* \"#utility.yul\":9733:9735   */\n      0x20\n        /* \"#utility.yul\":9759:9812   */\n      tag_589\n        /* \"#utility.yul\":9804:9811   */\n      dup6\n        /* \"#utility.yul\":9795:9801   */\n      dup3\n        /* \"#utility.yul\":9784:9793   */\n      dup7\n        /* \"#utility.yul\":9780:9802   */\n      add\n        /* \"#utility.yul\":9759:9812   */\n      tag_415\n      jump\t// in\n    tag_589:\n        /* \"#utility.yul\":9749:9812   */\n      swap2\n      pop\n        /* \"#utility.yul\":9704:9822   */\n      pop\n        /* \"#utility.yul\":9355:9829   */\n      swap3\n      pop\n      swap3\n      swap1\n      pop\n      jump\t// out\n        /* \"#utility.yul\":9835:10017   */\n    tag_434:\n        /* \"#utility.yul\":9975:10009   */\n      0x4f776e61626c653a2063616c6c6572206973206e6f7420746865206f776e6572\n        /* \"#utility.yul\":9971:9972   */\n      0x00\n        /* \"#utility.yul\":9963:9969   */\n      dup3\n        /* \"#utility.yul\":9959:9973   */\n      add\n        /* \"#utility.yul\":9952:10010   */\n      mstore\n        /* \"#utility.yul\":9835:10017   */\n      pop\n      jump\t// out\n        /* \"#utility.yul\":10023:10389   */\n    tag_435:\n        /* \"#utility.yul\":10165:10168   */\n      0x00\n        /* \"#utility.yul\":10186:10253   */\n      tag_592\n        /* \"#utility.yul\":10250:10252   */\n      0x20\n        /* \"#utility.yul\":10245:10248   */\n      dup4\n        /* \"#utility.yul\":10186:10253   */\n      tag_405\n      jump\t// in\n    tag_592:\n        /* \"#utility.yul\":10179:10253   */\n      swap2\n      pop\n        /* \"#utility.yul\":10262:10355   */\n      tag_593\n        /* \"#utility.yul\":10351:10354   */\n      dup3\n        /* \"#utility.yul\":10262:10355   */\n      tag_434\n      jump\t// in\n    tag_593:\n        /* \"#utility.yul\":10380:10382   */\n      0x20\n        /* \"#utility.yul\":10375:10378   */\n      dup3\n        /* \"#utility.yul\":10371:10383   */\n      add\n        /* \"#utility.yul\":10364:10383   */\n      swap1\n      pop\n        /* \"#utility.yul\":10023:10389   */\n      swap2\n      swap1\n      pop\n      jump\t// out\n        /* \"#utility.yul\":10395:10814   */\n    tag_139:\n        /* \"#utility.yul\":10561:10565   */\n      0x00\n        /* \"#utility.yul\":10599:10601   */\n      0x20\n        /* \"#utility.yul\":10588:10597   */\n      dup3\n        /* \"#utility.yul\":10584:10602   */\n      add\n        /* \"#utility.yul\":10576:10602   */\n      swap1\n      pop\n        /* \"#utility.yul\":10648:10657   */\n      dup2\n        /* \"#utility.yul\":10642:10646   */\n      dup2\n        /* \"#utility.yul\":10638:10658   */\n      sub\n        /* \"#utility.yul\":10634:10635   */\n      0x00\n        /* \"#utility.yul\":10623:10632   */\n      dup4\n        /* \"#utility.yul\":10619:10636   */\n      add\n        /* \"#utility.yul\":10612:10659   */\n      mstore\n        /* \"#utility.yul\":10676:10807   */\n      tag_595\n        /* \"#utility.yul\":10802:10806   */\n      dup2\n        /* \"#utility.yul\":10676:10807   */\n      tag_435\n      jump\t// in\n    tag_595:\n        /* \"#utility.yul\":10668:10807   */\n      swap1\n      pop\n        /* \"#utility.yul\":10395:10814   */\n      swap2\n      swap1\n      pop\n      jump\t// out\n        /* \"#utility.yul\":10820:10993   */\n    tag_436:\n        /* \"#utility.yul\":10960:10985   */\n      0x74726164696e6720697320616c7265616479206f70656e000000000000000000\n        /* \"#utility.yul\":10956:10957   */\n      0x00\n        /* \"#utility.yul\":10948:10954   */\n      dup3\n        /* \"#utility.yul\":10944:10958   */\n      add\n        /* \"#utility.yul\":10937:10986   */\n      mstore\n        /* \"#utility.yul\":10820:10993   */\n      pop\n      jump\t// out\n        /* \"#utility.yul\":10999:11365   */\n    tag_437:\n        /* \"#utility.yul\":11141:11144   */\n      0x00\n        /* \"#utility.yul\":11162:11229   */\n      tag_598\n        /* \"#utility.yul\":11226:11228   */\n      0x17\n        /* \"#utility.yul\":11221:11224   */\n      dup4\n        /* \"#utility.yul\":11162:11229   */\n      tag_405\n      jump\t// in\n    tag_598:\n        /* \"#utility.yul\":11155:11229   */\n      swap2\n      pop\n        /* \"#utility.yul\":11238:11331   */\n      tag_599\n        /* \"#utility.yul\":11327:11330   */\n      dup3\n        /* \"#utility.yul\":11238:11331   */\n      tag_436\n      jump\t// in\n    tag_599:\n        /* \"#utility.yul\":11356:11358   */\n      0x20\n        /* \"#utility.yul\":11351:11354   */\n      dup3\n        /* \"#utility.yul\":11347:11359   */\n      add\n        /* \"#utility.yul\":11340:11359   */\n      swap1\n      pop\n        /* \"#utility.yul\":10999:11365   */\n      swap2\n      swap1\n      pop\n      jump\t// out\n        /* \"#utility.yul\":11371:11790   */\n    tag_201:\n        /* \"#utility.yul\":11537:11541   */\n      0x00\n        /* \"#utility.yul\":11575:11577   */\n      0x20\n        /* \"#utility.yul\":11564:11573   */\n      dup3\n        /* \"#utility.yul\":11560:11578   */\n      add\n        /* \"#utility.yul\":11552:11578   */\n      swap1\n      pop\n        /* \"#utility.yul\":11624:11633   */\n      dup2\n        /* \"#utility.yul\":11618:11622   */\n      dup2\n        /* \"#utility.yul\":11614:11634   */\n      sub\n        /* \"#utility.yul\":11610:11611   */\n      0x00\n        /* \"#utility.yul\":11599:11608   */\n      dup4\n        /* \"#utility.yul\":11595:11612   */\n      add\n        /* \"#utility.yul\":11588:11635   */\n      mstore\n        /* \"#utility.yul\":11652:11783   */\n      tag_601\n        /* \"#utility.yul\":11778:11782   */\n      dup2\n        /* \"#utility.yul\":11652:11783   */\n      tag_437\n      jump\t// in\n    tag_601:\n        /* \"#utility.yul\":11644:11783   */\n      swap1\n      pop\n        /* \"#utility.yul\":11371:11790   */\n      swap2\n      swap1\n      pop\n      jump\t// out\n        /* \"#utility.yul\":11796:11939   */\n    tag_438:\n        /* \"#utility.yul\":11853:11858   */\n      0x00\n        /* \"#utility.yul\":11884:11890   */\n      dup2\n        /* \"#utility.yul\":11878:11891   */\n      mload\n        /* \"#utility.yul\":11869:11891   */\n      swap1\n      pop\n        /* \"#utility.yul\":11900:11933   */\n      tag_603\n        /* \"#utility.yul\":11927:11932   */\n      dup2\n        /* \"#utility.yul\":11900:11933   */\n      tag_414\n      jump\t// in\n    tag_603:\n        /* \"#utility.yul\":11796:11939   */\n      swap3\n      swap2\n      pop\n      pop\n      jump\t// out\n        /* \"#utility.yul\":11945:12296   */\n    tag_206:\n        /* \"#utility.yul\":12015:12021   */\n      0x00\n        /* \"#utility.yul\":12064:12066   */\n      0x20\n        /* \"#utility.yul\":12052:12061   */\n      dup3\n        /* \"#utility.yul\":12043:12050   */\n      dup5\n        /* \"#utility.yul\":12039:12062   */\n      sub\n        /* \"#utility.yul\":12035:12067   */\n      slt\n        /* \"#utility.yul\":12032:12151   */\n      iszero\n      tag_605\n      jumpi\n        /* \"#utility.yul\":12070:12149   */\n      tag_606\n      tag_410\n      jump\t// in\n    tag_606:\n        /* \"#utility.yul\":12032:12151   */\n    tag_605:\n        /* \"#utility.yul\":12190:12191   */\n      0x00\n        /* \"#utility.yul\":12215:12279   */\n      tag_607\n        /* \"#utility.yul\":12271:12278   */\n      dup5\n        /* \"#utility.yul\":12262:12268   */\n      dup3\n        /* \"#utility.yul\":12251:12260   */\n      dup6\n        /* \"#utility.yul\":12247:12269   */\n      add\n        /* \"#utility.yul\":12215:12279   */\n      tag_438\n      jump\t// in\n    tag_607:\n        /* \"#utility.yul\":12205:12279   */\n      swap2\n      pop\n        /* \"#utility.yul\":12161:12289   */\n      pop\n        /* \"#utility.yul\":11945:12296   */\n      swap3\n      swap2\n      pop\n      pop\n      jump\t// out\n        /* \"#utility.yul\":12302:12634   */\n    tag_211:\n        /* \"#utility.yul\":12423:12427   */\n      0x00\n        /* \"#utility.yul\":12461:12463   */\n      0x40\n        /* \"#utility.yul\":12450:12459   */\n      dup3\n        /* \"#utility.yul\":12446:12464   */\n      add\n        /* \"#utility.yul\":12438:12464   */\n      swap1\n      pop\n        /* \"#utility.yul\":12474:12545   */\n      tag_609\n        /* \"#utility.yul\":12542:12543   */\n      0x00\n        /* \"#utility.yul\":12531:12540   */\n      dup4\n        /* \"#utility.yul\":12527:12544   */\n      add\n        /* \"#utility.yul\":12518:12524   */\n      dup6\n        /* \"#utility.yul\":12474:12545   */\n      tag_426\n      jump\t// in\n    tag_609:\n        /* \"#utility.yul\":12555:12627   */\n      tag_610\n        /* \"#utility.yul\":12623:12625   */\n      0x20\n        /* \"#utility.yul\":12612:12621   */\n      dup4\n        /* \"#utility.yul\":12608:12626   */\n      add\n        /* \"#utility.yul\":12599:12605   */\n      dup5\n        /* \"#utility.yul\":12555:12627   */\n      tag_426\n      jump\t// in\n    tag_610:\n        /* \"#utility.yul\":12302:12634   */\n      swap4\n      swap3\n      pop\n      pop\n      pop\n      jump\t// out\n        /* \"#utility.yul\":12640:12725   */\n    tag_439:\n        /* \"#utility.yul\":12685:12692   */\n      0x00\n        /* \"#utility.yul\":12714:12719   */\n      dup2\n        /* \"#utility.yul\":12703:12719   */\n      swap1\n      pop\n        /* \"#utility.yul\":12640:12725   */\n      swap2\n      swap1\n      pop\n      jump\t// out\n        /* \"#utility.yul\":12731:12791   */\n    tag_440:\n        /* \"#utility.yul\":12759:12762   */\n      0x00\n        /* \"#utility.yul\":12780:12785   */\n      dup2\n        /* \"#utility.yul\":12773:12785   */\n      swap1\n      pop\n        /* \"#utility.yul\":12731:12791   */\n      swap2\n      swap1\n      pop\n      jump\t// out\n        /* \"#utility.yul\":12797:12955   */\n    tag_441:\n        /* \"#utility.yul\":12855:12864   */\n      0x00\n        /* \"#utility.yul\":12888:12949   */\n      tag_614\n        /* \"#utility.yul\":12906:12948   */\n      tag_615\n        /* \"#utility.yul\":12915:12947   */\n      tag_616\n        /* \"#utility.yul\":12941:12946   */\n      dup5\n        /* \"#utility.yul\":12915:12947   */\n      tag_439\n      jump\t// in\n    tag_616:\n        /* \"#utility.yul\":12906:12948   */\n      tag_440\n      jump\t// in\n    tag_615:\n        /* \"#utility.yul\":12888:12949   */\n      tag_416\n      jump\t// in\n    tag_614:\n        /* \"#utility.yul\":12875:12949   */\n      swap1\n      pop\n        /* \"#utility.yul\":12797:12955   */\n      swap2\n      swap1\n      pop\n      jump\t// out\n        /* \"#utility.yul\":12961:13108   */\n    tag_442:\n        /* \"#utility.yul\":13056:13101   */\n      tag_618\n        /* \"#utility.yul\":13095:13100   */\n      dup2\n        /* \"#utility.yul\":13056:13101   */\n      tag_441\n      jump\t// in\n    tag_618:\n        /* \"#utility.yul\":13051:13054   */\n      dup3\n        /* \"#utility.yul\":13044:13102   */\n      mstore\n        /* \"#utility.yul\":12961:13108   */\n      pop\n      pop\n      jump\t// out\n        /* \"#utility.yul\":13114:13921   */\n    tag_218:\n        /* \"#utility.yul\":13363:13367   */\n      0x00\n        /* \"#utility.yul\":13401:13404   */\n      0xc0\n        /* \"#utility.yul\":13390:13399   */\n      dup3\n        /* \"#utility.yul\":13386:13405   */\n      add\n        /* \"#utility.yul\":13378:13405   */\n      swap1\n      pop\n        /* \"#utility.yul\":13415:13486   */\n      tag_620\n        /* \"#utility.yul\":13483:13484   */\n      0x00\n        /* \"#utility.yul\":13472:13481   */\n      dup4\n        /* \"#utility.yul\":13468:13485   */\n      add\n        /* \"#utility.yul\":13459:13465   */\n      dup10\n        /* \"#utility.yul\":13415:13486   */\n      tag_426\n      jump\t// in\n    tag_620:\n        /* \"#utility.yul\":13496:13568   */\n      tag_621\n        /* \"#utility.yul\":13564:13566   */\n      0x20\n        /* \"#utility.yul\":13553:13562   */\n      dup4\n        /* \"#utility.yul\":13549:13567   */\n      add\n        /* \"#utility.yul\":13540:13546   */\n      dup9\n        /* \"#utility.yul\":13496:13568   */\n      tag_421\n      jump\t// in\n    tag_621:\n        /* \"#utility.yul\":13578:13658   */\n      tag_622\n        /* \"#utility.yul\":13654:13656   */\n      0x40\n        /* \"#utility.yul\":13643:13652   */\n      dup4\n        /* \"#utility.yul\":13639:13657   */\n      add\n        /* \"#utility.yul\":13630:13636   */\n      dup8\n        /* \"#utility.yul\":13578:13658   */\n      tag_442\n      jump\t// in\n    tag_622:\n        /* \"#utility.yul\":13668:13748   */\n      tag_623\n        /* \"#utility.yul\":13744:13746   */\n      0x60\n        /* \"#utility.yul\":13733:13742   */\n      dup4\n        /* \"#utility.yul\":13729:13747   */\n      add\n        /* \"#utility.yul\":13720:13726   */\n      dup7\n        /* \"#utility.yul\":13668:13748   */\n      tag_442\n      jump\t// in\n    tag_623:\n        /* \"#utility.yul\":13758:13831   */\n      tag_624\n        /* \"#utility.yul\":13826:13829   */\n      0x80\n        /* \"#utility.yul\":13815:13824   */\n      dup4\n        /* \"#utility.yul\":13811:13830   */\n      add\n        /* \"#utility.yul\":13802:13808   */\n      dup6\n        /* \"#utility.yul\":13758:13831   */\n      tag_426\n      jump\t// in\n    tag_624:\n        /* \"#utility.yul\":13841:13914   */\n      tag_625\n        /* \"#utility.yul\":13909:13912   */\n      0xa0\n        /* \"#utility.yul\":13898:13907   */\n      dup4\n        /* \"#utility.yul\":13894:13913   */\n      add\n        /* \"#utility.yul\":13885:13891   */\n      dup5\n        /* \"#utility.yul\":13841:13914   */\n      tag_421\n      jump\t// in\n    tag_625:\n        /* \"#utility.yul\":13114:13921   */\n      swap8\n      swap7\n      pop\n      pop\n      pop\n      pop\n      pop\n      pop\n      pop\n      jump\t// out\n        /* \"#utility.yul\":13927:14070   */\n    tag_443:\n        /* \"#utility.yul\":13984:13989   */\n      0x00\n        /* \"#utility.yul\":14015:14021   */\n      dup2\n        /* \"#utility.yul\":14009:14022   */\n      mload\n        /* \"#utility.yul\":14000:14022   */\n      swap1\n      pop\n        /* \"#utility.yul\":14031:14064   */\n      tag_627\n        /* \"#utility.yul\":14058:14063   */\n      dup2\n        /* \"#utility.yul\":14031:14064   */\n      tag_417\n      jump\t// in\n    tag_627:\n        /* \"#utility.yul\":13927:14070   */\n      swap3\n      swap2\n      pop\n      pop\n      jump\t// out\n        /* \"#utility.yul\":14076:14739   */\n    tag_222:\n        /* \"#utility.yul\":14164:14170   */\n      0x00\n        /* \"#utility.yul\":14172:14178   */\n      dup1\n        /* \"#utility.yul\":14180:14186   */\n      0x00\n        /* \"#utility.yul\":14229:14231   */\n      0x60\n        /* \"#utility.yul\":14217:14226   */\n      dup5\n        /* \"#utility.yul\":14208:14215   */\n      dup7\n        /* \"#utility.yul\":14204:14227   */\n      sub\n        /* \"#utility.yul\":14200:14232   */\n      slt\n        /* \"#utility.yul\":14197:14316   */\n      iszero\n      tag_629\n      jumpi\n        /* \"#utility.yul\":14235:14314   */\n      tag_630\n      tag_410\n      jump\t// in\n    tag_630:\n        /* \"#utility.yul\":14197:14316   */\n    tag_629:\n        /* \"#utility.yul\":14355:14356   */\n      0x00\n        /* \"#utility.yul\":14380:14444   */\n      tag_631\n        /* \"#utility.yul\":14436:14443   */\n      dup7\n        /* \"#utility.yul\":14427:14433   */\n      dup3\n        /* \"#utility.yul\":14416:14425   */\n      dup8\n        /* \"#utility.yul\":14412:14434   */\n      add\n        /* \"#utility.yul\":14380:14444   */\n      tag_443\n      jump\t// in\n    tag_631:\n        /* \"#utility.yul\":14370:14444   */\n      swap4\n      pop\n        /* \"#utility.yul\":14326:14454   */\n      pop\n        /* \"#utility.yul\":14493:14495   */\n      0x20\n        /* \"#utility.yul\":14519:14583   */\n      tag_632\n        /* \"#utility.yul\":14575:14582   */\n      dup7\n        /* \"#utility.yul\":14566:14572   */\n      dup3\n        /* \"#utility.yul\":14555:14564   */\n      dup8\n        /* \"#utility.yul\":14551:14573   */\n      add\n        /* \"#utility.yul\":14519:14583   */\n      tag_443\n      jump\t// in\n    tag_632:\n        /* \"#utility.yul\":14509:14583   */\n      swap3\n      pop\n        /* \"#utility.yul\":14464:14593   */\n      pop\n        /* \"#utility.yul\":14632:14634   */\n      0x40\n        /* \"#utility.yul\":14658:14722   */\n      tag_633\n        /* \"#utility.yul\":14714:14721   */\n      dup7\n        /* \"#utility.yul\":14705:14711   */\n      dup3\n        /* \"#utility.yul\":14694:14703   */\n      dup8\n        /* \"#utility.yul\":14690:14712   */\n      add\n        /* \"#utility.yul\":14658:14722   */\n      tag_443\n      jump\t// in\n    tag_633:\n        /* \"#utility.yul\":14648:14722   */\n      swap2\n      pop\n        /* \"#utility.yul\":14603:14732   */\n      pop\n        /* \"#utility.yul\":14076:14739   */\n      swap3\n      pop\n      swap3\n      pop\n      swap3\n      jump\t// out\n        /* \"#utility.yul\":14745:15077   */\n    tag_228:\n        /* \"#utility.yul\":14866:14870   */\n      0x00\n        /* \"#utility.yul\":14904:14906   */\n      0x40\n        /* \"#utility.yul\":14893:14902   */\n      dup3\n        /* \"#utility.yul\":14889:14907   */\n      add\n        /* \"#utility.yul\":14881:14907   */\n      swap1\n      pop\n        /* \"#utility.yul\":14917:14988   */\n      tag_635\n        /* \"#utility.yul\":14985:14986   */\n      0x00\n        /* \"#utility.yul\":14974:14983   */\n      dup4\n        /* \"#utility.yul\":14970:14987   */\n      add\n        /* \"#utility.yul\":14961:14967   */\n      dup6\n        /* \"#utility.yul\":14917:14988   */\n      tag_426\n      jump\t// in\n    tag_635:\n        /* \"#utility.yul\":14998:15070   */\n      tag_636\n        /* \"#utility.yul\":15066:15068   */\n      0x20\n        /* \"#utility.yul\":15055:15064   */\n      dup4\n        /* \"#utility.yul\":15051:15069   */\n      add\n        /* \"#utility.yul\":15042:15048   */\n      dup5\n        /* \"#utility.yul\":14998:15070   */\n      tag_421\n      jump\t// in\n    tag_636:\n        /* \"#utility.yul\":14745:15077   */\n      swap4\n      swap3\n      pop\n      pop\n      pop\n      jump\t// out\n        /* \"#utility.yul\":15083:15220   */\n    tag_444:\n        /* \"#utility.yul\":15137:15142   */\n      0x00\n        /* \"#utility.yul\":15168:15174   */\n      dup2\n        /* \"#utility.yul\":15162:15175   */\n      mload\n        /* \"#utility.yul\":15153:15175   */\n      swap1\n      pop\n        /* \"#utility.yul\":15184:15214   */\n      tag_638\n        /* \"#utility.yul\":15208:15213   */\n      dup2\n        /* \"#utility.yul\":15184:15214   */\n      tag_424\n      jump\t// in\n    tag_638:\n        /* \"#utility.yul\":15083:15220   */\n      swap3\n      swap2\n      pop\n      pop\n      jump\t// out\n        /* \"#utility.yul\":15226:15571   */\n    tag_232:\n        /* \"#utility.yul\":15293:15299   */\n      0x00\n        /* \"#utility.yul\":15342:15344   */\n      0x20\n        /* \"#utility.yul\":15330:15339   */\n      dup3\n        /* \"#utility.yul\":15321:15328   */\n      dup5\n        /* \"#utility.yul\":15317:15340   */\n      sub\n        /* \"#utility.yul\":15313:15345   */\n      slt\n        /* \"#utility.yul\":15310:15429   */\n      iszero\n      tag_640\n      jumpi\n        /* \"#utility.yul\":15348:15427   */\n      tag_641\n      tag_410\n      jump\t// in\n    tag_641:\n        /* \"#utility.yul\":15310:15429   */\n    tag_640:\n        /* \"#utility.yul\":15468:15469   */\n      0x00\n        /* \"#utility.yul\":15493:15554   */\n      tag_642\n        /* \"#utility.yul\":15546:15553   */\n      dup5\n        /* \"#utility.yul\":15537:15543   */\n      dup3\n        /* \"#utility.yul\":15526:15535   */\n      dup6\n        /* \"#utility.yul\":15522:15544   */\n      add\n        /* \"#utility.yul\":15493:15554   */\n      tag_444\n      jump\t// in\n    tag_642:\n        /* \"#utility.yul\":15483:15554   */\n      swap2\n      pop\n        /* \"#utility.yul\":15439:15564   */\n      pop\n        /* \"#utility.yul\":15226:15571   */\n      swap3\n      swap2\n      pop\n      pop\n      jump\t// out\n        /* \"#utility.yul\":15577:15757   */\n    tag_243:\n        /* \"#utility.yul\":15625:15702   */\n      0x4e487b7100000000000000000000000000000000000000000000000000000000\n        /* \"#utility.yul\":15622:15623   */\n      0x00\n        /* \"#utility.yul\":15615:15703   */\n      mstore\n        /* \"#utility.yul\":15722:15726   */\n      0x32\n        /* \"#utility.yul\":15719:15720   */\n      0x04\n        /* \"#utility.yul\":15712:15727   */\n      mstore\n        /* \"#utility.yul\":15746:15750   */\n      0x24\n        /* \"#utility.yul\":15743:15744   */\n      0x00\n        /* \"#utility.yul\":15736:15751   */\n      revert\n        /* \"#utility.yul\":15763:15943   */\n    tag_445:\n        /* \"#utility.yul\":15811:15888   */\n      0x4e487b7100000000000000000000000000000000000000000000000000000000\n        /* \"#utility.yul\":15808:15809   */\n      0x00\n        /* \"#utility.yul\":15801:15889   */\n      mstore\n        /* \"#utility.yul\":15908:15912   */\n      0x11\n        /* \"#utility.yul\":15905:15906   */\n      0x04\n        /* \"#utility.yul\":15898:15913   */\n      mstore\n        /* \"#utility.yul\":15932:15936   */\n      0x24\n        /* \"#utility.yul\":15929:15930   */\n      0x00\n        /* \"#utility.yul\":15922:15937   */\n      revert\n        /* \"#utility.yul\":15949:16182   */\n    tag_245:\n        /* \"#utility.yul\":15988:15991   */\n      0x00\n        /* \"#utility.yul\":16011:16035   */\n      tag_646\n        /* \"#utility.yul\":16029:16034   */\n      dup3\n        /* \"#utility.yul\":16011:16035   */\n      tag_416\n      jump\t// in\n    tag_646:\n        /* \"#utility.yul\":16002:16035   */\n      swap2\n      pop\n        /* \"#utility.yul\":16057:16123   */\n      0xffffffffffffffffffffffffffffffffffffffffffffffffffffffffffffffff\n        /* \"#utility.yul\":16050:16055   */\n      dup3\n        /* \"#utility.yul\":16047:16124   */\n      sub\n        /* \"#utility.yul\":16044:16147   */\n      tag_647\n      jumpi\n        /* \"#utility.yul\":16127:16145   */\n      tag_648\n      tag_445\n      jump\t// in\n    tag_648:\n        /* \"#utility.yul\":16044:16147   */\n    tag_647:\n        /* \"#utility.yul\":16174:16175   */\n      0x01\n        /* \"#utility.yul\":16167:16172   */\n      dup3\n        /* \"#utility.yul\":16163:16176   */\n      add\n        /* \"#utility.yul\":16156:16176   */\n      swap1\n      pop\n        /* \"#utility.yul\":15949:16182   */\n      swap2\n      swap1\n      pop\n      jump\t// out\n        /* \"#utility.yul\":16188:16411   */\n    tag_446:\n        /* \"#utility.yul\":16328:16362   */\n      0x45524332303a20617070726f76652066726f6d20746865207a65726f20616464\n        /* \"#utility.yul\":16324:16325   */\n      0x00\n        /* \"#utility.yul\":16316:16322   */\n      dup3\n        /* \"#utility.yul\":16312:16326   */\n      add\n        /* \"#utility.yul\":16305:16363   */\n      mstore\n        /* \"#utility.yul\":16397:16403   */\n      0x7265737300000000000000000000000000000000000000000000000000000000\n        /* \"#utility.yul\":16392:16394   */\n      0x20\n        /* \"#utility.yul\":16384:16390   */\n      dup3\n        /* \"#utility.yul\":16380:16395   */\n      add\n        /* \"#utility.yul\":16373:16404   */\n      mstore\n        /* \"#utility.yul\":16188:16411   */\n      pop\n      jump\t// out\n        /* \"#utility.yul\":16417:16783   */\n    tag_447:\n        /* \"#utility.yul\":16559:16562   */\n      0x00\n        /* \"#utility.yul\":16580:16647   */\n      tag_651\n        /* \"#utility.yul\":16644:16646   */\n      0x24\n        /* \"#utility.yul\":16639:16642   */\n      dup4\n        /* \"#utility.yul\":16580:16647   */\n      tag_405\n      jump\t// in\n    tag_651:\n        /* \"#utility.yul\":16573:16647   */\n      swap2\n      pop\n        /* \"#utility.yul\":16656:16749   */\n      tag_652\n        /* \"#utility.yul\":16745:16748   */\n      dup3\n        /* \"#utility.yul\":16656:16749   */\n      tag_446\n      jump\t// in\n    tag_652:\n        /* \"#utility.yul\":16774:16776   */\n      0x40\n        /* \"#utility.yul\":16769:16772   */\n      dup3\n        /* \"#utility.yul\":16765:16777   */\n      add\n        /* \"#utility.yul\":16758:16777   */\n      swap1\n      pop\n        /* \"#utility.yul\":16417:16783   */\n      swap2\n      swap1\n      pop\n      jump\t// out\n        /* \"#utility.yul\":16789:17208   */\n    tag_251:\n        /* \"#utility.yul\":16955:16959   */\n      0x00\n        /* \"#utility.yul\":16993:16995   */\n      0x20\n        /* \"#utility.yul\":16982:16991   */\n      dup3\n        /* \"#utility.yul\":16978:16996   */\n      add\n        /* \"#utility.yul\":16970:16996   */\n      swap1\n      pop\n        /* \"#utility.yul\":17042:17051   */\n      dup2\n        /* \"#utility.yul\":17036:17040   */\n      dup2\n        /* \"#utility.yul\":17032:17052   */\n      sub\n        /* \"#utility.yul\":17028:17029   */\n      0x00\n        /* \"#utility.yul\":17017:17026   */\n      dup4\n        /* \"#utility.yul\":17013:17030   */\n      add\n        /* \"#utility.yul\":17006:17053   */\n      mstore\n        /* \"#utility.yul\":17070:17201   */\n      tag_654\n        /* \"#utility.yul\":17196:17200   */\n      dup2\n        /* \"#utility.yul\":17070:17201   */\n      tag_447\n      jump\t// in\n    tag_654:\n        /* \"#utility.yul\":17062:17201   */\n      swap1\n      pop\n        /* \"#utility.yul\":16789:17208   */\n      swap2\n      swap1\n      pop\n      jump\t// out\n        /* \"#utility.yul\":17214:17435   */\n    tag_448:\n        /* \"#utility.yul\":17354:17388   */\n      0x45524332303a20617070726f766520746f20746865207a65726f206164647265\n        /* \"#utility.yul\":17350:17351   */\n      0x00\n        /* \"#utility.yul\":17342:17348   */\n      dup3\n        /* \"#utility.yul\":17338:17352   */\n      add\n        /* \"#utility.yul\":17331:17389   */\n      mstore\n        /* \"#utility.yul\":17423:17427   */\n      0x7373000000000000000000000000000000000000000000000000000000000000\n        /* \"#utility.yul\":17418:17420   */\n      0x20\n        /* \"#utility.yul\":17410:17416   */\n      dup3\n        /* \"#utility.yul\":17406:17421   */\n      add\n        /* \"#utility.yul\":17399:17428   */\n      mstore\n        /* \"#utility.yul\":17214:17435   */\n      pop\n      jump\t// out\n        /* \"#utility.yul\":17441:17807   */\n    tag_449:\n        /* \"#utility.yul\":17583:17586   */\n      0x00\n        /* \"#utility.yul\":17604:17671   */\n      tag_657\n        /* \"#utility.yul\":17668:17670   */\n      0x22\n        /* \"#utility.yul\":17663:17666   */\n      dup4\n        /* \"#utility.yul\":17604:17671   */\n      tag_405\n      jump\t// in\n    tag_657:\n        /* \"#utility.yul\":17597:17671   */\n      swap2\n      pop\n        /* \"#utility.yul\":17680:17773   */\n      tag_658\n        /* \"#utility.yul\":17769:17772   */\n      dup3\n        /* \"#utility.yul\":17680:17773   */\n      tag_448\n      jump\t// in\n    tag_658:\n        /* \"#utility.yul\":17798:17800   */\n      0x40\n        /* \"#utility.yul\":17793:17796   */\n      dup3\n        /* \"#utility.yul\":17789:17801   */\n      add\n        /* \"#utility.yul\":17782:17801   */\n      swap1\n      pop\n        /* \"#utility.yul\":17441:17807   */\n      swap2\n      swap1\n      pop\n      jump\t// out\n        /* \"#utility.yul\":17813:18232   */\n    tag_254:\n        /* \"#utility.yul\":17979:17983   */\n      0x00\n        /* \"#utility.yul\":18017:18019   */\n      0x20\n        /* \"#utility.yul\":18006:18015   */\n      dup3\n        /* \"#utility.yul\":18002:18020   */\n      add\n        /* \"#utility.yul\":17994:18020   */\n      swap1\n      pop\n        /* \"#utility.yul\":18066:18075   */\n      dup2\n        /* \"#utility.yul\":18060:18064   */\n      dup2\n        /* \"#utility.yul\":18056:18076   */\n      sub\n        /* \"#utility.yul\":18052:18053   */\n      0x00\n        /* \"#utility.yul\":18041:18050   */\n      dup4\n        /* \"#utility.yul\":18037:18054   */\n      add\n        /* \"#utility.yul\":18030:18077   */\n      mstore\n        /* \"#utility.yul\":18094:18225   */\n      tag_660\n        /* \"#utility.yul\":18220:18224   */\n      dup2\n        /* \"#utility.yul\":18094:18225   */\n      tag_449\n      jump\t// in\n    tag_660:\n        /* \"#utility.yul\":18086:18225   */\n      swap1\n      pop\n        /* \"#utility.yul\":17813:18232   */\n      swap2\n      swap1\n      pop\n      jump\t// out\n        /* \"#utility.yul\":18238:18462   */\n    tag_450:\n        /* \"#utility.yul\":18378:18412   */\n      0x45524332303a207472616e736665722066726f6d20746865207a65726f206164\n        /* \"#utility.yul\":18374:18375   */\n      0x00\n        /* \"#utility.yul\":18366:18372   */\n      dup3\n        /* \"#utility.yul\":18362:18376   */\n      add\n        /* \"#utility.yul\":18355:18413   */\n      mstore\n        /* \"#utility.yul\":18447:18454   */\n      0x6472657373000000000000000000000000000000000000000000000000000000\n        /* \"#utility.yul\":18442:18444   */\n      0x20\n        /* \"#utility.yul\":18434:18440   */\n      dup3\n        /* \"#utility.yul\":18430:18445   */\n      add\n        /* \"#utility.yul\":18423:18455   */\n      mstore\n        /* \"#utility.yul\":18238:18462   */\n      pop\n      jump\t// out\n        /* \"#utility.yul\":18468:18834   */\n    tag_451:\n        /* \"#utility.yul\":18610:18613   */\n      0x00\n        /* \"#utility.yul\":18631:18698   */\n      tag_663\n        /* \"#utility.yul\":18695:18697   */\n      0x25\n        /* \"#utility.yul\":18690:18693   */\n      dup4\n        /* \"#utility.yul\":18631:18698   */\n      tag_405\n      jump\t// in\n    tag_663:\n        /* \"#utility.yul\":18624:18698   */\n      swap2\n      pop\n        /* \"#utility.yul\":18707:18800   */\n      tag_664\n        /* \"#utility.yul\":18796:18799   */\n      dup3\n        /* \"#utility.yul\":18707:18800   */\n      tag_450\n      jump\t// in\n    tag_664:\n        /* \"#utility.yul\":18825:18827   */\n      0x40\n        /* \"#utility.yul\":18820:18823   */\n      dup3\n        /* \"#utility.yul\":18816:18828   */\n      add\n        /* \"#utility.yul\":18809:18828   */\n      swap1\n      pop\n        /* \"#utility.yul\":18468:18834   */\n      swap2\n      swap1\n      pop\n      jump\t// out\n        /* \"#utility.yul\":18840:19259   */\n    tag_259:\n        /* \"#utility.yul\":19006:19010   */\n      0x00\n        /* \"#utility.yul\":19044:19046   */\n      0x20\n        /* \"#utility.yul\":19033:19042   */\n      dup3\n        /* \"#utility.yul\":19029:19047   */\n      add\n        /* \"#utility.yul\":19021:19047   */\n      swap1\n      pop\n        /* \"#utility.yul\":19093:19102   */\n      dup2\n        /* \"#utility.yul\":19087:19091   */\n      dup2\n        /* \"#utility.yul\":19083:19103   */\n      sub\n        /* \"#utility.yul\":19079:19080   */\n      0x00\n        /* \"#utility.yul\":19068:19077   */\n      dup4\n        /* \"#utility.yul\":19064:19081   */\n      add\n        /* \"#utility.yul\":19057:19104   */\n      mstore\n        /* \"#utility.yul\":19121:19252   */\n      tag_666\n        /* \"#utility.yul\":19247:19251   */\n      dup2\n        /* \"#utility.yul\":19121:19252   */\n      tag_451\n      jump\t// in\n    tag_666:\n        /* \"#utility.yul\":19113:19252   */\n      swap1\n      pop\n        /* \"#utility.yul\":18840:19259   */\n      swap2\n      swap1\n      pop\n      jump\t// out\n        /* \"#utility.yul\":19265:19487   */\n    tag_452:\n        /* \"#utility.yul\":19405:19439   */\n      0x45524332303a207472616e7366657220746f20746865207a65726f2061646472\n        /* \"#utility.yul\":19401:19402   */\n      0x00\n        /* \"#utility.yul\":19393:19399   */\n      dup3\n        /* \"#utility.yul\":19389:19403   */\n      add\n        /* \"#utility.yul\":19382:19440   */\n      mstore\n        /* \"#utility.yul\":19474:19479   */\n      0x6573730000000000000000000000000000000000000000000000000000000000\n        /* \"#utility.yul\":19469:19471   */\n      0x20\n        /* \"#utility.yul\":19461:19467   */\n      dup3\n        /* \"#utility.yul\":19457:19472   */\n      add\n        /* \"#utility.yul\":19450:19480   */\n      mstore\n        /* \"#utility.yul\":19265:19487   */\n      pop\n      jump\t// out\n        /* \"#utility.yul\":19493:19859   */\n    tag_453:\n        /* \"#utility.yul\":19635:19638   */\n      0x00\n        /* \"#utility.yul\":19656:19723   */\n      tag_669\n        /* \"#utility.yul\":19720:19722   */\n      0x23\n        /* \"#utility.yul\":19715:19718   */\n      dup4\n        /* \"#utility.yul\":19656:19723   */\n      tag_405\n      jump\t// in\n    tag_669:\n        /* \"#utility.yul\":19649:19723   */\n      swap2\n      pop\n        /* \"#utility.yul\":19732:19825   */\n      tag_670\n        /* \"#utility.yul\":19821:19824   */\n      dup3\n        /* \"#utility.yul\":19732:19825   */\n      tag_452\n      jump\t// in\n    tag_670:\n        /* \"#utility.yul\":19850:19852   */\n      0x40\n        /* \"#utility.yul\":19845:19848   */\n      dup3\n        /* \"#utility.yul\":19841:19853   */\n      add\n        /* \"#utility.yul\":19834:19853   */\n      swap1\n      pop\n        /* \"#utility.yul\":19493:19859   */\n      swap2\n      swap1\n      pop\n      jump\t// out\n        /* \"#utility.yul\":19865:20284   */\n    tag_262:\n        /* \"#utility.yul\":20031:20035   */\n      0x00\n        /* \"#utility.yul\":20069:20071   */\n      0x20\n        /* \"#utility.yul\":20058:20067   */\n      dup3\n        /* \"#utility.yul\":20054:20072   */\n      add\n        /* \"#utility.yul\":20046:20072   */\n      swap1\n      pop\n        /* \"#utility.yul\":20118:20127   */\n      dup2\n        /* \"#utility.yul\":20112:20116   */\n      dup2\n        /* \"#utility.yul\":20108:20128   */\n      sub\n        /* \"#utility.yul\":20104:20105   */\n      0x00\n        /* \"#utility.yul\":20093:20102   */\n      dup4\n        /* \"#utility.yul\":20089:20106   */\n      add\n        /* \"#utility.yul\":20082:20129   */\n      mstore\n        /* \"#utility.yul\":20146:20277   */\n      tag_672\n        /* \"#utility.yul\":20272:20276   */\n      dup2\n        /* \"#utility.yul\":20146:20277   */\n      tag_453\n      jump\t// in\n    tag_672:\n        /* \"#utility.yul\":20138:20277   */\n      swap1\n      pop\n        /* \"#utility.yul\":19865:20284   */\n      swap2\n      swap1\n      pop\n      jump\t// out\n        /* \"#utility.yul\":20290:20518   */\n    tag_454:\n        /* \"#utility.yul\":20430:20464   */\n      0x5472616e7366657220616d6f756e74206d757374206265206772656174657220\n        /* \"#utility.yul\":20426:20427   */\n      0x00\n        /* \"#utility.yul\":20418:20424   */\n      dup3\n        /* \"#utility.yul\":20414:20428   */\n      add\n        /* \"#utility.yul\":20407:20465   */\n      mstore\n        /* \"#utility.yul\":20499:20510   */\n      0x7468616e207a65726f0000000000000000000000000000000000000000000000\n        /* \"#utility.yul\":20494:20496   */\n      0x20\n        /* \"#utility.yul\":20486:20492   */\n      dup3\n        /* \"#utility.yul\":20482:20497   */\n      add\n        /* \"#utility.yul\":20475:20511   */\n      mstore\n        /* \"#utility.yul\":20290:20518   */\n      pop\n      jump\t// out\n        /* \"#utility.yul\":20524:20890   */\n    tag_455:\n        /* \"#utility.yul\":20666:20669   */\n      0x00\n        /* \"#utility.yul\":20687:20754   */\n      tag_675\n        /* \"#utility.yul\":20751:20753   */\n      0x29\n        /* \"#utility.yul\":20746:20749   */\n      dup4\n        /* \"#utility.yul\":20687:20754   */\n      tag_405\n      jump\t// in\n    tag_675:\n        /* \"#utility.yul\":20680:20754   */\n      swap2\n      pop\n        /* \"#utility.yul\":20763:20856   */\n      tag_676\n        /* \"#utility.yul\":20852:20855   */\n      dup3\n        /* \"#utility.yul\":20763:20856   */\n      tag_454\n      jump\t// in\n    tag_676:\n        /* \"#utility.yul\":20881:20883   */\n      0x40\n        /* \"#utility.yul\":20876:20879   */\n      dup3\n        /* \"#utility.yul\":20872:20884   */\n      add\n        /* \"#utility.yul\":20865:20884   */\n      swap1\n      pop\n        /* \"#utility.yul\":20524:20890   */\n      swap2\n      swap1\n      pop\n      jump\t// out\n        /* \"#utility.yul\":20896:21315   */\n    tag_265:\n        /* \"#utility.yul\":21062:21066   */\n      0x00\n        /* \"#utility.yul\":21100:21102   */\n      0x20\n        /* \"#utility.yul\":21089:21098   */\n      dup3\n        /* \"#utility.yul\":21085:21103   */\n      add\n        /* \"#utility.yul\":21077:21103   */\n      swap1\n      pop\n        /* \"#utility.yul\":21149:21158   */\n      dup2\n        /* \"#utility.yul\":21143:21147   */\n      dup2\n        /* \"#utility.yul\":21139:21159   */\n      sub\n        /* \"#utility.yul\":21135:21136   */\n      0x00\n        /* \"#utility.yul\":21124:21133   */\n      dup4\n        /* \"#utility.yul\":21120:21137   */\n      add\n        /* \"#utility.yul\":21113:21160   */\n      mstore\n        /* \"#utility.yul\":21177:21308   */\n      tag_678\n        /* \"#utility.yul\":21303:21307   */\n      dup2\n        /* \"#utility.yul\":21177:21308   */\n      tag_455\n      jump\t// in\n    tag_678:\n        /* \"#utility.yul\":21169:21308   */\n      swap1\n      pop\n        /* \"#utility.yul\":20896:21315   */\n      swap2\n      swap1\n      pop\n      jump\t// out\n        /* \"#utility.yul\":21321:21496   */\n    tag_456:\n        /* \"#utility.yul\":21461:21488   */\n      0x4578636565647320746865205f6d61785478416d6f756e742e00000000000000\n        /* \"#utility.yul\":21457:21458   */\n      0x00\n        /* \"#utility.yul\":21449:21455   */\n      dup3\n        /* \"#utility.yul\":21445:21459   */\n      add\n        /* \"#utility.yul\":21438:21489   */\n      mstore\n        /* \"#utility.yul\":21321:21496   */\n      pop\n      jump\t// out\n        /* \"#utility.yul\":21502:21868   */\n    tag_457:\n        /* \"#utility.yul\":21644:21647   */\n      0x00\n        /* \"#utility.yul\":21665:21732   */\n      tag_681\n        /* \"#utility.yul\":21729:21731   */\n      0x19\n        /* \"#utility.yul\":21724:21727   */\n      dup4\n        /* \"#utility.yul\":21665:21732   */\n      tag_405\n      jump\t// in\n    tag_681:\n        /* \"#utility.yul\":21658:21732   */\n      swap2\n      pop\n        /* \"#utility.yul\":21741:21834   */\n      tag_682\n        /* \"#utility.yul\":21830:21833   */\n      dup3\n        /* \"#utility.yul\":21741:21834   */\n      tag_456\n      jump\t// in\n    tag_682:\n        /* \"#utility.yul\":21859:21861   */\n      0x20\n        /* \"#utility.yul\":21854:21857   */\n      dup3\n        /* \"#utility.yul\":21850:21862   */\n      add\n        /* \"#utility.yul\":21843:21862   */\n      swap1\n      pop\n        /* \"#utility.yul\":21502:21868   */\n      swap2\n      swap1\n      pop\n      jump\t// out\n        /* \"#utility.yul\":21874:22293   */\n    tag_278:\n        /* \"#utility.yul\":22040:22044   */\n      0x00\n        /* \"#utility.yul\":22078:22080   */\n      0x20\n        /* \"#utility.yul\":22067:22076   */\n      dup3\n        /* \"#utility.yul\":22063:22081   */\n      add\n        /* \"#utility.yul\":22055:22081   */\n      swap1\n      pop\n        /* \"#utility.yul\":22127:22136   */\n      dup2\n        /* \"#utility.yul\":22121:22125   */\n      dup2\n        /* \"#utility.yul\":22117:22137   */\n      sub\n        /* \"#utility.yul\":22113:22114   */\n      0x00\n        /* \"#utility.yul\":22102:22111   */\n      dup4\n        /* \"#utility.yul\":22098:22115   */\n      add\n        /* \"#utility.yul\":22091:22138   */\n      mstore\n        /* \"#utility.yul\":22155:22286   */\n      tag_684\n        /* \"#utility.yul\":22281:22285   */\n      dup2\n        /* \"#utility.yul\":22155:22286   */\n      tag_457\n      jump\t// in\n    tag_684:\n        /* \"#utility.yul\":22147:22286   */\n      swap1\n      pop\n        /* \"#utility.yul\":21874:22293   */\n      swap2\n      swap1\n      pop\n      jump\t// out\n        /* \"#utility.yul\":22299:22604   */\n    tag_281:\n        /* \"#utility.yul\":22339:22342   */\n      0x00\n        /* \"#utility.yul\":22358:22378   */\n      tag_686\n        /* \"#utility.yul\":22376:22377   */\n      dup3\n        /* \"#utility.yul\":22358:22378   */\n      tag_416\n      jump\t// in\n    tag_686:\n        /* \"#utility.yul\":22353:22378   */\n      swap2\n      pop\n        /* \"#utility.yul\":22392:22412   */\n      tag_687\n        /* \"#utility.yul\":22410:22411   */\n      dup4\n        /* \"#utility.yul\":22392:22412   */\n      tag_416\n      jump\t// in\n    tag_687:\n        /* \"#utility.yul\":22387:22412   */\n      swap3\n      pop\n        /* \"#utility.yul\":22546:22547   */\n      dup3\n        /* \"#utility.yul\":22478:22544   */\n      0xffffffffffffffffffffffffffffffffffffffffffffffffffffffffffffffff\n        /* \"#utility.yul\":22474:22548   */\n      sub\n        /* \"#utility.yul\":22471:22472   */\n      dup3\n        /* \"#utility.yul\":22468:22549   */\n      gt\n        /* \"#utility.yul\":22465:22572   */\n      iszero\n      tag_688\n      jumpi\n        /* \"#utility.yul\":22552:22570   */\n      tag_689\n      tag_445\n      jump\t// in\n    tag_689:\n        /* \"#utility.yul\":22465:22572   */\n    tag_688:\n        /* \"#utility.yul\":22596:22597   */\n      dup3\n        /* \"#utility.yul\":22593:22594   */\n      dup3\n        /* \"#utility.yul\":22589:22598   */\n      add\n        /* \"#utility.yul\":22582:22598   */\n      swap1\n      pop\n        /* \"#utility.yul\":22299:22604   */\n      swap3\n      swap2\n      pop\n      pop\n      jump\t// out\n        /* \"#utility.yul\":22610:22786   */\n    tag_458:\n        /* \"#utility.yul\":22750:22778   */\n      0x4578636565647320746865206d617857616c6c657453697a652e000000000000\n        /* \"#utility.yul\":22746:22747   */\n      0x00\n        /* \"#utility.yul\":22738:22744   */\n      dup3\n        /* \"#utility.yul\":22734:22748   */\n      add\n        /* \"#utility.yul\":22727:22779   */\n      mstore\n        /* \"#utility.yul\":22610:22786   */\n      pop\n      jump\t// out\n        /* \"#utility.yul\":22792:23158   */\n    tag_459:\n        /* \"#utility.yul\":22934:22937   */\n      0x00\n        /* \"#utility.yul\":22955:23022   */\n      tag_692\n        /* \"#utility.yul\":23019:23021   */\n      0x1a\n        /* \"#utility.yul\":23014:23017   */\n      dup4\n        /* \"#utility.yul\":22955:23022   */\n      tag_405\n      jump\t// in\n    tag_692:\n        /* \"#utility.yul\":22948:23022   */\n      swap2\n      pop\n        /* \"#utility.yul\":23031:23124   */\n      tag_693\n        /* \"#utility.yul\":23120:23123   */\n      dup3\n        /* \"#utility.yul\":23031:23124   */\n      tag_458\n      jump\t// in\n    tag_693:\n        /* \"#utility.yul\":23149:23151   */\n      0x20\n        /* \"#utility.yul\":23144:23147   */\n      dup3\n        /* \"#utility.yul\":23140:23152   */\n      add\n        /* \"#utility.yul\":23133:23152   */\n      swap1\n      pop\n        /* \"#utility.yul\":22792:23158   */\n      swap2\n      swap1\n      pop\n      jump\t// out\n        /* \"#utility.yul\":23164:23583   */\n    tag_284:\n        /* \"#utility.yul\":23330:23334   */\n      0x00\n        /* \"#utility.yul\":23368:23370   */\n      0x20\n        /* \"#utility.yul\":23357:23366   */\n      dup3\n        /* \"#utility.yul\":23353:23371   */\n      add\n        /* \"#utility.yul\":23345:23371   */\n      swap1\n      pop\n        /* \"#utility.yul\":23417:23426   */\n      dup2\n        /* \"#utility.yul\":23411:23415   */\n      dup2\n        /* \"#utility.yul\":23407:23427   */\n      sub\n        /* \"#utility.yul\":23403:23404   */\n      0x00\n        /* \"#utility.yul\":23392:23401   */\n      dup4\n        /* \"#utility.yul\":23388:23405   */\n      add\n        /* \"#utility.yul\":23381:23428   */\n      mstore\n        /* \"#utility.yul\":23445:23576   */\n      tag_695\n        /* \"#utility.yul\":23571:23575   */\n      dup2\n        /* \"#utility.yul\":23445:23576   */\n      tag_459\n      jump\t// in\n    tag_695:\n        /* \"#utility.yul\":23437:23576   */\n      swap1\n      pop\n        /* \"#utility.yul\":23164:23583   */\n      swap2\n      swap1\n      pop\n      jump\t// out\n        /* \"#utility.yul\":23589:23780   */\n    tag_303:\n        /* \"#utility.yul\":23629:23633   */\n      0x00\n        /* \"#utility.yul\":23649:23669   */\n      tag_697\n        /* \"#utility.yul\":23667:23668   */\n      dup3\n        /* \"#utility.yul\":23649:23669   */\n      tag_416\n      jump\t// in\n    tag_697:\n        /* \"#utility.yul\":23644:23669   */\n      swap2\n      pop\n        /* \"#utility.yul\":23683:23703   */\n      tag_698\n        /* \"#utility.yul\":23701:23702   */\n      dup4\n        /* \"#utility.yul\":23683:23703   */\n      tag_416\n      jump\t// in\n    tag_698:\n        /* \"#utility.yul\":23678:23703   */\n      swap3\n      pop\n        /* \"#utility.yul\":23722:23723   */\n      dup3\n        /* \"#utility.yul\":23719:23720   */\n      dup3\n        /* \"#utility.yul\":23716:23724   */\n      lt\n        /* \"#utility.yul\":23713:23747   */\n      iszero\n      tag_699\n      jumpi\n        /* \"#utility.yul\":23727:23745   */\n      tag_700\n      tag_445\n      jump\t// in\n    tag_700:\n        /* \"#utility.yul\":23713:23747   */\n    tag_699:\n        /* \"#utility.yul\":23772:23773   */\n      dup3\n        /* \"#utility.yul\":23769:23770   */\n      dup3\n        /* \"#utility.yul\":23765:23774   */\n      sub\n        /* \"#utility.yul\":23757:23774   */\n      swap1\n      pop\n        /* \"#utility.yul\":23589:23780   */\n      swap3\n      swap2\n      pop\n      pop\n      jump\t// out\n        /* \"#utility.yul\":23786:24134   */\n    tag_307:\n        /* \"#utility.yul\":23826:23833   */\n      0x00\n        /* \"#utility.yul\":23849:23869   */\n      tag_702\n        /* \"#utility.yul\":23867:23868   */\n      dup3\n        /* \"#utility.yul\":23849:23869   */\n      tag_416\n      jump\t// in\n    tag_702:\n        /* \"#utility.yul\":23844:23869   */\n      swap2\n      pop\n        /* \"#utility.yul\":23883:23903   */\n      tag_703\n        /* \"#utility.yul\":23901:23902   */\n      dup4\n        /* \"#utility.yul\":23883:23903   */\n      tag_416\n      jump\t// in\n    tag_703:\n        /* \"#utility.yul\":23878:23903   */\n      swap3\n      pop\n        /* \"#utility.yul\":24071:24072   */\n      dup2\n        /* \"#utility.yul\":24003:24069   */\n      0xffffffffffffffffffffffffffffffffffffffffffffffffffffffffffffffff\n        /* \"#utility.yul\":23999:24073   */\n      div\n        /* \"#utility.yul\":23996:23997   */\n      dup4\n        /* \"#utility.yul\":23993:24074   */\n      gt\n        /* \"#utility.yul\":23988:23989   */\n      dup3\n        /* \"#utility.yul\":23981:23990   */\n      iszero\n        /* \"#utility.yul\":23974:23991   */\n      iszero\n        /* \"#utility.yul\":23970:24075   */\n      and\n        /* \"#utility.yul\":23967:24098   */\n      iszero\n      tag_704\n      jumpi\n        /* \"#utility.yul\":24078:24096   */\n      tag_705\n      tag_445\n      jump\t// in\n    tag_705:\n        /* \"#utility.yul\":23967:24098   */\n    tag_704:\n        /* \"#utility.yul\":24126:24127   */\n      dup3\n        /* \"#utility.yul\":24123:24124   */\n      dup3\n        /* \"#utility.yul\":24119:24128   */\n      mul\n        /* \"#utility.yul\":24108:24128   */\n      swap1\n      pop\n        /* \"#utility.yul\":23786:24134   */\n      swap3\n      swap2\n      pop\n      pop\n      jump\t// out\n        /* \"#utility.yul\":24140:24320   */\n    tag_460:\n        /* \"#utility.yul\":24188:24265   */\n      0x4e487b7100000000000000000000000000000000000000000000000000000000\n        /* \"#utility.yul\":24185:24186   */\n      0x00\n        /* \"#utility.yul\":24178:24266   */\n      mstore\n        /* \"#utility.yul\":24285:24289   */\n      0x12\n        /* \"#utility.yul\":24282:24283   */\n      0x04\n        /* \"#utility.yul\":24275:24290   */\n      mstore\n        /* \"#utility.yul\":24309:24313   */\n      0x24\n        /* \"#utility.yul\":24306:24307   */\n      0x00\n        /* \"#utility.yul\":24299:24314   */\n      revert\n        /* \"#utility.yul\":24326:24511   */\n    tag_309:\n        /* \"#utility.yul\":24366:24367   */\n      0x00\n        /* \"#utility.yul\":24383:24403   */\n      tag_708\n        /* \"#utility.yul\":24401:24402   */\n      dup3\n        /* \"#utility.yul\":24383:24403   */\n      tag_416\n      jump\t// in\n    tag_708:\n        /* \"#utility.yul\":24378:24403   */\n      swap2\n      pop\n        /* \"#utility.yul\":24417:24437   */\n      tag_709\n        /* \"#utility.yul\":24435:24436   */\n      dup4\n        /* \"#utility.yul\":24417:24437   */\n      tag_416\n      jump\t// in\n    tag_709:\n        /* \"#utility.yul\":24412:24437   */\n      swap3\n      pop\n        /* \"#utility.yul\":24456:24457   */\n      dup3\n        /* \"#utility.yul\":24446:24481   */\n      tag_710\n      jumpi\n        /* \"#utility.yul\":24461:24479   */\n      tag_711\n      tag_460\n      jump\t// in\n    tag_711:\n        /* \"#utility.yul\":24446:24481   */\n    tag_710:\n        /* \"#utility.yul\":24503:24504   */\n      dup3\n        /* \"#utility.yul\":24500:24501   */\n      dup3\n        /* \"#utility.yul\":24496:24505   */\n      div\n        /* \"#utility.yul\":24491:24505   */\n      swap1\n      pop\n        /* \"#utility.yul\":24326:24511   */\n      swap3\n      swap2\n      pop\n      pop\n      jump\t// out\n        /* \"#utility.yul\":24517:24737   */\n    tag_461:\n        /* \"#utility.yul\":24657:24691   */\n      0x536166654d6174683a206d756c7469706c69636174696f6e206f766572666c6f\n        /* \"#utility.yul\":24653:24654   */\n      0x00\n        /* \"#utility.yul\":24645:24651   */\n      dup3\n        /* \"#utility.yul\":24641:24655   */\n      add\n        /* \"#utility.yul\":24634:24692   */\n      mstore\n        /* \"#utility.yul\":24726:24729   */\n      0x7700000000000000000000000000000000000000000000000000000000000000\n        /* \"#utility.yul\":24721:24723   */\n      0x20\n        /* \"#utility.yul\":24713:24719   */\n      dup3\n        /* \"#utility.yul\":24709:24724   */\n      add\n        /* \"#utility.yul\":24702:24730   */\n      mstore\n        /* \"#utility.yul\":24517:24737   */\n      pop\n      jump\t// out\n        /* \"#utility.yul\":24743:25109   */\n    tag_462:\n        /* \"#utility.yul\":24885:24888   */\n      0x00\n        /* \"#utility.yul\":24906:24973   */\n      tag_714\n        /* \"#utility.yul\":24970:24972   */\n      0x21\n        /* \"#utility.yul\":24965:24968   */\n      dup4\n        /* \"#utility.yul\":24906:24973   */\n      tag_405\n      jump\t// in\n    tag_714:\n        /* \"#utility.yul\":24899:24973   */\n      swap2\n      pop\n        /* \"#utility.yul\":24982:25075   */\n      tag_715\n        /* \"#utility.yul\":25071:25074   */\n      dup3\n        /* \"#utility.yul\":24982:25075   */\n      tag_461\n      jump\t// in\n    tag_715:\n        /* \"#utility.yul\":25100:25102   */\n      0x40\n        /* \"#utility.yul\":25095:25098   */\n      dup3\n        /* \"#utility.yul\":25091:25103   */\n      add\n        /* \"#utility.yul\":25084:25103   */\n      swap1\n      pop\n        /* \"#utility.yul\":24743:25109   */\n      swap2\n      swap1\n      pop\n      jump\t// out\n        /* \"#utility.yul\":25115:25534   */\n    tag_312:\n        /* \"#utility.yul\":25281:25285   */\n      0x00\n        /* \"#utility.yul\":25319:25321   */\n      0x20\n        /* \"#utility.yul\":25308:25317   */\n      dup3\n        /* \"#utility.yul\":25304:25322   */\n      add\n        /* \"#utility.yul\":25296:25322   */\n      swap1\n      pop\n        /* \"#utility.yul\":25368:25377   */\n      dup2\n        /* \"#utility.yul\":25362:25366   */\n      dup2\n        /* \"#utility.yul\":25358:25378   */\n      sub\n        /* \"#utility.yul\":25354:25355   */\n      0x00\n        /* \"#utility.yul\":25343:25352   */\n      dup4\n        /* \"#utility.yul\":25339:25356   */\n      add\n        /* \"#utility.yul\":25332:25379   */\n      mstore\n        /* \"#utility.yul\":25396:25527   */\n      tag_717\n        /* \"#utility.yul\":25522:25526   */\n      dup2\n        /* \"#utility.yul\":25396:25527   */\n      tag_462\n      jump\t// in\n    tag_717:\n        /* \"#utility.yul\":25388:25527   */\n      swap1\n      pop\n        /* \"#utility.yul\":25115:25534   */\n      swap2\n      swap1\n      pop\n      jump\t// out\n        /* \"#utility.yul\":25540:25769   */\n    tag_463:\n        /* \"#utility.yul\":25680:25714   */\n      0x416d6f756e74206d757374206265206c657373207468616e20746f74616c2072\n        /* \"#utility.yul\":25676:25677   */\n      0x00\n        /* \"#utility.yul\":25668:25674   */\n      dup3\n        /* \"#utility.yul\":25664:25678   */\n      add\n        /* \"#utility.yul\":25657:25715   */\n      mstore\n        /* \"#utility.yul\":25749:25761   */\n      0x65666c656374696f6e7300000000000000000000000000000000000000000000\n        /* \"#utility.yul\":25744:25746   */\n      0x20\n        /* \"#utility.yul\":25736:25742   */\n      dup3\n        /* \"#utility.yul\":25732:25747   */\n      add\n        /* \"#utility.yul\":25725:25762   */\n      mstore\n        /* \"#utility.yul\":25540:25769   */\n      pop\n      jump\t// out\n        /* \"#utility.yul\":25775:26141   */\n    tag_464:\n        /* \"#utility.yul\":25917:25920   */\n      0x00\n        /* \"#utility.yul\":25938:26005   */\n      tag_720\n        /* \"#utility.yul\":26002:26004   */\n      0x2a\n        /* \"#utility.yul\":25997:26000   */\n      dup4\n        /* \"#utility.yul\":25938:26005   */\n      tag_405\n      jump\t// in\n    tag_720:\n        /* \"#utility.yul\":25931:26005   */\n      swap2\n      pop\n        /* \"#utility.yul\":26014:26107   */\n      tag_721\n        /* \"#utility.yul\":26103:26106   */\n      dup3\n        /* \"#utility.yul\":26014:26107   */\n      tag_463\n      jump\t// in\n    tag_721:\n        /* \"#utility.yul\":26132:26134   */\n      0x40\n        /* \"#utility.yul\":26127:26130   */\n      dup3\n        /* \"#utility.yul\":26123:26135   */\n      add\n        /* \"#utility.yul\":26116:26135   */\n      swap1\n      pop\n        /* \"#utility.yul\":25775:26141   */\n      swap2\n      swap1\n      pop\n      jump\t// out\n        /* \"#utility.yul\":26147:26566   */\n    tag_322:\n        /* \"#utility.yul\":26313:26317   */\n      0x00\n        /* \"#utility.yul\":26351:26353   */\n      0x20\n        /* \"#utility.yul\":26340:26349   */\n      dup3\n        /* \"#utility.yul\":26336:26354   */\n      add\n        /* \"#utility.yul\":26328:26354   */\n      swap1\n      pop\n        /* \"#utility.yul\":26400:26409   */\n      dup2\n        /* \"#utility.yul\":26394:26398   */\n      dup2\n        /* \"#utility.yul\":26390:26410   */\n      sub\n        /* \"#utility.yul\":26386:26387   */\n      0x00\n        /* \"#utility.yul\":26375:26384   */\n      dup4\n        /* \"#utility.yul\":26371:26388   */\n      add\n        /* \"#utility.yul\":26364:26411   */\n      mstore\n        /* \"#utility.yul\":26428:26559   */\n      tag_723\n        /* \"#utility.yul\":26554:26558   */\n      dup2\n        /* \"#utility.yul\":26428:26559   */\n      tag_464\n      jump\t// in\n    tag_723:\n        /* \"#utility.yul\":26420:26559   */\n      swap1\n      pop\n        /* \"#utility.yul\":26147:26566   */\n      swap2\n      swap1\n      pop\n      jump\t// out\n        /* \"#utility.yul\":26572:26686   */\n    tag_465:\n        /* \"#utility.yul\":26639:26645   */\n      0x00\n        /* \"#utility.yul\":26673:26678   */\n      dup2\n        /* \"#utility.yul\":26667:26679   */\n      mload\n        /* \"#utility.yul\":26657:26679   */\n      swap1\n      pop\n        /* \"#utility.yul\":26572:26686   */\n      swap2\n      swap1\n      pop\n      jump\t// out\n        /* \"#utility.yul\":26692:26876   */\n    tag_466:\n        /* \"#utility.yul\":26791:26802   */\n      0x00\n        /* \"#utility.yul\":26825:26831   */\n      dup3\n        /* \"#utility.yul\":26820:26823   */\n      dup3\n        /* \"#utility.yul\":26813:26832   */\n      mstore\n        /* \"#utility.yul\":26865:26869   */\n      0x20\n        /* \"#utility.yul\":26860:26863   */\n      dup3\n        /* \"#utility.yul\":26856:26870   */\n      add\n        /* \"#utility.yul\":26841:26870   */\n      swap1\n      pop\n        /* \"#utility.yul\":26692:26876   */\n      swap3\n      swap2\n      pop\n      pop\n      jump\t// out\n        /* \"#utility.yul\":26882:27014   */\n    tag_467:\n        /* \"#utility.yul\":26949:26953   */\n      0x00\n        /* \"#utility.yul\":26972:26975   */\n      dup2\n        /* \"#utility.yul\":26964:26975   */\n      swap1\n      pop\n        /* \"#utility.yul\":27002:27006   */\n      0x20\n        /* \"#utility.yul\":26997:27000   */\n      dup3\n        /* \"#utility.yul\":26993:27007   */\n      add\n        /* \"#utility.yul\":26985:27007   */\n      swap1\n      pop\n        /* \"#utility.yul\":26882:27014   */\n      swap2\n      swap1\n      pop\n      jump\t// out\n        /* \"#utility.yul\":27020:27128   */\n    tag_468:\n        /* \"#utility.yul\":27097:27121   */\n      tag_728\n        /* \"#utility.yul\":27115:27120   */\n      dup2\n        /* \"#utility.yul\":27097:27121   */\n      tag_413\n      jump\t// in\n    tag_728:\n        /* \"#utility.yul\":27092:27095   */\n      dup3\n        /* \"#utility.yul\":27085:27122   */\n      mstore\n        /* \"#utility.yul\":27020:27128   */\n      pop\n      pop\n      jump\t// out\n        /* \"#utility.yul\":27134:27313   */\n    tag_469:\n        /* \"#utility.yul\":27203:27213   */\n      0x00\n        /* \"#utility.yul\":27224:27270   */\n      tag_730\n        /* \"#utility.yul\":27266:27269   */\n      dup4\n        /* \"#utility.yul\":27258:27264   */\n      dup4\n        /* \"#utility.yul\":27224:27270   */\n      tag_468\n      jump\t// in\n    tag_730:\n        /* \"#utility.yul\":27302:27306   */\n      0x20\n        /* \"#utility.yul\":27297:27300   */\n      dup4\n        /* \"#utility.yul\":27293:27307   */\n      add\n        /* \"#utility.yul\":27279:27307   */\n      swap1\n      pop\n        /* \"#utility.yul\":27134:27313   */\n      swap3\n      swap2\n      pop\n      pop\n      jump\t// out\n        /* \"#utility.yul\":27319:27432   */\n    tag_470:\n        /* \"#utility.yul\":27389:27393   */\n      0x00\n        /* \"#utility.yul\":27421:27425   */\n      0x20\n        /* \"#utility.yul\":27416:27419   */\n      dup3\n        /* \"#utility.yul\":27412:27426   */\n      add\n        /* \"#utility.yul\":27404:27426   */\n      swap1\n      pop\n        /* \"#utility.yul\":27319:27432   */\n      swap2\n      swap1\n      pop\n      jump\t// out\n        /* \"#utility.yul\":27468:28200   */\n    tag_471:\n        /* \"#utility.yul\":27587:27590   */\n      0x00\n        /* \"#utility.yul\":27616:27670   */\n      tag_733\n        /* \"#utility.yul\":27664:27669   */\n      dup3\n        /* \"#utility.yul\":27616:27670   */\n      tag_465\n      jump\t// in\n    tag_733:\n        /* \"#utility.yul\":27686:27772   */\n      tag_734\n        /* \"#utility.yul\":27765:27771   */\n      dup2\n        /* \"#utility.yul\":27760:27763   */\n      dup6\n        /* \"#utility.yul\":27686:27772   */\n      tag_466\n      jump\t// in\n    tag_734:\n        /* \"#utility.yul\":27679:27772   */\n      swap4\n      pop\n        /* \"#utility.yul\":27796:27852   */\n      tag_735\n        /* \"#utility.yul\":27846:27851   */\n      dup4\n        /* \"#utility.yul\":27796:27852   */\n      tag_467\n      jump\t// in\n    tag_735:\n        /* \"#utility.yul\":27875:27882   */\n      dup1\n        /* \"#utility.yul\":27906:27907   */\n      0x00\n        /* \"#utility.yul\":27891:28175   */\n    tag_736:\n        /* \"#utility.yul\":27916:27922   */\n      dup4\n        /* \"#utility.yul\":27913:27914   */\n      dup2\n        /* \"#utility.yul\":27910:27923   */\n      lt\n        /* \"#utility.yul\":27891:28175   */\n      iszero\n      tag_738\n      jumpi\n        /* \"#utility.yul\":27992:27998   */\n      dup2\n        /* \"#utility.yul\":27986:27999   */\n      mload\n        /* \"#utility.yul\":28019:28082   */\n      tag_739\n        /* \"#utility.yul\":28078:28081   */\n      dup9\n        /* \"#utility.yul\":28063:28076   */\n      dup3\n        /* \"#utility.yul\":28019:28082   */\n      tag_469\n      jump\t// in\n    tag_739:\n        /* \"#utility.yul\":28012:28082   */\n      swap8\n      pop\n        /* \"#utility.yul\":28105:28165   */\n      tag_740\n        /* \"#utility.yul\":28158:28164   */\n      dup4\n        /* \"#utility.yul\":28105:28165   */\n      tag_470\n      jump\t// in\n    tag_740:\n        /* \"#utility.yul\":28095:28165   */\n      swap3\n      pop\n        /* \"#utility.yul\":27951:28175   */\n      pop\n        /* \"#utility.yul\":27938:27939   */\n      0x01\n        /* \"#utility.yul\":27935:27936   */\n      dup2\n        /* \"#utility.yul\":27931:27940   */\n      add\n        /* \"#utility.yul\":27926:27940   */\n      swap1\n      pop\n        /* \"#utility.yul\":27891:28175   */\n      jump(tag_736)\n    tag_738:\n        /* \"#utility.yul\":27895:27909   */\n      pop\n        /* \"#utility.yul\":28191:28194   */\n      dup6\n        /* \"#utility.yul\":28184:28194   */\n      swap4\n      pop\n        /* \"#utility.yul\":27592:28200   */\n      pop\n      pop\n      pop\n        /* \"#utility.yul\":27468:28200   */\n      swap3\n      swap2\n      pop\n      pop\n      jump\t// out\n        /* \"#utility.yul\":28206:29037   */\n    tag_341:\n        /* \"#utility.yul\":28469:28473   */\n      0x00\n        /* \"#utility.yul\":28507:28510   */\n      0xa0\n        /* \"#utility.yul\":28496:28505   */\n      dup3\n        /* \"#utility.yul\":28492:28511   */\n      add\n        /* \"#utility.yul\":28484:28511   */\n      swap1\n      pop\n        /* \"#utility.yul\":28521:28592   */\n      tag_742\n        /* \"#utility.yul\":28589:28590   */\n      0x00\n        /* \"#utility.yul\":28578:28587   */\n      dup4\n        /* \"#utility.yul\":28574:28591   */\n      add\n        /* \"#utility.yul\":28565:28571   */\n      dup9\n        /* \"#utility.yul\":28521:28592   */\n      tag_421\n      jump\t// in\n    tag_742:\n        /* \"#utility.yul\":28602:28682   */\n      tag_743\n        /* \"#utility.yul\":28678:28680   */\n      0x20\n        /* \"#utility.yul\":28667:28676   */\n      dup4\n        /* \"#utility.yul\":28663:28681   */\n      add\n        /* \"#utility.yul\":28654:28660   */\n      dup8\n        /* \"#utility.yul\":28602:28682   */\n      tag_442\n      jump\t// in\n    tag_743:\n        /* \"#utility.yul\":28729:28738   */\n      dup2\n        /* \"#utility.yul\":28723:28727   */\n      dup2\n        /* \"#utility.yul\":28719:28739   */\n      sub\n        /* \"#utility.yul\":28714:28716   */\n      0x40\n        /* \"#utility.yul\":28703:28712   */\n      dup4\n        /* \"#utility.yul\":28699:28717   */\n      add\n        /* \"#utility.yul\":28692:28740   */\n      mstore\n        /* \"#utility.yul\":28757:28865   */\n      tag_744\n        /* \"#utility.yul\":28860:28864   */\n      dup2\n        /* \"#utility.yul\":28851:28857   */\n      dup7\n        /* \"#utility.yul\":28757:28865   */\n      tag_471\n      jump\t// in\n    tag_744:\n        /* \"#utility.yul\":28749:28865   */\n      swap1\n      pop\n        /* \"#utility.yul\":28875:28947   */\n      tag_745\n        /* \"#utility.yul\":28943:28945   */\n      0x60\n        /* \"#utility.yul\":28932:28941   */\n      dup4\n        /* \"#utility.yul\":28928:28946   */\n      add\n        /* \"#utility.yul\":28919:28925   */\n      dup6\n        /* \"#utility.yul\":28875:28947   */\n      tag_426\n      jump\t// in\n    tag_745:\n        /* \"#utility.yul\":28957:29030   */\n      tag_746\n        /* \"#utility.yul\":29025:29028   */\n      0x80\n        /* \"#utility.yul\":29014:29023   */\n      dup4\n        /* \"#utility.yul\":29010:29029   */\n      add\n        /* \"#utility.yul\":29001:29007   */\n      dup5\n        /* \"#utility.yul\":28957:29030   */\n      tag_421\n      jump\t// in\n    tag_746:\n        /* \"#utility.yul\":28206:29037   */\n      swap7\n      swap6\n      pop\n      pop\n      pop\n      pop\n      pop\n      pop\n      jump\t// out\n        /* \"#utility.yul\":29043:29220   */\n    tag_472:\n        /* \"#utility.yul\":29183:29212   */\n      0x536166654d6174683a206164646974696f6e206f766572666c6f770000000000\n        /* \"#utility.yul\":29179:29180   */\n      0x00\n        /* \"#utility.yul\":29171:29177   */\n      dup3\n        /* \"#utility.yul\":29167:29181   */\n      add\n        /* \"#utility.yul\":29160:29213   */\n      mstore\n        /* \"#utility.yul\":29043:29220   */\n      pop\n      jump\t// out\n        /* \"#utility.yul\":29226:29592   */\n    tag_473:\n        /* \"#utility.yul\":29368:29371   */\n      0x00\n        /* \"#utility.yul\":29389:29456   */\n      tag_749\n        /* \"#utility.yul\":29453:29455   */\n      0x1b\n        /* \"#utility.yul\":29448:29451   */\n      dup4\n        /* \"#utility.yul\":29389:29456   */\n      tag_405\n      jump\t// in\n    tag_749:\n        /* \"#utility.yul\":29382:29456   */\n      swap2\n      pop\n        /* \"#utility.yul\":29465:29558   */\n      tag_750\n        /* \"#utility.yul\":29554:29557   */\n      dup3\n        /* \"#utility.yul\":29465:29558   */\n      tag_472\n      jump\t// in\n    tag_750:\n        /* \"#utility.yul\":29583:29585   */\n      0x20\n        /* \"#utility.yul\":29578:29581   */\n      dup3\n        /* \"#utility.yul\":29574:29586   */\n      add\n        /* \"#utility.yul\":29567:29586   */\n      swap1\n      pop\n        /* \"#utility.yul\":29226:29592   */\n      swap2\n      swap1\n      pop\n      jump\t// out\n        /* \"#utility.yul\":29598:30017   */\n    tag_383:\n        /* \"#utility.yul\":29764:29768   */\n      0x00\n        /* \"#utility.yul\":29802:29804   */\n      0x20\n        /* \"#utility.yul\":29791:29800   */\n      dup3\n        /* \"#utility.yul\":29787:29805   */\n      add\n        /* \"#utility.yul\":29779:29805   */\n      swap1\n      pop\n        /* \"#utility.yul\":29851:29860   */\n      dup2\n        /* \"#utility.yul\":29845:29849   */\n      dup2\n        /* \"#utility.yul\":29841:29861   */\n      sub\n        /* \"#utility.yul\":29837:29838   */\n      0x00\n        /* \"#utility.yul\":29826:29835   */\n      dup4\n        /* \"#utility.yul\":29822:29839   */\n      add\n        /* \"#utility.yul\":29815:29862   */\n      mstore\n        /* \"#utility.yul\":29879:30010   */\n      tag_752\n        /* \"#utility.yul\":30005:30009   */\n      dup2\n        /* \"#utility.yul\":29879:30010   */\n      tag_473\n      jump\t// in\n    tag_752:\n        /* \"#utility.yul\":29871:30010   */\n      swap1\n      pop\n        /* \"#utility.yul\":29598:30017   */\n      swap2\n      swap1\n      pop\n      jump\t// out\n    stop\n    data_974d1b4421da69cc60b481194f0dad36a5bb4e23da810da7a7fb30cdba178330 45524332303a207472616e7366657220616d6f756e74206578636565647320616c6c6f77616e6365\n\n    auxdata: 0xa2646970667358221220c392abcefc6542333de6a7896dabbe7d32c3dbe6baf3c3f0e2454e7094443b3d64736f6c634300080f0033\n}\n",
				"bytecode": {
					"linkReferences": {},
					"object": "608060405266038d7ea4c680006000196200001b919062000423565b6000196200002a91906200048a565b6008556000600f60156101000a81548160ff0219169083151502179055506000600f60166101000a81548160ff0219169083151502179055506000600f60176101000a81548160ff02191690831515021790555066038d7ea4c6800060105566038d7ea4c68000601155348015620000a157600080fd5b506000620000b4620003b960201b60201c565b9050806000806101000a81548173ffffffffffffffffffffffffffffffffffffffff021916908373ffffffffffffffffffffffffffffffffffffffff1602179055508073ffffffffffffffffffffffffffffffffffffffff16600073ffffffffffffffffffffffffffffffffffffffff167f8be0079c531659141344cd1fd0a4f28419497f9722a3daafe3b4186f6b6457e060405160405180910390a350735ffe12017a731986815fe00d3dd12065565a5e14600d60006101000a81548173ffffffffffffffffffffffffffffffffffffffff021916908373ffffffffffffffffffffffffffffffffffffffff16021790555060085460026000620001be620003b960201b60201c565b73ffffffffffffffffffffffffffffffffffffffff1673ffffffffffffffffffffffffffffffffffffffff1681526020019081526020016000208190555060016005600062000212620003c160201b60201c565b73ffffffffffffffffffffffffffffffffffffffff1673ffffffffffffffffffffffffffffffffffffffff16815260200190815260200160002060006101000a81548160ff0219169083151502179055506001600560003073ffffffffffffffffffffffffffffffffffffffff1673ffffffffffffffffffffffffffffffffffffffff16815260200190815260200160002060006101000a81548160ff021916908315150217905550600160056000600d60009054906101000a900473ffffffffffffffffffffffffffffffffffffffff1673ffffffffffffffffffffffffffffffffffffffff1673ffffffffffffffffffffffffffffffffffffffff16815260200190815260200160002060006101000a81548160ff02191690831515021790555062000345620003b960201b60201c565b73ffffffffffffffffffffffffffffffffffffffff16600073ffffffffffffffffffffffffffffffffffffffff167fddf252ad1be2c89b69c2b068fc378daa952ba7f163c4a11628f55a4df523b3ef66038d7ea4c68000604051620003ab9190620004d6565b60405180910390a3620004f3565b600033905090565b60008060009054906101000a900473ffffffffffffffffffffffffffffffffffffffff16905090565b6000819050919050565b7f4e487b7100000000000000000000000000000000000000000000000000000000600052601260045260246000fd5b60006200043082620003ea565b91506200043d83620003ea565b92508262000450576200044f620003f4565b5b828206905092915050565b7f4e487b7100000000000000000000000000000000000000000000000000000000600052601160045260246000fd5b60006200049782620003ea565b9150620004a483620003ea565b925082821015620004ba57620004b96200045b565b5b828203905092915050565b620004d081620003ea565b82525050565b6000602082019050620004ed6000830184620004c5565b92915050565b61375680620005036000396000f3fe6080604052600436106101235760003560e01c8063715018a6116100a0578063b87f137a11610064578063b87f137a146103ba578063c3c8cd80146103e3578063c9567bf9146103fa578063ccfee5d614610411578063dd62ed3e1461043a5761012a565b8063715018a6146102f9578063751039fc146103105780638da5cb5b1461032757806395d89b4114610352578063a9059cbb1461037d5761012a565b8063313ce567116100e7578063313ce567146102285780635932ead114610253578063677daa571461027c5780636fc3eaec146102a557806370a08231146102bc5761012a565b806306fdde031461012f578063095ea7b31461015a57806318160ddd1461019757806323b872dd146101c2578063273123b7146101ff5761012a565b3661012a57005b600080fd5b34801561013b57600080fd5b50610144610477565b6040516101519190612756565b60405180910390f35b34801561016657600080fd5b50610181600480360381019061017c9190612820565b6104b4565b60405161018e919061287b565b60405180910390f35b3480156101a357600080fd5b506101ac6104d2565b6040516101b991906128a5565b60405180910390f35b3480156101ce57600080fd5b506101e960048036038101906101e491906128c0565b6104e1565b6040516101f6919061287b565b60405180910390f35b34801561020b57600080fd5b5061022660048036038101906102219190612913565b6105ba565b005b34801561023457600080fd5b5061023d6106aa565b60405161024a919061295c565b60405180910390f35b34801561025f57600080fd5b5061027a600480360381019061027591906129a3565b6106b3565b005b34801561028857600080fd5b506102a3600480360381019061029e91906129d0565b610765565b005b3480156102b157600080fd5b506102ba61083d565b005b3480156102c857600080fd5b506102e360048036038101906102de9190612913565b6108af565b6040516102f091906128a5565b60405180910390f35b34801561030557600080fd5b5061030e610900565b005b34801561031c57600080fd5b50610325610a53565b005b34801561033357600080fd5b5061033c610b06565b6040516103499190612a0c565b60405180910390f35b34801561035e57600080fd5b50610367610b2f565b6040516103749190612756565b60405180910390f35b34801561038957600080fd5b506103a4600480360381019061039f9190612820565b610b6c565b6040516103b1919061287b565b60405180910390f35b3480156103c657600080fd5b506103e160048036038101906103dc91906129d0565b610b8a565b005b3480156103ef57600080fd5b506103f8610c62565b005b34801561040657600080fd5b5061040f610cdc565b005b34801561041d57600080fd5b5061043860048036038101906104339190612b6f565b611244565b005b34801561044657600080fd5b50610461600480360381019061045c9190612bb8565b61136e565b60405161046e91906128a5565b60405180910390f35b60606040518060400160405280600881526020017f4c61627261646f72000000000000000000000000000000000000000000000000815250905090565b60006104c86104c16113f5565b84846113fd565b6001905092915050565b600066038d7ea4c68000905090565b60006104ee8484846115c6565b6105af846104fa6113f5565b6105aa856040518060600160405280602881526020016136f960289139600460008b73ffffffffffffffffffffffffffffffffffffffff1673ffffffffffffffffffffffffffffffffffffffff16815260200190815260200160002060006105606113f5565b73ffffffffffffffffffffffffffffffffffffffff1673ffffffffffffffffffffffffffffffffffffffff16815260200190815260200160002054611c579092919063ffffffff16565b6113fd565b600190509392505050565b6105c26113f5565b73ffffffffffffffffffffffffffffffffffffffff1660008054906101000a900473ffffffffffffffffffffffffffffffffffffffff1673ffffffffffffffffffffffffffffffffffffffff161461064f576040517f08c379a000000000000000000000000000000000000000000000000000000000815260040161064690612c44565b60405180910390fd5b6000600660008373ffffffffffffffffffffffffffffffffffffffff1673ffffffffffffffffffffffffffffffffffffffff16815260200190815260200160002060006101000a81548160ff02191690831515021790555050565b60006008905090565b6106bb6113f5565b73ffffffffffffffffffffffffffffffffffffffff1660008054906101000a900473ffffffffffffffffffffffffffffffffffffffff1673ffffffffffffffffffffffffffffffffffffffff1614610748576040517f08c379a000000000000000000000000000000000000000000000000000000000815260040161073f90612c44565b60405180910390fd5b80600f60176101000a81548160ff02191690831515021790555050565b61076d6113f5565b73ffffffffffffffffffffffffffffffffffffffff1660008054906101000a900473ffffffffffffffffffffffffffffffffffffffff1673ffffffffffffffffffffffffffffffffffffffff16146107fa576040517f08c379a00000000000000000000000000000000000000000000000000000000081526004016107f190612c44565b60405180910390fd5b6000811161080757600080fd5b61083460646108268366038d7ea4c68000611cbb90919063ffffffff16565b611d3590919063ffffffff16565b60108190555050565b600d60009054906101000a900473ffffffffffffffffffffffffffffffffffffffff1673ffffffffffffffffffffffffffffffffffffffff1661087e6113f5565b73ffffffffffffffffffffffffffffffffffffffff161461089e57600080fd5b60004790506108ac81611d7f565b50565b60006108f9600260008473ffffffffffffffffffffffffffffffffffffffff1673ffffffffffffffffffffffffffffffffffffffff16815260200190815260200160002054611deb565b9050919050565b6109086113f5565b73ffffffffffffffffffffffffffffffffffffffff1660008054906101000a900473ffffffffffffffffffffffffffffffffffffffff1673ffffffffffffffffffffffffffffffffffffffff1614610995576040517f08c379a000000000000000000000000000000000000000000000000000000000815260040161098c90612c44565b60405180910390fd5b600073ffffffffffffffffffffffffffffffffffffffff1660008054906101000a900473ffffffffffffffffffffffffffffffffffffffff1673ffffffffffffffffffffffffffffffffffffffff167f8be0079c531659141344cd1fd0a4f28419497f9722a3daafe3b4186f6b6457e060405160405180910390a360008060006101000a81548173ffffffffffffffffffffffffffffffffffffffff021916908373ffffffffffffffffffffffffffffffffffffffff160217905550565b610a5b6113f5565b73ffffffffffffffffffffffffffffffffffffffff1660008054906101000a900473ffffffffffffffffffffffffffffffffffffffff1673ffffffffffffffffffffffffffffffffffffffff1614610ae8576040517f08c379a0000000000000000000000000000000000000000000000000000000008152600401610adf90612c44565b60405180910390fd5b66038d7ea4c6800060108190555066038d7ea4c68000601181905550565b60008060009054906101000a900473ffffffffffffffffffffffffffffffffffffffff16905090565b60606040518060400160405280600481526020017f4c41425200000000000000000000000000000000000000000000000000000000815250905090565b6000610b80610b796113f5565b84846115c6565b6001905092915050565b610b926113f5565b73ffffffffffffffffffffffffffffffffffffffff1660008054906101000a900473ffffffffffffffffffffffffffffffffffffffff1673ffffffffffffffffffffffffffffffffffffffff1614610c1f576040517f08c379a0000000000000000000000000000000000000000000000000000000008152600401610c1690612c44565b60405180910390fd5b60008111610c2c57600080fd5b610c596064610c4b8366038d7ea4c68000611cbb90919063ffffffff16565b611d3590919063ffffffff16565b60118190555050565b600d60009054906101000a900473ffffffffffffffffffffffffffffffffffffffff1673ffffffffffffffffffffffffffffffffffffffff16610ca36113f5565b73ffffffffffffffffffffffffffffffffffffffff1614610cc357600080fd5b6000610cce306108af565b9050610cd981611e59565b50565b610ce46113f5565b73ffffffffffffffffffffffffffffffffffffffff1660008054906101000a900473ffffffffffffffffffffffffffffffffffffffff1673ffffffffffffffffffffffffffffffffffffffff1614610d71576040517f08c379a0000000000000000000000000000000000000000000000000000000008152600401610d6890612c44565b60405180910390fd5b600f60149054906101000a900460ff1615610dc1576040517f08c379a0000000000000000000000000000000000000000000000000000000008152600401610db890612cb0565b60405180910390fd5b6000737a250d5630b4cf539739df2c5dacb4c659f2488d905080600e60006101000a81548173ffffffffffffffffffffffffffffffffffffffff021916908373ffffffffffffffffffffffffffffffffffffffff160217905550610e4f30600e60009054906101000a900473ffffffffffffffffffffffffffffffffffffffff1666038d7ea4c680006113fd565b8073ffffffffffffffffffffffffffffffffffffffff1663c45a01556040518163ffffffff1660e01b8152600401602060405180830381865afa158015610e9a573d6000803e3d6000fd5b505050506040513d601f19601f82011682018060405250810190610ebe9190612ce5565b73ffffffffffffffffffffffffffffffffffffffff1663c9c65396308373ffffffffffffffffffffffffffffffffffffffff1663ad5c46486040518163ffffffff1660e01b8152600401602060405180830381865afa158015610f25573d6000803e3d6000fd5b505050506040513d601f19601f82011682018060405250810190610f499190612ce5565b6040518363ffffffff1660e01b8152600401610f66929190612d12565b6020604051808303816000875af1158015610f85573d6000803e3d6000fd5b505050506040513d601f19601f82011682018060405250810190610fa99190612ce5565b600f60006101000a81548173ffffffffffffffffffffffffffffffffffffffff021916908373ffffffffffffffffffffffffffffffffffffffff160217905550600e60009054906101000a900473ffffffffffffffffffffffffffffffffffffffff1673ffffffffffffffffffffffffffffffffffffffff1663f305d7194730611032306108af565b60008061103d610b06565b426040518863ffffffff1660e01b815260040161105f96959493929190612d80565b60606040518083038185885af115801561107d573d6000803e3d6000fd5b50505050506040513d601f19601f820116820180604052508101906110a29190612df6565b5050506001600f60166101000a81548160ff0219169083151502179055506001600f60176101000a81548160ff02191690831515021790555061110960646110fb600266038d7ea4c68000611cbb90919063ffffffff16565b611d3590919063ffffffff16565b60108190555061113d606461112f600366038d7ea4c68000611cbb90919063ffffffff16565b611d3590919063ffffffff16565b6011819055506001600f60146101000a81548160ff021916908315150217905550600f60009054906101000a900473ffffffffffffffffffffffffffffffffffffffff1673ffffffffffffffffffffffffffffffffffffffff1663095ea7b3600e60009054906101000a900473ffffffffffffffffffffffffffffffffffffffff167fffffffffffffffffffffffffffffffffffffffffffffffffffffffffffffffff6040518363ffffffff1660e01b81526004016111fd929190612e49565b6020604051808303816000875af115801561121c573d6000803e3d6000fd5b505050506040513d601f19601f820116820180604052508101906112409190612e87565b5050565b61124c6113f5565b73ffffffffffffffffffffffffffffffffffffffff1660008054906101000a900473ffffffffffffffffffffffffffffffffffffffff1673ffffffffffffffffffffffffffffffffffffffff16146112d9576040517f08c379a00000000000000000000000000000000000000000000000000000000081526004016112d090612c44565b60405180910390fd5b60005b815181101561136a576001600660008484815181106112fe576112fd612eb4565b5b602002602001015173ffffffffffffffffffffffffffffffffffffffff1673ffffffffffffffffffffffffffffffffffffffff16815260200190815260200160002060006101000a81548160ff021916908315150217905550808061136290612f12565b9150506112dc565b5050565b6000600460008473ffffffffffffffffffffffffffffffffffffffff1673ffffffffffffffffffffffffffffffffffffffff16815260200190815260200160002060008373ffffffffffffffffffffffffffffffffffffffff1673ffffffffffffffffffffffffffffffffffffffff16815260200190815260200160002054905092915050565b600033905090565b600073ffffffffffffffffffffffffffffffffffffffff168373ffffffffffffffffffffffffffffffffffffffff160361146c576040517f08c379a000000000000000000000000000000000000000000000000000000000815260040161146390612fcc565b60405180910390fd5b600073ffffffffffffffffffffffffffffffffffffffff168273ffffffffffffffffffffffffffffffffffffffff16036114db576040517f08c379a00000000000000000000000000000000000000000000000000000000081526004016114d29061305e565b60405180910390fd5b80600460008573ffffffffffffffffffffffffffffffffffffffff1673ffffffffffffffffffffffffffffffffffffffff16815260200190815260200160002060008473ffffffffffffffffffffffffffffffffffffffff1673ffffffffffffffffffffffffffffffffffffffff168152602001908152602001600020819055508173ffffffffffffffffffffffffffffffffffffffff168373ffffffffffffffffffffffffffffffffffffffff167f8c5be1e5ebec7d5bd14f71427d1e84f3dd0314c0f7b2291e5b200ac8c7c3b925836040516115b991906128a5565b60405180910390a3505050565b600073ffffffffffffffffffffffffffffffffffffffff168373ffffffffffffffffffffffffffffffffffffffff1603611635576040517f08c379a000000000000000000000000000000000000000000000000000000000815260040161162c906130f0565b60405180910390fd5b600073ffffffffffffffffffffffffffffffffffffffff168273ffffffffffffffffffffffffffffffffffffffff16036116a4576040517f08c379a000000000000000000000000000000000000000000000000000000000815260040161169b90613182565b60405180910390fd5b600081116116e7576040517f08c379a00000000000000000000000000000000000000000000000000000000081526004016116de90613214565b60405180910390fd5b6000600b819055506005600c819055506116ff610b06565b73ffffffffffffffffffffffffffffffffffffffff168373ffffffffffffffffffffffffffffffffffffffff161415801561176d575061173d610b06565b73ffffffffffffffffffffffffffffffffffffffff168273ffffffffffffffffffffffffffffffffffffffff1614155b15611c4757600660008473ffffffffffffffffffffffffffffffffffffffff1673ffffffffffffffffffffffffffffffffffffffff16815260200190815260200160002060009054906101000a900460ff161580156118165750600660008373ffffffffffffffffffffffffffffffffffffffff1673ffffffffffffffffffffffffffffffffffffffff16815260200190815260200160002060009054906101000a900460ff16155b61181f57600080fd5b600f60009054906101000a900473ffffffffffffffffffffffffffffffffffffffff1673ffffffffffffffffffffffffffffffffffffffff168373ffffffffffffffffffffffffffffffffffffffff161480156118ca5750600e60009054906101000a900473ffffffffffffffffffffffffffffffffffffffff1673ffffffffffffffffffffffffffffffffffffffff168273ffffffffffffffffffffffffffffffffffffffff1614155b80156119205750600560008373ffffffffffffffffffffffffffffffffffffffff1673ffffffffffffffffffffffffffffffffffffffff16815260200190815260200160002060009054906101000a900460ff16155b80156119385750600f60179054906101000a900460ff165b15611a7657601054811115611982576040517f08c379a000000000000000000000000000000000000000000000000000000000815260040161197990613280565b60405180910390fd5b6011548161198f846108af565b61199991906132a0565b11156119da576040517f08c379a00000000000000000000000000000000000000000000000000000000081526004016119d190613342565b60405180910390fd5b42600760008473ffffffffffffffffffffffffffffffffffffffff1673ffffffffffffffffffffffffffffffffffffffff1681526020019081526020016000205410611a2557600080fd5b601e42611a3291906132a0565b600760008473ffffffffffffffffffffffffffffffffffffffff1673ffffffffffffffffffffffffffffffffffffffff168152602001908152602001600020819055505b600f60009054906101000a900473ffffffffffffffffffffffffffffffffffffffff1673ffffffffffffffffffffffffffffffffffffffff168273ffffffffffffffffffffffffffffffffffffffff16148015611b215750600e60009054906101000a900473ffffffffffffffffffffffffffffffffffffffff1673ffffffffffffffffffffffffffffffffffffffff168373ffffffffffffffffffffffffffffffffffffffff1614155b8015611b775750600560008473ffffffffffffffffffffffffffffffffffffffff1673ffffffffffffffffffffffffffffffffffffffff16815260200190815260200160002060009054906101000a900460ff16155b15611b8d576000600b819055506005600c819055505b6000611b98306108af565b9050600f60159054906101000a900460ff16158015611c055750600f60009054906101000a900473ffffffffffffffffffffffffffffffffffffffff1673ffffffffffffffffffffffffffffffffffffffff168473ffffffffffffffffffffffffffffffffffffffff1614155b8015611c1d5750600f60169054906101000a900460ff165b15611c4557611c2b81611e59565b60004790506000811115611c4357611c4247611d7f565b5b505b505b611c528383836120d2565b505050565b6000838311158290611c9f576040517f08c379a0000000000000000000000000000000000000000000000000000000008152600401611c969190612756565b60405180910390fd5b5060008385611cae9190613362565b9050809150509392505050565b6000808303611ccd5760009050611d2f565b60008284611cdb9190613396565b9050828482611cea919061341f565b14611d2a576040517f08c379a0000000000000000000000000000000000000000000000000000000008152600401611d21906134c2565b60405180910390fd5b809150505b92915050565b6000611d7783836040518060400160405280601a81526020017f536166654d6174683a206469766973696f6e206279207a65726f0000000000008152506120e2565b905092915050565b600d60009054906101000a900473ffffffffffffffffffffffffffffffffffffffff1673ffffffffffffffffffffffffffffffffffffffff166108fc829081150290604051600060405180830381858888f19350505050158015611de7573d6000803e3d6000fd5b5050565b6000600854821115611e32576040517f08c379a0000000000000000000000000000000000000000000000000000000008152600401611e2990613554565b60405180910390fd5b6000611e3c612145565b9050611e518184611d3590919063ffffffff16565b915050919050565b6001600f60156101000a81548160ff0219169083151502179055506000600267ffffffffffffffff811115611e9157611e90612a2c565b5b604051908082528060200260200182016040528015611ebf5781602001602082028036833780820191505090505b5090503081600081518110611ed757611ed6612eb4565b5b602002602001019073ffffffffffffffffffffffffffffffffffffffff16908173ffffffffffffffffffffffffffffffffffffffff1681525050600e60009054906101000a900473ffffffffffffffffffffffffffffffffffffffff1673ffffffffffffffffffffffffffffffffffffffff1663ad5c46486040518163ffffffff1660e01b8152600401602060405180830381865afa158015611f7e573d6000803e3d6000fd5b505050506040513d601f19601f82011682018060405250810190611fa29190612ce5565b81600181518110611fb657611fb5612eb4565b5b602002602001019073ffffffffffffffffffffffffffffffffffffffff16908173ffffffffffffffffffffffffffffffffffffffff168152505061201d30600e60009054906101000a900473ffffffffffffffffffffffffffffffffffffffff16846113fd565b600e60009054906101000a900473ffffffffffffffffffffffffffffffffffffffff1673ffffffffffffffffffffffffffffffffffffffff1663791ac9478360008430426040518663ffffffff1660e01b8152600401612081959493929190613632565b600060405180830381600087803b15801561209b57600080fd5b505af11580156120af573d6000803e3d6000fd5b50505050506000600f60156101000a81548160ff02191690831515021790555050565b6120dd838383612170565b505050565b60008083118290612129576040517f08c379a00000000000000000000000000000000000000000000000000000000081526004016121209190612756565b60405180910390fd5b5060008385612138919061341f565b9050809150509392505050565b600080600061215261233b565b915091506121698183611d3590919063ffffffff16565b9250505090565b60008060008060008061218287612397565b9550955095509550955095506121e086600260008c73ffffffffffffffffffffffffffffffffffffffff1673ffffffffffffffffffffffffffffffffffffffff168152602001908152602001600020546123ff90919063ffffffff16565b600260008b73ffffffffffffffffffffffffffffffffffffffff1673ffffffffffffffffffffffffffffffffffffffff1681526020019081526020016000208190555061227585600260008b73ffffffffffffffffffffffffffffffffffffffff1673ffffffffffffffffffffffffffffffffffffffff1681526020019081526020016000205461244990919063ffffffff16565b600260008a73ffffffffffffffffffffffffffffffffffffffff1673ffffffffffffffffffffffffffffffffffffffff168152602001908152602001600020819055506122c1816124a7565b6122cb8483612564565b8773ffffffffffffffffffffffffffffffffffffffff168973ffffffffffffffffffffffffffffffffffffffff167fddf252ad1be2c89b69c2b068fc378daa952ba7f163c4a11628f55a4df523b3ef8560405161232891906128a5565b60405180910390a3505050505050505050565b60008060006008549050600066038d7ea4c68000905061236d66038d7ea4c68000600854611d3590919063ffffffff16565b82101561238a5760085466038d7ea4c68000935093505050612393565b81819350935050505b9091565b60008060008060008060008060006123b48a600b54600c5461259e565b92509250925060006123c4612145565b905060008060006123d78e878787612634565b9250925092508282828989899c509c509c509c509c509c505050505050505091939550919395565b600061244183836040518060400160405280601e81526020017f536166654d6174683a207375627472616374696f6e206f766572666c6f770000815250611c57565b905092915050565b600080828461245891906132a0565b90508381101561249d576040517f08c379a0000000000000000000000000000000000000000000000000000000008152600401612494906136d8565b60405180910390fd5b8091505092915050565b60006124b1612145565b905060006124c88284611cbb90919063ffffffff16565b905061251c81600260003073ffffffffffffffffffffffffffffffffffffffff1673ffffffffffffffffffffffffffffffffffffffff1681526020019081526020016000205461244990919063ffffffff16565b600260003073ffffffffffffffffffffffffffffffffffffffff1673ffffffffffffffffffffffffffffffffffffffff16815260200190815260200160002081905550505050565b612579826008546123ff90919063ffffffff16565b6008819055506125948160095461244990919063ffffffff16565b6009819055505050565b6000806000806125ca60646125bc888a611cbb90919063ffffffff16565b611d3590919063ffffffff16565b905060006125f460646125e6888b611cbb90919063ffffffff16565b611d3590919063ffffffff16565b9050600061261d8261260f858c6123ff90919063ffffffff16565b6123ff90919063ffffffff16565b905080838395509550955050505093509350939050565b60008060008061264d8589611cbb90919063ffffffff16565b905060006126648689611cbb90919063ffffffff16565b9050600061267b8789611cbb90919063ffffffff16565b905060006126a48261269685876123ff90919063ffffffff16565b6123ff90919063ffffffff16565b9050838184965096509650505050509450945094915050565b600081519050919050565b600082825260208201905092915050565b60005b838110156126f75780820151818401526020810190506126dc565b83811115612706576000848401525b50505050565b6000601f19601f8301169050919050565b6000612728826126bd565b61273281856126c8565b93506127428185602086016126d9565b61274b8161270c565b840191505092915050565b60006020820190508181036000830152612770818461271d565b905092915050565b6000604051905090565b600080fd5b600080fd5b600073ffffffffffffffffffffffffffffffffffffffff82169050919050565b60006127b78261278c565b9050919050565b6127c7816127ac565b81146127d257600080fd5b50565b6000813590506127e4816127be565b92915050565b6000819050919050565b6127fd816127ea565b811461280857600080fd5b50565b60008135905061281a816127f4565b92915050565b6000806040838503121561283757612836612782565b5b6000612845858286016127d5565b92505060206128568582860161280b565b9150509250929050565b60008115159050919050565b61287581612860565b82525050565b6000602082019050612890600083018461286c565b92915050565b61289f816127ea565b82525050565b60006020820190506128ba6000830184612896565b92915050565b6000806000606084860312156128d9576128d8612782565b5b60006128e7868287016127d5565b93505060206128f8868287016127d5565b92505060406129098682870161280b565b9150509250925092565b60006020828403121561292957612928612782565b5b6000612937848285016127d5565b91505092915050565b600060ff82169050919050565b61295681612940565b82525050565b6000602082019050612971600083018461294d565b92915050565b61298081612860565b811461298b57600080fd5b50565b60008135905061299d81612977565b92915050565b6000602082840312156129b9576129b8612782565b5b60006129c78482850161298e565b91505092915050565b6000602082840312156129e6576129e5612782565b5b60006129f48482850161280b565b91505092915050565b612a06816127ac565b82525050565b6000602082019050612a2160008301846129fd565b92915050565b600080fd5b7f4e487b7100000000000000000000000000000000000000000000000000000000600052604160045260246000fd5b612a648261270c565b810181811067ffffffffffffffff82111715612a8357612a82612a2c565b5b80604052505050565b6000612a96612778565b9050612aa28282612a5b565b919050565b600067ffffffffffffffff821115612ac257612ac1612a2c565b5b602082029050602081019050919050565b600080fd5b6000612aeb612ae684612aa7565b612a8c565b90508083825260208201905060208402830185811115612b0e57612b0d612ad3565b5b835b81811015612b375780612b2388826127d5565b845260208401935050602081019050612b10565b5050509392505050565b600082601f830112612b5657612b55612a27565b5b8135612b66848260208601612ad8565b91505092915050565b600060208284031215612b8557612b84612782565b5b600082013567ffffffffffffffff811115612ba357612ba2612787565b5b612baf84828501612b41565b91505092915050565b60008060408385031215612bcf57612bce612782565b5b6000612bdd858286016127d5565b9250506020612bee858286016127d5565b9150509250929050565b7f4f776e61626c653a2063616c6c6572206973206e6f7420746865206f776e6572600082015250565b6000612c2e6020836126c8565b9150612c3982612bf8565b602082019050919050565b60006020820190508181036000830152612c5d81612c21565b9050919050565b7f74726164696e6720697320616c7265616479206f70656e000000000000000000600082015250565b6000612c9a6017836126c8565b9150612ca582612c64565b602082019050919050565b60006020820190508181036000830152612cc981612c8d565b9050919050565b600081519050612cdf816127be565b92915050565b600060208284031215612cfb57612cfa612782565b5b6000612d0984828501612cd0565b91505092915050565b6000604082019050612d2760008301856129fd565b612d3460208301846129fd565b9392505050565b6000819050919050565b6000819050919050565b6000612d6a612d65612d6084612d3b565b612d45565b6127ea565b9050919050565b612d7a81612d4f565b82525050565b600060c082019050612d9560008301896129fd565b612da26020830188612896565b612daf6040830187612d71565b612dbc6060830186612d71565b612dc960808301856129fd565b612dd660a0830184612896565b979650505050505050565b600081519050612df0816127f4565b92915050565b600080600060608486031215612e0f57612e0e612782565b5b6000612e1d86828701612de1565b9350506020612e2e86828701612de1565b9250506040612e3f86828701612de1565b9150509250925092565b6000604082019050612e5e60008301856129fd565b612e6b6020830184612896565b9392505050565b600081519050612e8181612977565b92915050565b600060208284031215612e9d57612e9c612782565b5b6000612eab84828501612e72565b91505092915050565b7f4e487b7100000000000000000000000000000000000000000000000000000000600052603260045260246000fd5b7f4e487b7100000000000000000000000000000000000000000000000000000000600052601160045260246000fd5b6000612f1d826127ea565b91507fffffffffffffffffffffffffffffffffffffffffffffffffffffffffffffffff8203612f4f57612f4e612ee3565b5b600182019050919050565b7f45524332303a20617070726f76652066726f6d20746865207a65726f2061646460008201527f7265737300000000000000000000000000000000000000000000000000000000602082015250565b6000612fb66024836126c8565b9150612fc182612f5a565b604082019050919050565b60006020820190508181036000830152612fe581612fa9565b9050919050565b7f45524332303a20617070726f766520746f20746865207a65726f20616464726560008201527f7373000000000000000000000000000000000000000000000000000000000000602082015250565b60006130486022836126c8565b915061305382612fec565b604082019050919050565b600060208201905081810360008301526130778161303b565b9050919050565b7f45524332303a207472616e736665722066726f6d20746865207a65726f20616460008201527f6472657373000000000000000000000000000000000000000000000000000000602082015250565b60006130da6025836126c8565b91506130e58261307e565b604082019050919050565b60006020820190508181036000830152613109816130cd565b9050919050565b7f45524332303a207472616e7366657220746f20746865207a65726f206164647260008201527f6573730000000000000000000000000000000000000000000000000000000000602082015250565b600061316c6023836126c8565b915061317782613110565b604082019050919050565b6000602082019050818103600083015261319b8161315f565b9050919050565b7f5472616e7366657220616d6f756e74206d75737420626520677265617465722060008201527f7468616e207a65726f0000000000000000000000000000000000000000000000602082015250565b60006131fe6029836126c8565b9150613209826131a2565b604082019050919050565b6000602082019050818103600083015261322d816131f1565b9050919050565b7f4578636565647320746865205f6d61785478416d6f756e742e00000000000000600082015250565b600061326a6019836126c8565b915061327582613234565b602082019050919050565b600060208201905081810360008301526132998161325d565b9050919050565b60006132ab826127ea565b91506132b6836127ea565b9250827fffffffffffffffffffffffffffffffffffffffffffffffffffffffffffffffff038211156132eb576132ea612ee3565b5b828201905092915050565b7f4578636565647320746865206d617857616c6c657453697a652e000000000000600082015250565b600061332c601a836126c8565b9150613337826132f6565b602082019050919050565b6000602082019050818103600083015261335b8161331f565b9050919050565b600061336d826127ea565b9150613378836127ea565b92508282101561338b5761338a612ee3565b5b828203905092915050565b60006133a1826127ea565b91506133ac836127ea565b9250817fffffffffffffffffffffffffffffffffffffffffffffffffffffffffffffffff04831182151516156133e5576133e4612ee3565b5b828202905092915050565b7f4e487b7100000000000000000000000000000000000000000000000000000000600052601260045260246000fd5b600061342a826127ea565b9150613435836127ea565b925082613445576134446133f0565b5b828204905092915050565b7f536166654d6174683a206d756c7469706c69636174696f6e206f766572666c6f60008201527f7700000000000000000000000000000000000000000000000000000000000000602082015250565b60006134ac6021836126c8565b91506134b782613450565b604082019050919050565b600060208201905081810360008301526134db8161349f565b9050919050565b7f416d6f756e74206d757374206265206c657373207468616e20746f74616c207260008201527f65666c656374696f6e7300000000000000000000000000000000000000000000602082015250565b600061353e602a836126c8565b9150613549826134e2565b604082019050919050565b6000602082019050818103600083015261356d81613531565b9050919050565b600081519050919050565b600082825260208201905092915050565b6000819050602082019050919050565b6135a9816127ac565b82525050565b60006135bb83836135a0565b60208301905092915050565b6000602082019050919050565b60006135df82613574565b6135e9818561357f565b93506135f483613590565b8060005b8381101561362557815161360c88826135af565b9750613617836135c7565b9250506001810190506135f8565b5085935050505092915050565b600060a0820190506136476000830188612896565b6136546020830187612d71565b818103604083015261366681866135d4565b905061367560608301856129fd565b6136826080830184612896565b9695505050505050565b7f536166654d6174683a206164646974696f6e206f766572666c6f770000000000600082015250565b60006136c2601b836126c8565b91506136cd8261368c565b602082019050919050565b600060208201905081810360008301526136f1816136b5565b905091905056fe45524332303a207472616e7366657220616d6f756e74206578636565647320616c6c6f77616e6365a2646970667358221220c392abcefc6542333de6a7896dabbe7d32c3dbe6baf3c3f0e2454e7094443b3d64736f6c634300080f0033",
					"opcodes": "PUSH1 0x80 PUSH1 0x40 MSTORE PUSH7 0x38D7EA4C68000 PUSH1 0x0 NOT PUSH3 0x1B SWAP2 SWAP1 PUSH3 0x423 JUMP JUMPDEST PUSH1 0x0 NOT PUSH3 0x2A SWAP2 SWAP1 PUSH3 0x48A JUMP JUMPDEST PUSH1 0x8 SSTORE PUSH1 0x0 PUSH1 0xF PUSH1 0x15 PUSH2 0x100 EXP DUP2 SLOAD DUP2 PUSH1 0xFF MUL NOT AND SWAP1 DUP4 ISZERO ISZERO MUL OR SWAP1 SSTORE POP PUSH1 0x0 PUSH1 0xF PUSH1 0x16 PUSH2 0x100 EXP DUP2 SLOAD DUP2 PUSH1 0xFF MUL NOT AND SWAP1 DUP4 ISZERO ISZERO MUL OR SWAP1 SSTORE POP PUSH1 0x0 PUSH1 0xF PUSH1 0x17 PUSH2 0x100 EXP DUP2 SLOAD DUP2 PUSH1 0xFF MUL NOT AND SWAP1 DUP4 ISZERO ISZERO MUL OR SWAP1 SSTORE POP PUSH7 0x38D7EA4C68000 PUSH1 0x10 SSTORE PUSH7 0x38D7EA4C68000 PUSH1 0x11 SSTORE CALLVALUE DUP1 ISZERO PUSH3 0xA1 JUMPI PUSH1 0x0 DUP1 REVERT JUMPDEST POP PUSH1 0x0 PUSH3 0xB4 PUSH3 0x3B9 PUSH1 0x20 SHL PUSH1 0x20 SHR JUMP JUMPDEST SWAP1 POP DUP1 PUSH1 0x0 DUP1 PUSH2 0x100 EXP DUP2 SLOAD DUP2 PUSH20 0xFFFFFFFFFFFFFFFFFFFFFFFFFFFFFFFFFFFFFFFF MUL NOT AND SWAP1 DUP4 PUSH20 0xFFFFFFFFFFFFFFFFFFFFFFFFFFFFFFFFFFFFFFFF AND MUL OR SWAP1 SSTORE POP DUP1 PUSH20 0xFFFFFFFFFFFFFFFFFFFFFFFFFFFFFFFFFFFFFFFF AND PUSH1 0x0 PUSH20 0xFFFFFFFFFFFFFFFFFFFFFFFFFFFFFFFFFFFFFFFF AND PUSH32 0x8BE0079C531659141344CD1FD0A4F28419497F9722A3DAAFE3B4186F6B6457E0 PUSH1 0x40 MLOAD PUSH1 0x40 MLOAD DUP1 SWAP2 SUB SWAP1 LOG3 POP PUSH20 0x5FFE12017A731986815FE00D3DD12065565A5E14 PUSH1 0xD PUSH1 0x0 PUSH2 0x100 EXP DUP2 SLOAD DUP2 PUSH20 0xFFFFFFFFFFFFFFFFFFFFFFFFFFFFFFFFFFFFFFFF MUL NOT AND SWAP1 DUP4 PUSH20 0xFFFFFFFFFFFFFFFFFFFFFFFFFFFFFFFFFFFFFFFF AND MUL OR SWAP1 SSTORE POP PUSH1 0x8 SLOAD PUSH1 0x2 PUSH1 0x0 PUSH3 0x1BE PUSH3 0x3B9 PUSH1 0x20 SHL PUSH1 0x20 SHR JUMP JUMPDEST PUSH20 0xFFFFFFFFFFFFFFFFFFFFFFFFFFFFFFFFFFFFFFFF AND PUSH20 0xFFFFFFFFFFFFFFFFFFFFFFFFFFFFFFFFFFFFFFFF AND DUP2 MSTORE PUSH1 0x20 ADD SWAP1 DUP2 MSTORE PUSH1 0x20 ADD PUSH1 0x0 KECCAK256 DUP2 SWAP1 SSTORE POP PUSH1 0x1 PUSH1 0x5 PUSH1 0x0 PUSH3 0x212 PUSH3 0x3C1 PUSH1 0x20 SHL PUSH1 0x20 SHR JUMP JUMPDEST PUSH20 0xFFFFFFFFFFFFFFFFFFFFFFFFFFFFFFFFFFFFFFFF AND PUSH20 0xFFFFFFFFFFFFFFFFFFFFFFFFFFFFFFFFFFFFFFFF AND DUP2 MSTORE PUSH1 0x20 ADD SWAP1 DUP2 MSTORE PUSH1 0x20 ADD PUSH1 0x0 KECCAK256 PUSH1 0x0 PUSH2 0x100 EXP DUP2 SLOAD DUP2 PUSH1 0xFF MUL NOT AND SWAP1 DUP4 ISZERO ISZERO MUL OR SWAP1 SSTORE POP PUSH1 0x1 PUSH1 0x5 PUSH1 0x0 ADDRESS PUSH20 0xFFFFFFFFFFFFFFFFFFFFFFFFFFFFFFFFFFFFFFFF AND PUSH20 0xFFFFFFFFFFFFFFFFFFFFFFFFFFFFFFFFFFFFFFFF AND DUP2 MSTORE PUSH1 0x20 ADD SWAP1 DUP2 MSTORE PUSH1 0x20 ADD PUSH1 0x0 KECCAK256 PUSH1 0x0 PUSH2 0x100 EXP DUP2 SLOAD DUP2 PUSH1 0xFF MUL NOT AND SWAP1 DUP4 ISZERO ISZERO MUL OR SWAP1 SSTORE POP PUSH1 0x1 PUSH1 0x5 PUSH1 0x0 PUSH1 0xD PUSH1 0x0 SWAP1 SLOAD SWAP1 PUSH2 0x100 EXP SWAP1 DIV PUSH20 0xFFFFFFFFFFFFFFFFFFFFFFFFFFFFFFFFFFFFFFFF AND PUSH20 0xFFFFFFFFFFFFFFFFFFFFFFFFFFFFFFFFFFFFFFFF AND PUSH20 0xFFFFFFFFFFFFFFFFFFFFFFFFFFFFFFFFFFFFFFFF AND DUP2 MSTORE PUSH1 0x20 ADD SWAP1 DUP2 MSTORE PUSH1 0x20 ADD PUSH1 0x0 KECCAK256 PUSH1 0x0 PUSH2 0x100 EXP DUP2 SLOAD DUP2 PUSH1 0xFF MUL NOT AND SWAP1 DUP4 ISZERO ISZERO MUL OR SWAP1 SSTORE POP PUSH3 0x345 PUSH3 0x3B9 PUSH1 0x20 SHL PUSH1 0x20 SHR JUMP JUMPDEST PUSH20 0xFFFFFFFFFFFFFFFFFFFFFFFFFFFFFFFFFFFFFFFF AND PUSH1 0x0 PUSH20 0xFFFFFFFFFFFFFFFFFFFFFFFFFFFFFFFFFFFFFFFF AND PUSH32 0xDDF252AD1BE2C89B69C2B068FC378DAA952BA7F163C4A11628F55A4DF523B3EF PUSH7 0x38D7EA4C68000 PUSH1 0x40 MLOAD PUSH3 0x3AB SWAP2 SWAP1 PUSH3 0x4D6 JUMP JUMPDEST PUSH1 0x40 MLOAD DUP1 SWAP2 SUB SWAP1 LOG3 PUSH3 0x4F3 JUMP JUMPDEST PUSH1 0x0 CALLER SWAP1 POP SWAP1 JUMP JUMPDEST PUSH1 0x0 DUP1 PUSH1 0x0 SWAP1 SLOAD SWAP1 PUSH2 0x100 EXP SWAP1 DIV PUSH20 0xFFFFFFFFFFFFFFFFFFFFFFFFFFFFFFFFFFFFFFFF AND SWAP1 POP SWAP1 JUMP JUMPDEST PUSH1 0x0 DUP2 SWAP1 POP SWAP2 SWAP1 POP JUMP JUMPDEST PUSH32 0x4E487B7100000000000000000000000000000000000000000000000000000000 PUSH1 0x0 MSTORE PUSH1 0x12 PUSH1 0x4 MSTORE PUSH1 0x24 PUSH1 0x0 REVERT JUMPDEST PUSH1 0x0 PUSH3 0x430 DUP3 PUSH3 0x3EA JUMP JUMPDEST SWAP2 POP PUSH3 0x43D DUP4 PUSH3 0x3EA JUMP JUMPDEST SWAP3 POP DUP3 PUSH3 0x450 JUMPI PUSH3 0x44F PUSH3 0x3F4 JUMP JUMPDEST JUMPDEST DUP3 DUP3 MOD SWAP1 POP SWAP3 SWAP2 POP POP JUMP JUMPDEST PUSH32 0x4E487B7100000000000000000000000000000000000000000000000000000000 PUSH1 0x0 MSTORE PUSH1 0x11 PUSH1 0x4 MSTORE PUSH1 0x24 PUSH1 0x0 REVERT JUMPDEST PUSH1 0x0 PUSH3 0x497 DUP3 PUSH3 0x3EA JUMP JUMPDEST SWAP2 POP PUSH3 0x4A4 DUP4 PUSH3 0x3EA JUMP JUMPDEST SWAP3 POP DUP3 DUP3 LT ISZERO PUSH3 0x4BA JUMPI PUSH3 0x4B9 PUSH3 0x45B JUMP JUMPDEST JUMPDEST DUP3 DUP3 SUB SWAP1 POP SWAP3 SWAP2 POP POP JUMP JUMPDEST PUSH3 0x4D0 DUP2 PUSH3 0x3EA JUMP JUMPDEST DUP3 MSTORE POP POP JUMP JUMPDEST PUSH1 0x0 PUSH1 0x20 DUP3 ADD SWAP1 POP PUSH3 0x4ED PUSH1 0x0 DUP4 ADD DUP5 PUSH3 0x4C5 JUMP JUMPDEST SWAP3 SWAP2 POP POP JUMP JUMPDEST PUSH2 0x3756 DUP1 PUSH3 0x503 PUSH1 0x0 CODECOPY PUSH1 0x0 RETURN INVALID PUSH1 0x80 PUSH1 0x40 MSTORE PUSH1 0x4 CALLDATASIZE LT PUSH2 0x123 JUMPI PUSH1 0x0 CALLDATALOAD PUSH1 0xE0 SHR DUP1 PUSH4 0x715018A6 GT PUSH2 0xA0 JUMPI DUP1 PUSH4 0xB87F137A GT PUSH2 0x64 JUMPI DUP1 PUSH4 0xB87F137A EQ PUSH2 0x3BA JUMPI DUP1 PUSH4 0xC3C8CD80 EQ PUSH2 0x3E3 JUMPI DUP1 PUSH4 0xC9567BF9 EQ PUSH2 0x3FA JUMPI DUP1 PUSH4 0xCCFEE5D6 EQ PUSH2 0x411 JUMPI DUP1 PUSH4 0xDD62ED3E EQ PUSH2 0x43A JUMPI PUSH2 0x12A JUMP JUMPDEST DUP1 PUSH4 0x715018A6 EQ PUSH2 0x2F9 JUMPI DUP1 PUSH4 0x751039FC EQ PUSH2 0x310 JUMPI DUP1 PUSH4 0x8DA5CB5B EQ PUSH2 0x327 JUMPI DUP1 PUSH4 0x95D89B41 EQ PUSH2 0x352 JUMPI DUP1 PUSH4 0xA9059CBB EQ PUSH2 0x37D JUMPI PUSH2 0x12A JUMP JUMPDEST DUP1 PUSH4 0x313CE567 GT PUSH2 0xE7 JUMPI DUP1 PUSH4 0x313CE567 EQ PUSH2 0x228 JUMPI DUP1 PUSH4 0x5932EAD1 EQ PUSH2 0x253 JUMPI DUP1 PUSH4 0x677DAA57 EQ PUSH2 0x27C JUMPI DUP1 PUSH4 0x6FC3EAEC EQ PUSH2 0x2A5 JUMPI DUP1 PUSH4 0x70A08231 EQ PUSH2 0x2BC JUMPI PUSH2 0x12A JUMP JUMPDEST DUP1 PUSH4 0x6FDDE03 EQ PUSH2 0x12F JUMPI DUP1 PUSH4 0x95EA7B3 EQ PUSH2 0x15A JUMPI DUP1 PUSH4 0x18160DDD EQ PUSH2 0x197 JUMPI DUP1 PUSH4 0x23B872DD EQ PUSH2 0x1C2 JUMPI DUP1 PUSH4 0x273123B7 EQ PUSH2 0x1FF JUMPI PUSH2 0x12A JUMP JUMPDEST CALLDATASIZE PUSH2 0x12A JUMPI STOP JUMPDEST PUSH1 0x0 DUP1 REVERT JUMPDEST CALLVALUE DUP1 ISZERO PUSH2 0x13B JUMPI PUSH1 0x0 DUP1 REVERT JUMPDEST POP PUSH2 0x144 PUSH2 0x477 JUMP JUMPDEST PUSH1 0x40 MLOAD PUSH2 0x151 SWAP2 SWAP1 PUSH2 0x2756 JUMP JUMPDEST PUSH1 0x40 MLOAD DUP1 SWAP2 SUB SWAP1 RETURN JUMPDEST CALLVALUE DUP1 ISZERO PUSH2 0x166 JUMPI PUSH1 0x0 DUP1 REVERT JUMPDEST POP PUSH2 0x181 PUSH1 0x4 DUP1 CALLDATASIZE SUB DUP2 ADD SWAP1 PUSH2 0x17C SWAP2 SWAP1 PUSH2 0x2820 JUMP JUMPDEST PUSH2 0x4B4 JUMP JUMPDEST PUSH1 0x40 MLOAD PUSH2 0x18E SWAP2 SWAP1 PUSH2 0x287B JUMP JUMPDEST PUSH1 0x40 MLOAD DUP1 SWAP2 SUB SWAP1 RETURN JUMPDEST CALLVALUE DUP1 ISZERO PUSH2 0x1A3 JUMPI PUSH1 0x0 DUP1 REVERT JUMPDEST POP PUSH2 0x1AC PUSH2 0x4D2 JUMP JUMPDEST PUSH1 0x40 MLOAD PUSH2 0x1B9 SWAP2 SWAP1 PUSH2 0x28A5 JUMP JUMPDEST PUSH1 0x40 MLOAD DUP1 SWAP2 SUB SWAP1 RETURN JUMPDEST CALLVALUE DUP1 ISZERO PUSH2 0x1CE JUMPI PUSH1 0x0 DUP1 REVERT JUMPDEST POP PUSH2 0x1E9 PUSH1 0x4 DUP1 CALLDATASIZE SUB DUP2 ADD SWAP1 PUSH2 0x1E4 SWAP2 SWAP1 PUSH2 0x28C0 JUMP JUMPDEST PUSH2 0x4E1 JUMP JUMPDEST PUSH1 0x40 MLOAD PUSH2 0x1F6 SWAP2 SWAP1 PUSH2 0x287B JUMP JUMPDEST PUSH1 0x40 MLOAD DUP1 SWAP2 SUB SWAP1 RETURN JUMPDEST CALLVALUE DUP1 ISZERO PUSH2 0x20B JUMPI PUSH1 0x0 DUP1 REVERT JUMPDEST POP PUSH2 0x226 PUSH1 0x4 DUP1 CALLDATASIZE SUB DUP2 ADD SWAP1 PUSH2 0x221 SWAP2 SWAP1 PUSH2 0x2913 JUMP JUMPDEST PUSH2 0x5BA JUMP JUMPDEST STOP JUMPDEST CALLVALUE DUP1 ISZERO PUSH2 0x234 JUMPI PUSH1 0x0 DUP1 REVERT JUMPDEST POP PUSH2 0x23D PUSH2 0x6AA JUMP JUMPDEST PUSH1 0x40 MLOAD PUSH2 0x24A SWAP2 SWAP1 PUSH2 0x295C JUMP JUMPDEST PUSH1 0x40 MLOAD DUP1 SWAP2 SUB SWAP1 RETURN JUMPDEST CALLVALUE DUP1 ISZERO PUSH2 0x25F JUMPI PUSH1 0x0 DUP1 REVERT JUMPDEST POP PUSH2 0x27A PUSH1 0x4 DUP1 CALLDATASIZE SUB DUP2 ADD SWAP1 PUSH2 0x275 SWAP2 SWAP1 PUSH2 0x29A3 JUMP JUMPDEST PUSH2 0x6B3 JUMP JUMPDEST STOP JUMPDEST CALLVALUE DUP1 ISZERO PUSH2 0x288 JUMPI PUSH1 0x0 DUP1 REVERT JUMPDEST POP PUSH2 0x2A3 PUSH1 0x4 DUP1 CALLDATASIZE SUB DUP2 ADD SWAP1 PUSH2 0x29E SWAP2 SWAP1 PUSH2 0x29D0 JUMP JUMPDEST PUSH2 0x765 JUMP JUMPDEST STOP JUMPDEST CALLVALUE DUP1 ISZERO PUSH2 0x2B1 JUMPI PUSH1 0x0 DUP1 REVERT JUMPDEST POP PUSH2 0x2BA PUSH2 0x83D JUMP JUMPDEST STOP JUMPDEST CALLVALUE DUP1 ISZERO PUSH2 0x2C8 JUMPI PUSH1 0x0 DUP1 REVERT JUMPDEST POP PUSH2 0x2E3 PUSH1 0x4 DUP1 CALLDATASIZE SUB DUP2 ADD SWAP1 PUSH2 0x2DE SWAP2 SWAP1 PUSH2 0x2913 JUMP JUMPDEST PUSH2 0x8AF JUMP JUMPDEST PUSH1 0x40 MLOAD PUSH2 0x2F0 SWAP2 SWAP1 PUSH2 0x28A5 JUMP JUMPDEST PUSH1 0x40 MLOAD DUP1 SWAP2 SUB SWAP1 RETURN JUMPDEST CALLVALUE DUP1 ISZERO PUSH2 0x305 JUMPI PUSH1 0x0 DUP1 REVERT JUMPDEST POP PUSH2 0x30E PUSH2 0x900 JUMP JUMPDEST STOP JUMPDEST CALLVALUE DUP1 ISZERO PUSH2 0x31C JUMPI PUSH1 0x0 DUP1 REVERT JUMPDEST POP PUSH2 0x325 PUSH2 0xA53 JUMP JUMPDEST STOP JUMPDEST CALLVALUE DUP1 ISZERO PUSH2 0x333 JUMPI PUSH1 0x0 DUP1 REVERT JUMPDEST POP PUSH2 0x33C PUSH2 0xB06 JUMP JUMPDEST PUSH1 0x40 MLOAD PUSH2 0x349 SWAP2 SWAP1 PUSH2 0x2A0C JUMP JUMPDEST PUSH1 0x40 MLOAD DUP1 SWAP2 SUB SWAP1 RETURN JUMPDEST CALLVALUE DUP1 ISZERO PUSH2 0x35E JUMPI PUSH1 0x0 DUP1 REVERT JUMPDEST POP PUSH2 0x367 PUSH2 0xB2F JUMP JUMPDEST PUSH1 0x40 MLOAD PUSH2 0x374 SWAP2 SWAP1 PUSH2 0x2756 JUMP JUMPDEST PUSH1 0x40 MLOAD DUP1 SWAP2 SUB SWAP1 RETURN JUMPDEST CALLVALUE DUP1 ISZERO PUSH2 0x389 JUMPI PUSH1 0x0 DUP1 REVERT JUMPDEST POP PUSH2 0x3A4 PUSH1 0x4 DUP1 CALLDATASIZE SUB DUP2 ADD SWAP1 PUSH2 0x39F SWAP2 SWAP1 PUSH2 0x2820 JUMP JUMPDEST PUSH2 0xB6C JUMP JUMPDEST PUSH1 0x40 MLOAD PUSH2 0x3B1 SWAP2 SWAP1 PUSH2 0x287B JUMP JUMPDEST PUSH1 0x40 MLOAD DUP1 SWAP2 SUB SWAP1 RETURN JUMPDEST CALLVALUE DUP1 ISZERO PUSH2 0x3C6 JUMPI PUSH1 0x0 DUP1 REVERT JUMPDEST POP PUSH2 0x3E1 PUSH1 0x4 DUP1 CALLDATASIZE SUB DUP2 ADD SWAP1 PUSH2 0x3DC SWAP2 SWAP1 PUSH2 0x29D0 JUMP JUMPDEST PUSH2 0xB8A JUMP JUMPDEST STOP JUMPDEST CALLVALUE DUP1 ISZERO PUSH2 0x3EF JUMPI PUSH1 0x0 DUP1 REVERT JUMPDEST POP PUSH2 0x3F8 PUSH2 0xC62 JUMP JUMPDEST STOP JUMPDEST CALLVALUE DUP1 ISZERO PUSH2 0x406 JUMPI PUSH1 0x0 DUP1 REVERT JUMPDEST POP PUSH2 0x40F PUSH2 0xCDC JUMP JUMPDEST STOP JUMPDEST CALLVALUE DUP1 ISZERO PUSH2 0x41D JUMPI PUSH1 0x0 DUP1 REVERT JUMPDEST POP PUSH2 0x438 PUSH1 0x4 DUP1 CALLDATASIZE SUB DUP2 ADD SWAP1 PUSH2 0x433 SWAP2 SWAP1 PUSH2 0x2B6F JUMP JUMPDEST PUSH2 0x1244 JUMP JUMPDEST STOP JUMPDEST CALLVALUE DUP1 ISZERO PUSH2 0x446 JUMPI PUSH1 0x0 DUP1 REVERT JUMPDEST POP PUSH2 0x461 PUSH1 0x4 DUP1 CALLDATASIZE SUB DUP2 ADD SWAP1 PUSH2 0x45C SWAP2 SWAP1 PUSH2 0x2BB8 JUMP JUMPDEST PUSH2 0x136E JUMP JUMPDEST PUSH1 0x40 MLOAD PUSH2 0x46E SWAP2 SWAP1 PUSH2 0x28A5 JUMP JUMPDEST PUSH1 0x40 MLOAD DUP1 SWAP2 SUB SWAP1 RETURN JUMPDEST PUSH1 0x60 PUSH1 0x40 MLOAD DUP1 PUSH1 0x40 ADD PUSH1 0x40 MSTORE DUP1 PUSH1 0x8 DUP2 MSTORE PUSH1 0x20 ADD PUSH32 0x4C61627261646F72000000000000000000000000000000000000000000000000 DUP2 MSTORE POP SWAP1 POP SWAP1 JUMP JUMPDEST PUSH1 0x0 PUSH2 0x4C8 PUSH2 0x4C1 PUSH2 0x13F5 JUMP JUMPDEST DUP5 DUP5 PUSH2 0x13FD JUMP JUMPDEST PUSH1 0x1 SWAP1 POP SWAP3 SWAP2 POP POP JUMP JUMPDEST PUSH1 0x0 PUSH7 0x38D7EA4C68000 SWAP1 POP SWAP1 JUMP JUMPDEST PUSH1 0x0 PUSH2 0x4EE DUP5 DUP5 DUP5 PUSH2 0x15C6 JUMP JUMPDEST PUSH2 0x5AF DUP5 PUSH2 0x4FA PUSH2 0x13F5 JUMP JUMPDEST PUSH2 0x5AA DUP6 PUSH1 0x40 MLOAD DUP1 PUSH1 0x60 ADD PUSH1 0x40 MSTORE DUP1 PUSH1 0x28 DUP2 MSTORE PUSH1 0x20 ADD PUSH2 0x36F9 PUSH1 0x28 SWAP2 CODECOPY PUSH1 0x4 PUSH1 0x0 DUP12 PUSH20 0xFFFFFFFFFFFFFFFFFFFFFFFFFFFFFFFFFFFFFFFF AND PUSH20 0xFFFFFFFFFFFFFFFFFFFFFFFFFFFFFFFFFFFFFFFF AND DUP2 MSTORE PUSH1 0x20 ADD SWAP1 DUP2 MSTORE PUSH1 0x20 ADD PUSH1 0x0 KECCAK256 PUSH1 0x0 PUSH2 0x560 PUSH2 0x13F5 JUMP JUMPDEST PUSH20 0xFFFFFFFFFFFFFFFFFFFFFFFFFFFFFFFFFFFFFFFF AND PUSH20 0xFFFFFFFFFFFFFFFFFFFFFFFFFFFFFFFFFFFFFFFF AND DUP2 MSTORE PUSH1 0x20 ADD SWAP1 DUP2 MSTORE PUSH1 0x20 ADD PUSH1 0x0 KECCAK256 SLOAD PUSH2 0x1C57 SWAP1 SWAP3 SWAP2 SWAP1 PUSH4 0xFFFFFFFF AND JUMP JUMPDEST PUSH2 0x13FD JUMP JUMPDEST PUSH1 0x1 SWAP1 POP SWAP4 SWAP3 POP POP POP JUMP JUMPDEST PUSH2 0x5C2 PUSH2 0x13F5 JUMP JUMPDEST PUSH20 0xFFFFFFFFFFFFFFFFFFFFFFFFFFFFFFFFFFFFFFFF AND PUSH1 0x0 DUP1 SLOAD SWAP1 PUSH2 0x100 EXP SWAP1 DIV PUSH20 0xFFFFFFFFFFFFFFFFFFFFFFFFFFFFFFFFFFFFFFFF AND PUSH20 0xFFFFFFFFFFFFFFFFFFFFFFFFFFFFFFFFFFFFFFFF AND EQ PUSH2 0x64F JUMPI PUSH1 0x40 MLOAD PUSH32 0x8C379A000000000000000000000000000000000000000000000000000000000 DUP2 MSTORE PUSH1 0x4 ADD PUSH2 0x646 SWAP1 PUSH2 0x2C44 JUMP JUMPDEST PUSH1 0x40 MLOAD DUP1 SWAP2 SUB SWAP1 REVERT JUMPDEST PUSH1 0x0 PUSH1 0x6 PUSH1 0x0 DUP4 PUSH20 0xFFFFFFFFFFFFFFFFFFFFFFFFFFFFFFFFFFFFFFFF AND PUSH20 0xFFFFFFFFFFFFFFFFFFFFFFFFFFFFFFFFFFFFFFFF AND DUP2 MSTORE PUSH1 0x20 ADD SWAP1 DUP2 MSTORE PUSH1 0x20 ADD PUSH1 0x0 KECCAK256 PUSH1 0x0 PUSH2 0x100 EXP DUP2 SLOAD DUP2 PUSH1 0xFF MUL NOT AND SWAP1 DUP4 ISZERO ISZERO MUL OR SWAP1 SSTORE POP POP JUMP JUMPDEST PUSH1 0x0 PUSH1 0x8 SWAP1 POP SWAP1 JUMP JUMPDEST PUSH2 0x6BB PUSH2 0x13F5 JUMP JUMPDEST PUSH20 0xFFFFFFFFFFFFFFFFFFFFFFFFFFFFFFFFFFFFFFFF AND PUSH1 0x0 DUP1 SLOAD SWAP1 PUSH2 0x100 EXP SWAP1 DIV PUSH20 0xFFFFFFFFFFFFFFFFFFFFFFFFFFFFFFFFFFFFFFFF AND PUSH20 0xFFFFFFFFFFFFFFFFFFFFFFFFFFFFFFFFFFFFFFFF AND EQ PUSH2 0x748 JUMPI PUSH1 0x40 MLOAD PUSH32 0x8C379A000000000000000000000000000000000000000000000000000000000 DUP2 MSTORE PUSH1 0x4 ADD PUSH2 0x73F SWAP1 PUSH2 0x2C44 JUMP JUMPDEST PUSH1 0x40 MLOAD DUP1 SWAP2 SUB SWAP1 REVERT JUMPDEST DUP1 PUSH1 0xF PUSH1 0x17 PUSH2 0x100 EXP DUP2 SLOAD DUP2 PUSH1 0xFF MUL NOT AND SWAP1 DUP4 ISZERO ISZERO MUL OR SWAP1 SSTORE POP POP JUMP JUMPDEST PUSH2 0x76D PUSH2 0x13F5 JUMP JUMPDEST PUSH20 0xFFFFFFFFFFFFFFFFFFFFFFFFFFFFFFFFFFFFFFFF AND PUSH1 0x0 DUP1 SLOAD SWAP1 PUSH2 0x100 EXP SWAP1 DIV PUSH20 0xFFFFFFFFFFFFFFFFFFFFFFFFFFFFFFFFFFFFFFFF AND PUSH20 0xFFFFFFFFFFFFFFFFFFFFFFFFFFFFFFFFFFFFFFFF AND EQ PUSH2 0x7FA JUMPI PUSH1 0x40 MLOAD PUSH32 0x8C379A000000000000000000000000000000000000000000000000000000000 DUP2 MSTORE PUSH1 0x4 ADD PUSH2 0x7F1 SWAP1 PUSH2 0x2C44 JUMP JUMPDEST PUSH1 0x40 MLOAD DUP1 SWAP2 SUB SWAP1 REVERT JUMPDEST PUSH1 0x0 DUP2 GT PUSH2 0x807 JUMPI PUSH1 0x0 DUP1 REVERT JUMPDEST PUSH2 0x834 PUSH1 0x64 PUSH2 0x826 DUP4 PUSH7 0x38D7EA4C68000 PUSH2 0x1CBB SWAP1 SWAP2 SWAP1 PUSH4 0xFFFFFFFF AND JUMP JUMPDEST PUSH2 0x1D35 SWAP1 SWAP2 SWAP1 PUSH4 0xFFFFFFFF AND JUMP JUMPDEST PUSH1 0x10 DUP2 SWAP1 SSTORE POP POP JUMP JUMPDEST PUSH1 0xD PUSH1 0x0 SWAP1 SLOAD SWAP1 PUSH2 0x100 EXP SWAP1 DIV PUSH20 0xFFFFFFFFFFFFFFFFFFFFFFFFFFFFFFFFFFFFFFFF AND PUSH20 0xFFFFFFFFFFFFFFFFFFFFFFFFFFFFFFFFFFFFFFFF AND PUSH2 0x87E PUSH2 0x13F5 JUMP JUMPDEST PUSH20 0xFFFFFFFFFFFFFFFFFFFFFFFFFFFFFFFFFFFFFFFF AND EQ PUSH2 0x89E JUMPI PUSH1 0x0 DUP1 REVERT JUMPDEST PUSH1 0x0 SELFBALANCE SWAP1 POP PUSH2 0x8AC DUP2 PUSH2 0x1D7F JUMP JUMPDEST POP JUMP JUMPDEST PUSH1 0x0 PUSH2 0x8F9 PUSH1 0x2 PUSH1 0x0 DUP5 PUSH20 0xFFFFFFFFFFFFFFFFFFFFFFFFFFFFFFFFFFFFFFFF AND PUSH20 0xFFFFFFFFFFFFFFFFFFFFFFFFFFFFFFFFFFFFFFFF AND DUP2 MSTORE PUSH1 0x20 ADD SWAP1 DUP2 MSTORE PUSH1 0x20 ADD PUSH1 0x0 KECCAK256 SLOAD PUSH2 0x1DEB JUMP JUMPDEST SWAP1 POP SWAP2 SWAP1 POP JUMP JUMPDEST PUSH2 0x908 PUSH2 0x13F5 JUMP JUMPDEST PUSH20 0xFFFFFFFFFFFFFFFFFFFFFFFFFFFFFFFFFFFFFFFF AND PUSH1 0x0 DUP1 SLOAD SWAP1 PUSH2 0x100 EXP SWAP1 DIV PUSH20 0xFFFFFFFFFFFFFFFFFFFFFFFFFFFFFFFFFFFFFFFF AND PUSH20 0xFFFFFFFFFFFFFFFFFFFFFFFFFFFFFFFFFFFFFFFF AND EQ PUSH2 0x995 JUMPI PUSH1 0x40 MLOAD PUSH32 0x8C379A000000000000000000000000000000000000000000000000000000000 DUP2 MSTORE PUSH1 0x4 ADD PUSH2 0x98C SWAP1 PUSH2 0x2C44 JUMP JUMPDEST PUSH1 0x40 MLOAD DUP1 SWAP2 SUB SWAP1 REVERT JUMPDEST PUSH1 0x0 PUSH20 0xFFFFFFFFFFFFFFFFFFFFFFFFFFFFFFFFFFFFFFFF AND PUSH1 0x0 DUP1 SLOAD SWAP1 PUSH2 0x100 EXP SWAP1 DIV PUSH20 0xFFFFFFFFFFFFFFFFFFFFFFFFFFFFFFFFFFFFFFFF AND PUSH20 0xFFFFFFFFFFFFFFFFFFFFFFFFFFFFFFFFFFFFFFFF AND PUSH32 0x8BE0079C531659141344CD1FD0A4F28419497F9722A3DAAFE3B4186F6B6457E0 PUSH1 0x40 MLOAD PUSH1 0x40 MLOAD DUP1 SWAP2 SUB SWAP1 LOG3 PUSH1 0x0 DUP1 PUSH1 0x0 PUSH2 0x100 EXP DUP2 SLOAD DUP2 PUSH20 0xFFFFFFFFFFFFFFFFFFFFFFFFFFFFFFFFFFFFFFFF MUL NOT AND SWAP1 DUP4 PUSH20 0xFFFFFFFFFFFFFFFFFFFFFFFFFFFFFFFFFFFFFFFF AND MUL OR SWAP1 SSTORE POP JUMP JUMPDEST PUSH2 0xA5B PUSH2 0x13F5 JUMP JUMPDEST PUSH20 0xFFFFFFFFFFFFFFFFFFFFFFFFFFFFFFFFFFFFFFFF AND PUSH1 0x0 DUP1 SLOAD SWAP1 PUSH2 0x100 EXP SWAP1 DIV PUSH20 0xFFFFFFFFFFFFFFFFFFFFFFFFFFFFFFFFFFFFFFFF AND PUSH20 0xFFFFFFFFFFFFFFFFFFFFFFFFFFFFFFFFFFFFFFFF AND EQ PUSH2 0xAE8 JUMPI PUSH1 0x40 MLOAD PUSH32 0x8C379A000000000000000000000000000000000000000000000000000000000 DUP2 MSTORE PUSH1 0x4 ADD PUSH2 0xADF SWAP1 PUSH2 0x2C44 JUMP JUMPDEST PUSH1 0x40 MLOAD DUP1 SWAP2 SUB SWAP1 REVERT JUMPDEST PUSH7 0x38D7EA4C68000 PUSH1 0x10 DUP2 SWAP1 SSTORE POP PUSH7 0x38D7EA4C68000 PUSH1 0x11 DUP2 SWAP1 SSTORE POP JUMP JUMPDEST PUSH1 0x0 DUP1 PUSH1 0x0 SWAP1 SLOAD SWAP1 PUSH2 0x100 EXP SWAP1 DIV PUSH20 0xFFFFFFFFFFFFFFFFFFFFFFFFFFFFFFFFFFFFFFFF AND SWAP1 POP SWAP1 JUMP JUMPDEST PUSH1 0x60 PUSH1 0x40 MLOAD DUP1 PUSH1 0x40 ADD PUSH1 0x40 MSTORE DUP1 PUSH1 0x4 DUP2 MSTORE PUSH1 0x20 ADD PUSH32 0x4C41425200000000000000000000000000000000000000000000000000000000 DUP2 MSTORE POP SWAP1 POP SWAP1 JUMP JUMPDEST PUSH1 0x0 PUSH2 0xB80 PUSH2 0xB79 PUSH2 0x13F5 JUMP JUMPDEST DUP5 DUP5 PUSH2 0x15C6 JUMP JUMPDEST PUSH1 0x1 SWAP1 POP SWAP3 SWAP2 POP POP JUMP JUMPDEST PUSH2 0xB92 PUSH2 0x13F5 JUMP JUMPDEST PUSH20 0xFFFFFFFFFFFFFFFFFFFFFFFFFFFFFFFFFFFFFFFF AND PUSH1 0x0 DUP1 SLOAD SWAP1 PUSH2 0x100 EXP SWAP1 DIV PUSH20 0xFFFFFFFFFFFFFFFFFFFFFFFFFFFFFFFFFFFFFFFF AND PUSH20 0xFFFFFFFFFFFFFFFFFFFFFFFFFFFFFFFFFFFFFFFF AND EQ PUSH2 0xC1F JUMPI PUSH1 0x40 MLOAD PUSH32 0x8C379A000000000000000000000000000000000000000000000000000000000 DUP2 MSTORE PUSH1 0x4 ADD PUSH2 0xC16 SWAP1 PUSH2 0x2C44 JUMP JUMPDEST PUSH1 0x40 MLOAD DUP1 SWAP2 SUB SWAP1 REVERT JUMPDEST PUSH1 0x0 DUP2 GT PUSH2 0xC2C JUMPI PUSH1 0x0 DUP1 REVERT JUMPDEST PUSH2 0xC59 PUSH1 0x64 PUSH2 0xC4B DUP4 PUSH7 0x38D7EA4C68000 PUSH2 0x1CBB SWAP1 SWAP2 SWAP1 PUSH4 0xFFFFFFFF AND JUMP JUMPDEST PUSH2 0x1D35 SWAP1 SWAP2 SWAP1 PUSH4 0xFFFFFFFF AND JUMP JUMPDEST PUSH1 0x11 DUP2 SWAP1 SSTORE POP POP JUMP JUMPDEST PUSH1 0xD PUSH1 0x0 SWAP1 SLOAD SWAP1 PUSH2 0x100 EXP SWAP1 DIV PUSH20 0xFFFFFFFFFFFFFFFFFFFFFFFFFFFFFFFFFFFFFFFF AND PUSH20 0xFFFFFFFFFFFFFFFFFFFFFFFFFFFFFFFFFFFFFFFF AND PUSH2 0xCA3 PUSH2 0x13F5 JUMP JUMPDEST PUSH20 0xFFFFFFFFFFFFFFFFFFFFFFFFFFFFFFFFFFFFFFFF AND EQ PUSH2 0xCC3 JUMPI PUSH1 0x0 DUP1 REVERT JUMPDEST PUSH1 0x0 PUSH2 0xCCE ADDRESS PUSH2 0x8AF JUMP JUMPDEST SWAP1 POP PUSH2 0xCD9 DUP2 PUSH2 0x1E59 JUMP JUMPDEST POP JUMP JUMPDEST PUSH2 0xCE4 PUSH2 0x13F5 JUMP JUMPDEST PUSH20 0xFFFFFFFFFFFFFFFFFFFFFFFFFFFFFFFFFFFFFFFF AND PUSH1 0x0 DUP1 SLOAD SWAP1 PUSH2 0x100 EXP SWAP1 DIV PUSH20 0xFFFFFFFFFFFFFFFFFFFFFFFFFFFFFFFFFFFFFFFF AND PUSH20 0xFFFFFFFFFFFFFFFFFFFFFFFFFFFFFFFFFFFFFFFF AND EQ PUSH2 0xD71 JUMPI PUSH1 0x40 MLOAD PUSH32 0x8C379A000000000000000000000000000000000000000000000000000000000 DUP2 MSTORE PUSH1 0x4 ADD PUSH2 0xD68 SWAP1 PUSH2 0x2C44 JUMP JUMPDEST PUSH1 0x40 MLOAD DUP1 SWAP2 SUB SWAP1 REVERT JUMPDEST PUSH1 0xF PUSH1 0x14 SWAP1 SLOAD SWAP1 PUSH2 0x100 EXP SWAP1 DIV PUSH1 0xFF AND ISZERO PUSH2 0xDC1 JUMPI PUSH1 0x40 MLOAD PUSH32 0x8C379A000000000000000000000000000000000000000000000000000000000 DUP2 MSTORE PUSH1 0x4 ADD PUSH2 0xDB8 SWAP1 PUSH2 0x2CB0 JUMP JUMPDEST PUSH1 0x40 MLOAD DUP1 SWAP2 SUB SWAP1 REVERT JUMPDEST PUSH1 0x0 PUSH20 0x7A250D5630B4CF539739DF2C5DACB4C659F2488D SWAP1 POP DUP1 PUSH1 0xE PUSH1 0x0 PUSH2 0x100 EXP DUP2 SLOAD DUP2 PUSH20 0xFFFFFFFFFFFFFFFFFFFFFFFFFFFFFFFFFFFFFFFF MUL NOT AND SWAP1 DUP4 PUSH20 0xFFFFFFFFFFFFFFFFFFFFFFFFFFFFFFFFFFFFFFFF AND MUL OR SWAP1 SSTORE POP PUSH2 0xE4F ADDRESS PUSH1 0xE PUSH1 0x0 SWAP1 SLOAD SWAP1 PUSH2 0x100 EXP SWAP1 DIV PUSH20 0xFFFFFFFFFFFFFFFFFFFFFFFFFFFFFFFFFFFFFFFF AND PUSH7 0x38D7EA4C68000 PUSH2 0x13FD JUMP JUMPDEST DUP1 PUSH20 0xFFFFFFFFFFFFFFFFFFFFFFFFFFFFFFFFFFFFFFFF AND PUSH4 0xC45A0155 PUSH1 0x40 MLOAD DUP2 PUSH4 0xFFFFFFFF AND PUSH1 0xE0 SHL DUP2 MSTORE PUSH1 0x4 ADD PUSH1 0x20 PUSH1 0x40 MLOAD DUP1 DUP4 SUB DUP2 DUP7 GAS STATICCALL ISZERO DUP1 ISZERO PUSH2 0xE9A JUMPI RETURNDATASIZE PUSH1 0x0 DUP1 RETURNDATACOPY RETURNDATASIZE PUSH1 0x0 REVERT JUMPDEST POP POP POP POP PUSH1 0x40 MLOAD RETURNDATASIZE PUSH1 0x1F NOT PUSH1 0x1F DUP3 ADD AND DUP3 ADD DUP1 PUSH1 0x40 MSTORE POP DUP2 ADD SWAP1 PUSH2 0xEBE SWAP2 SWAP1 PUSH2 0x2CE5 JUMP JUMPDEST PUSH20 0xFFFFFFFFFFFFFFFFFFFFFFFFFFFFFFFFFFFFFFFF AND PUSH4 0xC9C65396 ADDRESS DUP4 PUSH20 0xFFFFFFFFFFFFFFFFFFFFFFFFFFFFFFFFFFFFFFFF AND PUSH4 0xAD5C4648 PUSH1 0x40 MLOAD DUP2 PUSH4 0xFFFFFFFF AND PUSH1 0xE0 SHL DUP2 MSTORE PUSH1 0x4 ADD PUSH1 0x20 PUSH1 0x40 MLOAD DUP1 DUP4 SUB DUP2 DUP7 GAS STATICCALL ISZERO DUP1 ISZERO PUSH2 0xF25 JUMPI RETURNDATASIZE PUSH1 0x0 DUP1 RETURNDATACOPY RETURNDATASIZE PUSH1 0x0 REVERT JUMPDEST POP POP POP POP PUSH1 0x40 MLOAD RETURNDATASIZE PUSH1 0x1F NOT PUSH1 0x1F DUP3 ADD AND DUP3 ADD DUP1 PUSH1 0x40 MSTORE POP DUP2 ADD SWAP1 PUSH2 0xF49 SWAP2 SWAP1 PUSH2 0x2CE5 JUMP JUMPDEST PUSH1 0x40 MLOAD DUP4 PUSH4 0xFFFFFFFF AND PUSH1 0xE0 SHL DUP2 MSTORE PUSH1 0x4 ADD PUSH2 0xF66 SWAP3 SWAP2 SWAP1 PUSH2 0x2D12 JUMP JUMPDEST PUSH1 0x20 PUSH1 0x40 MLOAD DUP1 DUP4 SUB DUP2 PUSH1 0x0 DUP8 GAS CALL ISZERO DUP1 ISZERO PUSH2 0xF85 JUMPI RETURNDATASIZE PUSH1 0x0 DUP1 RETURNDATACOPY RETURNDATASIZE PUSH1 0x0 REVERT JUMPDEST POP POP POP POP PUSH1 0x40 MLOAD RETURNDATASIZE PUSH1 0x1F NOT PUSH1 0x1F DUP3 ADD AND DUP3 ADD DUP1 PUSH1 0x40 MSTORE POP DUP2 ADD SWAP1 PUSH2 0xFA9 SWAP2 SWAP1 PUSH2 0x2CE5 JUMP JUMPDEST PUSH1 0xF PUSH1 0x0 PUSH2 0x100 EXP DUP2 SLOAD DUP2 PUSH20 0xFFFFFFFFFFFFFFFFFFFFFFFFFFFFFFFFFFFFFFFF MUL NOT AND SWAP1 DUP4 PUSH20 0xFFFFFFFFFFFFFFFFFFFFFFFFFFFFFFFFFFFFFFFF AND MUL OR SWAP1 SSTORE POP PUSH1 0xE PUSH1 0x0 SWAP1 SLOAD SWAP1 PUSH2 0x100 EXP SWAP1 DIV PUSH20 0xFFFFFFFFFFFFFFFFFFFFFFFFFFFFFFFFFFFFFFFF AND PUSH20 0xFFFFFFFFFFFFFFFFFFFFFFFFFFFFFFFFFFFFFFFF AND PUSH4 0xF305D719 SELFBALANCE ADDRESS PUSH2 0x1032 ADDRESS PUSH2 0x8AF JUMP JUMPDEST PUSH1 0x0 DUP1 PUSH2 0x103D PUSH2 0xB06 JUMP JUMPDEST TIMESTAMP PUSH1 0x40 MLOAD DUP9 PUSH4 0xFFFFFFFF AND PUSH1 0xE0 SHL DUP2 MSTORE PUSH1 0x4 ADD PUSH2 0x105F SWAP7 SWAP6 SWAP5 SWAP4 SWAP3 SWAP2 SWAP1 PUSH2 0x2D80 JUMP JUMPDEST PUSH1 0x60 PUSH1 0x40 MLOAD DUP1 DUP4 SUB DUP2 DUP6 DUP9 GAS CALL ISZERO DUP1 ISZERO PUSH2 0x107D JUMPI RETURNDATASIZE PUSH1 0x0 DUP1 RETURNDATACOPY RETURNDATASIZE PUSH1 0x0 REVERT JUMPDEST POP POP POP POP POP PUSH1 0x40 MLOAD RETURNDATASIZE PUSH1 0x1F NOT PUSH1 0x1F DUP3 ADD AND DUP3 ADD DUP1 PUSH1 0x40 MSTORE POP DUP2 ADD SWAP1 PUSH2 0x10A2 SWAP2 SWAP1 PUSH2 0x2DF6 JUMP JUMPDEST POP POP POP PUSH1 0x1 PUSH1 0xF PUSH1 0x16 PUSH2 0x100 EXP DUP2 SLOAD DUP2 PUSH1 0xFF MUL NOT AND SWAP1 DUP4 ISZERO ISZERO MUL OR SWAP1 SSTORE POP PUSH1 0x1 PUSH1 0xF PUSH1 0x17 PUSH2 0x100 EXP DUP2 SLOAD DUP2 PUSH1 0xFF MUL NOT AND SWAP1 DUP4 ISZERO ISZERO MUL OR SWAP1 SSTORE POP PUSH2 0x1109 PUSH1 0x64 PUSH2 0x10FB PUSH1 0x2 PUSH7 0x38D7EA4C68000 PUSH2 0x1CBB SWAP1 SWAP2 SWAP1 PUSH4 0xFFFFFFFF AND JUMP JUMPDEST PUSH2 0x1D35 SWAP1 SWAP2 SWAP1 PUSH4 0xFFFFFFFF AND JUMP JUMPDEST PUSH1 0x10 DUP2 SWAP1 SSTORE POP PUSH2 0x113D PUSH1 0x64 PUSH2 0x112F PUSH1 0x3 PUSH7 0x38D7EA4C68000 PUSH2 0x1CBB SWAP1 SWAP2 SWAP1 PUSH4 0xFFFFFFFF AND JUMP JUMPDEST PUSH2 0x1D35 SWAP1 SWAP2 SWAP1 PUSH4 0xFFFFFFFF AND JUMP JUMPDEST PUSH1 0x11 DUP2 SWAP1 SSTORE POP PUSH1 0x1 PUSH1 0xF PUSH1 0x14 PUSH2 0x100 EXP DUP2 SLOAD DUP2 PUSH1 0xFF MUL NOT AND SWAP1 DUP4 ISZERO ISZERO MUL OR SWAP1 SSTORE POP PUSH1 0xF PUSH1 0x0 SWAP1 SLOAD SWAP1 PUSH2 0x100 EXP SWAP1 DIV PUSH20 0xFFFFFFFFFFFFFFFFFFFFFFFFFFFFFFFFFFFFFFFF AND PUSH20 0xFFFFFFFFFFFFFFFFFFFFFFFFFFFFFFFFFFFFFFFF AND PUSH4 0x95EA7B3 PUSH1 0xE PUSH1 0x0 SWAP1 SLOAD SWAP1 PUSH2 0x100 EXP SWAP1 DIV PUSH20 0xFFFFFFFFFFFFFFFFFFFFFFFFFFFFFFFFFFFFFFFF AND PUSH32 0xFFFFFFFFFFFFFFFFFFFFFFFFFFFFFFFFFFFFFFFFFFFFFFFFFFFFFFFFFFFFFFFF PUSH1 0x40 MLOAD DUP4 PUSH4 0xFFFFFFFF AND PUSH1 0xE0 SHL DUP2 MSTORE PUSH1 0x4 ADD PUSH2 0x11FD SWAP3 SWAP2 SWAP1 PUSH2 0x2E49 JUMP JUMPDEST PUSH1 0x20 PUSH1 0x40 MLOAD DUP1 DUP4 SUB DUP2 PUSH1 0x0 DUP8 GAS CALL ISZERO DUP1 ISZERO PUSH2 0x121C JUMPI RETURNDATASIZE PUSH1 0x0 DUP1 RETURNDATACOPY RETURNDATASIZE PUSH1 0x0 REVERT JUMPDEST POP POP POP POP PUSH1 0x40 MLOAD RETURNDATASIZE PUSH1 0x1F NOT PUSH1 0x1F DUP3 ADD AND DUP3 ADD DUP1 PUSH1 0x40 MSTORE POP DUP2 ADD SWAP1 PUSH2 0x1240 SWAP2 SWAP1 PUSH2 0x2E87 JUMP JUMPDEST POP POP JUMP JUMPDEST PUSH2 0x124C PUSH2 0x13F5 JUMP JUMPDEST PUSH20 0xFFFFFFFFFFFFFFFFFFFFFFFFFFFFFFFFFFFFFFFF AND PUSH1 0x0 DUP1 SLOAD SWAP1 PUSH2 0x100 EXP SWAP1 DIV PUSH20 0xFFFFFFFFFFFFFFFFFFFFFFFFFFFFFFFFFFFFFFFF AND PUSH20 0xFFFFFFFFFFFFFFFFFFFFFFFFFFFFFFFFFFFFFFFF AND EQ PUSH2 0x12D9 JUMPI PUSH1 0x40 MLOAD PUSH32 0x8C379A000000000000000000000000000000000000000000000000000000000 DUP2 MSTORE PUSH1 0x4 ADD PUSH2 0x12D0 SWAP1 PUSH2 0x2C44 JUMP JUMPDEST PUSH1 0x40 MLOAD DUP1 SWAP2 SUB SWAP1 REVERT JUMPDEST PUSH1 0x0 JUMPDEST DUP2 MLOAD DUP2 LT ISZERO PUSH2 0x136A JUMPI PUSH1 0x1 PUSH1 0x6 PUSH1 0x0 DUP5 DUP5 DUP2 MLOAD DUP2 LT PUSH2 0x12FE JUMPI PUSH2 0x12FD PUSH2 0x2EB4 JUMP JUMPDEST JUMPDEST PUSH1 0x20 MUL PUSH1 0x20 ADD ADD MLOAD PUSH20 0xFFFFFFFFFFFFFFFFFFFFFFFFFFFFFFFFFFFFFFFF AND PUSH20 0xFFFFFFFFFFFFFFFFFFFFFFFFFFFFFFFFFFFFFFFF AND DUP2 MSTORE PUSH1 0x20 ADD SWAP1 DUP2 MSTORE PUSH1 0x20 ADD PUSH1 0x0 KECCAK256 PUSH1 0x0 PUSH2 0x100 EXP DUP2 SLOAD DUP2 PUSH1 0xFF MUL NOT AND SWAP1 DUP4 ISZERO ISZERO MUL OR SWAP1 SSTORE POP DUP1 DUP1 PUSH2 0x1362 SWAP1 PUSH2 0x2F12 JUMP JUMPDEST SWAP2 POP POP PUSH2 0x12DC JUMP JUMPDEST POP POP JUMP JUMPDEST PUSH1 0x0 PUSH1 0x4 PUSH1 0x0 DUP5 PUSH20 0xFFFFFFFFFFFFFFFFFFFFFFFFFFFFFFFFFFFFFFFF AND PUSH20 0xFFFFFFFFFFFFFFFFFFFFFFFFFFFFFFFFFFFFFFFF AND DUP2 MSTORE PUSH1 0x20 ADD SWAP1 DUP2 MSTORE PUSH1 0x20 ADD PUSH1 0x0 KECCAK256 PUSH1 0x0 DUP4 PUSH20 0xFFFFFFFFFFFFFFFFFFFFFFFFFFFFFFFFFFFFFFFF AND PUSH20 0xFFFFFFFFFFFFFFFFFFFFFFFFFFFFFFFFFFFFFFFF AND DUP2 MSTORE PUSH1 0x20 ADD SWAP1 DUP2 MSTORE PUSH1 0x20 ADD PUSH1 0x0 KECCAK256 SLOAD SWAP1 POP SWAP3 SWAP2 POP POP JUMP JUMPDEST PUSH1 0x0 CALLER SWAP1 POP SWAP1 JUMP JUMPDEST PUSH1 0x0 PUSH20 0xFFFFFFFFFFFFFFFFFFFFFFFFFFFFFFFFFFFFFFFF AND DUP4 PUSH20 0xFFFFFFFFFFFFFFFFFFFFFFFFFFFFFFFFFFFFFFFF AND SUB PUSH2 0x146C JUMPI PUSH1 0x40 MLOAD PUSH32 0x8C379A000000000000000000000000000000000000000000000000000000000 DUP2 MSTORE PUSH1 0x4 ADD PUSH2 0x1463 SWAP1 PUSH2 0x2FCC JUMP JUMPDEST PUSH1 0x40 MLOAD DUP1 SWAP2 SUB SWAP1 REVERT JUMPDEST PUSH1 0x0 PUSH20 0xFFFFFFFFFFFFFFFFFFFFFFFFFFFFFFFFFFFFFFFF AND DUP3 PUSH20 0xFFFFFFFFFFFFFFFFFFFFFFFFFFFFFFFFFFFFFFFF AND SUB PUSH2 0x14DB JUMPI PUSH1 0x40 MLOAD PUSH32 0x8C379A000000000000000000000000000000000000000000000000000000000 DUP2 MSTORE PUSH1 0x4 ADD PUSH2 0x14D2 SWAP1 PUSH2 0x305E JUMP JUMPDEST PUSH1 0x40 MLOAD DUP1 SWAP2 SUB SWAP1 REVERT JUMPDEST DUP1 PUSH1 0x4 PUSH1 0x0 DUP6 PUSH20 0xFFFFFFFFFFFFFFFFFFFFFFFFFFFFFFFFFFFFFFFF AND PUSH20 0xFFFFFFFFFFFFFFFFFFFFFFFFFFFFFFFFFFFFFFFF AND DUP2 MSTORE PUSH1 0x20 ADD SWAP1 DUP2 MSTORE PUSH1 0x20 ADD PUSH1 0x0 KECCAK256 PUSH1 0x0 DUP5 PUSH20 0xFFFFFFFFFFFFFFFFFFFFFFFFFFFFFFFFFFFFFFFF AND PUSH20 0xFFFFFFFFFFFFFFFFFFFFFFFFFFFFFFFFFFFFFFFF AND DUP2 MSTORE PUSH1 0x20 ADD SWAP1 DUP2 MSTORE PUSH1 0x20 ADD PUSH1 0x0 KECCAK256 DUP2 SWAP1 SSTORE POP DUP2 PUSH20 0xFFFFFFFFFFFFFFFFFFFFFFFFFFFFFFFFFFFFFFFF AND DUP4 PUSH20 0xFFFFFFFFFFFFFFFFFFFFFFFFFFFFFFFFFFFFFFFF AND PUSH32 0x8C5BE1E5EBEC7D5BD14F71427D1E84F3DD0314C0F7B2291E5B200AC8C7C3B925 DUP4 PUSH1 0x40 MLOAD PUSH2 0x15B9 SWAP2 SWAP1 PUSH2 0x28A5 JUMP JUMPDEST PUSH1 0x40 MLOAD DUP1 SWAP2 SUB SWAP1 LOG3 POP POP POP JUMP JUMPDEST PUSH1 0x0 PUSH20 0xFFFFFFFFFFFFFFFFFFFFFFFFFFFFFFFFFFFFFFFF AND DUP4 PUSH20 0xFFFFFFFFFFFFFFFFFFFFFFFFFFFFFFFFFFFFFFFF AND SUB PUSH2 0x1635 JUMPI PUSH1 0x40 MLOAD PUSH32 0x8C379A000000000000000000000000000000000000000000000000000000000 DUP2 MSTORE PUSH1 0x4 ADD PUSH2 0x162C SWAP1 PUSH2 0x30F0 JUMP JUMPDEST PUSH1 0x40 MLOAD DUP1 SWAP2 SUB SWAP1 REVERT JUMPDEST PUSH1 0x0 PUSH20 0xFFFFFFFFFFFFFFFFFFFFFFFFFFFFFFFFFFFFFFFF AND DUP3 PUSH20 0xFFFFFFFFFFFFFFFFFFFFFFFFFFFFFFFFFFFFFFFF AND SUB PUSH2 0x16A4 JUMPI PUSH1 0x40 MLOAD PUSH32 0x8C379A000000000000000000000000000000000000000000000000000000000 DUP2 MSTORE PUSH1 0x4 ADD PUSH2 0x169B SWAP1 PUSH2 0x3182 JUMP JUMPDEST PUSH1 0x40 MLOAD DUP1 SWAP2 SUB SWAP1 REVERT JUMPDEST PUSH1 0x0 DUP2 GT PUSH2 0x16E7 JUMPI PUSH1 0x40 MLOAD PUSH32 0x8C379A000000000000000000000000000000000000000000000000000000000 DUP2 MSTORE PUSH1 0x4 ADD PUSH2 0x16DE SWAP1 PUSH2 0x3214 JUMP JUMPDEST PUSH1 0x40 MLOAD DUP1 SWAP2 SUB SWAP1 REVERT JUMPDEST PUSH1 0x0 PUSH1 0xB DUP2 SWAP1 SSTORE POP PUSH1 0x5 PUSH1 0xC DUP2 SWAP1 SSTORE POP PUSH2 0x16FF PUSH2 0xB06 JUMP JUMPDEST PUSH20 0xFFFFFFFFFFFFFFFFFFFFFFFFFFFFFFFFFFFFFFFF AND DUP4 PUSH20 0xFFFFFFFFFFFFFFFFFFFFFFFFFFFFFFFFFFFFFFFF AND EQ ISZERO DUP1 ISZERO PUSH2 0x176D JUMPI POP PUSH2 0x173D PUSH2 0xB06 JUMP JUMPDEST PUSH20 0xFFFFFFFFFFFFFFFFFFFFFFFFFFFFFFFFFFFFFFFF AND DUP3 PUSH20 0xFFFFFFFFFFFFFFFFFFFFFFFFFFFFFFFFFFFFFFFF AND EQ ISZERO JUMPDEST ISZERO PUSH2 0x1C47 JUMPI PUSH1 0x6 PUSH1 0x0 DUP5 PUSH20 0xFFFFFFFFFFFFFFFFFFFFFFFFFFFFFFFFFFFFFFFF AND PUSH20 0xFFFFFFFFFFFFFFFFFFFFFFFFFFFFFFFFFFFFFFFF AND DUP2 MSTORE PUSH1 0x20 ADD SWAP1 DUP2 MSTORE PUSH1 0x20 ADD PUSH1 0x0 KECCAK256 PUSH1 0x0 SWAP1 SLOAD SWAP1 PUSH2 0x100 EXP SWAP1 DIV PUSH1 0xFF AND ISZERO DUP1 ISZERO PUSH2 0x1816 JUMPI POP PUSH1 0x6 PUSH1 0x0 DUP4 PUSH20 0xFFFFFFFFFFFFFFFFFFFFFFFFFFFFFFFFFFFFFFFF AND PUSH20 0xFFFFFFFFFFFFFFFFFFFFFFFFFFFFFFFFFFFFFFFF AND DUP2 MSTORE PUSH1 0x20 ADD SWAP1 DUP2 MSTORE PUSH1 0x20 ADD PUSH1 0x0 KECCAK256 PUSH1 0x0 SWAP1 SLOAD SWAP1 PUSH2 0x100 EXP SWAP1 DIV PUSH1 0xFF AND ISZERO JUMPDEST PUSH2 0x181F JUMPI PUSH1 0x0 DUP1 REVERT JUMPDEST PUSH1 0xF PUSH1 0x0 SWAP1 SLOAD SWAP1 PUSH2 0x100 EXP SWAP1 DIV PUSH20 0xFFFFFFFFFFFFFFFFFFFFFFFFFFFFFFFFFFFFFFFF AND PUSH20 0xFFFFFFFFFFFFFFFFFFFFFFFFFFFFFFFFFFFFFFFF AND DUP4 PUSH20 0xFFFFFFFFFFFFFFFFFFFFFFFFFFFFFFFFFFFFFFFF AND EQ DUP1 ISZERO PUSH2 0x18CA JUMPI POP PUSH1 0xE PUSH1 0x0 SWAP1 SLOAD SWAP1 PUSH2 0x100 EXP SWAP1 DIV PUSH20 0xFFFFFFFFFFFFFFFFFFFFFFFFFFFFFFFFFFFFFFFF AND PUSH20 0xFFFFFFFFFFFFFFFFFFFFFFFFFFFFFFFFFFFFFFFF AND DUP3 PUSH20 0xFFFFFFFFFFFFFFFFFFFFFFFFFFFFFFFFFFFFFFFF AND EQ ISZERO JUMPDEST DUP1 ISZERO PUSH2 0x1920 JUMPI POP PUSH1 0x5 PUSH1 0x0 DUP4 PUSH20 0xFFFFFFFFFFFFFFFFFFFFFFFFFFFFFFFFFFFFFFFF AND PUSH20 0xFFFFFFFFFFFFFFFFFFFFFFFFFFFFFFFFFFFFFFFF AND DUP2 MSTORE PUSH1 0x20 ADD SWAP1 DUP2 MSTORE PUSH1 0x20 ADD PUSH1 0x0 KECCAK256 PUSH1 0x0 SWAP1 SLOAD SWAP1 PUSH2 0x100 EXP SWAP1 DIV PUSH1 0xFF AND ISZERO JUMPDEST DUP1 ISZERO PUSH2 0x1938 JUMPI POP PUSH1 0xF PUSH1 0x17 SWAP1 SLOAD SWAP1 PUSH2 0x100 EXP SWAP1 DIV PUSH1 0xFF AND JUMPDEST ISZERO PUSH2 0x1A76 JUMPI PUSH1 0x10 SLOAD DUP2 GT ISZERO PUSH2 0x1982 JUMPI PUSH1 0x40 MLOAD PUSH32 0x8C379A000000000000000000000000000000000000000000000000000000000 DUP2 MSTORE PUSH1 0x4 ADD PUSH2 0x1979 SWAP1 PUSH2 0x3280 JUMP JUMPDEST PUSH1 0x40 MLOAD DUP1 SWAP2 SUB SWAP1 REVERT JUMPDEST PUSH1 0x11 SLOAD DUP2 PUSH2 0x198F DUP5 PUSH2 0x8AF JUMP JUMPDEST PUSH2 0x1999 SWAP2 SWAP1 PUSH2 0x32A0 JUMP JUMPDEST GT ISZERO PUSH2 0x19DA JUMPI PUSH1 0x40 MLOAD PUSH32 0x8C379A000000000000000000000000000000000000000000000000000000000 DUP2 MSTORE PUSH1 0x4 ADD PUSH2 0x19D1 SWAP1 PUSH2 0x3342 JUMP JUMPDEST PUSH1 0x40 MLOAD DUP1 SWAP2 SUB SWAP1 REVERT JUMPDEST TIMESTAMP PUSH1 0x7 PUSH1 0x0 DUP5 PUSH20 0xFFFFFFFFFFFFFFFFFFFFFFFFFFFFFFFFFFFFFFFF AND PUSH20 0xFFFFFFFFFFFFFFFFFFFFFFFFFFFFFFFFFFFFFFFF AND DUP2 MSTORE PUSH1 0x20 ADD SWAP1 DUP2 MSTORE PUSH1 0x20 ADD PUSH1 0x0 KECCAK256 SLOAD LT PUSH2 0x1A25 JUMPI PUSH1 0x0 DUP1 REVERT JUMPDEST PUSH1 0x1E TIMESTAMP PUSH2 0x1A32 SWAP2 SWAP1 PUSH2 0x32A0 JUMP JUMPDEST PUSH1 0x7 PUSH1 0x0 DUP5 PUSH20 0xFFFFFFFFFFFFFFFFFFFFFFFFFFFFFFFFFFFFFFFF AND PUSH20 0xFFFFFFFFFFFFFFFFFFFFFFFFFFFFFFFFFFFFFFFF AND DUP2 MSTORE PUSH1 0x20 ADD SWAP1 DUP2 MSTORE PUSH1 0x20 ADD PUSH1 0x0 KECCAK256 DUP2 SWAP1 SSTORE POP JUMPDEST PUSH1 0xF PUSH1 0x0 SWAP1 SLOAD SWAP1 PUSH2 0x100 EXP SWAP1 DIV PUSH20 0xFFFFFFFFFFFFFFFFFFFFFFFFFFFFFFFFFFFFFFFF AND PUSH20 0xFFFFFFFFFFFFFFFFFFFFFFFFFFFFFFFFFFFFFFFF AND DUP3 PUSH20 0xFFFFFFFFFFFFFFFFFFFFFFFFFFFFFFFFFFFFFFFF AND EQ DUP1 ISZERO PUSH2 0x1B21 JUMPI POP PUSH1 0xE PUSH1 0x0 SWAP1 SLOAD SWAP1 PUSH2 0x100 EXP SWAP1 DIV PUSH20 0xFFFFFFFFFFFFFFFFFFFFFFFFFFFFFFFFFFFFFFFF AND PUSH20 0xFFFFFFFFFFFFFFFFFFFFFFFFFFFFFFFFFFFFFFFF AND DUP4 PUSH20 0xFFFFFFFFFFFFFFFFFFFFFFFFFFFFFFFFFFFFFFFF AND EQ ISZERO JUMPDEST DUP1 ISZERO PUSH2 0x1B77 JUMPI POP PUSH1 0x5 PUSH1 0x0 DUP5 PUSH20 0xFFFFFFFFFFFFFFFFFFFFFFFFFFFFFFFFFFFFFFFF AND PUSH20 0xFFFFFFFFFFFFFFFFFFFFFFFFFFFFFFFFFFFFFFFF AND DUP2 MSTORE PUSH1 0x20 ADD SWAP1 DUP2 MSTORE PUSH1 0x20 ADD PUSH1 0x0 KECCAK256 PUSH1 0x0 SWAP1 SLOAD SWAP1 PUSH2 0x100 EXP SWAP1 DIV PUSH1 0xFF AND ISZERO JUMPDEST ISZERO PUSH2 0x1B8D JUMPI PUSH1 0x0 PUSH1 0xB DUP2 SWAP1 SSTORE POP PUSH1 0x5 PUSH1 0xC DUP2 SWAP1 SSTORE POP JUMPDEST PUSH1 0x0 PUSH2 0x1B98 ADDRESS PUSH2 0x8AF JUMP JUMPDEST SWAP1 POP PUSH1 0xF PUSH1 0x15 SWAP1 SLOAD SWAP1 PUSH2 0x100 EXP SWAP1 DIV PUSH1 0xFF AND ISZERO DUP1 ISZERO PUSH2 0x1C05 JUMPI POP PUSH1 0xF PUSH1 0x0 SWAP1 SLOAD SWAP1 PUSH2 0x100 EXP SWAP1 DIV PUSH20 0xFFFFFFFFFFFFFFFFFFFFFFFFFFFFFFFFFFFFFFFF AND PUSH20 0xFFFFFFFFFFFFFFFFFFFFFFFFFFFFFFFFFFFFFFFF AND DUP5 PUSH20 0xFFFFFFFFFFFFFFFFFFFFFFFFFFFFFFFFFFFFFFFF AND EQ ISZERO JUMPDEST DUP1 ISZERO PUSH2 0x1C1D JUMPI POP PUSH1 0xF PUSH1 0x16 SWAP1 SLOAD SWAP1 PUSH2 0x100 EXP SWAP1 DIV PUSH1 0xFF AND JUMPDEST ISZERO PUSH2 0x1C45 JUMPI PUSH2 0x1C2B DUP2 PUSH2 0x1E59 JUMP JUMPDEST PUSH1 0x0 SELFBALANCE SWAP1 POP PUSH1 0x0 DUP2 GT ISZERO PUSH2 0x1C43 JUMPI PUSH2 0x1C42 SELFBALANCE PUSH2 0x1D7F JUMP JUMPDEST JUMPDEST POP JUMPDEST POP JUMPDEST PUSH2 0x1C52 DUP4 DUP4 DUP4 PUSH2 0x20D2 JUMP JUMPDEST POP POP POP JUMP JUMPDEST PUSH1 0x0 DUP4 DUP4 GT ISZERO DUP3 SWAP1 PUSH2 0x1C9F JUMPI PUSH1 0x40 MLOAD PUSH32 0x8C379A000000000000000000000000000000000000000000000000000000000 DUP2 MSTORE PUSH1 0x4 ADD PUSH2 0x1C96 SWAP2 SWAP1 PUSH2 0x2756 JUMP JUMPDEST PUSH1 0x40 MLOAD DUP1 SWAP2 SUB SWAP1 REVERT JUMPDEST POP PUSH1 0x0 DUP4 DUP6 PUSH2 0x1CAE SWAP2 SWAP1 PUSH2 0x3362 JUMP JUMPDEST SWAP1 POP DUP1 SWAP2 POP POP SWAP4 SWAP3 POP POP POP JUMP JUMPDEST PUSH1 0x0 DUP1 DUP4 SUB PUSH2 0x1CCD JUMPI PUSH1 0x0 SWAP1 POP PUSH2 0x1D2F JUMP JUMPDEST PUSH1 0x0 DUP3 DUP5 PUSH2 0x1CDB SWAP2 SWAP1 PUSH2 0x3396 JUMP JUMPDEST SWAP1 POP DUP3 DUP5 DUP3 PUSH2 0x1CEA SWAP2 SWAP1 PUSH2 0x341F JUMP JUMPDEST EQ PUSH2 0x1D2A JUMPI PUSH1 0x40 MLOAD PUSH32 0x8C379A000000000000000000000000000000000000000000000000000000000 DUP2 MSTORE PUSH1 0x4 ADD PUSH2 0x1D21 SWAP1 PUSH2 0x34C2 JUMP JUMPDEST PUSH1 0x40 MLOAD DUP1 SWAP2 SUB SWAP1 REVERT JUMPDEST DUP1 SWAP2 POP POP JUMPDEST SWAP3 SWAP2 POP POP JUMP JUMPDEST PUSH1 0x0 PUSH2 0x1D77 DUP4 DUP4 PUSH1 0x40 MLOAD DUP1 PUSH1 0x40 ADD PUSH1 0x40 MSTORE DUP1 PUSH1 0x1A DUP2 MSTORE PUSH1 0x20 ADD PUSH32 0x536166654D6174683A206469766973696F6E206279207A65726F000000000000 DUP2 MSTORE POP PUSH2 0x20E2 JUMP JUMPDEST SWAP1 POP SWAP3 SWAP2 POP POP JUMP JUMPDEST PUSH1 0xD PUSH1 0x0 SWAP1 SLOAD SWAP1 PUSH2 0x100 EXP SWAP1 DIV PUSH20 0xFFFFFFFFFFFFFFFFFFFFFFFFFFFFFFFFFFFFFFFF AND PUSH20 0xFFFFFFFFFFFFFFFFFFFFFFFFFFFFFFFFFFFFFFFF AND PUSH2 0x8FC DUP3 SWAP1 DUP2 ISZERO MUL SWAP1 PUSH1 0x40 MLOAD PUSH1 0x0 PUSH1 0x40 MLOAD DUP1 DUP4 SUB DUP2 DUP6 DUP9 DUP9 CALL SWAP4 POP POP POP POP ISZERO DUP1 ISZERO PUSH2 0x1DE7 JUMPI RETURNDATASIZE PUSH1 0x0 DUP1 RETURNDATACOPY RETURNDATASIZE PUSH1 0x0 REVERT JUMPDEST POP POP JUMP JUMPDEST PUSH1 0x0 PUSH1 0x8 SLOAD DUP3 GT ISZERO PUSH2 0x1E32 JUMPI PUSH1 0x40 MLOAD PUSH32 0x8C379A000000000000000000000000000000000000000000000000000000000 DUP2 MSTORE PUSH1 0x4 ADD PUSH2 0x1E29 SWAP1 PUSH2 0x3554 JUMP JUMPDEST PUSH1 0x40 MLOAD DUP1 SWAP2 SUB SWAP1 REVERT JUMPDEST PUSH1 0x0 PUSH2 0x1E3C PUSH2 0x2145 JUMP JUMPDEST SWAP1 POP PUSH2 0x1E51 DUP2 DUP5 PUSH2 0x1D35 SWAP1 SWAP2 SWAP1 PUSH4 0xFFFFFFFF AND JUMP JUMPDEST SWAP2 POP POP SWAP2 SWAP1 POP JUMP JUMPDEST PUSH1 0x1 PUSH1 0xF PUSH1 0x15 PUSH2 0x100 EXP DUP2 SLOAD DUP2 PUSH1 0xFF MUL NOT AND SWAP1 DUP4 ISZERO ISZERO MUL OR SWAP1 SSTORE POP PUSH1 0x0 PUSH1 0x2 PUSH8 0xFFFFFFFFFFFFFFFF DUP2 GT ISZERO PUSH2 0x1E91 JUMPI PUSH2 0x1E90 PUSH2 0x2A2C JUMP JUMPDEST JUMPDEST PUSH1 0x40 MLOAD SWAP1 DUP1 DUP3 MSTORE DUP1 PUSH1 0x20 MUL PUSH1 0x20 ADD DUP3 ADD PUSH1 0x40 MSTORE DUP1 ISZERO PUSH2 0x1EBF JUMPI DUP2 PUSH1 0x20 ADD PUSH1 0x20 DUP3 MUL DUP1 CALLDATASIZE DUP4 CALLDATACOPY DUP1 DUP3 ADD SWAP2 POP POP SWAP1 POP JUMPDEST POP SWAP1 POP ADDRESS DUP2 PUSH1 0x0 DUP2 MLOAD DUP2 LT PUSH2 0x1ED7 JUMPI PUSH2 0x1ED6 PUSH2 0x2EB4 JUMP JUMPDEST JUMPDEST PUSH1 0x20 MUL PUSH1 0x20 ADD ADD SWAP1 PUSH20 0xFFFFFFFFFFFFFFFFFFFFFFFFFFFFFFFFFFFFFFFF AND SWAP1 DUP2 PUSH20 0xFFFFFFFFFFFFFFFFFFFFFFFFFFFFFFFFFFFFFFFF AND DUP2 MSTORE POP POP PUSH1 0xE PUSH1 0x0 SWAP1 SLOAD SWAP1 PUSH2 0x100 EXP SWAP1 DIV PUSH20 0xFFFFFFFFFFFFFFFFFFFFFFFFFFFFFFFFFFFFFFFF AND PUSH20 0xFFFFFFFFFFFFFFFFFFFFFFFFFFFFFFFFFFFFFFFF AND PUSH4 0xAD5C4648 PUSH1 0x40 MLOAD DUP2 PUSH4 0xFFFFFFFF AND PUSH1 0xE0 SHL DUP2 MSTORE PUSH1 0x4 ADD PUSH1 0x20 PUSH1 0x40 MLOAD DUP1 DUP4 SUB DUP2 DUP7 GAS STATICCALL ISZERO DUP1 ISZERO PUSH2 0x1F7E JUMPI RETURNDATASIZE PUSH1 0x0 DUP1 RETURNDATACOPY RETURNDATASIZE PUSH1 0x0 REVERT JUMPDEST POP POP POP POP PUSH1 0x40 MLOAD RETURNDATASIZE PUSH1 0x1F NOT PUSH1 0x1F DUP3 ADD AND DUP3 ADD DUP1 PUSH1 0x40 MSTORE POP DUP2 ADD SWAP1 PUSH2 0x1FA2 SWAP2 SWAP1 PUSH2 0x2CE5 JUMP JUMPDEST DUP2 PUSH1 0x1 DUP2 MLOAD DUP2 LT PUSH2 0x1FB6 JUMPI PUSH2 0x1FB5 PUSH2 0x2EB4 JUMP JUMPDEST JUMPDEST PUSH1 0x20 MUL PUSH1 0x20 ADD ADD SWAP1 PUSH20 0xFFFFFFFFFFFFFFFFFFFFFFFFFFFFFFFFFFFFFFFF AND SWAP1 DUP2 PUSH20 0xFFFFFFFFFFFFFFFFFFFFFFFFFFFFFFFFFFFFFFFF AND DUP2 MSTORE POP POP PUSH2 0x201D ADDRESS PUSH1 0xE PUSH1 0x0 SWAP1 SLOAD SWAP1 PUSH2 0x100 EXP SWAP1 DIV PUSH20 0xFFFFFFFFFFFFFFFFFFFFFFFFFFFFFFFFFFFFFFFF AND DUP5 PUSH2 0x13FD JUMP JUMPDEST PUSH1 0xE PUSH1 0x0 SWAP1 SLOAD SWAP1 PUSH2 0x100 EXP SWAP1 DIV PUSH20 0xFFFFFFFFFFFFFFFFFFFFFFFFFFFFFFFFFFFFFFFF AND PUSH20 0xFFFFFFFFFFFFFFFFFFFFFFFFFFFFFFFFFFFFFFFF AND PUSH4 0x791AC947 DUP4 PUSH1 0x0 DUP5 ADDRESS TIMESTAMP PUSH1 0x40 MLOAD DUP7 PUSH4 0xFFFFFFFF AND PUSH1 0xE0 SHL DUP2 MSTORE PUSH1 0x4 ADD PUSH2 0x2081 SWAP6 SWAP5 SWAP4 SWAP3 SWAP2 SWAP1 PUSH2 0x3632 JUMP JUMPDEST PUSH1 0x0 PUSH1 0x40 MLOAD DUP1 DUP4 SUB DUP2 PUSH1 0x0 DUP8 DUP1 EXTCODESIZE ISZERO DUP1 ISZERO PUSH2 0x209B JUMPI PUSH1 0x0 DUP1 REVERT JUMPDEST POP GAS CALL ISZERO DUP1 ISZERO PUSH2 0x20AF JUMPI RETURNDATASIZE PUSH1 0x0 DUP1 RETURNDATACOPY RETURNDATASIZE PUSH1 0x0 REVERT JUMPDEST POP POP POP POP POP PUSH1 0x0 PUSH1 0xF PUSH1 0x15 PUSH2 0x100 EXP DUP2 SLOAD DUP2 PUSH1 0xFF MUL NOT AND SWAP1 DUP4 ISZERO ISZERO MUL OR SWAP1 SSTORE POP POP JUMP JUMPDEST PUSH2 0x20DD DUP4 DUP4 DUP4 PUSH2 0x2170 JUMP JUMPDEST POP POP POP JUMP JUMPDEST PUSH1 0x0 DUP1 DUP4 GT DUP3 SWAP1 PUSH2 0x2129 JUMPI PUSH1 0x40 MLOAD PUSH32 0x8C379A000000000000000000000000000000000000000000000000000000000 DUP2 MSTORE PUSH1 0x4 ADD PUSH2 0x2120 SWAP2 SWAP1 PUSH2 0x2756 JUMP JUMPDEST PUSH1 0x40 MLOAD DUP1 SWAP2 SUB SWAP1 REVERT JUMPDEST POP PUSH1 0x0 DUP4 DUP6 PUSH2 0x2138 SWAP2 SWAP1 PUSH2 0x341F JUMP JUMPDEST SWAP1 POP DUP1 SWAP2 POP POP SWAP4 SWAP3 POP POP POP JUMP JUMPDEST PUSH1 0x0 DUP1 PUSH1 0x0 PUSH2 0x2152 PUSH2 0x233B JUMP JUMPDEST SWAP2 POP SWAP2 POP PUSH2 0x2169 DUP2 DUP4 PUSH2 0x1D35 SWAP1 SWAP2 SWAP1 PUSH4 0xFFFFFFFF AND JUMP JUMPDEST SWAP3 POP POP POP SWAP1 JUMP JUMPDEST PUSH1 0x0 DUP1 PUSH1 0x0 DUP1 PUSH1 0x0 DUP1 PUSH2 0x2182 DUP8 PUSH2 0x2397 JUMP JUMPDEST SWAP6 POP SWAP6 POP SWAP6 POP SWAP6 POP SWAP6 POP SWAP6 POP PUSH2 0x21E0 DUP7 PUSH1 0x2 PUSH1 0x0 DUP13 PUSH20 0xFFFFFFFFFFFFFFFFFFFFFFFFFFFFFFFFFFFFFFFF AND PUSH20 0xFFFFFFFFFFFFFFFFFFFFFFFFFFFFFFFFFFFFFFFF AND DUP2 MSTORE PUSH1 0x20 ADD SWAP1 DUP2 MSTORE PUSH1 0x20 ADD PUSH1 0x0 KECCAK256 SLOAD PUSH2 0x23FF SWAP1 SWAP2 SWAP1 PUSH4 0xFFFFFFFF AND JUMP JUMPDEST PUSH1 0x2 PUSH1 0x0 DUP12 PUSH20 0xFFFFFFFFFFFFFFFFFFFFFFFFFFFFFFFFFFFFFFFF AND PUSH20 0xFFFFFFFFFFFFFFFFFFFFFFFFFFFFFFFFFFFFFFFF AND DUP2 MSTORE PUSH1 0x20 ADD SWAP1 DUP2 MSTORE PUSH1 0x20 ADD PUSH1 0x0 KECCAK256 DUP2 SWAP1 SSTORE POP PUSH2 0x2275 DUP6 PUSH1 0x2 PUSH1 0x0 DUP12 PUSH20 0xFFFFFFFFFFFFFFFFFFFFFFFFFFFFFFFFFFFFFFFF AND PUSH20 0xFFFFFFFFFFFFFFFFFFFFFFFFFFFFFFFFFFFFFFFF AND DUP2 MSTORE PUSH1 0x20 ADD SWAP1 DUP2 MSTORE PUSH1 0x20 ADD PUSH1 0x0 KECCAK256 SLOAD PUSH2 0x2449 SWAP1 SWAP2 SWAP1 PUSH4 0xFFFFFFFF AND JUMP JUMPDEST PUSH1 0x2 PUSH1 0x0 DUP11 PUSH20 0xFFFFFFFFFFFFFFFFFFFFFFFFFFFFFFFFFFFFFFFF AND PUSH20 0xFFFFFFFFFFFFFFFFFFFFFFFFFFFFFFFFFFFFFFFF AND DUP2 MSTORE PUSH1 0x20 ADD SWAP1 DUP2 MSTORE PUSH1 0x20 ADD PUSH1 0x0 KECCAK256 DUP2 SWAP1 SSTORE POP PUSH2 0x22C1 DUP2 PUSH2 0x24A7 JUMP JUMPDEST PUSH2 0x22CB DUP5 DUP4 PUSH2 0x2564 JUMP JUMPDEST DUP8 PUSH20 0xFFFFFFFFFFFFFFFFFFFFFFFFFFFFFFFFFFFFFFFF AND DUP10 PUSH20 0xFFFFFFFFFFFFFFFFFFFFFFFFFFFFFFFFFFFFFFFF AND PUSH32 0xDDF252AD1BE2C89B69C2B068FC378DAA952BA7F163C4A11628F55A4DF523B3EF DUP6 PUSH1 0x40 MLOAD PUSH2 0x2328 SWAP2 SWAP1 PUSH2 0x28A5 JUMP JUMPDEST PUSH1 0x40 MLOAD DUP1 SWAP2 SUB SWAP1 LOG3 POP POP POP POP POP POP POP POP POP JUMP JUMPDEST PUSH1 0x0 DUP1 PUSH1 0x0 PUSH1 0x8 SLOAD SWAP1 POP PUSH1 0x0 PUSH7 0x38D7EA4C68000 SWAP1 POP PUSH2 0x236D PUSH7 0x38D7EA4C68000 PUSH1 0x8 SLOAD PUSH2 0x1D35 SWAP1 SWAP2 SWAP1 PUSH4 0xFFFFFFFF AND JUMP JUMPDEST DUP3 LT ISZERO PUSH2 0x238A JUMPI PUSH1 0x8 SLOAD PUSH7 0x38D7EA4C68000 SWAP4 POP SWAP4 POP POP POP PUSH2 0x2393 JUMP JUMPDEST DUP2 DUP2 SWAP4 POP SWAP4 POP POP POP JUMPDEST SWAP1 SWAP2 JUMP JUMPDEST PUSH1 0x0 DUP1 PUSH1 0x0 DUP1 PUSH1 0x0 DUP1 PUSH1 0x0 DUP1 PUSH1 0x0 PUSH2 0x23B4 DUP11 PUSH1 0xB SLOAD PUSH1 0xC SLOAD PUSH2 0x259E JUMP JUMPDEST SWAP3 POP SWAP3 POP SWAP3 POP PUSH1 0x0 PUSH2 0x23C4 PUSH2 0x2145 JUMP JUMPDEST SWAP1 POP PUSH1 0x0 DUP1 PUSH1 0x0 PUSH2 0x23D7 DUP15 DUP8 DUP8 DUP8 PUSH2 0x2634 JUMP JUMPDEST SWAP3 POP SWAP3 POP SWAP3 POP DUP3 DUP3 DUP3 DUP10 DUP10 DUP10 SWAP13 POP SWAP13 POP SWAP13 POP SWAP13 POP SWAP13 POP SWAP13 POP POP POP POP POP POP POP POP SWAP2 SWAP4 SWAP6 POP SWAP2 SWAP4 SWAP6 JUMP JUMPDEST PUSH1 0x0 PUSH2 0x2441 DUP4 DUP4 PUSH1 0x40 MLOAD DUP1 PUSH1 0x40 ADD PUSH1 0x40 MSTORE DUP1 PUSH1 0x1E DUP2 MSTORE PUSH1 0x20 ADD PUSH32 0x536166654D6174683A207375627472616374696F6E206F766572666C6F770000 DUP2 MSTORE POP PUSH2 0x1C57 JUMP JUMPDEST SWAP1 POP SWAP3 SWAP2 POP POP JUMP JUMPDEST PUSH1 0x0 DUP1 DUP3 DUP5 PUSH2 0x2458 SWAP2 SWAP1 PUSH2 0x32A0 JUMP JUMPDEST SWAP1 POP DUP4 DUP2 LT ISZERO PUSH2 0x249D JUMPI PUSH1 0x40 MLOAD PUSH32 0x8C379A000000000000000000000000000000000000000000000000000000000 DUP2 MSTORE PUSH1 0x4 ADD PUSH2 0x2494 SWAP1 PUSH2 0x36D8 JUMP JUMPDEST PUSH1 0x40 MLOAD DUP1 SWAP2 SUB SWAP1 REVERT JUMPDEST DUP1 SWAP2 POP POP SWAP3 SWAP2 POP POP JUMP JUMPDEST PUSH1 0x0 PUSH2 0x24B1 PUSH2 0x2145 JUMP JUMPDEST SWAP1 POP PUSH1 0x0 PUSH2 0x24C8 DUP3 DUP5 PUSH2 0x1CBB SWAP1 SWAP2 SWAP1 PUSH4 0xFFFFFFFF AND JUMP JUMPDEST SWAP1 POP PUSH2 0x251C DUP2 PUSH1 0x2 PUSH1 0x0 ADDRESS PUSH20 0xFFFFFFFFFFFFFFFFFFFFFFFFFFFFFFFFFFFFFFFF AND PUSH20 0xFFFFFFFFFFFFFFFFFFFFFFFFFFFFFFFFFFFFFFFF AND DUP2 MSTORE PUSH1 0x20 ADD SWAP1 DUP2 MSTORE PUSH1 0x20 ADD PUSH1 0x0 KECCAK256 SLOAD PUSH2 0x2449 SWAP1 SWAP2 SWAP1 PUSH4 0xFFFFFFFF AND JUMP JUMPDEST PUSH1 0x2 PUSH1 0x0 ADDRESS PUSH20 0xFFFFFFFFFFFFFFFFFFFFFFFFFFFFFFFFFFFFFFFF AND PUSH20 0xFFFFFFFFFFFFFFFFFFFFFFFFFFFFFFFFFFFFFFFF AND DUP2 MSTORE PUSH1 0x20 ADD SWAP1 DUP2 MSTORE PUSH1 0x20 ADD PUSH1 0x0 KECCAK256 DUP2 SWAP1 SSTORE POP POP POP POP JUMP JUMPDEST PUSH2 0x2579 DUP3 PUSH1 0x8 SLOAD PUSH2 0x23FF SWAP1 SWAP2 SWAP1 PUSH4 0xFFFFFFFF AND JUMP JUMPDEST PUSH1 0x8 DUP2 SWAP1 SSTORE POP PUSH2 0x2594 DUP2 PUSH1 0x9 SLOAD PUSH2 0x2449 SWAP1 SWAP2 SWAP1 PUSH4 0xFFFFFFFF AND JUMP JUMPDEST PUSH1 0x9 DUP2 SWAP1 SSTORE POP POP POP JUMP JUMPDEST PUSH1 0x0 DUP1 PUSH1 0x0 DUP1 PUSH2 0x25CA PUSH1 0x64 PUSH2 0x25BC DUP9 DUP11 PUSH2 0x1CBB SWAP1 SWAP2 SWAP1 PUSH4 0xFFFFFFFF AND JUMP JUMPDEST PUSH2 0x1D35 SWAP1 SWAP2 SWAP1 PUSH4 0xFFFFFFFF AND JUMP JUMPDEST SWAP1 POP PUSH1 0x0 PUSH2 0x25F4 PUSH1 0x64 PUSH2 0x25E6 DUP9 DUP12 PUSH2 0x1CBB SWAP1 SWAP2 SWAP1 PUSH4 0xFFFFFFFF AND JUMP JUMPDEST PUSH2 0x1D35 SWAP1 SWAP2 SWAP1 PUSH4 0xFFFFFFFF AND JUMP JUMPDEST SWAP1 POP PUSH1 0x0 PUSH2 0x261D DUP3 PUSH2 0x260F DUP6 DUP13 PUSH2 0x23FF SWAP1 SWAP2 SWAP1 PUSH4 0xFFFFFFFF AND JUMP JUMPDEST PUSH2 0x23FF SWAP1 SWAP2 SWAP1 PUSH4 0xFFFFFFFF AND JUMP JUMPDEST SWAP1 POP DUP1 DUP4 DUP4 SWAP6 POP SWAP6 POP SWAP6 POP POP POP POP SWAP4 POP SWAP4 POP SWAP4 SWAP1 POP JUMP JUMPDEST PUSH1 0x0 DUP1 PUSH1 0x0 DUP1 PUSH2 0x264D DUP6 DUP10 PUSH2 0x1CBB SWAP1 SWAP2 SWAP1 PUSH4 0xFFFFFFFF AND JUMP JUMPDEST SWAP1 POP PUSH1 0x0 PUSH2 0x2664 DUP7 DUP10 PUSH2 0x1CBB SWAP1 SWAP2 SWAP1 PUSH4 0xFFFFFFFF AND JUMP JUMPDEST SWAP1 POP PUSH1 0x0 PUSH2 0x267B DUP8 DUP10 PUSH2 0x1CBB SWAP1 SWAP2 SWAP1 PUSH4 0xFFFFFFFF AND JUMP JUMPDEST SWAP1 POP PUSH1 0x0 PUSH2 0x26A4 DUP3 PUSH2 0x2696 DUP6 DUP8 PUSH2 0x23FF SWAP1 SWAP2 SWAP1 PUSH4 0xFFFFFFFF AND JUMP JUMPDEST PUSH2 0x23FF SWAP1 SWAP2 SWAP1 PUSH4 0xFFFFFFFF AND JUMP JUMPDEST SWAP1 POP DUP4 DUP2 DUP5 SWAP7 POP SWAP7 POP SWAP7 POP POP POP POP POP SWAP5 POP SWAP5 POP SWAP5 SWAP2 POP POP JUMP JUMPDEST PUSH1 0x0 DUP2 MLOAD SWAP1 POP SWAP2 SWAP1 POP JUMP JUMPDEST PUSH1 0x0 DUP3 DUP3 MSTORE PUSH1 0x20 DUP3 ADD SWAP1 POP SWAP3 SWAP2 POP POP JUMP JUMPDEST PUSH1 0x0 JUMPDEST DUP4 DUP2 LT ISZERO PUSH2 0x26F7 JUMPI DUP1 DUP3 ADD MLOAD DUP2 DUP5 ADD MSTORE PUSH1 0x20 DUP2 ADD SWAP1 POP PUSH2 0x26DC JUMP JUMPDEST DUP4 DUP2 GT ISZERO PUSH2 0x2706 JUMPI PUSH1 0x0 DUP5 DUP5 ADD MSTORE JUMPDEST POP POP POP POP JUMP JUMPDEST PUSH1 0x0 PUSH1 0x1F NOT PUSH1 0x1F DUP4 ADD AND SWAP1 POP SWAP2 SWAP1 POP JUMP JUMPDEST PUSH1 0x0 PUSH2 0x2728 DUP3 PUSH2 0x26BD JUMP JUMPDEST PUSH2 0x2732 DUP2 DUP6 PUSH2 0x26C8 JUMP JUMPDEST SWAP4 POP PUSH2 0x2742 DUP2 DUP6 PUSH1 0x20 DUP7 ADD PUSH2 0x26D9 JUMP JUMPDEST PUSH2 0x274B DUP2 PUSH2 0x270C JUMP JUMPDEST DUP5 ADD SWAP2 POP POP SWAP3 SWAP2 POP POP JUMP JUMPDEST PUSH1 0x0 PUSH1 0x20 DUP3 ADD SWAP1 POP DUP2 DUP2 SUB PUSH1 0x0 DUP4 ADD MSTORE PUSH2 0x2770 DUP2 DUP5 PUSH2 0x271D JUMP JUMPDEST SWAP1 POP SWAP3 SWAP2 POP POP JUMP JUMPDEST PUSH1 0x0 PUSH1 0x40 MLOAD SWAP1 POP SWAP1 JUMP JUMPDEST PUSH1 0x0 DUP1 REVERT JUMPDEST PUSH1 0x0 DUP1 REVERT JUMPDEST PUSH1 0x0 PUSH20 0xFFFFFFFFFFFFFFFFFFFFFFFFFFFFFFFFFFFFFFFF DUP3 AND SWAP1 POP SWAP2 SWAP1 POP JUMP JUMPDEST PUSH1 0x0 PUSH2 0x27B7 DUP3 PUSH2 0x278C JUMP JUMPDEST SWAP1 POP SWAP2 SWAP1 POP JUMP JUMPDEST PUSH2 0x27C7 DUP2 PUSH2 0x27AC JUMP JUMPDEST DUP2 EQ PUSH2 0x27D2 JUMPI PUSH1 0x0 DUP1 REVERT JUMPDEST POP JUMP JUMPDEST PUSH1 0x0 DUP2 CALLDATALOAD SWAP1 POP PUSH2 0x27E4 DUP2 PUSH2 0x27BE JUMP JUMPDEST SWAP3 SWAP2 POP POP JUMP JUMPDEST PUSH1 0x0 DUP2 SWAP1 POP SWAP2 SWAP1 POP JUMP JUMPDEST PUSH2 0x27FD DUP2 PUSH2 0x27EA JUMP JUMPDEST DUP2 EQ PUSH2 0x2808 JUMPI PUSH1 0x0 DUP1 REVERT JUMPDEST POP JUMP JUMPDEST PUSH1 0x0 DUP2 CALLDATALOAD SWAP1 POP PUSH2 0x281A DUP2 PUSH2 0x27F4 JUMP JUMPDEST SWAP3 SWAP2 POP POP JUMP JUMPDEST PUSH1 0x0 DUP1 PUSH1 0x40 DUP4 DUP6 SUB SLT ISZERO PUSH2 0x2837 JUMPI PUSH2 0x2836 PUSH2 0x2782 JUMP JUMPDEST JUMPDEST PUSH1 0x0 PUSH2 0x2845 DUP6 DUP3 DUP7 ADD PUSH2 0x27D5 JUMP JUMPDEST SWAP3 POP POP PUSH1 0x20 PUSH2 0x2856 DUP6 DUP3 DUP7 ADD PUSH2 0x280B JUMP JUMPDEST SWAP2 POP POP SWAP3 POP SWAP3 SWAP1 POP JUMP JUMPDEST PUSH1 0x0 DUP2 ISZERO ISZERO SWAP1 POP SWAP2 SWAP1 POP JUMP JUMPDEST PUSH2 0x2875 DUP2 PUSH2 0x2860 JUMP JUMPDEST DUP3 MSTORE POP POP JUMP JUMPDEST PUSH1 0x0 PUSH1 0x20 DUP3 ADD SWAP1 POP PUSH2 0x2890 PUSH1 0x0 DUP4 ADD DUP5 PUSH2 0x286C JUMP JUMPDEST SWAP3 SWAP2 POP POP JUMP JUMPDEST PUSH2 0x289F DUP2 PUSH2 0x27EA JUMP JUMPDEST DUP3 MSTORE POP POP JUMP JUMPDEST PUSH1 0x0 PUSH1 0x20 DUP3 ADD SWAP1 POP PUSH2 0x28BA PUSH1 0x0 DUP4 ADD DUP5 PUSH2 0x2896 JUMP JUMPDEST SWAP3 SWAP2 POP POP JUMP JUMPDEST PUSH1 0x0 DUP1 PUSH1 0x0 PUSH1 0x60 DUP5 DUP7 SUB SLT ISZERO PUSH2 0x28D9 JUMPI PUSH2 0x28D8 PUSH2 0x2782 JUMP JUMPDEST JUMPDEST PUSH1 0x0 PUSH2 0x28E7 DUP7 DUP3 DUP8 ADD PUSH2 0x27D5 JUMP JUMPDEST SWAP4 POP POP PUSH1 0x20 PUSH2 0x28F8 DUP7 DUP3 DUP8 ADD PUSH2 0x27D5 JUMP JUMPDEST SWAP3 POP POP PUSH1 0x40 PUSH2 0x2909 DUP7 DUP3 DUP8 ADD PUSH2 0x280B JUMP JUMPDEST SWAP2 POP POP SWAP3 POP SWAP3 POP SWAP3 JUMP JUMPDEST PUSH1 0x0 PUSH1 0x20 DUP3 DUP5 SUB SLT ISZERO PUSH2 0x2929 JUMPI PUSH2 0x2928 PUSH2 0x2782 JUMP JUMPDEST JUMPDEST PUSH1 0x0 PUSH2 0x2937 DUP5 DUP3 DUP6 ADD PUSH2 0x27D5 JUMP JUMPDEST SWAP2 POP POP SWAP3 SWAP2 POP POP JUMP JUMPDEST PUSH1 0x0 PUSH1 0xFF DUP3 AND SWAP1 POP SWAP2 SWAP1 POP JUMP JUMPDEST PUSH2 0x2956 DUP2 PUSH2 0x2940 JUMP JUMPDEST DUP3 MSTORE POP POP JUMP JUMPDEST PUSH1 0x0 PUSH1 0x20 DUP3 ADD SWAP1 POP PUSH2 0x2971 PUSH1 0x0 DUP4 ADD DUP5 PUSH2 0x294D JUMP JUMPDEST SWAP3 SWAP2 POP POP JUMP JUMPDEST PUSH2 0x2980 DUP2 PUSH2 0x2860 JUMP JUMPDEST DUP2 EQ PUSH2 0x298B JUMPI PUSH1 0x0 DUP1 REVERT JUMPDEST POP JUMP JUMPDEST PUSH1 0x0 DUP2 CALLDATALOAD SWAP1 POP PUSH2 0x299D DUP2 PUSH2 0x2977 JUMP JUMPDEST SWAP3 SWAP2 POP POP JUMP JUMPDEST PUSH1 0x0 PUSH1 0x20 DUP3 DUP5 SUB SLT ISZERO PUSH2 0x29B9 JUMPI PUSH2 0x29B8 PUSH2 0x2782 JUMP JUMPDEST JUMPDEST PUSH1 0x0 PUSH2 0x29C7 DUP5 DUP3 DUP6 ADD PUSH2 0x298E JUMP JUMPDEST SWAP2 POP POP SWAP3 SWAP2 POP POP JUMP JUMPDEST PUSH1 0x0 PUSH1 0x20 DUP3 DUP5 SUB SLT ISZERO PUSH2 0x29E6 JUMPI PUSH2 0x29E5 PUSH2 0x2782 JUMP JUMPDEST JUMPDEST PUSH1 0x0 PUSH2 0x29F4 DUP5 DUP3 DUP6 ADD PUSH2 0x280B JUMP JUMPDEST SWAP2 POP POP SWAP3 SWAP2 POP POP JUMP JUMPDEST PUSH2 0x2A06 DUP2 PUSH2 0x27AC JUMP JUMPDEST DUP3 MSTORE POP POP JUMP JUMPDEST PUSH1 0x0 PUSH1 0x20 DUP3 ADD SWAP1 POP PUSH2 0x2A21 PUSH1 0x0 DUP4 ADD DUP5 PUSH2 0x29FD JUMP JUMPDEST SWAP3 SWAP2 POP POP JUMP JUMPDEST PUSH1 0x0 DUP1 REVERT JUMPDEST PUSH32 0x4E487B7100000000000000000000000000000000000000000000000000000000 PUSH1 0x0 MSTORE PUSH1 0x41 PUSH1 0x4 MSTORE PUSH1 0x24 PUSH1 0x0 REVERT JUMPDEST PUSH2 0x2A64 DUP3 PUSH2 0x270C JUMP JUMPDEST DUP2 ADD DUP2 DUP2 LT PUSH8 0xFFFFFFFFFFFFFFFF DUP3 GT OR ISZERO PUSH2 0x2A83 JUMPI PUSH2 0x2A82 PUSH2 0x2A2C JUMP JUMPDEST JUMPDEST DUP1 PUSH1 0x40 MSTORE POP POP POP JUMP JUMPDEST PUSH1 0x0 PUSH2 0x2A96 PUSH2 0x2778 JUMP JUMPDEST SWAP1 POP PUSH2 0x2AA2 DUP3 DUP3 PUSH2 0x2A5B JUMP JUMPDEST SWAP2 SWAP1 POP JUMP JUMPDEST PUSH1 0x0 PUSH8 0xFFFFFFFFFFFFFFFF DUP3 GT ISZERO PUSH2 0x2AC2 JUMPI PUSH2 0x2AC1 PUSH2 0x2A2C JUMP JUMPDEST JUMPDEST PUSH1 0x20 DUP3 MUL SWAP1 POP PUSH1 0x20 DUP2 ADD SWAP1 POP SWAP2 SWAP1 POP JUMP JUMPDEST PUSH1 0x0 DUP1 REVERT JUMPDEST PUSH1 0x0 PUSH2 0x2AEB PUSH2 0x2AE6 DUP5 PUSH2 0x2AA7 JUMP JUMPDEST PUSH2 0x2A8C JUMP JUMPDEST SWAP1 POP DUP1 DUP4 DUP3 MSTORE PUSH1 0x20 DUP3 ADD SWAP1 POP PUSH1 0x20 DUP5 MUL DUP4 ADD DUP6 DUP2 GT ISZERO PUSH2 0x2B0E JUMPI PUSH2 0x2B0D PUSH2 0x2AD3 JUMP JUMPDEST JUMPDEST DUP4 JUMPDEST DUP2 DUP2 LT ISZERO PUSH2 0x2B37 JUMPI DUP1 PUSH2 0x2B23 DUP9 DUP3 PUSH2 0x27D5 JUMP JUMPDEST DUP5 MSTORE PUSH1 0x20 DUP5 ADD SWAP4 POP POP PUSH1 0x20 DUP2 ADD SWAP1 POP PUSH2 0x2B10 JUMP JUMPDEST POP POP POP SWAP4 SWAP3 POP POP POP JUMP JUMPDEST PUSH1 0x0 DUP3 PUSH1 0x1F DUP4 ADD SLT PUSH2 0x2B56 JUMPI PUSH2 0x2B55 PUSH2 0x2A27 JUMP JUMPDEST JUMPDEST DUP2 CALLDATALOAD PUSH2 0x2B66 DUP5 DUP3 PUSH1 0x20 DUP7 ADD PUSH2 0x2AD8 JUMP JUMPDEST SWAP2 POP POP SWAP3 SWAP2 POP POP JUMP JUMPDEST PUSH1 0x0 PUSH1 0x20 DUP3 DUP5 SUB SLT ISZERO PUSH2 0x2B85 JUMPI PUSH2 0x2B84 PUSH2 0x2782 JUMP JUMPDEST JUMPDEST PUSH1 0x0 DUP3 ADD CALLDATALOAD PUSH8 0xFFFFFFFFFFFFFFFF DUP2 GT ISZERO PUSH2 0x2BA3 JUMPI PUSH2 0x2BA2 PUSH2 0x2787 JUMP JUMPDEST JUMPDEST PUSH2 0x2BAF DUP5 DUP3 DUP6 ADD PUSH2 0x2B41 JUMP JUMPDEST SWAP2 POP POP SWAP3 SWAP2 POP POP JUMP JUMPDEST PUSH1 0x0 DUP1 PUSH1 0x40 DUP4 DUP6 SUB SLT ISZERO PUSH2 0x2BCF JUMPI PUSH2 0x2BCE PUSH2 0x2782 JUMP JUMPDEST JUMPDEST PUSH1 0x0 PUSH2 0x2BDD DUP6 DUP3 DUP7 ADD PUSH2 0x27D5 JUMP JUMPDEST SWAP3 POP POP PUSH1 0x20 PUSH2 0x2BEE DUP6 DUP3 DUP7 ADD PUSH2 0x27D5 JUMP JUMPDEST SWAP2 POP POP SWAP3 POP SWAP3 SWAP1 POP JUMP JUMPDEST PUSH32 0x4F776E61626C653A2063616C6C6572206973206E6F7420746865206F776E6572 PUSH1 0x0 DUP3 ADD MSTORE POP JUMP JUMPDEST PUSH1 0x0 PUSH2 0x2C2E PUSH1 0x20 DUP4 PUSH2 0x26C8 JUMP JUMPDEST SWAP2 POP PUSH2 0x2C39 DUP3 PUSH2 0x2BF8 JUMP JUMPDEST PUSH1 0x20 DUP3 ADD SWAP1 POP SWAP2 SWAP1 POP JUMP JUMPDEST PUSH1 0x0 PUSH1 0x20 DUP3 ADD SWAP1 POP DUP2 DUP2 SUB PUSH1 0x0 DUP4 ADD MSTORE PUSH2 0x2C5D DUP2 PUSH2 0x2C21 JUMP JUMPDEST SWAP1 POP SWAP2 SWAP1 POP JUMP JUMPDEST PUSH32 0x74726164696E6720697320616C7265616479206F70656E000000000000000000 PUSH1 0x0 DUP3 ADD MSTORE POP JUMP JUMPDEST PUSH1 0x0 PUSH2 0x2C9A PUSH1 0x17 DUP4 PUSH2 0x26C8 JUMP JUMPDEST SWAP2 POP PUSH2 0x2CA5 DUP3 PUSH2 0x2C64 JUMP JUMPDEST PUSH1 0x20 DUP3 ADD SWAP1 POP SWAP2 SWAP1 POP JUMP JUMPDEST PUSH1 0x0 PUSH1 0x20 DUP3 ADD SWAP1 POP DUP2 DUP2 SUB PUSH1 0x0 DUP4 ADD MSTORE PUSH2 0x2CC9 DUP2 PUSH2 0x2C8D JUMP JUMPDEST SWAP1 POP SWAP2 SWAP1 POP JUMP JUMPDEST PUSH1 0x0 DUP2 MLOAD SWAP1 POP PUSH2 0x2CDF DUP2 PUSH2 0x27BE JUMP JUMPDEST SWAP3 SWAP2 POP POP JUMP JUMPDEST PUSH1 0x0 PUSH1 0x20 DUP3 DUP5 SUB SLT ISZERO PUSH2 0x2CFB JUMPI PUSH2 0x2CFA PUSH2 0x2782 JUMP JUMPDEST JUMPDEST PUSH1 0x0 PUSH2 0x2D09 DUP5 DUP3 DUP6 ADD PUSH2 0x2CD0 JUMP JUMPDEST SWAP2 POP POP SWAP3 SWAP2 POP POP JUMP JUMPDEST PUSH1 0x0 PUSH1 0x40 DUP3 ADD SWAP1 POP PUSH2 0x2D27 PUSH1 0x0 DUP4 ADD DUP6 PUSH2 0x29FD JUMP JUMPDEST PUSH2 0x2D34 PUSH1 0x20 DUP4 ADD DUP5 PUSH2 0x29FD JUMP JUMPDEST SWAP4 SWAP3 POP POP POP JUMP JUMPDEST PUSH1 0x0 DUP2 SWAP1 POP SWAP2 SWAP1 POP JUMP JUMPDEST PUSH1 0x0 DUP2 SWAP1 POP SWAP2 SWAP1 POP JUMP JUMPDEST PUSH1 0x0 PUSH2 0x2D6A PUSH2 0x2D65 PUSH2 0x2D60 DUP5 PUSH2 0x2D3B JUMP JUMPDEST PUSH2 0x2D45 JUMP JUMPDEST PUSH2 0x27EA JUMP JUMPDEST SWAP1 POP SWAP2 SWAP1 POP JUMP JUMPDEST PUSH2 0x2D7A DUP2 PUSH2 0x2D4F JUMP JUMPDEST DUP3 MSTORE POP POP JUMP JUMPDEST PUSH1 0x0 PUSH1 0xC0 DUP3 ADD SWAP1 POP PUSH2 0x2D95 PUSH1 0x0 DUP4 ADD DUP10 PUSH2 0x29FD JUMP JUMPDEST PUSH2 0x2DA2 PUSH1 0x20 DUP4 ADD DUP9 PUSH2 0x2896 JUMP JUMPDEST PUSH2 0x2DAF PUSH1 0x40 DUP4 ADD DUP8 PUSH2 0x2D71 JUMP JUMPDEST PUSH2 0x2DBC PUSH1 0x60 DUP4 ADD DUP7 PUSH2 0x2D71 JUMP JUMPDEST PUSH2 0x2DC9 PUSH1 0x80 DUP4 ADD DUP6 PUSH2 0x29FD JUMP JUMPDEST PUSH2 0x2DD6 PUSH1 0xA0 DUP4 ADD DUP5 PUSH2 0x2896 JUMP JUMPDEST SWAP8 SWAP7 POP POP POP POP POP POP POP JUMP JUMPDEST PUSH1 0x0 DUP2 MLOAD SWAP1 POP PUSH2 0x2DF0 DUP2 PUSH2 0x27F4 JUMP JUMPDEST SWAP3 SWAP2 POP POP JUMP JUMPDEST PUSH1 0x0 DUP1 PUSH1 0x0 PUSH1 0x60 DUP5 DUP7 SUB SLT ISZERO PUSH2 0x2E0F JUMPI PUSH2 0x2E0E PUSH2 0x2782 JUMP JUMPDEST JUMPDEST PUSH1 0x0 PUSH2 0x2E1D DUP7 DUP3 DUP8 ADD PUSH2 0x2DE1 JUMP JUMPDEST SWAP4 POP POP PUSH1 0x20 PUSH2 0x2E2E DUP7 DUP3 DUP8 ADD PUSH2 0x2DE1 JUMP JUMPDEST SWAP3 POP POP PUSH1 0x40 PUSH2 0x2E3F DUP7 DUP3 DUP8 ADD PUSH2 0x2DE1 JUMP JUMPDEST SWAP2 POP POP SWAP3 POP SWAP3 POP SWAP3 JUMP JUMPDEST PUSH1 0x0 PUSH1 0x40 DUP3 ADD SWAP1 POP PUSH2 0x2E5E PUSH1 0x0 DUP4 ADD DUP6 PUSH2 0x29FD JUMP JUMPDEST PUSH2 0x2E6B PUSH1 0x20 DUP4 ADD DUP5 PUSH2 0x2896 JUMP JUMPDEST SWAP4 SWAP3 POP POP POP JUMP JUMPDEST PUSH1 0x0 DUP2 MLOAD SWAP1 POP PUSH2 0x2E81 DUP2 PUSH2 0x2977 JUMP JUMPDEST SWAP3 SWAP2 POP POP JUMP JUMPDEST PUSH1 0x0 PUSH1 0x20 DUP3 DUP5 SUB SLT ISZERO PUSH2 0x2E9D JUMPI PUSH2 0x2E9C PUSH2 0x2782 JUMP JUMPDEST JUMPDEST PUSH1 0x0 PUSH2 0x2EAB DUP5 DUP3 DUP6 ADD PUSH2 0x2E72 JUMP JUMPDEST SWAP2 POP POP SWAP3 SWAP2 POP POP JUMP JUMPDEST PUSH32 0x4E487B7100000000000000000000000000000000000000000000000000000000 PUSH1 0x0 MSTORE PUSH1 0x32 PUSH1 0x4 MSTORE PUSH1 0x24 PUSH1 0x0 REVERT JUMPDEST PUSH32 0x4E487B7100000000000000000000000000000000000000000000000000000000 PUSH1 0x0 MSTORE PUSH1 0x11 PUSH1 0x4 MSTORE PUSH1 0x24 PUSH1 0x0 REVERT JUMPDEST PUSH1 0x0 PUSH2 0x2F1D DUP3 PUSH2 0x27EA JUMP JUMPDEST SWAP2 POP PUSH32 0xFFFFFFFFFFFFFFFFFFFFFFFFFFFFFFFFFFFFFFFFFFFFFFFFFFFFFFFFFFFFFFFF DUP3 SUB PUSH2 0x2F4F JUMPI PUSH2 0x2F4E PUSH2 0x2EE3 JUMP JUMPDEST JUMPDEST PUSH1 0x1 DUP3 ADD SWAP1 POP SWAP2 SWAP1 POP JUMP JUMPDEST PUSH32 0x45524332303A20617070726F76652066726F6D20746865207A65726F20616464 PUSH1 0x0 DUP3 ADD MSTORE PUSH32 0x7265737300000000000000000000000000000000000000000000000000000000 PUSH1 0x20 DUP3 ADD MSTORE POP JUMP JUMPDEST PUSH1 0x0 PUSH2 0x2FB6 PUSH1 0x24 DUP4 PUSH2 0x26C8 JUMP JUMPDEST SWAP2 POP PUSH2 0x2FC1 DUP3 PUSH2 0x2F5A JUMP JUMPDEST PUSH1 0x40 DUP3 ADD SWAP1 POP SWAP2 SWAP1 POP JUMP JUMPDEST PUSH1 0x0 PUSH1 0x20 DUP3 ADD SWAP1 POP DUP2 DUP2 SUB PUSH1 0x0 DUP4 ADD MSTORE PUSH2 0x2FE5 DUP2 PUSH2 0x2FA9 JUMP JUMPDEST SWAP1 POP SWAP2 SWAP1 POP JUMP JUMPDEST PUSH32 0x45524332303A20617070726F766520746F20746865207A65726F206164647265 PUSH1 0x0 DUP3 ADD MSTORE PUSH32 0x7373000000000000000000000000000000000000000000000000000000000000 PUSH1 0x20 DUP3 ADD MSTORE POP JUMP JUMPDEST PUSH1 0x0 PUSH2 0x3048 PUSH1 0x22 DUP4 PUSH2 0x26C8 JUMP JUMPDEST SWAP2 POP PUSH2 0x3053 DUP3 PUSH2 0x2FEC JUMP JUMPDEST PUSH1 0x40 DUP3 ADD SWAP1 POP SWAP2 SWAP1 POP JUMP JUMPDEST PUSH1 0x0 PUSH1 0x20 DUP3 ADD SWAP1 POP DUP2 DUP2 SUB PUSH1 0x0 DUP4 ADD MSTORE PUSH2 0x3077 DUP2 PUSH2 0x303B JUMP JUMPDEST SWAP1 POP SWAP2 SWAP1 POP JUMP JUMPDEST PUSH32 0x45524332303A207472616E736665722066726F6D20746865207A65726F206164 PUSH1 0x0 DUP3 ADD MSTORE PUSH32 0x6472657373000000000000000000000000000000000000000000000000000000 PUSH1 0x20 DUP3 ADD MSTORE POP JUMP JUMPDEST PUSH1 0x0 PUSH2 0x30DA PUSH1 0x25 DUP4 PUSH2 0x26C8 JUMP JUMPDEST SWAP2 POP PUSH2 0x30E5 DUP3 PUSH2 0x307E JUMP JUMPDEST PUSH1 0x40 DUP3 ADD SWAP1 POP SWAP2 SWAP1 POP JUMP JUMPDEST PUSH1 0x0 PUSH1 0x20 DUP3 ADD SWAP1 POP DUP2 DUP2 SUB PUSH1 0x0 DUP4 ADD MSTORE PUSH2 0x3109 DUP2 PUSH2 0x30CD JUMP JUMPDEST SWAP1 POP SWAP2 SWAP1 POP JUMP JUMPDEST PUSH32 0x45524332303A207472616E7366657220746F20746865207A65726F2061646472 PUSH1 0x0 DUP3 ADD MSTORE PUSH32 0x6573730000000000000000000000000000000000000000000000000000000000 PUSH1 0x20 DUP3 ADD MSTORE POP JUMP JUMPDEST PUSH1 0x0 PUSH2 0x316C PUSH1 0x23 DUP4 PUSH2 0x26C8 JUMP JUMPDEST SWAP2 POP PUSH2 0x3177 DUP3 PUSH2 0x3110 JUMP JUMPDEST PUSH1 0x40 DUP3 ADD SWAP1 POP SWAP2 SWAP1 POP JUMP JUMPDEST PUSH1 0x0 PUSH1 0x20 DUP3 ADD SWAP1 POP DUP2 DUP2 SUB PUSH1 0x0 DUP4 ADD MSTORE PUSH2 0x319B DUP2 PUSH2 0x315F JUMP JUMPDEST SWAP1 POP SWAP2 SWAP1 POP JUMP JUMPDEST PUSH32 0x5472616E7366657220616D6F756E74206D757374206265206772656174657220 PUSH1 0x0 DUP3 ADD MSTORE PUSH32 0x7468616E207A65726F0000000000000000000000000000000000000000000000 PUSH1 0x20 DUP3 ADD MSTORE POP JUMP JUMPDEST PUSH1 0x0 PUSH2 0x31FE PUSH1 0x29 DUP4 PUSH2 0x26C8 JUMP JUMPDEST SWAP2 POP PUSH2 0x3209 DUP3 PUSH2 0x31A2 JUMP JUMPDEST PUSH1 0x40 DUP3 ADD SWAP1 POP SWAP2 SWAP1 POP JUMP JUMPDEST PUSH1 0x0 PUSH1 0x20 DUP3 ADD SWAP1 POP DUP2 DUP2 SUB PUSH1 0x0 DUP4 ADD MSTORE PUSH2 0x322D DUP2 PUSH2 0x31F1 JUMP JUMPDEST SWAP1 POP SWAP2 SWAP1 POP JUMP JUMPDEST PUSH32 0x4578636565647320746865205F6D61785478416D6F756E742E00000000000000 PUSH1 0x0 DUP3 ADD MSTORE POP JUMP JUMPDEST PUSH1 0x0 PUSH2 0x326A PUSH1 0x19 DUP4 PUSH2 0x26C8 JUMP JUMPDEST SWAP2 POP PUSH2 0x3275 DUP3 PUSH2 0x3234 JUMP JUMPDEST PUSH1 0x20 DUP3 ADD SWAP1 POP SWAP2 SWAP1 POP JUMP JUMPDEST PUSH1 0x0 PUSH1 0x20 DUP3 ADD SWAP1 POP DUP2 DUP2 SUB PUSH1 0x0 DUP4 ADD MSTORE PUSH2 0x3299 DUP2 PUSH2 0x325D JUMP JUMPDEST SWAP1 POP SWAP2 SWAP1 POP JUMP JUMPDEST PUSH1 0x0 PUSH2 0x32AB DUP3 PUSH2 0x27EA JUMP JUMPDEST SWAP2 POP PUSH2 0x32B6 DUP4 PUSH2 0x27EA JUMP JUMPDEST SWAP3 POP DUP3 PUSH32 0xFFFFFFFFFFFFFFFFFFFFFFFFFFFFFFFFFFFFFFFFFFFFFFFFFFFFFFFFFFFFFFFF SUB DUP3 GT ISZERO PUSH2 0x32EB JUMPI PUSH2 0x32EA PUSH2 0x2EE3 JUMP JUMPDEST JUMPDEST DUP3 DUP3 ADD SWAP1 POP SWAP3 SWAP2 POP POP JUMP JUMPDEST PUSH32 0x4578636565647320746865206D617857616C6C657453697A652E000000000000 PUSH1 0x0 DUP3 ADD MSTORE POP JUMP JUMPDEST PUSH1 0x0 PUSH2 0x332C PUSH1 0x1A DUP4 PUSH2 0x26C8 JUMP JUMPDEST SWAP2 POP PUSH2 0x3337 DUP3 PUSH2 0x32F6 JUMP JUMPDEST PUSH1 0x20 DUP3 ADD SWAP1 POP SWAP2 SWAP1 POP JUMP JUMPDEST PUSH1 0x0 PUSH1 0x20 DUP3 ADD SWAP1 POP DUP2 DUP2 SUB PUSH1 0x0 DUP4 ADD MSTORE PUSH2 0x335B DUP2 PUSH2 0x331F JUMP JUMPDEST SWAP1 POP SWAP2 SWAP1 POP JUMP JUMPDEST PUSH1 0x0 PUSH2 0x336D DUP3 PUSH2 0x27EA JUMP JUMPDEST SWAP2 POP PUSH2 0x3378 DUP4 PUSH2 0x27EA JUMP JUMPDEST SWAP3 POP DUP3 DUP3 LT ISZERO PUSH2 0x338B JUMPI PUSH2 0x338A PUSH2 0x2EE3 JUMP JUMPDEST JUMPDEST DUP3 DUP3 SUB SWAP1 POP SWAP3 SWAP2 POP POP JUMP JUMPDEST PUSH1 0x0 PUSH2 0x33A1 DUP3 PUSH2 0x27EA JUMP JUMPDEST SWAP2 POP PUSH2 0x33AC DUP4 PUSH2 0x27EA JUMP JUMPDEST SWAP3 POP DUP2 PUSH32 0xFFFFFFFFFFFFFFFFFFFFFFFFFFFFFFFFFFFFFFFFFFFFFFFFFFFFFFFFFFFFFFFF DIV DUP4 GT DUP3 ISZERO ISZERO AND ISZERO PUSH2 0x33E5 JUMPI PUSH2 0x33E4 PUSH2 0x2EE3 JUMP JUMPDEST JUMPDEST DUP3 DUP3 MUL SWAP1 POP SWAP3 SWAP2 POP POP JUMP JUMPDEST PUSH32 0x4E487B7100000000000000000000000000000000000000000000000000000000 PUSH1 0x0 MSTORE PUSH1 0x12 PUSH1 0x4 MSTORE PUSH1 0x24 PUSH1 0x0 REVERT JUMPDEST PUSH1 0x0 PUSH2 0x342A DUP3 PUSH2 0x27EA JUMP JUMPDEST SWAP2 POP PUSH2 0x3435 DUP4 PUSH2 0x27EA JUMP JUMPDEST SWAP3 POP DUP3 PUSH2 0x3445 JUMPI PUSH2 0x3444 PUSH2 0x33F0 JUMP JUMPDEST JUMPDEST DUP3 DUP3 DIV SWAP1 POP SWAP3 SWAP2 POP POP JUMP JUMPDEST PUSH32 0x536166654D6174683A206D756C7469706C69636174696F6E206F766572666C6F PUSH1 0x0 DUP3 ADD MSTORE PUSH32 0x7700000000000000000000000000000000000000000000000000000000000000 PUSH1 0x20 DUP3 ADD MSTORE POP JUMP JUMPDEST PUSH1 0x0 PUSH2 0x34AC PUSH1 0x21 DUP4 PUSH2 0x26C8 JUMP JUMPDEST SWAP2 POP PUSH2 0x34B7 DUP3 PUSH2 0x3450 JUMP JUMPDEST PUSH1 0x40 DUP3 ADD SWAP1 POP SWAP2 SWAP1 POP JUMP JUMPDEST PUSH1 0x0 PUSH1 0x20 DUP3 ADD SWAP1 POP DUP2 DUP2 SUB PUSH1 0x0 DUP4 ADD MSTORE PUSH2 0x34DB DUP2 PUSH2 0x349F JUMP JUMPDEST SWAP1 POP SWAP2 SWAP1 POP JUMP JUMPDEST PUSH32 0x416D6F756E74206D757374206265206C657373207468616E20746F74616C2072 PUSH1 0x0 DUP3 ADD MSTORE PUSH32 0x65666C656374696F6E7300000000000000000000000000000000000000000000 PUSH1 0x20 DUP3 ADD MSTORE POP JUMP JUMPDEST PUSH1 0x0 PUSH2 0x353E PUSH1 0x2A DUP4 PUSH2 0x26C8 JUMP JUMPDEST SWAP2 POP PUSH2 0x3549 DUP3 PUSH2 0x34E2 JUMP JUMPDEST PUSH1 0x40 DUP3 ADD SWAP1 POP SWAP2 SWAP1 POP JUMP JUMPDEST PUSH1 0x0 PUSH1 0x20 DUP3 ADD SWAP1 POP DUP2 DUP2 SUB PUSH1 0x0 DUP4 ADD MSTORE PUSH2 0x356D DUP2 PUSH2 0x3531 JUMP JUMPDEST SWAP1 POP SWAP2 SWAP1 POP JUMP JUMPDEST PUSH1 0x0 DUP2 MLOAD SWAP1 POP SWAP2 SWAP1 POP JUMP JUMPDEST PUSH1 0x0 DUP3 DUP3 MSTORE PUSH1 0x20 DUP3 ADD SWAP1 POP SWAP3 SWAP2 POP POP JUMP JUMPDEST PUSH1 0x0 DUP2 SWAP1 POP PUSH1 0x20 DUP3 ADD SWAP1 POP SWAP2 SWAP1 POP JUMP JUMPDEST PUSH2 0x35A9 DUP2 PUSH2 0x27AC JUMP JUMPDEST DUP3 MSTORE POP POP JUMP JUMPDEST PUSH1 0x0 PUSH2 0x35BB DUP4 DUP4 PUSH2 0x35A0 JUMP JUMPDEST PUSH1 0x20 DUP4 ADD SWAP1 POP SWAP3 SWAP2 POP POP JUMP JUMPDEST PUSH1 0x0 PUSH1 0x20 DUP3 ADD SWAP1 POP SWAP2 SWAP1 POP JUMP JUMPDEST PUSH1 0x0 PUSH2 0x35DF DUP3 PUSH2 0x3574 JUMP JUMPDEST PUSH2 0x35E9 DUP2 DUP6 PUSH2 0x357F JUMP JUMPDEST SWAP4 POP PUSH2 0x35F4 DUP4 PUSH2 0x3590 JUMP JUMPDEST DUP1 PUSH1 0x0 JUMPDEST DUP4 DUP2 LT ISZERO PUSH2 0x3625 JUMPI DUP2 MLOAD PUSH2 0x360C DUP9 DUP3 PUSH2 0x35AF JUMP JUMPDEST SWAP8 POP PUSH2 0x3617 DUP4 PUSH2 0x35C7 JUMP JUMPDEST SWAP3 POP POP PUSH1 0x1 DUP2 ADD SWAP1 POP PUSH2 0x35F8 JUMP JUMPDEST POP DUP6 SWAP4 POP POP POP POP SWAP3 SWAP2 POP POP JUMP JUMPDEST PUSH1 0x0 PUSH1 0xA0 DUP3 ADD SWAP1 POP PUSH2 0x3647 PUSH1 0x0 DUP4 ADD DUP9 PUSH2 0x2896 JUMP JUMPDEST PUSH2 0x3654 PUSH1 0x20 DUP4 ADD DUP8 PUSH2 0x2D71 JUMP JUMPDEST DUP2 DUP2 SUB PUSH1 0x40 DUP4 ADD MSTORE PUSH2 0x3666 DUP2 DUP7 PUSH2 0x35D4 JUMP JUMPDEST SWAP1 POP PUSH2 0x3675 PUSH1 0x60 DUP4 ADD DUP6 PUSH2 0x29FD JUMP JUMPDEST PUSH2 0x3682 PUSH1 0x80 DUP4 ADD DUP5 PUSH2 0x2896 JUMP JUMPDEST SWAP7 SWAP6 POP POP POP POP POP POP JUMP JUMPDEST PUSH32 0x536166654D6174683A206164646974696F6E206F766572666C6F770000000000 PUSH1 0x0 DUP3 ADD MSTORE POP JUMP JUMPDEST PUSH1 0x0 PUSH2 0x36C2 PUSH1 0x1B DUP4 PUSH2 0x26C8 JUMP JUMPDEST SWAP2 POP PUSH2 0x36CD DUP3 PUSH2 0x368C JUMP JUMPDEST PUSH1 0x20 DUP3 ADD SWAP1 POP SWAP2 SWAP1 POP JUMP JUMPDEST PUSH1 0x0 PUSH1 0x20 DUP3 ADD SWAP1 POP DUP2 DUP2 SUB PUSH1 0x0 DUP4 ADD MSTORE PUSH2 0x36F1 DUP2 PUSH2 0x36B5 JUMP JUMPDEST SWAP1 POP SWAP2 SWAP1 POP JUMP INVALID GASLIMIT MSTORE NUMBER ORIGIN ADDRESS GASPRICE KECCAK256 PUSH21 0x72616E7366657220616D6F756E7420657863656564 PUSH20 0x20616C6C6F77616E6365A2646970667358221220 0xC3 SWAP3 0xAB 0xCE 0xFC PUSH6 0x42333DE6A789 PUSH14 0xABBE7D32C3DBE6BAF3C3F0E2454E PUSH17 0x94443B3D64736F6C634300080F00330000 "
				},
				"gasEstimates": {
					"creation": {
						"codeDepositCost": "2833200",
						"executionCost": "infinite",
						"totalCost": "infinite"
					},
					"external": {
						"addbot(address[])": "infinite",
						"allowance(address,address)": "infinite",
						"approve(address,uint256)": "infinite",
						"balanceOf(address)": "infinite",
						"changeMaxTxAmount(uint256)": "infinite",
						"changeMaxWalletSize(uint256)": "infinite",
						"decimals()": "366",
						"delBot(address)": "27126",
						"manualsend()": "infinite",
						"manualswap()": "infinite",
						"name()": "infinite",
						"openTrading()": "infinite",
						"owner()": "2589",
						"removeLimits()": "46619",
						"renounceOwnership()": "30314",
						"setCooldownEnabled(bool)": "26976",
						"symbol()": "infinite",
						"totalSupply()": "405",
						"transfer(address,uint256)": "infinite",
						"transferFrom(address,address,uint256)": "infinite"
					},
					"internal": {
						"_approve(address,address,uint256)": "infinite",
						"_getCurrentSupply()": "infinite",
						"_getRValues(uint256,uint256,uint256,uint256)": "infinite",
						"_getRate()": "infinite",
						"_getTValues(uint256,uint256,uint256)": "infinite",
						"_getValues(uint256)": "infinite",
						"_reflectFee(uint256,uint256)": "infinite",
						"_takeTeam(uint256)": "infinite",
						"_tokenTransfer(address,address,uint256)": "infinite",
						"_transfer(address,address,uint256)": "infinite",
						"_transferStandard(address,address,uint256)": "infinite",
						"sendETHToFee(uint256)": "infinite",
						"swapTokensForEth(uint256)": "infinite",
						"tokenFromReflection(uint256)": "infinite"
					}
				},
				"methodIdentifiers": {
					"addbot(address[])": "ccfee5d6",
					"allowance(address,address)": "dd62ed3e",
					"approve(address,uint256)": "095ea7b3",
					"balanceOf(address)": "70a08231",
					"changeMaxTxAmount(uint256)": "677daa57",
					"changeMaxWalletSize(uint256)": "b87f137a",
					"decimals()": "313ce567",
					"delBot(address)": "273123b7",
					"manualsend()": "6fc3eaec",
					"manualswap()": "c3c8cd80",
					"name()": "06fdde03",
					"openTrading()": "c9567bf9",
					"owner()": "8da5cb5b",
					"removeLimits()": "751039fc",
					"renounceOwnership()": "715018a6",
					"setCooldownEnabled(bool)": "5932ead1",
					"symbol()": "95d89b41",
					"totalSupply()": "18160ddd",
					"transfer(address,uint256)": "a9059cbb",
					"transferFrom(address,address,uint256)": "23b872dd"
				}
			},
			"storageLayout": {
				"storage": [
					{
						"astId": 228,
						"contract": "ERC20Standard.sol:Labrador",
						"label": "_owner",
						"offset": 0,
						"slot": "0",
						"type": "t_address"
					},
					{
						"astId": 230,
						"contract": "ERC20Standard.sol:Labrador",
						"label": "_previousOwner",
						"offset": 0,
						"slot": "1",
						"type": "t_address"
					},
					{
						"astId": 368,
						"contract": "ERC20Standard.sol:Labrador",
						"label": "_rOwned",
						"offset": 0,
						"slot": "2",
						"type": "t_mapping(t_address,t_uint256)"
					},
					{
						"astId": 372,
						"contract": "ERC20Standard.sol:Labrador",
						"label": "_tOwned",
						"offset": 0,
						"slot": "3",
						"type": "t_mapping(t_address,t_uint256)"
					},
					{
						"astId": 378,
						"contract": "ERC20Standard.sol:Labrador",
						"label": "_allowances",
						"offset": 0,
						"slot": "4",
						"type": "t_mapping(t_address,t_mapping(t_address,t_uint256))"
					},
					{
						"astId": 382,
						"contract": "ERC20Standard.sol:Labrador",
						"label": "_isExcludedFromFee",
						"offset": 0,
						"slot": "5",
						"type": "t_mapping(t_address,t_bool)"
					},
					{
						"astId": 386,
						"contract": "ERC20Standard.sol:Labrador",
						"label": "bots",
						"offset": 0,
						"slot": "6",
						"type": "t_mapping(t_address,t_bool)"
					},
					{
						"astId": 390,
						"contract": "ERC20Standard.sol:Labrador",
						"label": "cooldown",
						"offset": 0,
						"slot": "7",
						"type": "t_mapping(t_address,t_uint256)"
					},
					{
						"astId": 413,
						"contract": "ERC20Standard.sol:Labrador",
						"label": "_rTotal",
						"offset": 0,
						"slot": "8",
						"type": "t_uint256"
					},
					{
						"astId": 415,
						"contract": "ERC20Standard.sol:Labrador",
						"label": "_tFeeTotal",
						"offset": 0,
						"slot": "9",
						"type": "t_uint256"
					},
					{
						"astId": 417,
						"contract": "ERC20Standard.sol:Labrador",
						"label": "_version",
						"offset": 0,
						"slot": "10",
						"type": "t_uint256"
					},
					{
						"astId": 419,
						"contract": "ERC20Standard.sol:Labrador",
						"label": "_feeAddr1",
						"offset": 0,
						"slot": "11",
						"type": "t_uint256"
					},
					{
						"astId": 421,
						"contract": "ERC20Standard.sol:Labrador",
						"label": "_feeAddr2",
						"offset": 0,
						"slot": "12",
						"type": "t_uint256"
					},
					{
						"astId": 423,
						"contract": "ERC20Standard.sol:Labrador",
						"label": "_feeAddrWallet",
						"offset": 0,
						"slot": "13",
						"type": "t_address_payable"
					},
					{
						"astId": 435,
						"contract": "ERC20Standard.sol:Labrador",
						"label": "uniswapV2Router",
						"offset": 0,
						"slot": "14",
						"type": "t_contract(IUniswapV2Router02)355"
					},
					{
						"astId": 437,
						"contract": "ERC20Standard.sol:Labrador",
						"label": "uniswapV2Pair",
						"offset": 0,
						"slot": "15",
						"type": "t_address"
					},
					{
						"astId": 439,
						"contract": "ERC20Standard.sol:Labrador",
						"label": "tradingOpen",
						"offset": 20,
						"slot": "15",
						"type": "t_bool"
					},
					{
						"astId": 442,
						"contract": "ERC20Standard.sol:Labrador",
						"label": "inSwap",
						"offset": 21,
						"slot": "15",
						"type": "t_bool"
					},
					{
						"astId": 445,
						"contract": "ERC20Standard.sol:Labrador",
						"label": "swapEnabled",
						"offset": 22,
						"slot": "15",
						"type": "t_bool"
					},
					{
						"astId": 448,
						"contract": "ERC20Standard.sol:Labrador",
						"label": "cooldownEnabled",
						"offset": 23,
						"slot": "15",
						"type": "t_bool"
					},
					{
						"astId": 451,
						"contract": "ERC20Standard.sol:Labrador",
						"label": "_maxTxAmount",
						"offset": 0,
						"slot": "16",
						"type": "t_uint256"
					},
					{
						"astId": 454,
						"contract": "ERC20Standard.sol:Labrador",
						"label": "_maxWalletSize",
						"offset": 0,
						"slot": "17",
						"type": "t_uint256"
					}
				],
				"types": {
					"t_address": {
						"encoding": "inplace",
						"label": "address",
						"numberOfBytes": "20"
					},
					"t_address_payable": {
						"encoding": "inplace",
						"label": "address payable",
						"numberOfBytes": "20"
					},
					"t_bool": {
						"encoding": "inplace",
						"label": "bool",
						"numberOfBytes": "1"
					},
					"t_contract(IUniswapV2Router02)355": {
						"encoding": "inplace",
						"label": "contract IUniswapV2Router02",
						"numberOfBytes": "20"
					},
					"t_mapping(t_address,t_bool)": {
						"encoding": "mapping",
						"key": "t_address",
						"label": "mapping(address => bool)",
						"numberOfBytes": "32",
						"value": "t_bool"
					},
					"t_mapping(t_address,t_mapping(t_address,t_uint256))": {
						"encoding": "mapping",
						"key": "t_address",
						"label": "mapping(address => mapping(address => uint256))",
						"numberOfBytes": "32",
						"value": "t_mapping(t_address,t_uint256)"
					},
					"t_mapping(t_address,t_uint256)": {
						"encoding": "mapping",
						"key": "t_address",
						"label": "mapping(address => uint256)",
						"numberOfBytes": "32",
						"value": "t_uint256"
					},
					"t_uint256": {
						"encoding": "inplace",
						"label": "uint256",
						"numberOfBytes": "32"
					}
				}
			},
			"userdoc": {
				"kind": "user",
				"methods": {},
				"version": 1
			}
		}
	}
}